:10000000C6C000000C943E150C946F150C94A015FE
:100010000C94D1150C9402160C9433160C9464169F
:100020000C949516DEC000000C94DC170C94461856
:10003000D8C00000D6C00000D4C00000D2C000006C
:10004000D0C00000CEC00000CCC00000CAC000007C
:10005000C8C00000C6C00000C4C000000C945B17FC
:10006000C0C00000BEC00000BCC00000BAC000009C
:10007000B8C00000B6C00000B4C00000B2C00000AC
:10008000B0C00000AEC00000ACC00000AAC00000BC
:10009000A8C00000A6C00000000100006A01120014
:1000A000020000D600730022010049012100210155
:1000B0000032010900030000D2000401030904C258
:1000C000000E0E035400650065006E007300790099
:1000D00000000403090409027300020100C0320990
:1000E0000400000201030000072401000141000692
:1000F0002402010100062402020200092403010374
:1001000001020100092403020401010100090504A0
:10011000024000000000052501010109058302409D
:10012000000000000525010103090401000203008D
:10013000000009211101000122210007058103406F
:1001400000010705020320000206C9FF0904A15CA3
:100150007508150026FF0095400975810295200954
:1001600076910295040976B102C0120100020000E6
:100170000040B016660472020001000101C13601A0
:10018000C0260181360180360C07FD0D620711245F
:100190001FBECFEFD0E2DEBFCDBF12E0A0E0B1E0E6
:1001A000E6E8F7E300E00BBF02C007900D92A03C29
:1001B000B107D9F724E0A0ECB2E001C01D92AA3546
:1001C000B207E1F710E0C6ECD0E004C02197FE01D1
:1001D0000E948A1BC43CD107C9F70E94FE190C94E7
:1001E000B51B0ECFA091C002B091C102109709F4C7
:1001F0000895ED91FC91119712968D919C91909399
:10020000C1028093C0020995EDCFCF93DF93EC013B
:1002100084E090E00E94141A009791F0FC01D183D1
:10022000C0832091C0023091C10233832283909316
:10023000C1028093C00290E080E0DF91CF910895E9
:1002400081E090E0FACF0895089508950895089503
:10025000089587E091E0089508950895CF93DF937E
:10026000CDB7DEB72A970FB6F894DEBF0FBECDBF6D
:100270002E833F83488759876A8725E0FE0136969B
:10028000DE01119601900D922A95E1F728853985B6
:10029000232BA1F0DC01ED91FC91028CF38DE02D7C
:1002A00029813A814B815C816D812A960FB6F89441
:1002B000DEBF0FBECDBFDF91CF9109942A960FB656
:1002C000F894DEBF0FBECDBFDF91CF910895683F98
:1002D00038F0DC01ED91FC91048CF58DE02D099452
:1002E00008950895AF92BF92CF92DF92EF92FF925E
:1002F0000F931F9381342FE1920710F080E49FE168
:10030000BC0190E080E01F921F922FE32F932FEF0C
:100310002F93A12CB12C650110E4E12E1FE1F12EE9
:1003200000E010E020E030E0A9010E94BF190F902A
:100330000F900F900F90CB011F910F91FF90EF90B6
:10034000DF90CF90BF90AF9008952BE531E0FC0196
:100350003183208321E831E0358324832FE831E0A5
:10036000318720872BE931E0378726870C94130EDD
:100370000E97EBCF0497E9CF0897E7CFCF93DF93A2
:10038000EC01E3DFCE01DF91CF910C94041A0497C6
:10039000F5CF0897F3CF0E97F1CF27EA31E0FC01B4
:1003A000318320832DEC31E0358324832BED31E044
:1003B0003187208727EE31E037872687C6CF0E9713
:1003C000ECCF0897EACF0497E8CFCF93DF93EC0107
:1003D000E4DFCE01DF91CF910C94041A0E97F5CF94
:1003E0000897F3CF0497F1CF242F287F203F59F4AB
:1003F000403F49F06F77DC01ED91FC91008CF18D6D
:10040000E02D5F7709940895CF93DF93EC018E81FF
:100410009F81DFD59C0174E0220F331F7A95E1F7AD
:10042000E6E096958795EA95E1F7282B392B8A85A2
:100430009B85280F391FC901029696958795969539
:100440008795281B390B3B872A87E885F9853097E4
:1004500009F009954C855D859A013695322F222742
:100460003795279520644115510549F0B9016F571B
:1004700071094F3F514018F58617970728F021580A
:100480003F4F28173907F0F4880F892F881F990BE1
:1004900091959D878C875E857F8550FF13C0472F80
:1004A0004F70569572957F70406B682F6F77809173
:1004B000ED039091EE03DF91CF910C94BC0B861766
:1004C000970710F3DF91CF910895CF93DF93FC014D
:1004D0008BE391E091838083309781F08091C20219
:1004E0009091C30222813381A481B581E817F90775
:1004F00041F02115310529F4109729F4DF91CF91AE
:100500000895109721F013963C932E931297209103
:10051000C4023091C502E217F30721F4B093C5027B
:10052000A093C402C281D381209711F0BD83AC8314
:10053000E817F90719F7D093C302C093C202DECFC0
:10054000CF93DF93EC01C1DFCE01DF91CF910C940B
:10055000041ACF93DF93FC0183E391E091838083BE
:10056000309781F08091C6029091C7022281338139
:10057000A481B581E817F90741F02115310529F467
:10058000109729F4DF91CF910895109721F01396D9
:100590003C932E9312972091C8023091C902E21722
:1005A000F30721F4B093C902A093C802C281D3819A
:1005B000209711F0BD83AC83E817F90719F7D093A2
:1005C000C702C093C602DECFCF93DF93EC01C1DF39
:1005D000CE01DF91CF910C94041A23E431E0FC01A9
:1005E0003183208372CFCF93DF93EC01F6DFCE010E
:1005F000DF91CF910C94041A2FE431E0FC01318398
:100600002083EBCFCF93DF93EC01F6DFCE01DF91B8
:10061000CF910C94041ACF93DF93EC018E819F81CC
:10062000D8D49C0144E0220F331F4A95E1F756E0ED
:10063000969587955A95E1F7822B932B9C01220F73
:10064000331F220F331F281B390B3B872A87880F44
:10065000892F881F990B91959D878C87DF91CF916A
:10066000089520E8240F203748F46F77DC01ED91DE
:10067000FC910688F789E02D5F7709940895CF9360
:10068000DF93FC0113821282178216828FE091E0C1
:100690009183808385E291E095838483CF010896DE
:1006A000138612861586148623E331E0318720876E
:1006B0002091C6023091C702232B21F49093C702E8
:1006C0008093C602A091C802B091C902B587A487E1
:1006D000109721F013969C938E9312979093C902D2
:1006E0008093C80213861286118A108A8091EF01C6
:1006F000138A148A158A868B178A808D807F808F53
:10070000818D807F818FDF015A9683E8ED011992F8
:100710008A95E9F7A058BF4F11961C921E92129627
:100720001C9211961D921D921D921C921397D496A5
:1007300080E1ED0119928A95E9F750961C9287EABB
:1007400091E0918380838DEC91E0958384838BEDA0
:1007500091E09187808787EE91E097878687DF9188
:10076000CF91089582E791E09093D3028093D202D3
:100770008091ED039091EE030C945E0CFF920F9329
:100780001F93CF93DF938C010D5E1F4FC8010E9412
:100790000015C82F81110AC084E0F82EDBE68FB760
:1007A000F89490915C04911108C08FBF8C2FDF9159
:1007B000CF911F910F91FF900895F092E9009091D1
:1007C000E80095FD05C092FFF0CFD093E800F7CF89
:1007D0004091F1005091F1006091F1007091F100B1
:1007E0009091E80095FFD093E8008FBF4423F1F289
:1007F000C8010E944214882391F2C82FD7CFBF921C
:10080000CF92DF92EF92FF920F931F93CF93DF93DC
:10081000CDB7DEB72A970FB6F894DEBF0FBECDBFB7
:10082000633009F491C0A8F4613069F1623009F4D1
:1008300040C02A960FB6F894DEBF0FBECDBFDF9141
:10084000CF911F910F91FF90EF90DF90CF90BF90CD
:100850000895643071F1653061F7FC014389548972
:10086000658976892A960FB6F894DEBF0FBECDBF94
:10087000DF91CF911F910F91FF90EF90DF90CF907C
:10088000BF900C94930EFC01438954896589768945
:100890002A960FB6F894DEBF0FBECDBFDF91CF9181
:1008A0001F910F91FF90EF90DF90CF90BF900C942D
:1008B0003A0E8C017C01F3E1EF0EF11CFC01818DFD
:1008C0008F7093E8B92E9701B89E200D311D112429
:1008D000C90107960E94A9136C01F801818D8F70E0
:1008E0009701B89E200D311D1124C90107960E9461
:1008F000AA13F801218D2F70DA82C9829C838B8321
:100900008D81807F822B8D8385E0FE013196DE0113
:10091000169601900D928A95E1F72E813F814885C8
:1009200059856A85C8012A960FB6F894DEBF0FBEB6
:10093000CDBFDF91CF911F910F91FF90EF90DF908E
:10094000CF90BF900C94600EFC016789708D2A9641
:100950000FB6F894DEBF0FBECDBFDF91CF911F91D0
:100960000F91FF90EF90DF90CF90BF900C94B90E55
:10097000CF92DF92EF92FF920F931F93CF93DF936B
:10098000EC016C0124E0C20ED11CC6010E94B11022
:100990007E012EE0E20EF11C209711F4F12CE12CE7
:1009A0008E159F0521F4B701C6010E94A210CE0149
:1009B000E5DE182F00E0112371F0612FCE011FDF5B
:1009C000143039F0123009F400E0CE01D7DE182FD0
:1009D000F2CF01E0FACF002361F0B701C601DF9149
:1009E000CF911F910F91FF90EF90DF90CF900C94DB
:1009F0009310DF91CF911F910F91FF90EF90DF90B7
:100A0000CF900895B5CF0897B3CF83EE92E0B0DFD3
:100A10008091ED039091EE030C94B30DCF92DF9291
:100A2000EF92FF921F93CF93DF93EC010496BE01E8
:100A3000625F7F4F209711F470E060E00E94A21087
:100A40000FB6F894C0904E04D0904F04E09050043C
:100A5000F09051040FBE0FB6F89480914E0490911F
:100A60004F04A0915004B09151040FBE8C199D0900
:100A7000AE09BF09843F9140A105B10550F4CE01F4
:100A80007DDE182F682FCE01BADE1430C9F2123085
:100A900011F7DF91CF911F91FF90EF90DF90CF90F2
:100AA0000895BCCF0E97BACFEF920F9380915C045C
:100AB000882389F16F708FB7F89493E09093E900E1
:100AC0009091E4009E5F33E05091E80055FD0EC028
:100AD0008FBF8091E4009817F1F080915C04882327
:100AE000D1F08FB7F8943093E900EECF90E1699F91
:100AF000B0011124642B6093F1002093F100009366
:100B0000F100E092F1009091E80095FD03C09AE3B6
:100B10009093E8008FBF0F91EF900895EF920F939D
:100B2000CF93DF9300D0CDB7DEB7262F9A8389838A
:100B3000E12C00E04FE0672FCE010196B5DF0F906A
:100B40000F90DF91CF910F91EF900895EF920F9357
:100B5000CF93DF9300D0CDB7DEB7242F052FE62E3D
:100B6000672F9A83898343E0223F31F0E12C42E0F2
:100B7000243F10F000E045E0CE01019695DF0F9094
:100B80000F90DF91CF910F91EF900895EF920F9317
:100B9000CF93DF9300D0CDB7DEB7242F9A8389831C
:100BA000842F90E034E0959587953A95E1F7E62E0D
:100BB000052F482F672FCE01019676DF0F900F90FB
:100BC000DF91CF910F91EF900895EF920F93FC0179
:100BD000CA01E2800181208144E066DF0F91EF903D
:100BE0000895EF920F931F93FB01622FC8014230CB
:100BF0005105A1F04330510541F04130510551F408
:100C0000E12C00E0208145E004C0E28001812081E8
:100C100047E04ADF1F910F91EF900895E12C018189
:100C2000208146E0F6CF2F923F924F925F926F92D3
:100C30007F928F929F92AF92BF92CF92DF92EF926C
:100C4000FF920F931F93CF93DF9300D000D000D07B
:100C5000CDB7DEB76C0129833A834B835C836D8308
:100C6000AB80BC80A114B10409F443C06E83962FFD
:100C70009F7029803A80492F50E0F1018081260140
:100C8000440E551E803F11F4F20110AAD1017501E6
:100C90003201F0E36F0E711C9A01220F331F240FF3
:100CA000351F2C0D3D1D4D01F3015081533008F0CF
:100CB0007CC081E0850F80834D91F901E50FF11D26
:100CC0004083F1E0EF1AF10871F7A20CB31CF501B3
:100CD00031972081273F31F5482F50E0B60123E0BE
:100CE000929F600D711D11242E81C6017ADFF301E0
:100CF000108226960FB6F894DEBF0FBECDBFDF91EF
:100D0000CF911F910F91FF90EF90DF90CF90BF9008
:100D1000AF909F908F907F906F905F904F903F909B
:100D20002F900895833029F7A8016E819601989F2E
:100D3000200D311D1124C90148DFD9CFA20CB31CED
:100D4000F50131978081873F49F043E0E416F104D3
:100D500069F4A8016E81C40138DF05C02E81A701A6
:100D6000B401C6013EDFF20110AAC3CFF201E0AA2E
:100D7000A701B401C30126960FB6F894DEBF0FBEDB
:100D8000CDBFDF91CF911F910F91FF90EF90DF903A
:100D9000CF90BF90AF909F908F907F906F905F901B
:100DA0004F903F902F900C94AC1B3601F3E09F9F27
:100DB000600C711C1124A8016E81C30106DFF4E0F0
:100DC000EF16F10408F4BACFA8016E81C401FDDE6C
:100DD00023E0820E911C33E0E31AF108F0CF0F9369
:100DE0001F93CF93DF9300D000D000D01F92CDB7D8
:100DF000DEB79A8389838E010F5F1F4F8F559F4FF8
:100E000012DF27960FB6F894DEBF0FBECDBFDF917D
:100E1000CF911F910F91089583EE92E030DC86E22E
:100E200090E09093DC028093DB021092DE0210923D
:100E3000DD021092E0021092DF021092E2021092A4
:100E4000E1028091C2029091C302892B31F48AECB5
:100E500092E09093C3028093C202E091C402F091A9
:100E6000C502F093CF02E093CE02309721F08AECD6
:100E700092E0938382838AEC92E09093C502809300
:100E8000C4021092CD021092CC021092D1021092A4
:100E9000D0021092D3021092D2021092D502109278
:100EA000D4021092D7021092D60289E08093D80221
:100EB00084E08093D9028FE491E09093CB028093F9
:100EC000CA0208958AEC92E097DB83EE92E065CA4D
:100ED000F8940E94131AFDCFCF93DF93C091C503FE
:100EE000D091C603209759F0E881F981008CF18DEB
:100EF000E02DCE0109950A80DB81C02DF3CFDF9173
:100F0000CF910895CF93DF93C091C503D091C603CD
:100F1000209759F0E881F981028CF38DE02DCE0104
:100F200009950A80DB81C02DF3CFDF91CF91089521
:100F3000CF93DF93C091C503D091C603209759F09A
:100F4000E881F981048CF58DE02DCE0109950A80A8
:100F5000DB81C02DF3CFDF91CF910895FC01828515
:100F600093850895FC0180859185089585EC93E033
:100F70000895EF92FF920F931F93CF93DF938C010D
:100F8000F5DFFC01C081D1812097A1F0CE01EADF1D
:100F90000817190778F0CE01E1DF7C01CE01E2DF0E
:100FA0000817190718F00E151F0530F00A80DB81AD
:100FB000C02DEACFD0E0C0E0CE01DF91CF911F91EC
:100FC0000F91FF90EF900895D4DF009709F480CF40
:100FD0000895EF92FF920F931F93CF93DF938115A4
:100FE00020E8920701F18633910540F4DF91CF911B
:100FF0001F910F91FF90EF900C940D17EC01E4DF1F
:101000008C01DC01ED91FC91E488F588ABDFBE0139
:10101000681B790BC801F701DF91CF911F910F91E8
:10102000FF90EF90099490E080E0DF91CF911F91C5
:101030000F91FF90EF900895DC015496ED91FC9193
:10104000309719F0CB01BA0109940895DC01569646
:10105000ED91FC91309711F0CB01099408950F9315
:101060001F93CF93DF93CDB7DEB72A970FB6F894CF
:10107000DEBF0FBECDBF2E833F83488759876A8767
:10108000DC015296ED91FC91309709F04AC085E061
:10109000FE013696DE01119601900D928A95E1F7D8
:1010A0000091CD031091CE030115110509F442C042
:1010B000D801ED91FC910284F385E02D29813A81DC
:1010C0004B815C816D81C8010995882309F447C073
:1010D000D8011496ED91FC911597309759F18481C0
:1010E000958112962D913C91009779F1DC01139630
:1010F0001C930E9312973383228315830483D801A4
:101100001396FC93EE93129715969C938E931497D7
:1011100021153105F9F0D9011596FC93EE9314973A
:1011200009C04E815F81688579858A850995882304
:1011300009F4ADCF2A960FB6F894DEBF0FBECDBF2F
:10114000DF91CF911F910F9108951093CE030093DB
:10115000CD03D1CFF093D003E093CF03EBCFF801D1
:1011600002811381A1CFEF92FF920F931F93CF9330
:10117000DF938A01F62EE72EDC015096ED91FC916B
:101180003097C1F4802F807F803B09F045C019372C
:1011900079F5C091DD03D091DE032097C1F0E8819D
:1011A000F9810680F781E02DCE0109950A80DB8167
:1011B000C02DF3CFBA018F2D9E2D0995882311F3F1
:1011C000DF91CF911F910F91FF90EF900895C09103
:1011D000D503D091D603209799F3E881F981068051
:1011E000F781E02DCE0109950A80DB81C02DF3CF78
:1011F0001B3709F0D9C0C091E503D091E6032097D1
:10120000F9F2E881F9810680F781E02DCE01099598
:101210000A80DB81C02DF3CF813BE8F5803929F0CE
:10122000803A09F484C0803859F6C091E503D09122
:10123000E603209729F2E881F9810284F385E02D05
:10124000A8016F2D7E2DCE010995882309F46BC06E
:10125000EC81FD81309709F4B3CF848195812A8197
:101260003B81009709F455C0DC011396DC93CE93C3
:10127000129733832283D583C483FB83EA839D83C0
:101280008C832115310509F449C0D9011596FC93C9
:10129000EE93149795CF803D09F4CCC0803E09F4BD
:1012A00006C1803C09F08CCFC091D903D091DA03FC
:1012B000209709F485CFE881F9810284F385E02D38
:1012C000A8016F2D7E2DCE010995882309F4AEC0AB
:1012D000EC81FD81309709F473CF848195812A8157
:1012E0003B81009709F49DC0DC011396DC93CE93FB
:1012F000129733832283D583C483FB83EA839D8340
:101300008C832115310509F6F093DC03E093DB03B0
:1013100057CFD093E603C093E503ABCFF093E80338
:10132000E093E7034DCF0A80DB81C02D82CFC091CF
:10133000E103D091E203209709F442CFE881F981DB
:101340000284F385E02DA8016F2D7E2DCE01099535
:10135000882331F1EC81FD81309709F431CF84810C
:1013600095812A813B810097B1F0DC011396DC93D3
:10137000CE93129733832283D583C483FB83EA837E
:101380009D838C832115310509F07FCFF093E40311
:10139000E093E30315CFD093E203C093E103EACFD8
:1013A0000A80DB81C02DC7CFC091DD03D091DE0361
:1013B000209709F405CFE881F9810284F385E02DB7
:1013C000A8016F2D7E2DCE010995882331F1EC8186
:1013D000FD81309709F4F4CE848195812A813B8187
:1013E0000097B1F0DC011396DC93CE931297338310
:1013F0002283D583C483FB83EA839D838C83211559
:10140000310509F042CFF093E003E093DF03D8CE3B
:10141000D093DE03C093DD03EACF0A80DB81C02DC9
:10142000C7CFD093DA03C093D90363CF0A80DB819F
:10143000C02D3ECFC091D503D091D603209709F49B
:10144000BFCEE881F9810284F385E02DA8016F2DDC
:101450007E2DCE010995882331F1EC81FD813097F5
:1014600009F4AECE848195812A813B810097B1F049
:10147000DC011396DC93CE93129733832283D583BA
:10148000C483FB83EA839D838C832115310509F096
:10149000FCCEF093D803E093D70392CED093D6033B
:1014A000C093D503EACF0A80DB81C02DC7CFC0919E
:1014B000D103D091D203209709F482CEE881F9813B
:1014C0000284F385E02DA8016F2D7E2DCE010995B4
:1014D000882331F1EC81FD81309709F471CE84814C
:1014E00095812A813B810097B1F0DC011396DC9352
:1014F000CE93129733832283D583C483FB83EA83FD
:101500009D838C832115310509F0BFCEF093D40360
:10151000E093D30355CED093D203C093D103EACF47
:101520000A80DB81C02DC7CFCF93DF93EC018FE022
:1015300091E09983888385E291E09D838C83CE013D
:101540000496D4D6CE01DF91CF91B9C60497ECCFE3
:10155000CF93DF93EC0184EF91E0998388838AE055
:1015600092E09D838C83CE018C96CFD6CE01489697
:10157000CCD6CE01DF91CF91D7CF0497E9CF87EFBB
:1015800093E0E6CFCF93DF93EC01E2DFCE01DF9172
:10159000CF910C94041A0497F5CFCF93DF93EC010D
:1015A000C3DFCE01DF91CF910C94041A0497F5CFDD
:1015B0008091EF038111A9C08FEE93E00E94051A7C
:1015C000892B09F4A2C01092FA031092F903109229
:1015D000FE031092FD0384EF91E09093F803809353
:1015E000F7038AE092E09093FC038093FB038AE187
:1015F00091E4A0E0B0E08093FF0390930004A093F7
:101600000104B09302040E949B176A51714481093E
:1016100091096093030470930404809305049093EC
:101620000604109208041092070410920A04109203
:10163000090410920C0410920B0410920E041092E4
:101640000D041092120410921104109216041092BC
:10165000150422E932E03093100420930F0486EB46
:1016600092E0909314048093130410921804109243
:10167000170410921A041092190445E154E0509393
:101680001C0440931B0441E154E050931E0440931A
:101690001D041092200410921F0410922204109234
:1016A0002104109226041092250410922A0410920C
:1016B00029043093240420932304909328048093D6
:1016C000270410922C0410922B0410922E041092D6
:1016D0002D0489E294E09093300480932F0485E2F6
:1016E00094E0909332048093310410923404109269
:1016F000330410923604109235048FEE93E00E946A
:101700000E1A8FEB9AE00E94050187EF93E008958F
:10171000EF92FF920F931F93CF93DF93EC018E8193
:101720009F81892B39F58A819B81892B19F56BD291
:101730008C01892B09F4CCDB7E0188E1E80EF11CD9
:10174000B701CE0128D5B701C801049644D57E0162
:101750008CE2E80EF11CB701CE0104963CD5B7012E
:10176000C80119D581E0DF91CF911F910F91FF90B2
:10177000EF90089580E0F7CF0496BCC6CF93DF9337
:10178000C091E503D091E603209759F0E881F981F3
:101790000084F185E02DCE0109950A80DB81C02D02
:1017A000F3CFC091E103D091E203209759F0E88193
:1017B000F9810084F185E02DCE0109950A80DB8155
:1017C000C02DF3CFC091DD03D091DE03209759F0F7
:1017D000E881F9810084F185E02DCE0109950A8028
:1017E000DB81C02DF3CFC091D903D091DA032097CC
:1017F00059F0E881F9810084F185E02DCE01099549
:101800000A80DB81C02DF3CFC091D503D091D603E0
:10181000209759F0E881F9810084F185E02DCE010F
:1018200009950A80DB81C02DF3CFC091D103D091FF
:10183000D203209759F0E881F9810084F185E02DE9
:10184000CE0109950A80DB81C02DF3CFC091CD0375
:10185000D091CE03209759F0E881F9810084F18579
:10186000E02DCE0109950A80DB81C02DF3CFDF91F9
:10187000CF910895CF93DF93C0913704D09138046E
:101880002097C9F08E819F810A80DB81C02D20972F
:1018900029F02E813F818217930759F0DC01ED91E9
:1018A000FC910484F585E02D0995209721F02E8187
:1018B0003F81C901E9CFDF91CF910895CF92DF92A7
:1018C000EF92FF920F931F93CF93DF938C0120DF52
:1018D00003DBC091C602D091C702209759F0E8817E
:1018E000F9810480F581E02DCE0109950A80DB8124
:1018F000C02DF3CFC091E903D091EA03209759F0AE
:10190000E881F9810480F581E02DCE0109950A80F6
:10191000DB81C02DF3CFC801ADDFC091E503D091CD
:10192000E603209759F0E881F9810480F581E02DE4
:10193000CE0109950A80DB81C02DF3CFC091E10370
:10194000D091E203209759F0E881F9810480F58174
:10195000E02DCE0109950A80DB81C02DF3CFC09127
:10196000DD03D091DE03209759F0E881F9810480EE
:10197000F581E02DCE0109950A80DB81C02DF3CFE2
:10198000C091D903D091DA03209759F0E881F98109
:101990000480F581E02DCE0109950A80DB81C02D00
:1019A000F3CFC091D503D091D603209759F0E881A9
:1019B000F9810480F581E02DCE0109950A80DB8153
:1019C000C02DF3CFC091D103D091D203209759F00D
:1019D000E881F9810480F581E02DCE0109950A8026
:1019E000DB81C02DF3CFC091CD03D091CE032097E2
:1019F00059F0E881F9810480F581E02DCE01099547
:101A00000A80DB81C02DF3CFC091C202D091C30206
:101A1000209759F0E881F9810480F581E02DCE010D
:101A200009950A80DB81C02DF3CFC091C903D09105
:101A3000CA03209759F0E881F9810480F581E02DEF
:101A4000CE0109950A80DB81C02DF3CF0E949B1740
:101A5000F801C084D184E284F3846C197D098E0975
:101A60009F096487758786879787DF91CF911F913C
:101A70000F91FF90EF90DF90CF900895DF92EF925B
:101A8000FF920F931F93CF93DF93C0913704D091B0
:101A90003804209749F10E811F817E01D12CE88105
:101AA000F9810680F781E02DCE010995D82A0A80B8
:101AB000DB81C02D2097B1F08E819F810817190717
:101AC000D9F48C01ECCFD801ED91FC910288F38917
:101AD000E02DC8010995209739F08E819F817E0104
:101AE000D12CEFCFD1100AC0DF91CF911F910F9170
:101AF000FF90EF90DF900895DD2079F3D801ED910C
:101B0000FC910684F785E02DC8010995D801ED9177
:101B1000FC910088F189E02DC8010995CE15DF05FB
:101B200091F2D701ED91FC910480F581E02DC70180
:101B30000995F701E280F380F1CFCF93DF93C09155
:101B4000C602D091C702209759F0E881F98106803A
:101B5000F781E02DCE0109950A80DB81C02DF3CFFE
:101B6000DF91CF910895CF92DF92EF92FF920F9382
:101B70001F93CF93DF93EC01DBD90091C202109148
:101B8000C3020115110561F0D801ED91FC910680A9
:101B9000F781E02DC8010995F80102811381F1CF89
:101BA000CCDFCE01EBDD0E949B17CC84DD84EE847C
:101BB000FF84088519852A853B85AB01BC014C193A
:101BC0005D096E097F09401751076207730760F0CE
:101BD000D701C601800F911FA21FB31F8C879D875D
:101BE000AE87BF87CE014ADFDF91CF911F910F9162
:101BF000FF90EF90DF90CF9085C9DADC9093EE03F1
:101C00008093ED03089580913B0490913C040097EC
:101C100049F42091C8023091C9022115310511F013
:101C2000C90108970895CF93DF93EC0184E292E015
:101C30009983888388E492E09D838C8386E592E093
:101C40009987888782E692E09F878E87DCDFC817B6
:101C5000D90721F410923C0410923B0488E192E0F1
:101C600099878887CE0108960E94A902CE01DF914C
:101C7000CF915ACCCF92DF92EF92FF92CF93DF9326
:101C8000EC016A017B01049635D488899989009713
:101C900081F0DC01ED91FC910190F081E02DA70134
:101CA0009601BE01DF91CF91FF90EF90DF90CF9032
:101CB0000994DF91CF91FF90EF90DF90CF9008953E
:101CC000EF92FF920F931F93CF93DF9300D000D03A
:101CD0001F92CDB7DEB77C0129833A834B835C83A7
:101CE0006D83C701049655D4D70150968D919C9170
:101CF000009769F0DC01ED91FC910280F381E02D09
:101D000009811A812B813C814D81B70109950F9082
:101D10000F900F900F900F90DF91CF911F910F9127
:101D2000FF90EF900895CF92DF92EF92FF92CF93C2
:101D3000DF93EC016A017B0104967BD48889998941
:101D4000009781F0DC01ED91FC910480F581E02D9C
:101D5000A7019601BE01DF91CF91FF90EF90DF9038
:101D6000CF900994DF91CF91FF90EF90DF90CF90CB
:101D700008950F931F93CF93DF93EC018B0104968B
:101D800092D488899989009769F0DC01ED91FC91E2
:101D90000680F781E02DA801BE01DF91CF911F9150
:101DA0000F910994DF91CF911F910F910895DC015C
:101DB00018968D919C91009739F0DC01ED91FC9182
:101DC0000088F189E02D099490E080E00895DC011D
:101DD0001A968D919C91009739F0DC01ED91FC9160
:101DE0000084F185E02D099490E080E00895049747
:101DF000EECFEF92FF920F931F93CF93DF93EC01FF
:101E00008B017A0188899989009721F068177907F1
:101E100009F05ED8198B088BEC85FD858081918156
:101E2000009781F02A853B852E153F0559F4DC018A
:101E3000ED91FC910484F585E02DAE014C5F5F4F80
:101E4000B801099588859985009759F0DC01ED91D5
:101E5000FC910484F585E02DAE014C5F5F4FB80125
:101E600009958A859B850097D9F0E816F906C1F097
:101E70006A897B896115710541F0DC01ED91FC9166
:101E80000680F781E02DAE0109958A859B85DC01EE
:101E9000ED91FC910480F581E02DAE01B80109952A
:101EA000EE85FF85808191810097A9F09C012C5FD0
:101EB0003F4FE216F30679F0DC01ED91FC91048CC2
:101EC000F58DE02DAE01B801DF91CF911F910F91FB
:101ED000FF90EF900994DF91CF911F910F91FF90A8
:101EE000EF900895EF92FF920F931F93CF93DF939C
:101EF000EC018B017A0188899989009729F068178C
:101F0000790711F00E946807198A188AEC85FD8507
:101F100080819181009781F02A853B852E153F05B0
:101F200059F4DC01ED91FC910684F785E02DAE01BA
:101F30004C5F5F4FB801099588859985009759F0E6
:101F4000DC01ED91FC910684F785E02DAE014C5F3C
:101F50005F4FB80109958A859B850097D9F0E816EF
:101F6000F906C1F0DC01ED91FC910680F781E02DCE
:101F7000AE01B80109956A897B896115710551F037
:101F80008A859B85DC01ED91FC910480F581E02D33
:101F9000AE010995EE85FF85808191810097A9F0BA
:101FA0009C012C5F3F4FE216F30679F0DC01ED91C6
:101FB000FC91068CF78DE02DAE01B801DF91CF9139
:101FC0001F910F91FF90EF900994DF91CF911F9196
:101FD0000F91FF90EF9008950F931F93CF93DF938E
:101FE000EC01888599858417950711F58B01798B0C
:101FF000688B8A859B85009741F0DC01ED91FC910F
:102000000480F581E02DAE010995EE85FF85808184
:1020100091810097F9F0DC01ED91FC91048CF58D34
:10202000E02DAE01B801DF91CF911F910F9109947E
:102030008A899B89892B71F47B8B6A8B8A859B8526
:10204000009741F0DC01ED91FC910480F581E02DD9
:10205000AE01E9CFDF91CF911F910F9108950497C1
:10206000BBCF0F931F93CF93DF93EC018B01888538
:1020700099858417950709F5198A188A8A859B8599
:10208000009741F0DC01ED91FC910680F781E02D95
:10209000AE010995EE85FF8580819181009701F160
:1020A000DC01ED91FC91068CF78DE02DAE01B801BD
:1020B000DF91CF911F910F9109946A897B896017F5
:1020C000710771F41B8A1A8A8A859B85009741F0F3
:1020D000DC01ED91FC910680F781E02DAE01E8CFA7
:1020E000DF91CF911F910F9108950497BACFDC0132
:1020F0001296ED91FC911397309731F0118610866E
:1021000013961C921E9212970895DC011296ED917F
:10211000FC911397309731F01386128613961C9218
:102120001E9212970895FC01A281B381109749F085
:10213000ED91FC9111970484F585E02DAC01CD0162
:1021400009940895FC01A281B381109749F0ED91A3
:10215000FC9111970684F785E02DAC01CD0109941F
:102160000895DC011296ED91FC91309739F0808949
:102170009189009729F482899389089590E080E0FD
:102180000895FC0120853185232B11F00E946807FA
:102190007187608708950F931F93CF93DF93EC01AE
:1021A0008B018A819B81009751F4BE01C801E9DF50
:1021B0001B830A83DF91CF911F910F910895EC014A
:1021C000F0CFFC0122853385232B11F00E94680794
:1021D0007387628708950F931F93CF93DF93EC016A
:1021E0008B018A819B81009751F4BE01C801E9DF10
:1021F0001B830A83DF91CF911F910F910895EC010A
:102200002496EFCFEF92FF920F931F93CF93DF931C
:10221000EC01088519850115110571F0EE85FF8522
:10222000E080F180E114F10439F0C80160DFCE01F3
:102230005EDFB701C801AFDF0A851B8501151105F7
:1022400079F0EC85FD85E080F180E114F10441F046
:10225000C8015BDFCE01049658DFB701C801BBDFC0
:1022600088859985009709F042DF8A859B850097CC
:1022700009F04BDFEE85FF8580819181892B31F458
:10228000EC85FD8580819181892B11F00E94680782
:10229000DF91CF911F910F91FF90EF900895CF9311
:1022A000DF93EC018A819B81009731F0F8DF8A810E
:1022B0009B81A8DF1B821A82DF91CF9108952EE6C1
:1022C00032E0FC0131832083EACFCF93DF93EC012E
:1022D0008A819B81009739F00496F7DF8A819B8180
:1022E00091DF1B821A82DF91CF91089524E832E0BA
:1022F000FC0131832083E9CFCF93DF93EC01F6DF3C
:10230000CE01DF91CF910C94041ACF93DF93EC01AF
:1023100082E992E09983888386EB92E09D838C83A7
:10232000CE0170DFCE010496E1DFCE01DF91CF91C7
:10233000C6CFCF93DF93EC01E8DFCE01DF91CF91E1
:102340000C94041A0497F5CF0497DFCF1F93CF9313
:10235000DF93EC0188899989009741F48A899B89E8
:10236000892B31F4DF91CF911F910895019621F1CE
:102370008A899B89019601F11BE0888999890097D8
:1023800021F42A893B89232B69F3115059F30097D3
:1023900039F0DC01ED91FC910680F781E02D099583
:1023A0008A899B89009749F3DC01ED91FC910680B5
:1023B000F781E02D0995E1CF0E946807FC01828139
:1023C0009381009709F0C2CF0895DC0118968D9192
:1023D0009C91009739F0DC01ED91FC910480F5812E
:1023E000E02D09940895F1CFF0CFCF93DF9300D083
:1023F00000D01F92CDB7DEB729833A834B835C832D
:102400006D83DC0118968D919C91009771F0DC0131
:10241000ED91FC910680F781E02D0F900F900F90C9
:102420000F900F90DF91CF9109940F900F900F9024
:102430000F900F90DF91CF910895CF93DF9300D04D
:1024400000D01F92CDB7DEB70F900F900F900F9076
:102450000F90DF91CF91C9CFCF93DF9300D000D001
:102460001F92CDB7DEB70F900F900F900F900F9087
:10247000DF91CF91BACFDC0118968D919C91009796
:1024800039F0DC01ED91FC910084F185E02D099497
:102490000895F1CFF0CFDC0118968D919C910097B3
:1024A00039F0DC01ED91FC910284F385E02D099473
:1024B0000895F1CFF0CFCF92DF92EF92FF92CF93BA
:1024C000DF93EC016A017B01EC85FD8580819181C0
:1024D000009709F0F0DFE881F9810288F389E02DA7
:1024E000B701A601CE01DF91CF91FF90EF90DF9071
:1024F000CF900994CF92DF92EF92FF92CF93DF9328
:10250000FC0122813381232B79F06A017B01EC01EC
:1025100055DFB701A6018A819B81DF91CF91FF90A2
:10252000EF90DF90CF90C7CFDF91CF91FF90EF90EA
:10253000DF90CF9008950F931F93CF93DF9300D038
:1025400000D01F92CDB7DEB78C0129833A834B832D
:102550005C836D83DC011C96ED91FC9180819181FF
:10256000009709F0E8DFD801ED91FC910488F58926
:10257000E02D29813A814B815C816D81C8010F90EA
:102580000F900F900F900F90DF91CF911F910F91AF
:1025900009940F931F93CF93DF9300D000D01F9225
:1025A000CDB7DEB729833A834B835C836D83FC010F
:1025B00022813381232BA1F08C0100DF29813A8114
:1025C0004B815C816D81F801828193810F900F9026
:1025D0000F900F900F90DF91CF911F910F91ABCF84
:1025E0000F900F900F900F900F90DF91CF911F9150
:1025F0000F910895CF92DF92EF92FF92CF93DF93E6
:10260000EC016A017B01EC85FD8580819181009759
:1026100009F0F0DFE881F9810688F789E02DB7013C
:10262000A601CE01DF91CF91FF90EF90DF90CF9088
:102630000994CF92DF92EF92FF92CF93DF93FC0148
:1026400022813381232B79F06A017B01EC01B6DE14
:10265000B701A6018A819B81DF91CF91FF90EF9016
:10266000DF90CF90C7CFDF91CF91FF90EF90DF90B9
:10267000CF9008950F931F93CF93DF93EC018B01BD
:10268000EC85FD8580819181009709F0F3DFE88179
:10269000F981008CF18DE02DB801CE01DF91CF9151
:1026A0001F910F910994FC0182819381009709F099
:1026B000E1CF0895FC01E058FF4F118210828E5740
:1026C0009F4F21E0FC01208308958E579F4FFC010E
:1026D00010820895FC01E058FF4F20813181820F64
:1026E000931FDC016C932F5F3F4F3183208308954C
:1026F0000F931F93CF93DF93C42FD0E08C0100582A
:102700001F4FF80120813181AE01820F931F0E947B
:10271000AC1BF80140815181C40FD51FD183C08308
:10272000DF91CF911F910F910895FC01E058FF4F69
:1027300020E830E0261B310981E0408151812417D7
:10274000350708F480E008958E579F4FFC01808183
:102750000895089580589F4FFC01808191810895CC
:10276000DF92EF92FF920F931F93CF93DF9300D0EE
:1027700000D0CDB7DEB77C0149835A836B837C835D
:10278000D22E822F8F70870193E8899F000D111D33
:102790001124095F1F4F8A81803F09F5C8018ADF34
:1027A00063E0C801C2DF811120C089819A81AB81B9
:1027B000BC81F701E657FF4F80839183A283B383E7
:1027C000F701D68284E00F900F900F900F90DF9169
:1027D000CF911F910F91FF90EF90DF900895C80166
:1027E000B3DF8111DDCF80E0EECF43E0BE016E5F4D
:1027F0007F4FC8017DDFF7CFBF92CF92DF92EF927C
:10280000FF920F931F93CF93DF93EC01573F69F033
:1028100058832B8385E0DF91CF911F910F91FF901B
:10282000EF90DF90CF90BF900895122FB72ED62E45
:10283000052FC42E822F8F709E0143E8849F200DA8
:10284000311D1124295F3F4F7901C9017DDF8823A4
:10285000B9F061E0C70169DF81110AC0FE01E657E6
:10286000FF4FC0820183D282B3821E8384E0D3CF24
:1028700067EFC7012FDFC70128DF1E8382E0CBCFC0
:1028800080E0C9CFDF92EF92FF920F931F93CF9317
:10289000DF93CDB7DEB728970FB6F894DEBF0FBE33
:1028A000CDBF242F30E0E4E035952795EA95E1F798
:1028B0002115310511F080E020C0E42FEF70E250C7
:1028C000EE30C8F78C01F0E0E959FB4E23C77514D0
:1028D00075148B148E149114C914F014F014F014A0
:1028E000F014F014F014F014F914FC015083618317
:1028F00072838381807F838385E028960FB6F89466
:10290000DEBF0FBECDBFDF91CF911F910F91FF9022
:10291000EF90DF90089520E023DFEFCF20E06CDF21
:10292000ECCF4D835E836F837887D12C83E8829FC1
:102930007001839FF00C1124F7E0EF0EF11CE00E04
:10294000F11EC701503FA9F4B5DE62E0C701EDDE1C
:10295000811113C08D819E81AF81B885F801E65742
:10296000FF4F80839183A283B383F801D68284E0F2
:10297000C4CFEADE8111E9CF9ECF42E0BE016A5F9B
:102980007F4FC701B5DEC701A0DEF801D68282E025
:10299000B4CF49835A836B837C83D12C83E8829F95
:1029A0007001839FF00C1124F7E0EF0EF11CE00E94
:1029B000F11EC701503F59F47DDE63E0C701B5DE6B
:1029C000811109C089819A81AB81BC81C7CFBCDEEE
:1029D0008111F3CF70CF43E0BE016E5F7F4FD1CF47
:1029E000FC015083618372838381807F838381E0D4
:1029F00084CFFC0154838581807F858383E07DCFF4
:102A0000CF92DF92EF92FF921F93CF93DF93FC015F
:102A1000E657FF4F2081222341F1EC01C080D18095
:102A2000E280F38010828E818F7013E89E01189FE0
:102A3000200D311D1124C901079686DE882351F02F
:102A40008E818F709E01189F200D311D1124C901A8
:102A5000079630DEB701A601CE01DF91CF911F911D
:102A6000FF90EF90DF90CF900DCF80E0DF91CF917E
:102A70001F91FF90EF90DF90CF9008951F920F92DB
:102A80000FB60F9211240BB60F922F933F934F93D3
:102A90005F936F937F938F939F93AF93BF93EF93C6
:102AA000FF9380913D0490913E04892B29F0E091A1
:102AB0003D04F0913E040995FF91EF91BF91AF91D4
:102AC0009F918F917F916F915F914F913F912F9146
:102AD0000F900BBE0F900FBE0F901F9018951F9276
:102AE0000F920FB60F9211240BB60F922F933F93B4
:102AF0004F935F936F937F938F939F93AF93BF9306
:102B0000EF93FF9380913F0490914004892B29F02B
:102B1000E0913F04F09140040995FF91EF91BF913E
:102B2000AF919F918F917F916F915F914F913F9165
:102B30002F910F900BBE0F900FBE0F901F90189506
:102B40001F920F920FB60F9211240BB60F922F9374
:102B50003F934F935F936F937F938F939F93AF9325
:102B6000BF93EF93FF938091410490914204892B8E
:102B700029F0E0914104F09142040995FF91EF9111
:102B8000BF91AF919F918F917F916F915F914F9185
:102B90003F912F910F900BBE0F900FBE0F901F9083
:102BA00018951F920F920FB60F9211240BB60F9229
:102BB0002F933F934F935F936F937F938F939F9345
:102BC000AF93BF93EF93FF9380914304909144049C
:102BD000892B29F0E0914304F09144040995FF9179
:102BE000EF91BF91AF919F918F917F916F915F9185
:102BF0004F913F912F910F900BBE0F900FBE0F90F2
:102C00001F9018951F920F920FB60F9211240BB6BA
:102C10000F922F933F934F935F936F937F938F9375
:102C20009F93AF93BF93EF93FF938091450490914F
:102C30004604892B29F0E0914504F091460409955A
:102C4000FF91EF91BF91AF919F918F917F916F9184
:102C50005F914F913F912F910F900BBE0F900FBE40
:102C60000F901F9018951F920F920FB60F9211247C
:102C70000BB60F922F933F934F935F936F937F9376
:102C80008F939F93AF93BF93EF93FF9380914704EC
:102C900090914804892B29F0E0914704F091480471
:102CA0000995FF91EF91BF91AF919F918F917F9186
:102CB0006F915F914F913F912F910F900BBE0F90AD
:102CC0000FBE0F901F9018951F920F920FB60F9284
:102CD00011240BB60F922F933F934F935F936F93F3
:102CE0007F938F939F93AF93BF93EF93FF938091C5
:102CF000490490914A04892B29F0E0914904F0910C
:102D00004A040995FF91EF91BF91AF919F918F91E7
:102D10007F916F915F914F913F912F910F900BBEDB
:102D20000F900FBE0F901F9018951F920F920FB625
:102D30000F9211240BB60F922F933F934F935F93F3
:102D40006F937F938F939F93AF93BF93EF93FF9373
:102D500080914B0490914C04892B29F0E0914B0415
:102D6000F0914C040995FF91EF91BF91AF919F9124
:102D70008F917F916F915F914F913F912F910F9024
:102D80000BBE0F900FBE0F901F9018951DBA10929A
:102D900068001CBC10BE1FBA10927A0010926E0020
:102DA00010926F0010927000109271001092C90082
:102DB0001092BC0011B814B817B81AB81DB810BAE0
:102DC00012B815B818B81BB81EB811BA0895F894FF
:102DD000E1E6F0E020E82083108283E084BD85BD39
:102DE000EEE6F0E080818160808391E09093800046
:102DF00082E0809381009093B0008093B100909323
:102E000090008093910086E880937A0020937B0065
:102E100010927E00AFD0789408959AED980F983074
:102E200010F1883060F490917E0021E030E0082EAF
:102E300001C0220F0A94EAF7922B90937E008F71C3
:102E400090910001892B80937C0080917A008064AE
:102E500080937A0080917A0086FDFCCF8091780083
:102E6000909179000895892FDECFF89484B7877FF9
:102E700084BF809160008061809360001092600048
:102E800080E29EE40197F1F781E08093E00080E228
:102E90008093D80080E69AEE0197F1F777DF0C94E3
:102EA00000FEFFCFF89472DF80E69AEE0197F1F70B
:102EB0000C940000FFCF8F938FB78F9380914D04B8
:102EC0008D5F8D37D0F480934D0480914E048F5FD9
:102ED00080934E04D8F080914F048F4F80934F041D
:102EE000A8F0809150048F4F8093500478F0809127
:102EF00051048F4F8093510409C08D5780934D0426
:102F000080914E048E5F80934E0428F78091520486
:102F10008C5F8093520458F0809153048F4F8093BC
:102F2000530428F0809154048F4F809354048F9160
:102F30008FBF8F9118950FB6F89466B515B2709142
:102F4000520480915304909154040FBE10FE05C0AA
:102F50006F3F19F07C5F8F4F9F4F11240024660F45
:102F6000001C660F001C702908958091E80080FF06
:102F7000FCCF08958091D80087FF02C085FF1BC059
:102F800081E88093D70080EA8093D80086E189BDEC
:102F900009B400FEFDCF80E98093D8001092E000D4
:102FA00010925C0410925B0410925A041092E1009B
:102FB0008CE08093E20008951F920F920FB60F925B
:102FC00011248F939F939091E1001092E10093FF61
:102FD0000FC01092E90081E08093EB001092EC00AA
:102FE00082E38093ED0088E08093F00010925C040F
:102FF00092FF21C080915C048823E9F080915A04FB
:10300000882379F0815080935A0481110AC081E0AD
:103010008093E9008091E80085FD35C08AE38093C4
:10302000E80083E08093E9008091F200882319F0A2
:103030008AE38093E80090FF0CC080E18093E20077
:1030400010925C0481E080935B0480EA8093D80056
:1030500019BC80915B04882379F094FF0DC086E150
:1030600089BD09B400FEFDCF80E98093D8008DE0D2
:103070008093E20010925B049F918F910F900FBE9E
:103080000F901F9018951092F100C4CF1F920F92CD
:103090000FB60F9211240BB60F92EF92FF920F937F
:1030A0001F932F933F934F935F936F937F938F93D0
:1030B0009F93AF93BF93CF93DF93EF93FF931092C0
:1030C000E9008091E80083FF21C0E090F100F090DA
:1030D000F100C091F100D091F1000091F100109148
:1030E000F1002091F1003091F10082EF8093E8002F
:1030F00086E0F8125CC0E8E9F0E085919591C81788
:10310000D90741F03596FA94F110F7CF81E2809318
:10311000EB002BC0859195910817190711F0339694
:10312000F2CF4591559184912F3F310519F010F060
:103130002FEF30E0821708F4282F3EEF8091E8004F
:10314000982F9570D9F382FD10C0822F213408F09A
:1031500080E4982F911124C0922F981B892F3093CF
:10316000E80091111BC02034C8F4FF91EF91DF916A
:10317000CF91BF91AF919F918F917F916F915F910F
:103180004F913F912F911F910F91FF90EF900F90D2
:103190000BBE0F900FBE0F901F901895282FCECF0B
:1031A000FA0145914093F100AF019150D3CF85E0F2
:1031B000F81208C08EEF8093E800D7DEC068C09395
:1031C000E300D3CF99E0F91222C0E110D3C0C0933D
:1031D0005C0410925A048EEF8093E80081E0ECE7E3
:1031E000F1E08093E90095919093EB00992331F001
:1031F00095919093EC0095919093ED008F5F8530C1
:1032000081F78EE18093EA001092EA00AECF98E059
:10321000F9120CC080E8E81279CFA7DE80915C0437
:103220008093F1008EEF8093E8009FCFF11012C0E1
:103230009CDE92E8E91209C00093E900F090EB00EF
:10324000F5FAFF24F0F81092E900F092F1001092E4
:10325000F100E8CF8F2D8D7F813009F080C082E0B2
:10326000E8121BC02097C9F4402F4F778FEF840FCF
:10327000863098F48EEF8093E8004093E90093E065
:10328000F91609F443CF89E18093EB0081E090E0E7
:1032900001C0880F4A95EAF7B5CF0130110509F052
:1032A0005EC081E0F81222C091EA3EEFE9122ECF13
:1032B0008091E800982F9570D9F382FD56CF822F28
:1032C000213408F080E4982F91110CC0922F981BA4
:1032D000892F3093E800911103C0203408F445CFC2
:1032E000282FE6CF1092F1009150EECF89E0F8122E
:1032F00036C091E2E9120ACFC115D34009F006CFDA
:103300002430310509F002CF8091E80082FFFCCF24
:103310003091F1002091F1009091F1008091F10045
:103320004BEF4093E8004EEF4093E800393A51F4F8
:10333000253409F0EBCE923C09F0E8CE8B3609F04B
:10334000E5CE93DD3B3809F0E1CE253C09F0DECE39
:103350009D3109F0DBCE803709F0D8CEA3DD99ECA2
:10336000F912D4CE80E4E812D1CE8EEF8093E8003B
:10337000FCDDF4CF0130110509F0C8CEBACF4F9271
:103380005F926F927F92AF92BF92CF92DF92EF9255
:10339000FF920F931F93CF93DF93CDB7DEB7290131
:1033A0003A019B01AC01241935094609570989895D
:1033B0009A89AB89BC89BC01CD016A197B098C094A
:1033C0009D095BD1A80197012419350946095709C0
:1033D00085D1CA01B9016A0D7B1D8C1D9D1DDF9130
:1033E000CF911F910F91FF90EF90DF90CF90BF9002
:1033F000AF907F906F905F904F900895E8DC0E94AF
:10340000B2030E940505FDCFAFC0FC0181E090E052
:103410002081222311F090E080E0089521E0FC015A
:1034200020830895089508950F931F93CF93DF93FA
:103430008230910510F482E090E0E0915804F09120
:10344000590430E020E070E060E0D0E0C0E0B0E09F
:10345000A0E0309799F42115310509F44AC0281BE2
:10346000390B24303105D8F58A819B8161157105AE
:1034700089F1FB0193838283FE0111C04081518158
:103480000281138148175907E0F04817590799F44A
:10349000109761F012960C93129713961C93329624
:1034A000CF01DF91CF911F910F91089500935804A0
:1034B00010935904F4CF2115310551F042175307E9
:1034C00038F0A901DB019A01BD01DF01F801C1CF8C
:1034D000EF01F9CF9093590480935804CDCFFE01AA
:1034E000E20FF31F8193919322503109398328838E
:1034F000D7CF2091560430915704232B41F42091CB
:103500000301309104013093570420935604209115
:103510000101309102012115310541F42DB73EB76B
:103520004091050150910601241B350BE091560492
:10353000F0915704E217F307A0F42E1B3F0B281756
:10354000390778F0AC014E5F5F4F2417350748F01C
:103550004E0F5F1F509357044093560481939193ED
:103560009FCFF0E0E0E09CCFCF93DF930097E9F0AE
:10357000FC01329713821282A0915804B091590431
:10358000ED0130E020E01097A1F420813181820F1D
:10359000931F20915604309157042817390709F0DA
:1035A00061C0F0935704E0935604DF91CF910895E2
:1035B000EA01CE17DF07E8F54A815B819E014115DC
:1035C0005105B1F7E901FB83EA8349915991C40F91
:1035D000D51FEC17FD0761F4808191810296840F5D
:1035E000951FE90199838883828193819B838A83D4
:1035F000F0E0E0E012968D919C9113970097B9F559
:103600002D913C911197CD010296820F931F20912D
:103610005604309157042817390739F6309751F579
:103620001092590410925804B0935704A093560472
:10363000BCCFD383C28340815181840F951FC817AB
:10364000D90761F44E5F5F4F88819981480F591FF8
:10365000518340838A819B81938382832115310525
:1036600009F0B0CFF0935904E09358049ECFFD01C8
:10367000DC01C0CF13821282D7CFDB018F939F93DF
:1036800052D0BF91AF91A29F800D911DA39F900D2D
:10369000B29F900D11240895A1E21A2EAA1BBB1B04
:1036A000FD010DC0AA1FBB1FEE1FFF1FA217B3070E
:1036B000E407F50720F0A21BB30BE40BF50B661F24
:1036C000771F881F991F1A9469F7609570958095E8
:1036D00090959B01AC01BD01CF010895052E97FB8C
:1036E00016F400940FD057FD05D0D6DF07FC02D0AA
:1036F00046F408C050954095309521953F4F4F4F67
:103700005F4F089590958095709561957F4F8F4F8D
:103710009F4F0895EE0FFF1F0024001C0BBE079063
:10372000F691E02D099409D0A59F900DB49F900DBE
:10373000A49F800D911D11240895A29FB001B39FF5
:10374000C001A39F700D811D1124911DB29F700DAA
:10375000811D1124911D0895FB01DC0102C001901F
:103760000D9241505040D8F708950E94F20010E0A9
:10377000C6ECD0E003C0FE01CDDF2196C73CD107E7
:06378000D1F7F894FFCF21
:103786004000005D0480003C3F3E00000000000059
:10379600000000121A121A121A121A230124012505
:1037A60001FCFF000000000000260127012801009F
:1037B600000000A902E402000000006502A0020069
:1037C60000000000000000121A121A00000000FC9F
:1037D6000202030B03040200000000A501BE013132
:1037E600032E01F40167012301240125012C0102A6
:1037F60005C605A605EF068E0571015105FCFF00FD
:1038060000BA01C701260127012801F8FF0000BC04
:1038160001C9012D010305F2FF0000B801CB012902
:1038260001520500000000CD01E50131032E01F42F
:103836000167012301240125012C010205C605A605
:1038460005EF068E0571015105FCFF0000E301F24C
:1038560001260127012801F8FF0000E101F0012DF2
:10386600010305F2FF0000DF01EE01290152050008
:1038760000000000A80AC20AB3082F081C08260880
:10388600230124012501FCFF0000BD0ACB0A260105
:10389600270128010000000000000000121A121A79
:1038A600000000000000000031032E01F401670152
:1038B6002301240125012C01121A121A121A121AB6
:1038C600121A121AFCFF0000000000002601270150
:1038D6002801F8FF0000000000002D01121AF2FF77
:1038E6000000000000002901121A0000000000007C
:1038F6000000121A121A121A121A230124012501A3
:103906000000000076117C11260127012801000025
:10391600000085119911F4112C124A125A12F90E4F
:10392600720FD70EF3111D1249125912E70EEC0F42
:103936003110FCFF0000A411A2112F107510F70E14
:00000001FF
