:10000000C7C000000C9435160C9466160C94971615
:100010000C94C8160C94F9160C942A170C945B17C0
:100020000C948C17DFC000000C94D3180C943D196D
:10003000D9C00000D7C00000D5C00000D3C0000068
:10004000D1C00000CFC00000CDC00000CBC0000078
:10005000C9C00000C7C00000C5C000000C94521801
:10006000C1C00000BFC00000BDC00000BBC0000098
:10007000B9C00000B7C00000B5C00000B3C00000A8
:10008000B1C00000AFC00000ADC00000ABC00000B8
:10009000A9C00000A7C00000000100006A01120012
:1000A000020000D600730022010049012100210155
:1000B0000032010900030000D2000401030904C258
:1000C000000E0E035400650065006E007300790099
:1000D00000000403090409027300020100C0320990
:1000E0000400000201030000072401000141000692
:1000F0002402010100062402020200092403010374
:1001000001020100092403020401010100090504A0
:10011000024000000000052501010109058302409D
:10012000000000000525010103090401000203008D
:10013000000009211101000122210007058103406F
:1001400000010705020320000206C9FF0904A15CA3
:100150007508150026FF0095400975810295200954
:1001600076910295040976B102C0120100020000E6
:100170000040B216550472020001000101C13601AF
:10018000C0260181360180363B08F00E0A1C520859
:1001900011241FBECFEFD0E2DEBFCDBF12E0A0E042
:1001A000B1E0E6E9FBE300E00BBF02C007900D926F
:1001B000A23EB107D9F725E0A2EEB2E001C01D9240
:1001C000AC30B207E1F710E0C7ECD0E004C02197F3
:1001D000FE010E94921DC43CD107C9F70E941D1B5D
:1001E0000C94BD1D0DCFA091E202B091E3021097D7
:1001F00009F40895ED91FC91119712968D919C91BF
:100200009093E3028093E2020995EDCFCF93DF93C1
:10021000EC0184E090E00E941C1C009791F0FC012E
:10022000D183C0832091E2023091E30233832283A1
:100230009093E3028093E20290E080E0DF91CF911F
:10024000089581E090E0FACF089508950895089503
:100250000895089587E091E0089508950895CF9353
:10026000DF93CDB7DEB72A970FB6F894DEBF0FBE87
:10027000CDBF2E833F83488759876A8725E0FE01DB
:100280003696DE01119601900D922A95E1F72885A8
:100290003985232BA1F0DC01ED91FC91028CF38DCB
:1002A000E02D29813A814B815C816D812A960FB6C0
:1002B000F894DEBF0FBECDBFDF91CF9109942A968F
:1002C0000FB6F894DEBF0FBECDBFDF91CF9108957A
:1002D000683F38F0DC01ED91FC91048CF58DE02D48
:1002E0000994089508950F931F93CF93DF9300D03F
:1002F00000D01F92CDB7DEB70F900F900F900F90E8
:100300000F90DF91CF911F910F9108950895089557
:100310000895AF92BF92CF92DF92EF92FF920F9328
:100320001F93893823E1920710F088E893E1BC011C
:1003300090E080E01F921F922FE32F932FEF2F93D7
:10034000A12CB12C650118E8E12E13E1F12E00E09B
:1003500010E020E030E0A9010E94DE1A0F900F901B
:100360000F900F90CB011F910F91FF90EF90DF90B6
:10037000CF90BF90AF9008950C94231B2BE531E0F4
:10038000FC013183208321E831E0358324832FE889
:1003900031E0318720872BE931E0378726870C94BD
:1003A000090F0E97EBCF0497E9CF0897E7CFCF93CC
:1003B000DF93EC01E3DFCE01DF91CF910C94231B9F
:1003C0000497F5CF0897F3CF0E97F1CF27EA31E0E6
:1003D000FC01318320832DEC31E0358324832BED28
:1003E00031E03187208727EE31E037872687C6CF77
:1003F0000E97ECCF0897EACF0497E8CFCF93DF931F
:10040000EC01E4DFCE01DF91CF910C94231B0E971A
:10041000F5CF0897F3CF0497F1CF242F287F203F03
:1004200059F4403F49F06F77DC01ED91FC91008C6D
:10043000F18DE02D5F7709940895CF93DF93EC0160
:100440008E819F81B9D69C0174E0220F331F7A956B
:10045000E1F7E6E096958795EA95E1F7282B392BA9
:100460008A859B85280F391FC90102969695879525
:1004700096958795281B390B3B872A87E885F98550
:10048000309709F009954C855D859A013695322F94
:1004900022273795279520644115510549F0B90168
:1004A0006F5771094F3F514018F58617970728F08D
:1004B00021583F4F28173907F0F4880F892F881FDC
:1004C000990B91959D878C875E857F8550FF13C022
:1004D000472F4F70569572957F70406B682F6F77DE
:1004E00080912C0490912D04DF91CF910C94AF0C4E
:1004F0008617970710F3DF91CF910895CF93DF937D
:10050000FC018BE391E091838083309781F08091AF
:10051000E4029091E50222813381A481B581E8173C
:10052000F90741F02115310529F4109729F4DF91DD
:10053000CF910895109721F013963C932E93129724
:100540002091E6023091E702E217F30721F4B0931D
:10055000E702A093E602C281D381209711F0BD8308
:10056000AC83E817F90719F7D093E502C093E402CA
:10057000DECFCF93DF93EC01C1DFCE01DF91CF91CE
:100580000C94231B0F93062F0F77282F2F774150A2
:10059000406969E085E994E00E94AA1B0F910895E3
:1005A000CF93DF93FC0183E391E0918380833097C5
:1005B00081F08091E8029091E90222813381A48147
:1005C000B581E817F90741F02115310529F4109795
:1005D00029F4DF91CF910895109721F013963C9361
:1005E0002E9312972091EA023091EB02E217F30763
:1005F00021F4B093EB02A093EA02C281D381209749
:1006000011F0BD83AC83E817F90719F7D093E9021D
:10061000C093E802DECFCF93DF93EC01C1DFCE01C0
:10062000DF91CF910C94231B0F93062F0F77282F68
:100630002F774150406868E085E994E00E94AA1B4A
:100640000F91089523E431E0FC013183208356CFDC
:10065000CF93DF93EC01F6DFCE01DF91CF910C94C5
:10066000231B2FE431E0FC0131832083EBCFCF93B8
:10067000DF93EC01F6DFCE01DF91CF910C94231BC9
:10068000CF93DF93EC018E819F8196D59C0144E04E
:10069000220F331F4A95E1F756E0969587955A95B4
:1006A000E1F7822B932B9C01220F331F220F331F64
:1006B000281B390B3B872A87880F892F881F990BA6
:1006C00091959D878C87DF91CF91089520E8240F25
:1006D000203748F46F77DC01ED91FC910688F789AB
:1006E000E02D5F7709940895FC0113821282158230
:1006F00014828BE391E0918380838091E402909156
:10070000E502892B21F4F093E502E093E402A09145
:10071000E602B091E702B583A483109721F0139607
:10072000FC93EE931297F093E702E093E6021382B4
:100730001282778366831186108613861286158649
:100740001486578746878FE491E0918380830895CC
:10075000CF93DF93FC0113821282178216828FE0FF
:1007600091E09183808385E291E095838483CF013A
:100770000896138612861586148623E331E03187A6
:1007800020872091E8023091E902232B21F49093F5
:10079000E9028093E802A091EA02B091EB02B587EA
:1007A000A487109721F013969C938E9312979093A1
:1007B000EB028093EA0213861286118A108A8091D6
:1007C000FF01138A148A158A868B178A808D807F91
:1007D000808F818D807F818FDF015A9683E8ED01C4
:1007E00019928A95E9F7A058BF4F11961C921E9254
:1007F00012961C9211961D921D921D921C92139797
:10080000D49680E1ED0119928A95E9F750961C92F1
:1008100087EA91E0918380838DEC91E095838483D6
:100820008BED91E09187808787EE91E097878687AF
:10083000DF91CF910895413431F52F3709F066C02B
:1008400044E06091160380911703EEDE44E060916E
:1008500012038091130396DE809113038093170394
:10086000809112038093160342E060911E038091F1
:100870001F0388DE80911F0380931B0380911E035A
:1008800080931A030895433409F05EC02F3709F0AE
:1008900059C043E06091180380911903C5DE43E01D
:1008A00060911403809115036DDE80911503809390
:1008B0001903809114038093180341E06091200391
:1008C000809121035FDE8091210380931D0380913D
:1008D000200380931C03089543E0609118038091E6
:1008E0001903A2DE43E060911403809115034ADEF0
:1008F000809115038093190380911403809318034A
:1009000041E060911C0380911D031BC021111CC09C
:1009100044E0609116038091170386DE44E0609105
:100920001203809113032EDE80911303809317032B
:10093000809112038093160342E060911A03809124
:100940001B0372CE222341F208950F93FC01822FE4
:10095000807F803921F0803B29F10F9108952F701D
:10096000822F90E09093110380931003211105C012
:100970003093210340932003F0CF213029F43093AA
:100980001F0340931E03E9CF223029F4309315034F
:1009900040931403E2CF233001F7309313034093C5
:1009A0001203DBCF052F942F432F622F6F70292F57
:1009B000CF0141DFD2CF89E891E090930603809385
:1009C00005038EE093E0909333038093320380918C
:1009D0002C0490912D040C94510DFF920F931F93B2
:1009E000CF93DF938C010D5E1F4FC8010E94F71556
:1009F000C82F81110AC084E0F82EDBE68FB7F89487
:100A000090910E05911108C08FBF8C2FDF91CF916F
:100A10001F910F91FF900895F092E9009091E800E6
:100A200095FD05C092FFF0CFD093E800F7CF40913D
:100A3000F1005091F1006091F1007091F1009091FE
:100A4000E80095FFD093E8008FBF4423F1F2C8017E
:100A50000E943815882391F2C82FD7CFBF92CF922A
:100A6000DF92EF92FF920F931F93CF93DF93CDB757
:100A7000DEB72A970FB6F894DEBF0FBECDBF633046
:100A800009F491C0A8F4613069F1623009F440C002
:100A90002A960FB6F894DEBF0FBECDBFDF91CF917F
:100AA0001F910F91FF90EF90DF90CF90BF9008952E
:100AB000643071F1653061F7FC01438954896589BF
:100AC00076892A960FB6F894DEBF0FBECDBFDF91B0
:100AD000CF911F910F91FF90EF90DF90CF90BF903B
:100AE0000C94890FFC0143895489658976892A967B
:100AF0000FB6F894DEBF0FBECDBFDF91CF911F912F
:100B00000F91FF90EF90DF90CF90BF900C94300F3B
:100B10008C017C01F3E1EF0EF11CFC01818D8F70E3
:100B200093E8B92E9701B89E200D311D1124C901FB
:100B300007960E949F146C01F801818D8F709701B8
:100B4000B89E200D311D1124C90107960E94A014E2
:100B5000F801218D2F70DA82C9829C838B838D816D
:100B6000807F822B8D8385E0FE013196DE01169613
:100B700001900D928A95E1F72E813F814885598534
:100B80006A85C8012A960FB6F894DEBF0FBECDBFA6
:100B9000DF91CF911F910F91FF90EF90DF90CF9059
:100BA000BF900C94560FFC016789708D2A960FB682
:100BB000F894DEBF0FBECDBFDF91CF911F910F9193
:100BC000FF90EF90DF90CF90BF900C94AF0FCF923B
:100BD000DF92EF92FF920F931F93CF93DF93EC017D
:100BE0006C0124E0C20ED11CC6010E94A7117E0137
:100BF0002EE0E20EF11C209711F4F12CE12C8E1561
:100C00009F0521F4B701C6010E949811CE01E5DECF
:100C1000182F00E0112371F0612FCE011FDF143077
:100C200039F0123009F400E0CE01D7DE182FF2CFF0
:100C300001E0FACF002361F0B701C601DF91CF9147
:100C40001F910F91FF90EF90DF90CF900C9489113E
:100C5000DF91CF911F910F91FF90EF90DF90CF9098
:100C60000895B5CF0897B3CF82E293E0B0DF8091CB
:100C70002C0490912D040C94A60ECF92DF92EF924B
:100C8000FF921F93CF93DF93EC010496BE01625F46
:100C90007F4F209711F470E060E00E9498110FB62A
:100CA000F894C0908D04D0908E04E0908F04F09062
:100CB00090040FBE0FB6F89480918D0490918E042D
:100CC000A0918F04B09190040FBE8C199D09AE09BC
:100CD000BF09843F9140A105B10550F4CE017DDEEE
:100CE000182F682FCE01BADE1430C9F2123011F776
:100CF000DF91CF911F91FF90EF90DF90CF900895FB
:100D0000BCCF0E97BACFEF920F9380910E05882338
:100D100089F16F708FB7F89493E09093E900909108
:100D2000E4009E5F33E05091E80055FD0EC08FBF98
:100D30008091E4009817F1F080910E058823D1F09E
:100D40008FB7F8943093E900EECF90E1699FB0013E
:100D50001124642B6093F1002093F1000093F100C3
:100D6000E092F1009091E80095FD03C09AE3909322
:100D7000E8008FBF0F91EF900895EF920F93CF93FC
:100D8000DF9300D0CDB7DEB7262F9A838983E12C7D
:100D900000E04FE0672FCE010196B5DF0F900F9076
:100DA000DF91CF910F91EF900895EF920F93CF9332
:100DB000DF9300D0CDB7DEB7242F052FE62E672FA7
:100DC0009A83898343E0223F31F0E12C42E0243FC3
:100DD00010F000E045E0CE01019695DF0F900F90F6
:100DE000DF91CF910F91EF900895EF920F93CF93F2
:100DF000DF9300D0CDB7DEB7242F9A838983842F69
:100E000090E034E0959587953A95E1F7E62E052F29
:100E1000482F672FCE01019676DF0F900F90DF915C
:100E2000CF910F91EF900895EF920F93FC01CA01BB
:100E3000E2800181208144E066DF0F91EF90089508
:100E4000EF920F931F93FB01622FC80142305105AF
:100E5000A1F04330510541F04130510551F4E12CEE
:100E600000E0208145E004C0E2800181208147E06C
:100E70004ADF1F910F91EF900895E12C01812081AD
:100E800046E0F6CF2F923F924F925F926F927F9201
:100E90008F929F92AF92BF92CF92DF92EF92FF928A
:100EA0000F931F93CF93DF9300D000D000D0CDB726
:100EB000DEB76C0129833A834B835C836D83AB80FF
:100EC000BC80A114B10409F443C06E83962F9F70B7
:100ED00029803A80492F50E0F10180812601440E9B
:100EE000551E803F11F4F20110AAD10175013201A3
:100EF000F0E36F0E711C9A01220F331F240F351F70
:100F00002C0D3D1D4D01F3015081533008F07CC084
:100F100081E0850F80834D91F901E50FF11D40833C
:100F2000F1E0EF1AF10871F7A20CB31CF50131974B
:100F30002081273F31F5482F50E0B60123E0929FF2
:100F4000600D711D11242E81C6017ADFF30110821C
:100F500026960FB6F894DEBF0FBECDBFDF91CF91BE
:100F60001F910F91FF90EF90DF90CF90BF90AF90C7
:100F70009F908F907F906F905F904F903F902F90B9
:100F80000895833029F7A8016E819601989F200D5E
:100F9000311D1124C90148DFD9CFA20CB31CF501C2
:100FA00031978081873F49F043E0E416F10469F40A
:100FB000A8016E81C40138DF05C02E81A701B401EC
:100FC000C6013EDFF20110AAC3CFF201E0AAA701D9
:100FD000B401C30126960FB6F894DEBF0FBECDBF95
:100FE000DF91CF911F910F91FF90EF90DF90CF9005
:100FF000BF90AF909F908F907F906F905F904F9039
:101000003F902F900C94B41D3601F3E09F9F600C2D
:10101000711C1124A8016E81C30106DFF4E0EF16F4
:10102000F10408F4BACFA8016E81C401FDDE23E00B
:10103000820E911C33E0E31AF108F0CF0F931F9357
:10104000CF93DF9300D000D000D01F92CDB7DEB792
:101050009A8389838E010F5F1F4F8F559F4F12DF39
:1010600027960FB6F894DEBF0FBECDBFDF91CF91AC
:101070001F910F91089582E293E06ADB83EF91E084
:1010800090930F0380930E0343E054E066E270E018
:101090008DEF92E029DB43E055E066E270E08CEEF4
:1010A00092E022CB8CEE92E0DCDA8DEF92E0D9DA9E
:1010B00082E293E08BC9F8940E941B1CFDCFCF9372
:1010C000DF93C0910404D0910504209759F0E88182
:1010D000F981008CF18DE02DCE0109950A80DB812C
:1010E000C02DF3CFDF91CF910895CF93DF93C091BF
:1010F0000404D0910504209759F0E881F981028C0D
:10110000F38DE02DCE0109950A80DB81C02DF3CF50
:10111000DF91CF910895CF93DF93C0910404D091D4
:101120000504209759F0E881F981048CF58DE02DB4
:10113000CE0109950A80DB81C02DF3CFDF91CF91DD
:101140000895FC01828593850895FC018085918531
:10115000089584E094E00895EF92FF920F931F9317
:10116000CF93DF938C01F5DFFC01C081D181209703
:10117000A1F0CE01EADF0817190778F0CE01E1DF10
:101180007C01CE01E2DF0817190718F00E151F05C4
:1011900030F00A80DB81C02DEACFD0E0C0E0CE0184
:1011A000DF91CF911F910F91FF90EF900895D4DFC1
:1011B000009709F480CF0895EF92FF920F931F9349
:1011C000CF93DF93811520E8920701F186339105D3
:1011D00040F4DF91CF911F910F91FF90EF900C940D
:1011E0000418EC01E4DF8C01DC01ED91FC91E48852
:1011F000F588ABDFBE01681B790BC801F701DF91F1
:10120000CF911F910F91FF90EF90099490E080E0B3
:10121000DF91CF911F910F91FF90EF900895DC0126
:101220005496ED91FC91309719F0CB01BA010994D5
:101230000895DC015696ED91FC91309711F0CB01A9
:10124000099408950F931F93CF93DF93CDB7DEB723
:101250002A970FB6F894DEBF0FBECDBF2E833F8313
:10126000488759876A87DC015296ED91FC91309747
:1012700009F04AC085E0FE013696DE011196019024
:101280000D928A95E1F700910C0410910D0401155F
:10129000110509F442C0D801ED91FC910284F38557
:1012A000E02D29813A814B815C816D81C8010995CE
:1012B000882309F447C0D8011496ED91FC91159745
:1012C000309759F18481958112962D913C91009728
:1012D00079F1DC0113961C930E93129733832283CA
:1012E00015830483D8011396FC93EE9312971596F9
:1012F0009C938E93149721153105F9F0D901159619
:10130000FC93EE93149709C04E815F8168857985BF
:101310008A850995882309F4ADCF2A960FB6F894EB
:10132000DEBF0FBECDBFDF91CF911F910F9108950A
:1013300010930D0400930C04D1CFF0930F04E093AD
:101340000E04EBCFF80102811381A1CFEF92FF923F
:101350000F931F93CF93DF938A01F62EE72EDC01C4
:101360005096ED91FC913097C1F4802F807F803BA7
:1013700009F045C0193779F5C0911C04D0911D04BE
:101380002097C1F0E881F9810680F781E02DCE0138
:1013900009950A80DB81C02DF3CFBA018F2D9E2DD8
:1013A0000995882311F3DF91CF911F910F91FF9041
:1013B000EF900895C0911404D0911504209799F3EB
:1013C000E881F9810680F781E02DCE0109950A8038
:1013D000DB81C02DF3CF1B3709F0D9C0C0912404A5
:1013E000D09125042097F9F2E881F9810680F781F0
:1013F000E02DCE0109950A80DB81C02DF3CF813B22
:10140000E8F5803929F0803A09F484C0803859F62B
:10141000C0912404D0912504209729F2E881F98114
:101420000284F385E02DA8016F2D7E2DCE01099554
:10143000882309F46BC0EC81FD81309709F4B3CFA8
:10144000848195812A813B81009709F455C0DC0194
:101450001396DC93CE93129733832283D583C48370
:10146000FB83EA839D838C832115310509F449C0F0
:10147000D9011596FC93EE93149795CF803D09F40E
:10148000CCC0803E09F406C1803C09F08CCFC091ED
:101490001804D0911904209709F485CFE881F981C7
:1014A0000284F385E02DA8016F2D7E2DCE010995D4
:1014B000882309F4AEC0EC81FD81309709F473CF25
:1014C000848195812A813B81009709F49DC0DC01CC
:1014D0001396DC93CE93129733832283D583C483F0
:1014E000FB83EA839D838C832115310509F6F093F4
:1014F0001B04E0931A0457CFD0932504C09324040F
:10150000ABCFF0932704E09326044DCF0A80DB8114
:10151000C02D82CFC0912004D0912104209709F4DE
:1015200042CFE881F9810284F385E02DA8016F2D77
:101530007E2DCE010995882331F1EC81FD81309714
:1015400009F431CF848195812A813B810097B1F0E4
:10155000DC011396DC93CE93129733832283D583D9
:10156000C483FB83EA839D838C832115310509F0B5
:101570007FCFF0932304E093220415CFD09321046E
:10158000C0932004EACF0A80DB81C02DC7CFC09171
:101590001C04D0911D04209709F405CFE881F9813E
:1015A0000284F385E02DA8016F2D7E2DCE010995D3
:1015B000882331F1EC81FD81309709F4F4CE8481E8
:1015C00095812A813B810097B1F0DC011396DC9371
:1015D000CE93129733832283D583C483FB83EA831C
:1015E0009D838C832115310509F042CFF0931F04B0
:1015F000E0931E04D8CED0931D04C0931C04EACF00
:101600000A80DB81C02DC7CFD0931904C093180482
:1016100063CF0A80DB81C02D3ECFC0911404D091EE
:101620001504209709F4BFCEE881F9810284F3857F
:10163000E02DA8016F2D7E2DCE010995882331F173
:10164000EC81FD81309709F4AECE848195812A81A9
:101650003B810097B1F0DC011396DC93CE93129797
:1016600033832283D583C483FB83EA839D838C8366
:101670002115310509F0FCCEF0931704E093160410
:1016800092CED0931504C0931404EACF0A80DB8174
:10169000C02DC7CFC0911004D0911104209709F438
:1016A00082CEE881F9810284F385E02DA8016F2DB7
:1016B0007E2DCE010995882331F1EC81FD81309793
:1016C00009F471CE848195812A813B810097B1F024
:1016D000DC011396DC93CE93129733832283D58358
:1016E000C483FB83EA839D838C832115310509F034
:1016F000BFCEF0931304E093120455CED09311049F
:10170000C0931004EACF0A80DB81C02DC7CFCF93EE
:10171000DF93EC018FE091E09983888385E291E08B
:101720009D838C83CE010496D7D6CE01DF91CF91D5
:10173000BCC60497ECCFCF93DF93EC0184E092E03A
:10174000998388838AE192E09D838C83CE018C9675
:10175000D2D6CE014896CFD6CE01DF91CF91D7CF4A
:101760000497E9CF86E394E0E6CFCF93DF93EC01D3
:10177000E2DFCE01DF91CF910C94231B0497F5CFCC
:10178000CF93DF93EC01C3DFCE01DF91CF910C94B7
:10179000231B0497F5CF80912E048111A9C08EE2FE
:1017A00094E00E94241B892B09F4A2C010923904F2
:1017B0001092380410923D0410923C0484E092E0B0
:1017C00090933704809336048AE192E090933B042F
:1017D00080933A048AE191E4A0E0B0E080933E0473
:1017E00090933F04A0934004B09341040E94921848
:1017F0006A517144810991096093420470934304D2
:101800008093440490934504109247041092460438
:10181000109249041092480410924B0410924A040A
:1018200010924D0410924C041092510410925004E6
:10183000109255041092540422EA32E030934F047F
:1018400020934E0486EC92E09093530480935204CC
:101850001092570410925604109259041092580492
:1018600044E554E050935B0440935A0440E554E04F
:1018700050935D0440935C0410925F0410925E04E8
:101880001092610410926004109265041092640436
:1018900010926904109268043093630420936204E8
:1018A000909367048093660410926B0410926A040C
:1018B00010926D0410926C0488E694E090936F048B
:1018C00080936E0484E694E0909371048093700496
:1018D00010927304109272041092750410927404A2
:1018E0008EE294E00E942D1B82EB9BE00E94060199
:1018F00086E394E00895EF92FF920F931F93CF93A6
:10190000DF93EC018E819F81892B39F58A819B8140
:10191000892B19F56ED28C01892B09F4CCDB7E0161
:1019200088E1E80EF11CB701CE012BD5B701C80143
:10193000049647D57E018CE2E80EF11CB701CE017A
:1019400004963FD5B701C8011CD581E0DF91CF9146
:101950001F910F91FF90EF90089580E0F7CF0496CC
:10196000BFC6CF93DF93C0912404D0912504209764
:1019700059F0E881F9810084F185E02DCE010995C7
:101980000A80DB81C02DF3CFC0912004D0912104C7
:10199000209759F0E881F9810084F185E02DCE018E
:1019A00009950A80DB81C02DF3CFC0911C04D09132
:1019B0001D04209759F0E881F9810084F185E02D1C
:1019C000CE0109950A80DB81C02DF3CFC0911804A8
:1019D000D0911904209759F0E881F9810084F185AC
:1019E000E02DCE0109950A80DB81C02DF3CFC09197
:1019F0001404D0911504209759F0E881F9810084EE
:101A0000F185E02DCE0109950A80DB81C02DF3CF51
:101A1000C0911004D0911104209759F0E881F98108
:101A20000084F185E02DCE0109950A80DB81C02D6F
:101A3000F3CFC0910C04D0910D04209759F0E881A8
:101A4000F9810084F185E02DCE0109950A80DB81C2
:101A5000C02DF3CFDF91CF910895CF93DF93C09145
:101A60007604D09177042097C9F08E819F810A80F7
:101A7000DB81C02D209729F02E813F8182179307AB
:101A800059F0DC01ED91FC910484F585E02D099578
:101A9000209721F02E813F81C901E9CFDF91CF91BD
:101AA0000895CF92DF92EF92FF920F931F93CF93FF
:101AB000DF938C0120DF03DBC091E802D091E902C3
:101AC000209759F0E881F9810480F581E02DCE015D
:101AD00009950A80DB81C02DF3CFC0912804D091F5
:101AE0002904209759F0E881F9810480F581E02DDF
:101AF000CE0109950A80DB81C02DF3CFC801ADDF8F
:101B0000C0912404D0912504209759F0E881F981EF
:101B10000480F581E02DCE0109950A80DB81C02D7E
:101B2000F3CFC0912004D0912104209759F0E8818F
:101B3000F9810480F581E02DCE0109950A80DB81D1
:101B4000C02DF3CFC0911C04D0911D04209759F0F3
:101B5000E881F9810480F581E02DCE0109950A80A4
:101B6000DB81C02DF3CFC0911804D09119042097C8
:101B700059F0E881F9810480F581E02DCE010995C5
:101B80000A80DB81C02DF3CFC0911404D0911504DD
:101B9000209759F0E881F9810480F581E02DCE018C
:101BA00009950A80DB81C02DF3CFC0911004D0913C
:101BB0001104209759F0E881F9810480F581E02D26
:101BC000CE0109950A80DB81C02DF3CFC0910C04B2
:101BD000D0910D04209759F0E881F9810480F581B6
:101BE000E02DCE0109950A80DB81C02DF3CFC09195
:101BF000E402D091E502209759F0E881F981048050
:101C0000F581E02DCE0109950A80DB81C02DF3CF4F
:101C1000C0910804D0910904209759F0E881F98116
:101C20000480F581E02DCE0109950A80DB81C02D6D
:101C3000F3CF0E949218F801C084D184E284F38427
:101C40006C197D098E099F09648775878687978738
:101C5000DF91CF911F910F91FF90EF90DF90CF9088
:101C60000895DF92EF92FF920F931F93CF93DF932C
:101C7000C0917604D0917704209749F10E811F819D
:101C80007E01D12CE881F9810680F781E02DCE011B
:101C90000995D82A0A80DB81C02D2097B1F08E816A
:101CA0009F8108171907D9F48C01ECCFD801ED9169
:101CB000FC910288F389E02DC8010995209739F03D
:101CC0008E819F817E01D12CEFCFD1100AC0DF9190
:101CD000CF911F910F91FF90EF90DF900895DD203D
:101CE00079F3D801ED91FC910684F785E02DC801C8
:101CF0000995D801ED91FC910088F189E02DC8018A
:101D00000995CE15DF0591F2D701ED91FC91048084
:101D1000F581E02DC7010995F701E280F380F1CF4D
:101D2000CF93DF93C091E802D091E902209759F058
:101D3000E881F9810680F781E02DCE0109950A80BE
:101D4000DB81C02DF3CFDF91CF910895CF92DF9249
:101D5000EF92FF920F931F93CF93DF93EC01DBD9A8
:101D60000091E4021091E5020115110561F0D8011E
:101D7000ED91FC910680F781E02DC8010995F801ED
:101D800002811381F1CFCCDFCE01EBDD0E949218EE
:101D9000CC84DD84EE84FF84088519852A853B8503
:101DA000AB01BC014C195D096E097F094017510751
:101DB0006207730760F0D701C601800F911FA21F51
:101DC000B31F8C879D87AE87BF87CE014ADFDF9127
:101DD000CF911F910F91FF90EF90DF90CF9085C929
:101DE000DADC90932D0480932C04089590E080E039
:101DF000089580917A0490917B04009749F4209192
:101E0000EA023091EB022115310511F0C901089762
:101E10000895CF93DF93EC0184E392E09983888364
:101E200088E592E09D838C8386E692E09987888797
:101E300082E792E09F878E87DCDFC817D90721F4FD
:101E400010927B0410927A0488E292E09987888746
:101E5000CE0108960E94D002CE01DF91CF9157CCDF
:101E6000CF92DF92EF92FF92CF93DF93EC016A0162
:101E70007B01049635D488899989009781F0DC012B
:101E8000ED91FC910190F081E02DA7019601BE013A
:101E9000DF91CF91FF90EF90DF90CF900994DF9189
:101EA000CF91FF90EF90DF90CF900895EF92FF9247
:101EB0000F931F93CF93DF9300D000D01F92CDB725
:101EC000DEB77C0129833A834B835C836D83C70132
:101ED000049655D4D70150968D919C91009769F046
:101EE000DC01ED91FC910280F381E02D09811A81E2
:101EF0002B813C814D81B70109950F900F900F9078
:101F00000F900F90DF91CF911F910F91FF90EF9065
:101F10000895CF92DF92EF92FF92CF93DF93EC017F
:101F20006A017B0104967BD488899989009781F0A6
:101F3000DC01ED91FC910480F581E02DA701960173
:101F4000BE01DF91CF91FF90EF90DF90CF90099489
:101F5000DF91CF91FF90EF90DF90CF9008950F9396
:101F60001F93CF93DF93EC018B01049692D4888961
:101F70009989009769F0DC01ED91FC910680F78169
:101F8000E02DA801BE01DF91CF911F910F9109941F
:101F9000DF91CF911F910F910895DC0118968D91DB
:101FA0009C91009739F0DC01ED91FC910088F1895A
:101FB000E02D099490E080E00895DC011A968D915F
:101FC0009C91009739F0DC01ED91FC910084F18542
:101FD000E02D099490E080E008950497EECFEF9211
:101FE000FF920F931F93CF93DF93EC018B017A0144
:101FF00088899989009721F06817790709F05BD8DB
:10200000198B088BEC85FD8580819181009781F08B
:102010002A853B852E153F0559F4DC01ED91FC9195
:102020000484F585E02DAE014C5F5F4FB801099542
:1020300088859985009759F0DC01ED91FC91048425
:10204000F585E02DAE014C5F5F4FB80109958A859B
:102050009B850097D9F0E816F906C1F06A897B895B
:102060006115710541F0DC01ED91FC910680F7816D
:10207000E02DAE0109958A859B85DC01ED91FC91EF
:102080000480F581E02DAE01B8010995EE85FF854C
:10209000808191810097A9F09C012C5F3F4FE2164F
:1020A000F30679F0DC01ED91FC91048CF58DE02DC7
:1020B000AE01B801DF91CF911F910F91FF90EF908A
:1020C0000994DF91CF911F910F91FF90EF900895A8
:1020D000EF92FF920F931F93CF93DF93EC018B014D
:1020E0007A0188899989009729F06817790711F092
:1020F0000E945B08198A188AEC85FD858081918190
:10210000009781F02A853B852E153F0559F4DC01A7
:10211000ED91FC910684F785E02DAE014C5F5F4F99
:10212000B801099588859985009759F0DC01ED91F2
:10213000FC910684F785E02DAE014C5F5F4FB8013E
:1021400009958A859B850097D9F0E816F906C1F0B4
:10215000DC01ED91FC910680F781E02DAE01B80124
:1021600009956A897B896115710551F08A859B857E
:10217000DC01ED91FC910480F581E02DAE01099523
:10218000EE85FF85808191810097A9F09C012C5FED
:102190003F4FE216F30679F0DC01ED91FC91068CDD
:1021A000F78DE02DAE01B801DF91CF911F910F9116
:1021B000FF90EF900994DF91CF911F910F91FF90C5
:1021C000EF9008950F931F93CF93DF93EC018885D1
:1021D00099858417950711F58B01798B688B8A8512
:1021E0009B85009741F0DC01ED91FC910480F58125
:1021F000E02DAE010995EE85FF85808191810097E4
:10220000F9F0DC01ED91FC91048CF58DE02DAE012F
:10221000B801DF91CF911F910F9109948A899B8911
:10222000892B71F47B8B6A8B8A859B85009741F0A3
:10223000DC01ED91FC910480F581E02DAE01E9CF48
:10224000DF91CF911F910F9108950497BBCF0F930A
:102250001F93CF93DF93EC018B01888599858417B9
:10226000950709F5198A188A8A859B85009741F098
:10227000DC01ED91FC910680F781E02DAE0109951E
:10228000EE85FF8580819181009701F1DC01ED9160
:10229000FC91068CF78DE02DAE01B801DF91CF9156
:1022A0001F910F9109946A897B896017710771F4F6
:1022B0001B8A1A8A8A859B85009741F0DC01ED9183
:1022C000FC910680F781E02DAE01E8CFDF91CF9140
:1022D0001F910F9108950497BACFDC011296ED91EA
:1022E000FC911397309731F01186108613961C924B
:1022F0001E9212970895DC011296ED91FC911397AE
:10230000309731F01386128613961C921E92129704
:102310000895FC01A281B381109749F0ED91FC91E1
:1023200011970484F585E02DAC01CD010994089541
:10233000FC01A281B381109749F0ED91FC911197B6
:102340000684F785E02DAC01CD0109940895DC01E8
:102350001296ED91FC91309739F080899189009720
:1023600029F482899389089590E080E00895FC0122
:1023700020853185232B11F00E945B0871876087CF
:1023800008950F931F93CF93DF93EC018B018A8104
:102390009B81009751F4BE01C801E9DF1B830A83CA
:1023A000DF91CF911F910F910895EC01F0CFFC01C7
:1023B00022853385232B11F00E945B087387628787
:1023C00008950F931F93CF93DF93EC018B018A81C4
:1023D0009B81009751F4BE01C801E9DF1B830A838A
:1023E000DF91CF911F910F910895EC012496EFCFCB
:1023F000EF92FF920F931F93CF93DF93EC01088529
:1024000019850115110571F0EE85FF85E080F180D9
:10241000E114F10439F0C80160DFCE015EDFB701DD
:10242000C801AFDF0A851B850115110579F0EC8520
:10243000FD85E080F180E114F10441F0C8015BDF2B
:10244000CE01049658DFB701C801BBDF88859985A6
:10245000009709F042DF8A859B85009709F04BDFE2
:10246000EE85FF8580819181892B31F4EC85FD8596
:1024700080819181892B11F00E945B08DF91CF91BF
:102480001F910F91FF90EF900895CF93DF93EC0190
:102490008A819B81009731F0F8DF8A819B81A8DFD8
:1024A0001B821A82DF91CF9108952EE732E0FC0162
:1024B00031832083EACFCF93DF93EC018A819B8124
:1024C000009739F00496F7DF8A819B8191DF1B82A8
:1024D0001A82DF91CF91089524E932E0FC01318323
:1024E0002083E9CFCF93DF93EC01F6DFCE01DF91BC
:1024F000CF910C94231BCF93DF93EC0182EA92E0FF
:102500009983888386EC92E09D838C83CE0170DF73
:10251000CE010496E1DFCE01DF91CF91C6CFCF93FC
:10252000DF93EC01E8DFCE01DF91CF910C94231B08
:102530000497F5CF0497DFCF1F93CF93DF93EC0180
:1025400088899989009741F48A899B89892B31F47C
:10255000DF91CF911F910895019621F18A899B897E
:10256000019601F11BE088899989009721F42A8955
:102570003B89232B69F3115059F3009739F0DC01A3
:10258000ED91FC910680F781E02D09958A899B8960
:10259000009749F3DC01ED91FC910680F781E02D75
:1025A0000995E1CF0E945B08FC018281938100972D
:1025B00009F0C2CF0895DC0118968D919C91009787
:1025C00039F0DC01ED91FC910480F581E02D099456
:1025D0000895F1CFF0CFCF93DF9300D000D01F92BA
:1025E000CDB7DEB729833A834B835C836D83DC01EF
:1025F00018968D919C91009771F0DC01ED91FC9102
:102600000680F781E02D0F900F900F900F900F90A4
:10261000DF91CF9109940F900F900F900F900F9032
:10262000DF91CF910895CF93DF9300D000D01F9218
:10263000CDB7DEB70F900F900F900F900F90DF91F6
:10264000CF91C9CFCF93DF9300D000D01F92CDB7E9
:10265000DEB70F900F900F900F900F90DF91CF91FA
:10266000BACFDC0118968D919C91009739F0DC016E
:10267000ED91FC910084F185E02D09940895F1CF4E
:10268000F0CFDC0118968D919C91009739F0DC0118
:10269000ED91FC910284F385E02D09940895F1CF2A
:1026A000F0CFCF92DF92EF92FF92CF93DF93EC01C6
:1026B0006A017B01EC85FD8580819181009709F09D
:1026C000F0DFE881F9810288F389E02DB701A601E6
:1026D000CE01DF91CF91FF90EF90DF90CF900994E2
:1026E000CF92DF92EF92FF92CF93DF93FC01228192
:1026F0003381232B79F06A017B01EC0155DFB701AF
:10270000A6018A819B81DF91CF91FF90EF90DF90AE
:10271000CF90C7CFDF91CF91FF90EF90DF90CF9018
:1027200008950F931F93CF93DF9300D000D01F9293
:10273000CDB7DEB78C0129833A834B835C836D83ED
:10274000DC011C96ED91FC9180819181009709F04C
:10275000E8DFD801ED91FC910488F589E02D29810D
:102760003A814B815C816D81C8010F900F900F9071
:102770000F900F90DF91CF911F910F9109940F93BC
:102780001F93CF93DF9300D000D01F92CDB7DEB759
:1027900029833A834B835C836D83FC0122813381DF
:1027A000232BA1F08C0100DF29813A814B815C81D0
:1027B0006D81F801828193810F900F900F900F909F
:1027C0000F90DF91CF911F910F91ABCF0F900F9092
:1027D0000F900F900F90DF91CF911F910F9108955F
:1027E000CF92DF92EF92FF92CF93DF93EC016A01D9
:1027F0007B01EC85FD8580819181009709F0F0DFF8
:10280000E881F9810688F789E02DB701A601CE019C
:10281000DF91CF91FF90EF90DF90CF900994CF920E
:10282000DF92EF92FF92CF93DF93FC0122813381FD
:10283000232B79F06A017B01EC01B6DEB701A6011A
:102840008A819B81DF91CF91FF90EF90DF90CF90B5
:10285000C7CFDF91CF91FF90EF90DF90CF90089599
:102860000F931F93CF93DF93EC018B01EC85FD85D4
:1028700080819181009709F0F3DFE881F981008C74
:10288000F18DE02DB801CE01DF91CF911F910F9115
:102890000994FC0182819381009709F0E1CF0895AA
:1028A000FC01E058FF4F118210828E579F4F21E0AC
:1028B000FC01208308958E579F4FFC0110820895DC
:1028C000FC01E058FF4F20813181820F931FDC0112
:1028D0006C932F5F3F4F3183208308950F931F9395
:1028E000CF93DF93C42FD0E08C0100581F4FF80125
:1028F00020813181AE01820F931F0E94B41DF80127
:1029000040815181C40FD51FD183C083DF91CF9106
:102910001F910F910895FC01E058FF4F20E830E02F
:10292000261B310981E0408151812417350708F4C5
:1029300080E008958E579F4FFC018081089508958F
:1029400080589F4FFC01808191810895DF92EF9222
:10295000FF920F931F93CF93DF9300D000D0CDB79A
:10296000DEB77C0149835A836B837C83D22E822F0E
:102970008F70870193E8899F000D111D1124095F55
:102980001F4F8A81803F09F5C8018ADF63E0C801D3
:10299000C2DF811120C089819A81AB81BC81F7019E
:1029A000E657FF4F80839183A283B383F701D682DA
:1029B00084E00F900F900F900F90DF91CF911F91B7
:1029C0000F91FF90EF90DF900895C801B3DF811160
:1029D000DDCF80E0EECF43E0BE016E5F7F4FC801E8
:1029E0007DDFF7CFBF92CF92DF92EF92FF920F93EE
:1029F0001F93CF93DF93EC01573F69F058832B83EC
:102A000085E0DF91CF911F910F91FF90EF90DF90C4
:102A1000CF90BF900895122FB72ED62E052FC42E1B
:102A2000822F8F709E0143E8849F200D311D112459
:102A3000295F3F4F7901C9017DDF8823B9F061E04B
:102A4000C70169DF81110AC0FE01E657FF4FC0824E
:102A50000183D282B3821E8384E0D3CF67EFC701A4
:102A60002FDFC70128DF1E8382E0CBCF80E0C9CFF4
:102A7000DF92EF92FF920F931F93CF93DF93CDB727
:102A8000DEB728970FB6F894DEBF0FBECDBF242F58
:102A900030E0E4E035952795EA95E1F72115310519
:102AA00011F080E021C0E42FEF70E250EE30C8F763
:102AB0008C01F0E0E25AFA4E0C94921D6C156C15E4
:102AC000821585158815C015E715E715E715E71573
:102AD000E715E715E715F015FC0150836183728354
:102AE0008381807F838385E028960FB6F894DEBFCC
:102AF0000FBECDBFDF91CF911F910F91FF90EF904F
:102B0000DF90089520E022DFEFCF20E06BDFECCFF5
:102B10004D835E836F837887D12C83E8829F700119
:102B2000839FF00C1124F7E0EF0EF11CE00EF11E74
:102B3000C701503FA9F4B4DE62E0C701ECDE8111A9
:102B400013C08D819E81AF81B885F801E657FF4F94
:102B500080839183A283B383F801D68284E0C4CFBB
:102B6000E9DE8111E9CF9DCF42E0BE016A5F7F4F70
:102B7000C701B4DEC7019FDEF801D68282E0B4CF80
:102B800049835A836B837C83D12C83E8829F7001B5
:102B9000839FF00C1124F7E0EF0EF11CE00EF11E04
:102BA000C701503F59F47CDE63E0C701B4DE8111F8
:102BB00009C089819A81AB81BC81C7CFBBDE8111FD
:102BC000F3CF6FCF43E0BE016E5F7F4FD1CFFC01EB
:102BD0005083618372838381807F838381E084CF8C
:102BE000FC0154838581807F858383E07DCFCF92F4
:102BF000DF92EF92FF921F93CF93DF93FC01E65792
:102C0000FF4F2081222341F1EC01C080D180E2807E
:102C1000F38010828E818F7013E89E01189F200D23
:102C2000311D1124C901079685DE882351F08E815C
:102C30008F709E01189F200D311D1124C901079628
:102C40002FDEB701A601CE01DF91CF911F91FF903A
:102C5000EF90DF90CF900CCF80E0DF91CF911F916C
:102C6000FF90EF90DF90CF9008951F920F920FB6D4
:102C70000F9211240BB60F922F933F934F935F93B4
:102C80006F937F938F939F93AF93BF93EF93FF9334
:102C900080917C0490917D04892B29F0E0917C0443
:102CA000F0917D040995FF91EF91BF91AF919F91B4
:102CB0008F917F916F915F914F913F912F910F90E5
:102CC0000BBE0F900FBE0F901F9018951F920F9282
:102CD0000FB60F9211240BB60F922F933F934F9381
:102CE0005F936F937F938F939F93AF93BF93EF9374
:102CF000FF9380917E0490917F04892B29F0E091CD
:102D00007E04F0917F040995FF91EF91BF91AF91FF
:102D10009F918F917F916F915F914F913F912F91F3
:102D20000F900BBE0F900FBE0F901F9018951F9223
:102D30000F920FB60F9211240BB60F922F933F9361
:102D40004F935F936F937F938F939F93AF93BF93B3
:102D5000EF93FF938091800490918104892B29F057
:102D6000E0918004F09181040995FF91EF91BF916A
:102D7000AF919F918F917F916F915F914F913F9113
:102D80002F910F900BBE0F900FBE0F901F901895B4
:102D90001F920F920FB60F9211240BB60F922F9322
:102DA0003F934F935F936F937F938F939F93AF93D3
:102DB000BF93EF93FF938091820490918304892BBA
:102DC00029F0E0918204F09183040995FF91EF913D
:102DD000BF91AF919F918F917F916F915F914F9133
:102DE0003F912F910F900BBE0F900FBE0F901F9031
:102DF00018951F920F920FB60F9211240BB60F92D7
:102E00002F933F934F935F936F937F938F939F93F2
:102E1000AF93BF93EF93FF938091840490918504C7
:102E2000892B29F0E0918404F09185040995FF91A4
:102E3000EF91BF91AF919F918F917F916F915F9132
:102E40004F913F912F910F900BBE0F900FBE0F909F
:102E50001F9018951F920F920FB60F9211240BB668
:102E60000F922F933F934F935F936F937F938F9323
:102E70009F93AF93BF93EF93FF93809186049091BC
:102E80008704892B29F0E0918604F0918704099545
:102E9000FF91EF91BF91AF919F918F917F916F9132
:102EA0005F914F913F912F910F900BBE0F900FBEEE
:102EB0000F901F9018951F920F920FB60F9211242A
:102EC0000BB60F922F933F934F935F936F937F9324
:102ED0008F939F93AF93BF93EF93FF938091880459
:102EE00090918904892B29F0E0918804F09189045C
:102EF0000995FF91EF91BF91AF919F918F917F9134
:102F00006F915F914F913F912F910F900BBE0F905A
:102F10000FBE0F901F9018951F920F920FB60F9231
:102F200011240BB60F922F933F934F935F936F93A0
:102F30007F938F939F93AF93BF93EF93FF93809172
:102F40008A0490918B04892B29F0E0918A04F091F6
:102F50008B040995FF91EF91BF91AF919F918F9154
:102F60007F916F915F914F913F912F910F900BBE89
:102F70000F900FBE0F901F9018951DBA1092680009
:102F80001CBC10BE1FBA10927A0010926E001092F4
:102F90006F0010927000109271001092C900109290
:102FA000BC0011B814B817B81AB81DB810BA12B8C6
:102FB00015B818B81BB81EB811BA0895F894E1E610
:102FC000F0E020E82083108283E084BD85BDEEE63A
:102FD000F0E080818160808391E09093800082E0C6
:102FE000809381009093B0008093B1009093900003
:102FF0008093910086E880937A0020937B00109262
:103000007E00AFD0789408959AED980F983010F123
:10301000883060F490917E0021E030E0082E01C0FD
:10302000220F0A94EAF7922B90937E008F71909171
:103030000001892B80937C0080917A0080648093CA
:103040007A0080917A0086FDFCCF80917800909183
:1030500079000895892FDECFF89484B7877F84BFE5
:10306000809160008061809360001092600080E237
:103070009EE40197F1F781E08093E00080E2809385
:10308000D80080E69AEE0197F1F777DF0C9400FE06
:10309000FFCFF89472DF80E69AEE0197F1F70C9477
:1030A0000000FFCF8F938FB78F9380918C048D5F3B
:1030B0008D37D0F480938C0480918D048F5F809342
:1030C0008D04D8F080918E048F4F80938E04A8F0E9
:1030D00080918F048F4F80938F0478F080919004BB
:1030E0008F4F8093900409C08D5780938C048091FA
:1030F0008D048E5F80938D0428F7809191048C5FFE
:103100008093910458F0809192048F4F80939204A1
:1031100028F0809193048F4F809393048F918FBFF9
:103120008F9118950FB6F89466B515B27091910409
:1031300080919204909193040FBE10FE05C06F3FE2
:1031400019F07C5F8F4F9F4F11240024660F001CE5
:10315000660F001C702908958091E80080FFFCCF65
:1031600008958091D80087FF02C085FF1BC081E8C9
:103170008093D70080EA8093D80086E189BD09B4A6
:1031800000FEFDCF80E98093D8001092E0001092FD
:103190000E0510920D0510920C051092E1008CE0C6
:1031A0008093E20008951F920F920FB60F921124A0
:1031B0008F939F939091E1001092E10093FF0FC0D5
:1031C0001092E90081E08093EB001092EC0082E322
:1031D0008093ED0088E08093F00010920E0592FF3E
:1031E00021C080910E058823E9F080910C05882389
:1031F00079F0815080930C0581110AC081E08093A1
:10320000E9008091E80085FD35C08AE38093E800FD
:1032100083E08093E9008091F200882319F08AE32B
:103220008093E80090FF0CC080E18093E200109250
:103230000E0581E080930D0580EA8093D80019BCCB
:1032400080910D05882379F094FF0DC086E189BD3A
:1032500009B400FEFDCF80E98093D8008DE0809313
:10326000E20010920D059F918F910F900FBE0F906D
:103270001F9018951092F100C4CF1F920F920FB6B5
:103280000F9211240BB60F92EF92FF920F931F93A0
:103290002F933F934F935F936F937F938F939F935E
:1032A000AF93BF93CF93DF93EF93FF931092E90017
:1032B0008091E80083FF21C0E090F100F090F100E0
:1032C000C091F100D091F1000091F1001091F10056
:1032D0002091F1003091F10082EF8093E80086E0C8
:1032E000F8125CC0E8E9F0E085919591C817D9071C
:1032F00041F03596FA94F110F7CF81E28093EB001C
:103300002BC0859195910817190711F03396F2CFCC
:103310004591559184912F3F310519F010F02FEF11
:1033200030E0821708F4282F3EEF8091E800982FB4
:103330009570D9F382FD10C0822F213408F080E40B
:10334000982F911124C0922F981B892F3093E80059
:1033500091111BC02034C8F4FF91EF91DF91CF9100
:10336000BF91AF919F918F917F916F915F914F919D
:103370003F912F911F910F91FF90EF900F900BBEF7
:103380000F900FBE0F901F901895282FCECFFA01E7
:1033900045914093F100AF019150D3CF85E0F812F1
:1033A00008C08EEF8093E800D7DEC068C093E300CA
:1033B000D3CF99E0F91222C0E110D3C0C0930E051B
:1033C00010920C058EEF8093E80081E0ECE7F1E0CD
:1033D0008093E90095919093EB00992331F09591BA
:1033E0009093EC0095919093ED008F5F853081F77D
:1033F0008EE18093EA001092EA00AECF98E0F912D5
:103400000CC080E8E81279CFA7DE80910E0580938A
:10341000F1008EEF8093E8009FCFF11012C09CDE88
:1034200092E8E91209C00093E900F090EB00F5FA88
:10343000FF24F0F81092E900F092F1001092F100F0
:10344000E8CF8F2D8D7F813009F080C082E0E812B7
:103450001BC02097C9F4402F4F778FEF840F863021
:1034600098F48EEF8093E8004093E90093E0F9161A
:1034700009F443CF89E18093EB0081E090E001C043
:10348000880F4A95EAF7B5CF0130110509F05EC003
:1034900081E0F81222C091EA3EEFE9122ECF80912E
:1034A000E800982F9570D9F382FD56CF822F2134F2
:1034B00008F080E4982F91110CC0922F981B892F4F
:1034C0003093E800911103C0203408F445CF282F31
:1034D000E6CF1092F1009150EECF89E0F81236C09D
:1034E00091E2E9120ACFC115D34009F006CF24308A
:1034F000310509F002CF8091E80082FFFCCF3091C6
:10350000F1002091F1009091F1008091F1004BEFDA
:103510004093E8004EEF4093E800393A51F42534E7
:1035200009F0EBCE923C09F0E8CE8B3609F0E5CEFF
:1035300093DD3B3809F0E1CE253C09F0DECE9D312C
:1035400009F0DBCE803709F0D8CEA3DD99ECF91273
:10355000D4CE80E4E812D1CE8EEF8093E800FCDD7B
:10356000F4CF0130110509F0C8CEBACFCF92DF9267
:10357000EF92FF920F931F93CF93DF936C01EB01B8
:103580007B01E40EF51E10E000E0CE15DF0561F0D2
:103590006991D601ED91FC910190F081E02DC60179
:1035A0000995080F191FF1CFC801DF91CF911F9125
:1035B0000F91FF90EF90DF90CF9008954F925F9220
:1035C0006F927F92AF92BF92CF92DF92EF92FF9273
:1035D0000F931F93CF93DF93CDB7DEB729013A0145
:1035E0009B01AC01241935094609570989899A8933
:1035F000AB89BC89BC01CD016A197B098C099D0985
:1036000044D2A801970124193509460957096ED2F9
:10361000CA01B9016A0D7B1D8C1D9D1DDF91CF91E3
:103620001F910F91FF90EF90DF90CF90BF90AF90E0
:103630007F906F905F904F900895C0DC0E94DB04F4
:103640000E943406FDCF98C1FC0181E090E020810A
:10365000222311F090E080E0089521E0FC01208316
:103660000895089580910E05882371F08FB7F8941E
:1036700092E09093E9009BE62091E80025FF03C0CB
:103680009093E800F9CF8FBF109207050895FC01D1
:1036900080910E05882369F19FB7F89481E08093AB
:1036A000E9002091E400275E3091E80035FD0EC06E
:1036B0009FBF9091E4009217E1F090910E0599233D
:1036C000C1F09FB7F8948093E900EECF6093F100CA
:1036D0008091E80085FD09C08AE38093E80010929C
:1036E0000C059FBF81E090E0089584E080930C0575
:1036F000F8CF81E0828390E080E008959FB7F8944E
:1037000033E03093E9003091E4003E5F53E0709184
:10371000E80075FD0EC09FBF9091E4003917C9F015
:1037200090910E059923A9F09FB7F8945093E90062
:10373000EECF8093F1006093F1004093F10020936D
:10374000F1008091E80085FD03C08AE38093E800E2
:103750009FBF08950F93862F642F422F202F9091A3
:103760000E05992311F00F91C9CF0F9108959FB7BE
:10377000F89480910E05811102C09FBF089582E0E8
:103780008093E9002BE68091E80085FD03C09FBF90
:1037900080E008958091F100811103C02093E8003A
:1037A000F2CF2091E80025FDE8CF2BE62093E8003A
:1037B000E4CF20910705211105C0D9DF882329F026
:1037C0008093070581E090E0089590E080E00895FF
:1037D0009C0190910705992329F010920705892FE4
:1037E00090E00895C901C3DF8111FACF8FEF9FEFF9
:1037F00008959C0190910705892F911106C0C90178
:10380000B6DF882321F08093070590E008958FEFBD
:103810009FEF0895EFEFF4E0128288EE93E0A0E0CE
:10382000B0E083839483A583B683178284ED92E00E
:1038300091838083089508950F931F93CF93DF930F
:103840008230910510F482E090E0E0910A05F09159
:103850000B0530E020E070E060E0D0E0C0E0B0E0D8
:10386000A0E0309799F42115310509F44AC0281BCE
:10387000390B24303105D8F58A819B81611571059A
:1038800089F1FB0193838283FE0111C04081518144
:103890000281138148175907E0F04817590799F436
:1038A000109761F012960C93129713961C93329610
:1038B000CF01DF91CF911F910F91089500930A05D9
:1038C00010930B05F4CF2115310551F04217530722
:1038D00038F0A901DB019A01BD01DF01F801C1CF78
:1038E000EF01F9CF90930B0580930A05CDCFFE0130
:1038F000E20FF31F8193919322503109398328837A
:10390000D7CF2091080530910905232B41F4209150
:10391000030130910401309309052093080520919B
:103920000101309102012115310541F42DB73EB757
:103930004091050150910601241B350BE0910805CB
:10394000F0910905E217F307A0F42E1B3F0B28178F
:10395000390778F0AC014E5F5F4F2417350748F008
:103960004E0F5F1F50930905409308058193919373
:103970009FCFF0E0E0E09CCFCF93DF930097E9F09A
:10398000FC01329713821282A0910A05B0910B05B7
:10399000ED0130E020E01097A1F420813181820F09
:1039A000931F20910805309109052817390709F060
:1039B00061C0F0930905E0930805DF91CF91089568
:1039C000EA01CE17DF07E8F54A815B819E014115C8
:1039D0005105B1F7E901FB83EA8349915991C40F7D
:1039E000D51FEC17FD0761F4808191810296840F49
:1039F000951FE90199838883828193819B838A83C0
:103A0000F0E0E0E012968D919C9113970097B9F544
:103A10002D913C911197CD010296820F931F209119
:103A20000805309109052817390739F6309751F5FF
:103A300010920B0510920A05B0930905A093080592
:103A4000BCCFD383C28340815181840F951FC81797
:103A5000D90761F44E5F5F4F88819981480F591FE4
:103A6000518340838A819B81938382832115310511
:103A700009F0B0CFF0930B05E0930A059ECFFD014E
:103A8000DC01C0CF13821282D7CFDB018F939F93CB
:103A900052D0BF91AF91A29F800D911DA39F900D19
:103AA000B29F900D11240895A1E21A2EAA1BBB1BF0
:103AB000FD010DC0AA1FBB1FEE1FFF1FA217B307FA
:103AC000E407F50720F0A21BB30BE40BF50B661F10
:103AD000771F881F991F1A9469F7609570958095D4
:103AE00090959B01AC01BD01CF010895052E97FB78
:103AF00016F400940FD057FD05D0D6DF07FC02D096
:103B000046F408C050954095309521953F4F4F4F52
:103B10005F4F089590958095709561957F4F8F4F79
:103B20009F4F0895EE0FFF1F0024001C0BBE07904F
:103B3000F691E02D099409D0A59F900DB49F900DAA
:103B4000A49F800D911D11240895A29FB001B39FE1
:103B5000C001A39F700D811D1124911DB29F700D96
:103B6000811D1124911D0895FB01DC0102C001900B
:103B70000D9241505040D8F708950E94F30010E094
:103B8000C7ECD0E003C0FE01CDDF2196C83CD107D1
:063B9000D1F7F894FFCF0D
:103B96004000000F0580003C3F3E00000000000092
:103BA600000000311B311B311B311B24012501266E
:103BB60001FCFF0000000000002701280129010088
:103BC600000000D0020B03000000007E02B90200D4
:103BD60000000000000000311B311B000000003116
:103BE60003370340031D0200000000BE01D7016633
:103BF600032F010D0268012401250126012D013143
:103C060006F506D5061E08BD0688018006FCFF00DF
:103C160000D301E001270128012901F8FF0000D5A2
:103C260001E2012E013206F2FF0000D101E4012A71
:103C360001810600000000E601FE0166032F010D6A
:103C46000268012401250126012D013106F506D55C
:103C5600061E08BD0688018006FCFF0000FC010B5D
:103C660002270128012901F8FF0000FA0109022EA6
:103C7600013206F2FF0000F80107022A0181060060
:103C8600000000A5047301860187017201BC0100D2
:103C9600000000009B0BB50BA60922090F091909A4
:103CA600240125012601FCFF0000B00BBE0B2701F5
:103CB600280129010000000000000000311B311B13
:103CC600000000000000000066032F010D026801DD
:103CD6002401250126012D01311B311B311B311B0E
:103CE600311B311BFCFF00000000000027012801EA
:103CF6002901F8FF0000000000002E01311BF2FF31
:103D06000000000000002A01311B00000000000036
:103D16000000311B311B311B311B240125012601FB
:103D2600000000006C127212270128012901000010
:103D360000007B128F12EA12221340135013EF0F6A
:103D46006810CD0FE91213133F134F13DD0FE21066
:103D56002711FCFF00009A12981225116B11ED0F26
:103D660000000000471BB61AF60E321BD91BE81BD3
:023D7600F91B37
:00000001FF
