:10000000FFC000000C94D01E0C94011F0C94321FF2
:100010000C94631F0C94941F0C94C51F0C94F61F32
:100020000C94272017C100000C9475230C94DF2337
:1000300011C100000FC100000DC100000BC1000084
:1000400009C1000007C1000005C1000003C1000094
:1000500001C10000FFC00000FDC000000C94F422AC
:10006000F9C000000C9427260C9452260C94832689
:10007000F1C00000EFC00000EDC00000EBC00000C8
:10008000E9C00000E7C00000E5C00000E3C00000D8
:10009000E1C00000DFC0000001290229042908296D
:1000A0001029202940298029012C022C0126022612
:1000B000042608261026202640268026402C802C48
:1000C0000123022304230823102320234023802319
:1000D0000120022004200820102020204020802021
:1000E000102C202C012F022F042F082F102F202F2F
:1000F000402F802F7EFE7EFD7EFB7EF77EEF7EDF33
:100100007EBF7E7F00010000DA011200020000467F
:10011000017300220100B9012100210100A201099F
:1001200000030000420104010309042E011212031E
:1001300047007500690062006F0061007200640092
:1001400000000403090409027300020100C032091F
:100150000400000201030000072401000141000621
:100160002402010100062402020200092403010303
:100170000102010009240302040101010009050430
:10018000024000000000052501010109058302402D
:10019000000000000525010103090401000203001D
:1001A00000000921110100012221000705810340FF
:1001B00000010705020320000206C9FF0904A15C33
:1001C0007508150026FF00954009758102952009E4
:1001D00076910295040976B102C012010002000076
:1001E0000040B016660472020001000101C1360130
:1001F000C026018136018036520A6614A126FA0B08
:1002000011241FBECFEFD0E2DEBFCDBF14E0A0E0CF
:10021000B1E0E4ECF0E500E00BBF02C007900D9206
:10022000A83EB107D9F728E0A8EEB4E001C01D92BE
:10023000A93DB207E1F710E0CFEFD0E004C021976D
:10024000FE010E943B28CC3FD107C9F70E94DA2665
:100250000C945428D5CEA091E804B091E9041097ED
:1002600009F40895ED91FC91119712968D919C914E
:100270009093E9048093E8040995EDCFCF93DF9341
:10028000EC0184E090E00E94F026009791F0FC01E0
:10029000D183C0832091E8043091E9043383228321
:1002A0009093E9048093E80490E080E0DF91CF919F
:1002B000089581E090E0FACF089508950895089593
:1002C0000895089585E891E00895089508950895A2
:1002D000CF93DF93CDB7DEB72A970FB6F894DEBF82
:1002E0000FBECDBF2E833F83488759876A8725E09D
:1002F000FE013696DE01119601900D922A95E1F7E6
:1003000028853985232BA1F0DC01ED91FC91028C2D
:10031000F38DE02D29813A814B815C816D812A9694
:100320000FB6F894DEBF0FBECDBFDF91CF91099419
:100330002A960FB6F894DEBF0FBECDBFDF91CF91E6
:100340000895683F38F0DC01ED91FC91048CF58D47
:10035000E02D099408950895CF93DF93673010F04E
:100360000E941E0CFC016483C681D781209759F03E
:10037000E881F9810480F581E02DCE0109950A809C
:10038000DB81C02DF3CFDF91CF91089525E632E0D8
:10039000FC01318320832BE832E03583248329E973
:1003A00032E03187208725EA32E0378726870C94B0
:1003B000B2140E97EBCF0497E9CF0897E7CFCF930E
:1003C000DF93EC01E3DFCE01DF91CF910C94E026C7
:1003D0000497F5CF0897F3CF0E97F1CF21EB32E0DA
:1003E000FC013183208327ED32E03583248325EE21
:1003F00032E03187208721EF32E037872687C6CF6A
:100400000E97ECCF0897EACF0497E8CFCF93DF930E
:10041000EC01E4DFCE01DF91CF910C94E0260E9742
:10042000F5CF0897F3CF0497F1CFCF93DF93EC018B
:10043000FC01EE55FF4F2081318142815381CA0179
:10044000B901969587957795679560587B47814E5A
:100450009F4F0E941928B9014FEF8A899B89DF912C
:10046000CF910C94EE250897E0CF242F287F203FD2
:1004700059F4403F49F06F77DC01ED91FC91008C1D
:10048000F18DE02D5F7709940895CF93DF93FC0100
:1004900089EB91E091838083309781F08091EA0429
:1004A0009091EB0422813381A481B581E817F9078B
:1004B00041F02115310529F4109729F4DF91CF91EE
:1004C0000895109721F013963C932E931297209144
:1004D000EC043091ED04E217F30721F4B093ED043E
:1004E000A093EC04C281D381209711F0BD83AC832B
:1004F000E817F90719F7D093EB04C093EA04DECFAD
:10050000CF93DF93EC01C1DFCE01DF91CF910C944B
:10051000E026CF93DF93FC0181EB91E09183808310
:10052000309781F08091EE049091EF042281338125
:10053000A481B581E817F90741F02115310529F4A7
:10054000109729F4DF91CF910895109721F0139619
:100550003C932E9312972091F0043091F104E2170E
:10056000F30721F4B093F104A093F004C281D38186
:10057000209711F0BD83AC83E817F90719F7D093E2
:10058000EF04C093EE04DECFCF93DF93EC01C1DF25
:10059000CE01DF91CF910C94E02621EC31E0FC01FB
:1005A0003183208372CFCF93DF93EC01F6DFCE014E
:1005B000DF91CF910C94E02623E033E0FC013183FE
:1005C0002083EBCFCF93DF93EC01F6DFCE01DF91F9
:1005D000CF910C94E0262FE033E0FC01318320839F
:1005E000EBCFCF93DF93EC01F6DFCE01DF91CF911C
:1005F0000C94E02621EC31E0FC013183208345CFCF
:10060000CF93DF93EC01F6DFCE01DF91CF910C9415
:10061000E0262BE133E0FC0131832083EBCFCF9345
:10062000DF93EC01F6DFCE01DF91CF910C94E02651
:1006300020E8240F203748F46F77DC01ED91FC911E
:100640000688F789E02D5F77099408952EE834E055
:10065000FC013183208324EB34E03583248322ECB6
:1006600034E0318720872EEC34E0378726870C94DE
:10067000B2140E97EBCF0897E9CF0497E7CF2DEC94
:1006800031E0FC013183208323EF31E03583248383
:1006900021E032E0318720872DE032E0378726875E
:1006A000D5CF0E97ECCF0497EACF0897E8CFCF933A
:1006B000DF93EC01E4DFCE01DF91CF910C94E026D3
:1006C0000497F5CF0897F3CF0E97F1CF29E132E0E9
:1006D000FC01318320832FE332E0358324832DE432
:1006E00032E03187208729E532E037872687C7CF78
:1006F0000E97ECCF0897EACF0497E8CFCF93DF931C
:10070000EC01E4DFCE01DF91CF910C94E0260E974F
:10071000F5CF0897F3CF0497F1CFCF93DF93EC0198
:1007200095DFCE01DF91CF910C94E0260E97F5CFA7
:100730000897F3CF0497F1CF8091F7079091F807CE
:100740000C941C14FC01138212821582148281EB1A
:1007500091E0918380838091EE049091EF04892B46
:1007600021F4F093EF04E093EE04A091F004B09133
:10077000F104B583A483109721F01396FC93EE93B4
:100780001297F093F104E093F0041382128208951B
:100790008F929F92AF92CF92DF92EF92FF920F9340
:1007A0001F93CF93DF93CDB7DEB7C45AD1090FB6ED
:1007B000F894DEBF0FBECDBF4C018BE4F701A3E57B
:1007C000B0E0AC0FBD1F159601900D928A95E1F730
:1007D000CD55DF4FD982C882C35AD04065965FAFEE
:1007E0004EAF659780E866968FAF669768967FAF45
:1007F0006EAF689782E5FE01ED5AFF4FDE0111965C
:1008000001900D928A95E1F7D40113961C921E92E5
:10081000129715961C921E92149789EB91E08D9376
:100820009C938091EA049091EB04892B21F490929F
:10083000EB048092EA04E091EC04F091ED04D40121
:100840001596FC93EE931497309711F09382828261
:100850009092ED048092EC04F4011382128289E1FB
:1008600090E0A0E0B0E086839783A087B187D401B1
:1008700012861386148615868AE0F901589601902F
:100880000D928A95E1F78EE1F801D40192960190DC
:100890000D928A95E1F74AE050E06FEF70E0C401F5
:1008A0000E960E944D2882E5FE013196D401A05C8F
:1008B000BF4F01900D928A95E1F7F401EE56FF4F7C
:1008C000118210823296A0828BE193E0F401918331
:1008D0008083CC55DF4F0FB6F894DEBF0FBECDBF7F
:1008E000DF91CF911F910F91FF90EF90DF90CF900C
:1008F000AF909F908F9008950F931F93CF93DF93A6
:100900008C01FB01E05BFF4F2081318122303105FA
:1009100008F094D7C90101969183808348E2429FF1
:10092000C001439F900D1124EB01C80FD91F4496BD
:10093000680F791FC80104960E948B17BE01C80179
:100940000E946B17CE01DF91CF911F910F910895F7
:100950000F931F93CF93DF93C091F707D091F807C0
:1009600060E071E0CE01C8DF8C01BC0181EF96E050
:100970000E948B17B8016C5E7F4F8DEE96E00E944F
:100980006B1760E071E0CE01B7DF8C01BC018BE436
:1009900096E00E948B17B8016C5E7F4F87E496E06B
:1009A0000E946B17CE01DF91CF911F910F910C9494
:1009B000C712CF92DF92EF92FF920F931F93CF93C4
:1009C000DF93EC017C018CE1E80EF11C6E01EAE39F
:1009D000CE0ED11C87010C151D0539F0F801808160
:1009E0000E94DA200E5F1F4FF6CF6296CE15DF050C
:1009F00029F088810E94B0202296F8CFDF91CF9114
:100A00001F910F91FF90EF90DF90CF900895069681
:100A1000D0CF1F93CF93DF93EC018F819885DC01BA
:100A200012961C911297ED91FC910190F081E02DAE
:100A3000612F09951E83DF91CF911F910895CF9368
:100A4000DF93EC01E6DFCE010A9608D7CE0141968E
:100A5000DF91CF9103C70F931F93CF938C01C62FC4
:100A6000673008F0EBD6DC0117968D919C91DC0184
:100A7000ED91FC910190F081E02D0995F8018681BE
:100A8000C813C683CF911F910F910895CF93DF9321
:100A9000EC010A966CD79F8F8E8F8730910540F4BA
:100AA00084309105B8F4019748F4DF91CF9108950F
:100AB0000797D9F7CE01DF91CF91ABCF88A16E8197
:100AC0006F5F673019F460E0813079F7CE01DF9114
:100AD000CF91C1CF88A16E81611103C0813029F708
:100AE00067E06150F3CFFF920F931F93CF93DF9393
:100AF0008C010D5E1F4FC8010E94921EC82F8111EC
:100B00000AC084E0F82EDBE68FB7F8949091DB08FA
:100B1000911108C08FBF8C2FDF91CF911F910F9142
:100B2000FF900895F092E9009091E80095FD05C0CE
:100B300092FFF0CFD093E800F7CF4091F1005091B1
:100B4000F1006091F1007091F1009091E80095FF43
:100B5000D093E8008FBF4423F1F2C8010E94D31D57
:100B6000882391F2C82FD7CFBF92CF92DF92EF9216
:100B7000FF920F931F93CF93DF93CDB7DEB72A97E2
:100B80000FB6F894DEBF0FBECDBF633009F491C03D
:100B9000A8F4613069F1623009F440C02A960FB6BA
:100BA000F894DEBF0FBECDBFDF91CF911F910F91A3
:100BB000FF90EF90DF90CF90BF900895643071F177
:100BC000653061F7FC0143895489658976892A96E5
:100BD0000FB6F894DEBF0FBECDBFDF91CF911F914E
:100BE0000F91FF90EF90DF90CF90BF900C94321553
:100BF000FC0143895489658976892A960FB6F89451
:100C0000DEBF0FBECDBFDF91CF911F910F91FF903F
:100C1000EF90DF90CF90BF900C94D9148C017C01A1
:100C2000F3E1EF0EF11CFC01818D8F7093E8B92E7A
:100C30009701B89E200D311D1124C90107960E940D
:100C40003A1D6C01F801818D8F709701B89E200DBF
:100C5000311D1124C90107960E943B1DF801218D09
:100C60002F70DA82C9829C838B838D81807F822B57
:100C70008D8385E0FE013196DE01169601900D927E
:100C80008A95E1F72E813F81488559856A85C8019B
:100C90002A960FB6F894DEBF0FBECDBFDF91CF917D
:100CA0001F910F91FF90EF90DF90CF90BF900C9429
:100CB000FF14FC016789708D2A960FB6F894DEBF89
:100CC0000FBECDBFDF91CF911F910F91FF90EF909D
:100CD000DF90CF90BF900C945815CF92DF92EF9297
:100CE000FF921F93CF93DF93EC010496BE01625FE6
:100CF0007F4F209711F470E060E00E9442170FB61A
:100D0000F894C0905808D0905908E0905A08F09094
:100D10005B080FBE0FB6F89480915808909159085F
:100D2000A0915A08B0915B080FBE8C199D09AE09BD
:100D3000BF09843F9140A105B10550F4CE01D3DE37
:100D4000182F682FCE0110DF1430C9F2123011F7BE
:100D5000DF91CF911F91FF90EF90DF90CF9008959A
:100D6000BCCF0E97BACFCF92DF92EF92FF920F9344
:100D70001F93CF93DF93EC016C0124E0C20ED11CD2
:100D8000C6010E9451177E012EE0E20EF11C209751
:100D900011F4F12CE12C8E159F0521F4B701C60149
:100DA0000E944217CE019FDE182F00E0112371F040
:100DB000612FCE01D9DE143039F0123009F400E091
:100DC000CE0191DE182FF2CF01E0FACF002361F0BF
:100DD000B701C601DF91CF911F910F91FF90EF9066
:100DE000DF90CF900C943317DF91CF911F910F912B
:100DF000FF90EF90DF90CF900895B5CF0897B3CFD5
:100E0000EF920F938091DB08882389F16F708FB781
:100E1000F89493E09093E9009091E4009E5F33E0B2
:100E20005091E80055FD0EC08FBF8091E4009817E7
:100E3000F1F08091DB088823D1F08FB7F8943093DC
:100E4000E900EECF90E1699FB0011124642B60931B
:100E5000F1002093F1000093F100E092F1009091F5
:100E6000E80095FD03C09AE39093E8008FBF0F91CF
:100E7000EF900895EF920F93CF93DF9300D0CDB70B
:100E8000DEB7262F9A838983E12C00E04FE0672F9D
:100E9000CE010196B5DF0F900F90DF91CF910F91AA
:100EA000EF900895EF920F93CF93DF9300D0CDB7DB
:100EB000DEB7242F052FE62E672F9A83898343E020
:100EC000223F31F0E12C42E0243F10F000E045E009
:100ED000CE01019695DF0F900F90DF91CF910F918A
:100EE000EF900895EF920F93CF93DF9300D0CDB79B
:100EF000DEB7242F9A838983842F90E034E0959580
:100F000087953A95E1F7E62E052F482F672FCE01FA
:100F1000019676DF0F900F90DF91CF910F91EF90B8
:100F20000895EF920F93FC01CA01E28001812081B4
:100F300044E066DF0F91EF900895EF920F931F93B7
:100F4000FB01622FC80142305105A1F04330510529
:100F500041F04130510551F4E12C00E0208145E0A1
:100F600004C0E2800181208147E04ADF1F910F9198
:100F7000EF900895E12C0181208146E0F6CF2F9279
:100F80003F924F925F926F927F928F929F92AF9219
:100F9000BF92CF92DF92EF92FF920F931F93CF9366
:100FA000DF9300D000D000D0CDB7DEB76C0129832D
:100FB0003A834B835C836D83AB80BC80A114B10406
:100FC00009F443C06E83962F9F7029803A80492F81
:100FD00050E0F10180812601440E551E803F11F43E
:100FE000F20110AAD10175013201F0E36F0E711CFC
:100FF0009A01220F331F240F351F2C0D3D1D4D016B
:10100000F3015081533008F07CC081E0850F80836C
:101010004D91F901E50FF11D4083F1E0EF1AF10860
:1010200071F7A20CB31CF50131972081273F31F5F0
:10103000482F50E0B60123E0929F600D711D1124EE
:101040002E81C6017ADFF301108226960FB6F8943E
:10105000DEBF0FBECDBFDF91CF911F910F91FF90EB
:10106000EF90DF90CF90BF90AF909F908F907F9048
:101070006F905F904F903F902F900895833029F7A5
:10108000A8016E819601989F200D311D1124C90180
:1010900048DFD9CFA20CB31CF50131978081873F7F
:1010A00049F043E0E416F10469F4A8016E81C4013B
:1010B00038DF05C02E81A701B401C6013EDFF20171
:1010C00010AAC3CFF201E0AAA701B401C30126967A
:1010D0000FB6F894DEBF0FBECDBFDF91CF911F9149
:1010E0000F91FF90EF90DF90CF90BF90AF909F90C7
:1010F0008F907F906F905F904F903F902F900C94C7
:1011000044283601F3E09F9F600C711C1124A80154
:101110006E81C30106DFF4E0EF16F10408F4BACFE4
:10112000A8016E81C401FDDE23E0820E911C33E034
:10113000E31AF108F0CF0F931F93CF93DF9300D002
:1011400000D000D01F92CDB7DEB79A8389838E017D
:101150000F5F1F4F8F559F4F12DF27960FB6F894E2
:10116000DEBF0FBECDBFDF91CF911F910F910895CC
:10117000CF93DF9300D0CDB7DEB7FC0150E070E035
:101180006530710508F05AD34F305105E0F78FE014
:10119000869FD001879FB00D1124AE0FBF1FA40FF3
:1011A000B51F15968C91DF01A05BBF4F11969C91E6
:1011B000880F816089839A838281A081B181803880
:1011C00019F411968C91119712967C911297780FC1
:1011D0008C91789F702D11248381948181309105A9
:1011E000D9F038F00297E1F080E070E090E060E044
:1011F00005C0972F9F7780E070E061E0990F692B21
:101200008295807F782BCE0101960E948E140F90DC
:101210000F90DF91CF9108957F7080E090E0EDCF47
:10122000872F8F7070E0FACF2F923F924F925F928C
:101230006F927F928F929F92AF92BF92CF92DF92E6
:10124000EF92FF920F931F93CF93DF93CDB7DEB74B
:1012500060970FB6F894DEBF0FBECDBF9A83898327
:101260000FB6F8948090580890905908A0905A08AA
:10127000B0905B080FBEFC0184819581A681B78187
:10128000B501A401481B590B6A0B7B0B808191812E
:10129000A281B381481759076A077B0708F4E7C0A2
:1012A000F88BEF871F01F2E12F0E311C10E000E0F8
:1012B0002F853889265C3F4F3A8729878091F70729
:1012C0009091F8079C878B87AF85B889A457BF4F4B
:1012D000BA83A983EF85F889E257FF4FFE87ED8730
:1012E000D1018C91B2E02B0E311C0E949F20EF8522
:1012F000F8897C96F887EF837801712C402EAF81B6
:10130000B885ED91FD91B887AF83FF270E94032236
:10131000670183E0D594C7948A95E1F78E2D877095
:1013200021E030E002C0220F331F8A95E2F73C83B0
:101330002B8391E0E11101C090E0AF85B889AC0D3D
:10134000BD1DBE83AD8318968C91BB818B2321E09C
:1013500009F420E0921709F478C0E1113FC0E98157
:10136000FA8180819181009771F4AF85B889DC960C
:101370002C91DC97203839F4DA96ED91FC91DB97CB
:101380002181DC962C930196E981FA8191838083F7
:10139000472D642D89859A85EBDE80FF14C0492F87
:1013A0004F70582F5695AD85BE856C916F7792958D
:1013B0009F70B52DB07F5B2E592A4069752D8B85A6
:1013C0009C850E942512EF85F889EC0DFD1D8B810F
:1013D0009C8180959095908589232EC0472D642D02
:1013E00089859A85C5DE80FF11C0492F4F70582F1F
:1013F000569592959F70E62DE07F6E2E692A406883
:101400006FE7762D8B859C850E942512A981BA8174
:101410008D919C91119701978D939C93892B21F429
:1014200020E8EF85F88924AFAD81BE8118968C91B4
:10143000BB818B2BED81FE818087AF85B8891496A7
:101440008D929D92AD92BC921797B5E0EB0EF11C78
:101450007394EFE07E1253CFF101329780810E94A6
:10146000B0200F5F1F4F0530110509F039CF60968E
:101470000FB6F894DEBF0FBECDBFDF91CF911F91A5
:101480000F91FF90EF90DF90CF90BF90AF909F9023
:101490008F907F906F905F904F903F902F90089526
:1014A0000696C2CEAF92CF92DF92EF92FF920F9349
:1014B0001F93CF93DF93CDB7DEB7AF970FB6F894F6
:1014C000DEBF0FBECDBF1092F0061092EF06109255
:1014D000F4061092F3063DE8C32E31E0D32ED092ED
:1014E000EE06C092ED0643EAE42E41E0F42EF092BF
:1014F000F206E092F10685EF96E024D91092FE06FE
:101500001092FD061091B903109200071092010786
:1015100010920207109303071092040780910507A9
:10152000807F8093050780910607807F8093060760
:10153000E7E0F7E083E8DF011D928A95E9F7109272
:101540008A0710928B0710928C0710928D07EEEB92
:10155000F7E080E1DF011D928A95E9F71092CE074E
:1015600081EB92E09093EE068093ED0687ED92E09A
:101570009093F2068093F10685EE92E09093F60642
:101580008093F50681EF92E09093FC068093FB0632
:1015900010924A061092490610924E0610924D067D
:1015A000D0924806C0924706F0924C06E0924B0655
:1015B0008FE496E0C7D8109258061092570680E63E
:1015C00098E090935A068093590610925B06109209
:1015D0005C0610925D0610935E0610925F06809185
:1015E0006006807F809360061092E2061092E1060A
:1015F0001092E30681E08093E4061092E5061092D3
:10160000E6061092E7068FEF8093E80682E19AE7FC
:10161000A0E0B0E08093E9069093EA06A093EB0681
:10162000B093EC0689E192E09093480680934706D8
:101630008FE392E090934C0680934B068DE492E00A
:101640009093500680934F0689E592E0909356065A
:101650008093550683E080933F069CE0909340067C
:10166000809341068DEF80934206109244061092BB
:10167000430610924606109245068DEF92E0909335
:101680003E0680933D066AE070E0CE018996DAD08E
:101690006FE070E0CE014F96D5D087E0FE01B9969D
:1016A000DE01119601900D928A95E1F787E0FE0127
:1016B0007F96DE01189601900D928A95E1F71092BF
:1016C00022068091EA049091EB04892B31F48CE19D
:1016D00096E09093EB048093EA04E091EC04F0919F
:1016E000ED04F0932106E0932006309721F08CE181
:1016F00096E0938382838CE196E09093ED0480934F
:10170000EC0410921F0610921E068DE396E0909353
:10171000240680932306188A1F861E8A1D8A86E166
:10172000FE013196A6E2B6E001900D928A95E1F7AE
:1017300010923C068FE093E090931D0680931C0668
:1017400040E456E070E060E08AE0EDE5F1E0DE01C3
:101750005F9601900D928A95E1F78EE1E7E6F1E060
:10176000DE01119601900D928A95E1F78FE7A82E80
:10177000CC24C394D12C9EE6E92E93E0F92E8E0161
:101780000F5F1F4F9E01215E3F4F87E895E000D815
:1017900040E456E070E060E08AE0EDE5F1E0DE0173
:1017A0005F9601900D928A95E1F78EE1E7E6F1E010
:1017B000D80101900D928A95E1F7DD24D39423E2BC
:1017C000E22E23E0F22E9E01215E3F4F82EF94E055
:1017D0000E94C803AF960FB6F894DEBF0FBECDBF10
:1017E000DF91CF911F910F91FF90EF90DF90CF90FD
:1017F000AF90089582EF94E00E94090387E895E096
:101800000E9409038CE196E00E94EB028CE391E0D8
:101810000E94251888E291E00E94251884E191E059
:101820000E94251880E091E00E94251887E496E048
:101830000E9466038DEE96E00C94EE01F8940E94EF
:10184000EF26FDCFFC017183608382818F608F7EE4
:1018500082831382148215821682089562E0FC014D
:1018600080819181ECC18F929F92AF92BF92CF9273
:10187000DF92EF92FF92CF93DF93EC018881998101
:1018800015D29A8194FB332730F921E0381301C037
:1018900020E00FB6F8944091580850915908609193
:1018A0005A0870915B080FBE92FF1DC08B819C810E
:1018B000AD81BE814A015B01881A990AAA0ABB0A56
:1018C00091E0C0905201D0905301E0905401F0900B
:1018D0005501C814D904EA04FB0408F490E08A8195
:1018E00090FB82F98A839A81892F817092FD24C0AE
:1018F000922F880F892B382F33709A819C7F932BDE
:101900009A8393FB332730F9321741F0946020FB20
:1019100093F99A834B835C836D837E83082E000C3E
:10192000990BDF91CF91FF90EF90DF90CF90BF9018
:10193000AF909F908F900895982FDBCF0F931F93B8
:10194000FC010FB6F8946091580870915908809185
:101950005A0890915B080FBE03811481258136815E
:10196000601B710B820B930B1F910F9108958F9247
:101970009F92AF92BF92EF92FF920F931F93CF93DC
:10198000DF93EC0170DF8C017E0127E0E20EF11C99
:10199000C70169DF8330910589F40330110509F02F
:1019A000C8C090E080E0DF91CF911F910F91FF9030
:1019B000EF90BF90AF909F908F90089581309105E8
:1019C00009F4A3C00130110549F49C012D7F213099
:1019D000310509F0B2C01F861E86E3CF0230110523
:1019E00009F09DC08D7F892B19F081E090E0DBCF5D
:1019F00082E090E09F878E8787E090E0D4CF01154A
:101A0000110511F4009769F22E853F8522303105CA
:101A100041F2012B09F03BC00FB6F89480905808B2
:101A200090905908A0905A08B0905B080FBE2130E2
:101A30003105D1F488899989AA89BB89881A990ABC
:101A4000AA0ABB0A28EC82169104A104B10408F486
:101A5000A8CF88539F4FAF4FBF4F888B998BAA8BCE
:101A6000BB8B83E090E09FCFCE0168DF623C71408A
:101A70008105910508F495CF81E090E09F878E87DE
:101A8000888A998AAA8ABB8A82E090E08CCF892BC7
:101A900009F087CF0FB6F8948090580890905908B5
:101AA000A0905A08B0905B080FBE21303105D1F4E8
:101AB00088899989AA89BB89881A990AAA0ABB0ABE
:101AC00028EC82169104A104B10408F46ACF88536B
:101AD0009F4FAF4FBF4F888B998BAA8BBB8B86E0F4
:101AE00090E061CFC7012ADF623C7140810591051A
:101AF00008F457CF81E090E09F878E87888A998A83
:101B0000AA8ABB8A85E090E04ECF98012D7F2130D4
:101B1000310509F460CF0230110509F466CF823037
:101B2000910509F06CCF012B09F462CF84E090E0BD
:101B30003ACF0130110579F74ECF8230910509F087
:101B400063CFF4CFCF93DF93C091CF07D091D0076D
:101B5000209759F0E881F981008CF18DE02DCE01BC
:101B600009950A80DB81C02DF3CFDF91CF910895D5
:101B7000CF93DF93C091CF07D091D007209759F032
:101B8000E881F981028CF38DE02DCE0109950A8060
:101B9000DB81C02DF3CFDF91CF910895CF93DF93F9
:101BA000C091CF07D091D007209759F0E881F981F3
:101BB000048CF58DE02DCE0109950A80DB81C02DC6
:101BC000F3CFDF91CF910895FC018285938508952D
:101BD000FC018085918508958FEC97E00895EF9240
:101BE000FF920F931F93CF93DF938C01F5DFFC01DE
:101BF000C081D1812097A1F0CE01EADF0817190733
:101C000078F0CE01E1DF7C01CE01E2DF0817190791
:101C100018F00E151F0530F00A80DB81C02DEACFC9
:101C2000D0E0C0E0CE01DF91CF911F910F91FF90E6
:101C3000EF900895D4DF009709F400CE0895CF9275
:101C4000DF92EF92FF921F93CF93DF93811520E8ED
:101C5000920721F18633910548F4DF91CF911F91CE
:101C6000FF90EF90DF90CF900C940321162FEC01A2
:101C7000E1DF7C01DC01ED91FC91C480D580A8DF1F
:101C8000BE01681B790B412FC701F601DF91CF918F
:101C90001F91FF90EF90DF90CF900994DF91CF914B
:101CA0001F91FF90EF90DF90CF900895EF92FF92F9
:101CB0000F931F93CF93DF93811520E8920719F1BB
:101CC0008633910558F4FC010E9403228E2FDF9188
:101CD000CF911F910F91FF90EF900895EC01AADF33
:101CE0008C01DC01ED91FC91E484F58471DFBE018F
:101CF000681B790BC801F701DF91CF911F910F91FC
:101D0000FF90EF90099480E0E2CFDC015496ED91D2
:101D1000FC91309719F0CB01BA0109940895DC01C8
:101D20005696ED91FC91309711F0CB0109940895EE
:101D30000F931F93CF93DF93CDB7DEB72A970FB6DC
:101D4000F894DEBF0FBECDBF2E833F8348875987EF
:101D50006A87DC015296ED91FC91309709F04AC0F8
:101D600085E0FE013696DE01119601900D928A956E
:101D7000E1F70091D7071091D8070115110509F473
:101D800042C0D801ED91FC910284F385E02D2981B8
:101D90003A814B815C816D81C8010995882309F4E2
:101DA00047C0D8011496ED91FC911597309759F1E1
:101DB0008481958112962D913C91009779F1DC01F7
:101DC00013961C930E9312973383228315830483F7
:101DD000D8011396FC93EE93129715969C938E93CD
:101DE000149721153105F9F0D9011596FC93EE935E
:101DF000149709C04E815F81688579858A85099528
:101E0000882309F4ADCF2A960FB6F894DEBF0FBE33
:101E1000CDBFDF91CF911F910F9108951093D807F7
:101E20000093D707D1CFF093DA07E093D907EBCF30
:101E3000F80102811381A1CFEF92FF920F931F93BC
:101E4000CF93DF938A01F62EE72EDC015096ED91B9
:101E5000FC913097C1F4802F807F803B09F045C012
:101E6000193779F5C091E707D091E8072097C1F0BD
:101E7000E881F9810680F781E02DCE0109950A807D
:101E8000DB81C02DF3CFBA018F2D9E2D09958823BC
:101E900011F3DF91CF911F910F91FF90EF90089573
:101EA000C091DF07D091E007209799F3E881F9818D
:101EB0000680F781E02DCE0109950A80DB81C02DD7
:101EC000F3CF1B3709F0D9C0C091EF07D091F007CD
:101ED0002097F9F2E881F9810680F781E02DCE01A3
:101EE00009950A80DB81C02DF3CF813BE8F580396D
:101EF00029F0803A09F484C0803859F6C091EF0780
:101F0000D091F007209729F2E881F9810284F385C6
:101F1000E02DA8016F2D7E2DCE010995882309F4AF
:101F20006BC0EC81FD81309709F4B3CF848195813A
:101F30002A813B81009709F455C0DC011396DC939C
:101F4000CE93129733832283D583C483FB83EA83A2
:101F50009D838C832115310509F449C0D90115965B
:101F6000FC93EE93149795CF803D09F4CCC0803E4E
:101F700009F406C1803C09F08CCFC091E307D091F1
:101F8000E407209709F485CFE881F9810284F3857D
:101F9000E02DA8016F2D7E2DCE010995882309F42F
:101FA000AEC0EC81FD81309709F473CF84819581B7
:101FB0002A813B81009709F49DC0DC011396DC93D4
:101FC000CE93129733832283D583C483FB83EA8322
:101FD0009D838C832115310509F6F093E607E09384
:101FE000E50757CFD093F007C093EF07ABCFF0933F
:101FF000F207E093F1074DCF0A80DB81C02D82CF3D
:10200000C091EB07D091EC07209709F442CFE8810B
:10201000F9810284F385E02DA8016F2D7E2DCE017C
:102020000995882331F1EC81FD81309709F431CF96
:10203000848195812A813B810097B1F0DC01139660
:10204000DC93CE93129733832283D583C483FB839F
:10205000EA839D838C832115310509F07FCFF093AE
:10206000EE07E093ED0715CFD093EC07C093EB0795
:10207000EACF0A80DB81C02DC7CFC091E707D0919E
:10208000E807209709F405CFE881F9810284F385F8
:10209000E02DA8016F2D7E2DCE010995882331F109
:1020A000EC81FD81309709F4F4CE848195812A81F9
:1020B0003B810097B1F0DC011396DC93CE9312972D
:1020C00033832283D583C483FB83EA839D838C83FC
:1020D0002115310509F042CFF093EA07E093E907B3
:1020E000D8CED093E807C093E707EACF0A80DB8118
:1020F000C02DC7CFD093E407C093E30763CF0A8016
:10210000DB81C02D3ECFC091DF07D091E007209743
:1021100009F4BFCEE881F9810284F385E02DA8019E
:102120006F2D7E2DCE010995882331F1EC81FD8143
:10213000309709F4AECE848195812A813B81009746
:10214000B1F0DC011396DC93CE9312973383228394
:10215000D583C483FB83EA839D838C83211531055A
:1021600009F0FCCEF093E207E093E10792CED09322
:10217000E007C093DF07EACF0A80DB81C02DC7CF1D
:10218000C091DB07D091DC07209709F482CEE8816B
:10219000F9810284F385E02DA8016F2D7E2DCE01FB
:1021A0000995882331F1EC81FD81309709F471CED6
:1021B000848195812A813B810097B1F0DC011396DF
:1021C000DC93CE93129733832283D583C483FB831E
:1021D000EA839D838C832115310509F0BFCEF093EE
:1021E000DE07E093DD0755CED093DC07C093DB0715
:1021F000EACF0A80DB81C02DC7CFCF93DF93EC01FC
:102200008DE891E09983888383EA91E09D838C83B4
:10221000CE0104960BD7CE01DF91CF91F0C6049783
:10222000ECCFCF93DF93EC018EEB93E0998388831F
:1022300084ED93E09D838C83CE018C9606D7CE01EE
:10224000489603D7CE01DF91CF91D7CF0497E9CF3E
:1022500081E098E0E6CFCF93DF93EC01E2DFCE019F
:10226000DF91CF910C94E0260497F5CFCF93DF93C5
:10227000EC01C3DFCE01DF91CF910C94E0260497EF
:10228000F5CF8091F9078111A9C089EF97E00E94ED
:10229000E126892B09F4A2C01092040810920308C9
:1022A00010920808109207088EEB93E090930208B2
:1022B0008093010884ED93E09093060880930508CD
:1022C0008AE191E4A0E0B0E08093090890930A08C5
:1022D000A0930B08B0930C080E9434236A517144F8
:1022E0008109910960930D0870930E0880930F087F
:1022F000909310081092120810921108109214086E
:1023000010921308109216081092150810921808CF
:102310001092170810921C0810921B0810922008A7
:1023200010921F082CE534E030931A082093190806
:1023300080E894E090931E0880931D081092220874
:102340001092210810922408109223084FE158E0BF
:1023500050932608409325084BE158E050932808F5
:102360004093270810922A081092290810922C08EE
:1023700010922B081092300810922F0810923408F7
:102380001092330830932E0820932D089093320832
:102390008093310810923608109235081092380850
:1023A0001092370883E398E090933A0880933908B5
:1023B0008FE298E090933C0880933B0810923E088F
:1023C00010923D081092400810923F0889EF97E064
:1023D0000E94EA2688E291E10E943E0181E098E0B5
:1023E0000895EF92FF920F931F93CF93DF93EC0129
:1023F0008E819F81892B39F58A819B81892B19F5E3
:10240000A1D28C01892B09F419DA7E0188E1E80E4A
:10241000F11CB701CE015FD5B701C80104967BD589
:102420007E018CE2E80EF11CB701CE01049673D553
:10243000B701C80150D581E0DF91CF911F910F9175
:10244000FF90EF90089580E0F7CF0496F3C6CF9306
:10245000DF93C091EF07D091F007209759F0E88102
:10246000F9810084F185E02DCE0109950A80DB8198
:10247000C02DF3CFC091EB07D091EC07209759F016
:10248000E881F9810084F185E02DCE0109950A806B
:10249000DB81C02DF3CFC091E707D091E8072097EB
:1024A00059F0E881F9810084F185E02DCE0109958C
:1024B0000A80DB81C02DF3CFC091E307D091E40700
:1024C000209759F0E881F9810084F185E02DCE0153
:1024D00009950A80DB81C02DF3CFC091DF07D09131
:1024E000E007209759F0E881F9810084F185E02D1B
:1024F000CE0109950A80DB81C02DF3CFC091DB07A7
:10250000D091DC07209759F0E881F9810084F185AA
:10251000E02DCE0109950A80DB81C02DF3CFC0915B
:10252000D707D091D807209759F0E881F981008426
:10253000F185E02DCE0109950A80DB81C02DF3CF16
:10254000DF91CF910895CF93DF93C0914108D0914F
:1025500042082097C9F08E819F810A80DB81C02DBF
:10256000209729F02E813F818217930759F0DC01D3
:10257000ED91FC910484F585E02D0995209721F0DB
:102580002E813F81C901E9CFDF91CF910895CF928C
:10259000DF92EF92FF920F931F93CF93DF938C0103
:1025A00020DFD0DAC091EE04D091EF04209759F0EB
:1025B000E881F9810480F581E02DCE0109950A803A
:1025C000DB81C02DF3CFC091F307D091F4072097A2
:1025D00059F0E881F9810480F581E02DCE0109955B
:1025E0000A80DB81C02DF3CFC801ADDFC091EF07BA
:1025F000D091F007209759F0E881F9810480F581A6
:10260000E02DCE0109950A80DB81C02DF3CFC0916A
:10261000EB07D091EC07209759F0E881F98104800D
:10262000F581E02DCE0109950A80DB81C02DF3CF25
:10263000C091E707D091E807209759F0E881F98128
:102640000480F581E02DCE0109950A80DB81C02D43
:10265000F3CFC091E307D091E407209759F0E881C8
:10266000F9810480F581E02DCE0109950A80DB8196
:10267000C02DF3CFC091DF07D091E007209759F02C
:10268000E881F9810480F581E02DCE0109950A8069
:10269000DB81C02DF3CFC091DB07D091DC07209701
:1026A00059F0E881F9810480F581E02DCE0109958A
:1026B0000A80DB81C02DF3CFC091D707D091D80716
:1026C000209759F0E881F9810480F581E02DCE0151
:1026D00009950A80DB81C02DF3CFC091EA04D09127
:1026E000EB04209759F0E881F9810480F581E02D11
:1026F000CE0109950A80DB81C02DF3CFC091D307AD
:10270000D091D407209759F0E881F9810480F581B0
:10271000E02DCE0109950A80DB81C02DF3CF0E9408
:102720003423F801C084D184E284F3846C197D09D8
:102730008E099F096487758786879787DF91CF9178
:102740001F910F91FF90EF90DF90CF900895DF924F
:10275000EF92FF920F931F93CF93DF93C0914108A5
:10276000D0914208209749F10E811F817E01D12C22
:10277000E881F9810680F781E02DCE010995D82AFC
:102780000A80DB81C02D2097B1F08E819F810817D0
:102790001907D9F48C01ECCFD801ED91FC91028896
:1027A000F389E02DC8010995209739F08E819F812A
:1027B0007E01D12CEFCFD1100AC0DF91CF911F91B4
:1027C0000F91FF90EF90DF900895DD2079F3D8010D
:1027D000ED91FC910684F785E02DC8010995D8019B
:1027E000ED91FC910088F189E02DC8010995CE1585
:1027F000DF0591F2D701ED91FC910480F581E02D88
:10280000C7010995F701E280F380F1CFCF93DF9301
:10281000C091EE04D091EF04209759F0E881F9813E
:102820000680F781E02DCE0109950A80DB81C02D5D
:10283000F3CFDF91CF910895CF92DF92EF92FF9285
:102840000F931F93CF93DF93EC01A8D90091EA0473
:102850001091EB040115110561F0D801ED91FC9187
:102860000680F781E02DC8010995F80102811381E6
:10287000F1CFCCDFCE01EBDD0E943423CC84DD84AC
:10288000EE84FF84088519852A853B85AB01BC0150
:102890004C195D096E097F094017510762077307DC
:1028A00060F0D701C601800F911FA21FB31F8C8754
:1028B0009D87AE87BF87CE014ADFDF91CF911F9101
:1028C0000F91FF90EF90DF90CF9052C9DADC909398
:1028D000F8078093F7070895FC012081862F817007
:1028E000822380FB20F9822F86956695680F660FFC
:1028F0002170262B20832181972F920F9F70207F9C
:10290000922B892F82958F7072957F70780F7295B8
:10291000707F9F70972B9183CF010895CF93DF93A2
:1029200000D0CDB7DEB7FC01808191819A83898385
:10293000CE010196D1DF89819A810F900F90DF91AE
:10294000CF9108958091450890914608009749F4E9
:102950002091F0043091F1042115310511F0C901E5
:1029600008970895CF93DF93EC018EEE93E099835F
:10297000888382E194E09D838C8380E294E0998750
:1029800088878CE294E09F878E87DCDFC817D907A1
:1029900021F4109246081092450882EE93E0998740
:1029A0008887CE0108960E948902CE01DF91CF91DF
:1029B00024CCCF92DF92EF92FF92CF93DF93EC0182
:1029C0006A017B01049636D488899989009781F041
:1029D000DC01ED91FC910190F081E02DA7019601C1
:1029E000BE01DF91CF91FF90EF90DF90CF900994DF
:1029F000DF91CF91FF90EF90DF90CF900895EF920D
:102A0000FF920F931F93CF93DF9300D000D01F92BC
:102A1000CDB7DEB77C0129833A834B835C836D831A
:102A2000C701049656D4D70150968D919C9100977A
:102A300069F0DC01ED91FC910280F381E02D0981C8
:102A40001A812B813C814D81B70109950F900F9020
:102A50000F900F900F90DF91CF911F910F91FF90EA
:102A6000EF900895CF92DF92EF92FF92CF93DF9392
:102A7000EC016A017B0104967CD4888999890097CE
:102A800081F0DC01ED91FC910480F581E02DA7013E
:102A90009601BE01DF91CF91FF90EF90DF90CF9034
:102AA0000994DF91CF91FF90EF90DF90CF90089540
:102AB0000F931F93CF93DF93EC018B01049693D474
:102AC00088899989009769F0DC01ED91FC91068075
:102AD000F781E02DA801BE01DF91CF911F910F91E9
:102AE0000994DF91CF911F910F910895DC01189601
:102AF0008D919C91009739F0DC01ED91FC9100885B
:102B0000F189E02D099490E080E00895DC011A96A7
:102B10008D919C91009739F0DC01ED91FC9100843E
:102B2000F185E02D099490E080E008950497EECFC0
:102B3000EF92FF920F931F93CF93DF93EC018B01E2
:102B40007A0188899989009729F06817790711F027
:102B50000E941E0C198B088BEC85FD85808191816C
:102B6000009781F02A853B852E153F0559F4DC013D
:102B7000ED91FC910484F585E02DAE014C5F5F4F33
:102B8000B801099588859985009759F0DC01ED9188
:102B9000FC910484F585E02DAE014C5F5F4FB801D8
:102BA00009958A859B850097D9F0E816F906C1F04A
:102BB0006A897B896115710541F0DC01ED91FC9119
:102BC0000680F781E02DAE0109958A859B85DC01A1
:102BD000ED91FC910480F581E02DAE01B8010995DD
:102BE000EE85FF85808191810097A9F09C012C5F83
:102BF0003F4FE216F30679F0DC01ED91FC91048C75
:102C0000F58DE02DAE01B801DF91CF911F910F91AD
:102C1000FF90EF900994DF91CF911F910F91FF905A
:102C2000EF900895EF92FF920F931F93CF93DF934E
:102C3000EC018B017A0188899989009729F068173E
:102C4000790711F00E941E0C198A188AEC85FD85FF
:102C500080819181009781F02A853B852E153F0563
:102C600059F4DC01ED91FC910684F785E02DAE016D
:102C70004C5F5F4FB801099588859985009759F099
:102C8000DC01ED91FC910684F785E02DAE014C5FEF
:102C90005F4FB80109958A859B850097D9F0E816A2
:102CA000F906C1F0DC01ED91FC910680F781E02D81
:102CB000AE01B80109956A897B896115710551F0EA
:102CC0008A859B85DC01ED91FC910480F581E02DE6
:102CD000AE010995EE85FF85808191810097A9F06D
:102CE0009C012C5F3F4FE216F30679F0DC01ED9179
:102CF000FC91068CF78DE02DAE01B801DF91CF91EC
:102D00001F910F91FF90EF900994DF91CF911F9148
:102D10000F91FF90EF9008950F931F93CF93DF9340
:102D2000EC01888599858417950711F58B01798BBE
:102D3000688B8A859B85009741F0DC01ED91FC91C1
:102D40000480F581E02DAE010995EE85FF85808137
:102D500091810097F9F0DC01ED91FC91048CF58DE7
:102D6000E02DAE01B801DF91CF911F910F91099431
:102D70008A899B89892B71F47B8B6A8B8A859B85D9
:102D8000009741F0DC01ED91FC910480F581E02D8C
:102D9000AE01E9CFDF91CF911F910F910895049774
:102DA000BBCF0F931F93CF93DF93EC018B018885EB
:102DB00099858417950709F5198A188A8A859B854C
:102DC000009741F0DC01ED91FC910680F781E02D48
:102DD000AE010995EE85FF8580819181009701F113
:102DE000DC01ED91FC91068CF78DE02DAE01B80170
:102DF000DF91CF911F910F9109946A897B896017A8
:102E0000710771F41B8A1A8A8A859B85009741F0A5
:102E1000DC01ED91FC910680F781E02DAE01E8CF59
:102E2000DF91CF911F910F9108950497BACFDC01E4
:102E30001296ED91FC911397309731F01186108620
:102E400013961C921E9212970895DC011296ED9132
:102E5000FC911397309731F01386128613961C92CB
:102E60001E9212970895FC01A281B381109749F038
:102E7000ED91FC9111970484F585E02DAC01CD0115
:102E800009940895FC01A281B381109749F0ED9156
:102E9000FC9111970684F785E02DAC01CD010994D2
:102EA0000895DC011296ED91FC91309739F08089FC
:102EB0009189009729F482899389089590E080E0B0
:102EC0000895FC0120853185232B11F00E941E0CF2
:102ED0007187608708950F931F93CF93DF93EC0161
:102EE0008B018A819B81009751F4BE01C801E9DF03
:102EF0001B830A83DF91CF911F910F910895EC01FD
:102F0000F0CFFC0122853385232B11F00E941E0C8B
:102F10007387628708950F931F93CF93DF93EC011C
:102F20008B018A819B81009751F4BE01C801E9DFC2
:102F30001B830A83DF91CF911F910F910895EC01BC
:102F40002496EFCFEF92FF920F931F93CF93DF93CF
:102F5000EC01088519850115110571F0EE85FF85D5
:102F6000E080F180E114F10439F0C80160DFCE01A6
:102F70005EDFB701C801AFDF0A851B8501151105AA
:102F800079F0EC85FD85E080F180E114F10441F0F9
:102F9000C8015BDFCE01049658DFB701C801BBDF73
:102FA00088859985009709F042DF8A859B8500977F
:102FB00009F04BDFEE85FF8580819181892B31F40B
:102FC000EC85FD8580819181892B11F00E941E0C7A
:102FD000DF91CF911F910F91FF90EF900895CF93C4
:102FE000DF93EC018A819B81009731F0F8DF8A81C1
:102FF0009B81A8DF1B821A82DF91CF91089528E37D
:1030000034E0FC0131832083EACFCF93DF93EC01DE
:103010008A819B81009739F00496F7DF8A819B8132
:1030200091DF1B821A82DF91CF9108952EE434E064
:10303000FC0131832083E9CFCF93DF93EC01F6DFEE
:10304000CE01DF91CF910C94E026CF93DF93EC017A
:103050008CE594E09983888380E894E09D838C8359
:10306000CE0170DFCE010496E1DFCE01DF91CF917A
:10307000C6CFCF93DF93EC01E8DFCE01DF91CF9194
:103080000C94E0260497F5CF0497DFCF1F93CF93DE
:10309000DF93EC0188899989009741F48A899B899B
:1030A000892B31F4DF91CF911F910895019621F181
:1030B0008A899B89019601F11BE08889998900978B
:1030C00021F42A893B89232B69F3115059F3009786
:1030D00039F0DC01ED91FC910680F781E02D099536
:1030E0008A899B89009749F3DC01ED91FC91068068
:1030F000F781E02D0995E1CF0E941E0CFC01828131
:103100009381009709F0C2CF0895DC0118968D9144
:103110009C91009739F0DC01ED91FC910480F581E0
:10312000E02D09940895F1CFF0CFCF93DF9300D035
:1031300000D01F92CDB7DEB729833A834B835C83DF
:103140006D83DC0118968D919C91009771F0DC01E4
:10315000ED91FC910680F781E02D0F900F900F907C
:103160000F900F90DF91CF9109940F900F900F90D7
:103170000F900F90DF91CF910895CF93DF9300D000
:1031800000D01F92CDB7DEB70F900F900F900F9029
:103190000F90DF91CF91C9CFCF93DF9300D000D0B4
:1031A0001F92CDB7DEB70F900F900F900F900F903A
:1031B000DF91CF91BACFDC0118968D919C91009749
:1031C00039F0DC01ED91FC910084F185E02D09944A
:1031D0000895F1CFF0CFDC0118968D919C91009766
:1031E00039F0DC01ED91FC910284F385E02D099426
:1031F0000895F1CFF0CFCF92DF92EF92FF92CF936D
:10320000DF93EC016A017B01EC85FD858081918172
:10321000009709F0F0DFE881F9810288F389E02D59
:10322000B701A601CE01DF91CF91FF90EF90DF9023
:10323000CF900994CF92DF92EF92FF92CF93DF93DA
:10324000FC0122813381232B79F06A017B01EC019F
:1032500055DFB701A6018A819B81DF91CF91FF9055
:10326000EF90DF90CF90C7CFDF91CF91FF90EF909D
:10327000DF90CF9008950F931F93CF93DF9300D0EB
:1032800000D01F92CDB7DEB78C0129833A834B83E0
:103290005C836D83DC011C96ED91FC9180819181B2
:1032A000009709F0E8DFD801ED91FC910488F589D9
:1032B000E02D29813A814B815C816D81C8010F909D
:1032C0000F900F900F900F90DF91CF911F910F9162
:1032D00009940F931F93CF93DF9300D000D01F92D8
:1032E000CDB7DEB729833A834B835C836D83FC01C2
:1032F00022813381232BA1F08C0100DF29813A81C7
:103300004B815C816D81F801828193810F900F90D8
:103310000F900F900F90DF91CF911F910F91ABCF36
:103320000F900F900F900F900F90DF91CF911F9102
:103330000F910895CF92DF92EF92FF92CF93DF9398
:10334000EC016A017B01EC85FD858081918100970C
:1033500009F0F0DFE881F9810688F789E02DB701EF
:10336000A601CE01DF91CF91FF90EF90DF90CF903B
:103370000994CF92DF92EF92FF92CF93DF93FC01FB
:1033800022813381232B79F06A017B01EC01B6DEC7
:10339000B701A6018A819B81DF91CF91FF90EF90C9
:1033A000DF90CF90C7CFDF91CF91FF90EF90DF906C
:1033B000CF9008950F931F93CF93DF93EC018B0170
:1033C000EC85FD8580819181009709F0F3DFE8812C
:1033D000F981008CF18DE02DB801CE01DF91CF9104
:1033E0001F910F910994FC0182819381009709F04C
:1033F000E1CF0895FF920F931F93CF93DF938C013A
:10340000C42FF52ED62FDC0152968D919C91DC01B4
:10341000ED91FC910190F081E02D642F0995F80168
:1034200082899389DC01ED91FC910190F081E02D7E
:103430006F2D0995C07FC13B10F0C03E81F4F801AB
:1034400082899389DC01ED91FC910190F081E02D5E
:103450006D2FDF91CF911F910F91FF900994DF9114
:10346000CF911F910F91FF900895CF93DF9300D0DC
:1034700000D01F92CDB7DEB729833A834B835C839C
:103480006D83DC0152968D919C914B815C816981A9
:103490007A81DC01ED91FC910280F381E02D0F90A7
:1034A0000F900F900F900F90DF91CF910994DC0156
:1034B00052968D919C91DC01ED91FC910190F081EF
:1034C000E02D0994FF920F931F93CF93DF93EC01AC
:1034D000142FF52E062F8A899B89DC01ED91FC9132
:1034E0000190F081E02D642F0995143FD8F48A896A
:1034F0009B89DC01ED91FC910190F081E02D6F2D15
:103500000995123F79F48A899B89DC01ED91FC9140
:103510000190F081E02D602FDF91CF911F910F91ED
:10352000FF900994DF91CF911F910F91FF90089523
:10353000EF92FF920F931F93CF938C010C5E1F4F5E
:10354000DC015296ED90FC90C80127D2C82F811162
:1035500010C0D701ED91FC910284F385E02DC701E5
:10356000099597FD06C0682FC80114D2882389F3F6
:10357000C82F8C2FCF911F910F91FF90EF9008953E
:10358000FC01808D918D0895CF92DF92EF92FF9292
:103590000F931F93CF93DF93CDB7DEB72A970FB664
:1035A000F894DEBF0FBECDBF8C01633009F46EC04E
:1035B00098F4613049F16230D9F12A960FB6F89447
:1035C000DEBF0FBECDBFDF91CF911F910F91FF9056
:1035D000EF90DF90CF900895643051F1653069F736
:1035E000FC0144895589668977892A960FB6F89433
:1035F000DEBF0FBECDBFDF91CF911F910F91FF9026
:10360000EF90DF90CF902ECAFC01448955896689DE
:1036100077892A960FB6F894DEBF0FBECDBFDF9133
:10362000CF911F910F91FF90EF90DF90CF90C1C984
:103630007801FAE1EF0EF11CC7011CD26C01C70141
:103640001AD2DA82C9829C838B838D81807F8D839D
:1036500085E0FE013196DE01169601900D928A9565
:10366000E1F72E813F81488559856A85C8012A96F0
:103670000FB6F894DEBF0FBECDBFDF91CF911F9183
:103680000F91FF90EF90DF90CF90B9C979DFBC0127
:10369000C8012A960FB6F894DEBF0FBECDBFDF91EA
:1036A000CF911F910F91FF90EF90DF90CF9000CAC4
:1036B000CF92DF92EF92FF920F931F93CF93DF93FE
:1036C000EC016C0124E0C20ED11CC601EADB7E01D4
:1036D0002EE0E20EF11C209711F4F12CE12C8E1556
:1036E0009F0519F4B701C601CDDBCE0121DF182FEC
:1036F00000E0112371F0612FCE0146DF143039F064
:10370000123009F400E0CE0113DF182FF2CF01E0F0
:10371000FACF002359F0B701C601DF91CF911F9175
:103720000F91FF90EF90DF90CF909DCBDF91CF91E5
:103730001F910F91FF90EF90DF90CF900895B8CF39
:103740000897B6CFCF92DF92EF92FF921F93CF935D
:10375000DF93EC010496BE01625F7F4F209711F466
:1037600070E060E08FDB0FB6F894C0905808D090FE
:103770005908E0905A08F0905B080FBE0FB6F89415
:103780008091580890915908A0915A08B0915B080F
:103790000FBE8C199D09AE09BF09843F9140A10558
:1037A000B10550F4CE01C4DE182F682FCE01ECDE37
:1037B0001430C9F2123011F7DF91CF911F91FF90B1
:1037C000EF90DF90CF900895BDCF0E97BBCFCF92F3
:1037D000DF92EF92FF920F931F93CF93DF93683F97
:1037E00060F0FC01648383E0DF91CF911F910F9122
:1037F000FF90EF90DF90CF900895162FEC016C01B1
:10380000FBE8CF0ED11CF6010081663F11F5003FA9
:1038100081F4329660837E01F6E0EF0EF11C61E0E8
:10382000C70114D181112FC0C357DF4F188384E023
:10383000DBCF688319821A82FC01E757FF4F808132
:10384000882319F0C457DF4F1882F601108285E0F3
:10385000CBCF003F01F3603F49F47C01F6E0EF0E6F
:10386000F11CC701B8D060EFC701C5D0F6011083C5
:10387000C657DF4F1882173F09F4108280E0003FDF
:1038800009F0B2CF10C067EFC701B5D0C701AED005
:10389000103F61F7FE01E357FF4F1083C457DF4F1E
:1038A0001882F601108282E09FCFEF92FF921F9361
:1038B000CF93DF93FC01E557FF4F2081211108C012
:1038C000DC01A457BF4F2C91222309F45DC0208353
:1038D000162FEC019081988380E8890FDE01A657AE
:1038E000BF4F2C91222319F1803740F46A831C9238
:1038F000C457DF4F9883108281E013C0892F887FDF
:10390000803FB1F5903FA1F16A831C92DE01A75779
:10391000BF4F8C91882319F0C457DF4F1882108253
:1039200085E0DF91CF911F91FF90EF900895803750
:1039300048F4892F807F6983813B20F1803E11F11B
:103940001A82D6CF892F887F803F81F4903F91F4EF
:103950007E0186E0E80EF11C61E0C70177D081119D
:1039600015C0C357DF4F188384E0DBCF903F81F34E
:103970000E941E0C923F29F0943FD0F769831A826F
:10398000C5CF698381E08C9380E0CBCF612FC701E5
:1039900032D0FACF67FD1BCF88CF1F93CF93DF9331
:1039A000FC01E357FF4F10811F3F81F0EC018FEFC7
:1039B000808332978081803F19F4CE0106960BD028
:1039C000612FCE01DF91CF911F91E4CF80E0DF9195
:1039D000CF911F910895FC01E058FF4F1182108292
:1039E0008E579F4F21E0FC01208308958E579F4FF3
:1039F000FC0110820895FC01E058FF4F20813181C5
:103A0000820F931FDC016C932F5F3F4F3183208324
:103A100008950F931F93CF93DF93C42FD0E08C01B1
:103A200000581F4FF80120813181AE01820F931F92
:103A30000E944428F80140815181C40FD51FD183D1
:103A4000C083DF91CF911F910F910895FC01E05841
:103A5000FF4F20E830E0261B310981E04081518191
:103A60002417350708F480E008958E579F4FFC0116
:103A700080810895089580589F4FFC018081918135
:103A80000895DF92EF92FF920F931F93CF93DF93EE
:103A900000D000D0CDB7DEB77C0149835A836B8359
:103AA0007C83D22E822F8F70870193E8899F000D2F
:103AB000111D1124095F1F4F8A81803F09F5C8013C
:103AC0008ADF63E0C801C2DF811120C089819A8149
:103AD000AB81BC81F701E657FF4F80839183A283BE
:103AE000B383F701D68284E00F900F900F900F9070
:103AF000DF91CF911F910F91FF90EF90DF9008958C
:103B0000C801B3DF8111DDCF80E0EECF43E0BE011D
:103B10006E5F7F4FC8017DDFF7CFBF92CF92DF92FC
:103B2000EF92FF920F931F93CF93DF93EC01573FD8
:103B300069F058832B8385E0DF91CF911F910F911E
:103B4000FF90EF90DF90CF90BF900895122FB72E87
:103B5000D62E052FC42E822F8F709E0143E8849F9E
:103B6000200D311D1124295F3F4F7901C9017DDFEF
:103B70008823B9F061E0C70169DF81110AC0FE0145
:103B8000E657FF4FC0820183D282B3821E8384E056
:103B9000D3CF67EFC7012FDFC70128DF1E8382E085
:103BA000CBCF80E0C9CFDF92EF92FF920F931F93AC
:103BB000CF93DF93CDB7DEB728970FB6F894DEBF6B
:103BC0000FBECDBF242F30E0E4E035952795EA9570
:103BD000E1F72115310511F080E021C0E42FEF70ED
:103BE000E250EE30C8F78C01F0E0E750F24E0C9452
:103BF0003B28071E071E1D1E201E231E5B1E821E45
:103C0000821E821E821E821E821E821E8B1EFC014E
:103C10005083618372838381807F838385E02896CC
:103C20000FB6F894DEBF0FBECDBFDF91CF911F91CD
:103C30000F91FF90EF90DF90089520E022DFEFCF0B
:103C400020E06BDFECCF4D835E836F837887D12CD0
:103C500083E8829F7001839FF00C1124F7E0EF0E40
:103C6000F11CE00EF11EC701503FA9F4B4DE62E082
:103C7000C701ECDE811113C08D819E81AF81B885B3
:103C8000F801E657FF4F80839183A283B383F80145
:103C9000D68284E0C4CFE9DE8111E9CF9DCF42E036
:103CA000BE016A5F7F4FC701B4DEC7019FDEF80126
:103CB000D68282E0B4CF49835A836B837C83D12C34
:103CC00083E8829F7001839FF00C1124F7E0EF0ED0
:103CD000F11CE00EF11EC701503F59F47CDE63E099
:103CE000C701B4DE811109C089819A81AB81BC8191
:103CF000C7CFBBDE8111F3CF6FCF43E0BE016E5F54
:103D00007F4FD1CFFC015083618372838381807F99
:103D1000838381E084CFFC0154838581807F858308
:103D200083E07DCFCF92DF92EF92FF921F93CF93EC
:103D3000DF93FC01E657FF4F2081222341F1EC0184
:103D4000C080D180E280F38010828E818F7013E872
:103D50009E01189F200D311D1124C901079685DE93
:103D6000882351F08E818F709E01189F200D311D88
:103D70001124C90107962FDEB701A601CE01DF91FC
:103D8000CF911F91FF90EF90DF90CF900CCF80E00C
:103D9000DF91CF911F91FF90EF90DF90CF9008952A
:103DA0001F920F920FB60F9211240BB60F922F9302
:103DB0003F934F935F936F937F938F939F93AF93B3
:103DC000BF93EF93FF938091470890914808892B08
:103DD00029F0E0914708F09148080995FF91EF918B
:103DE000BF91AF919F918F917F916F915F914F9113
:103DF0003F912F910F900BBE0F900FBE0F901F9011
:103E000018951F920F920FB60F9211240BB60F92B6
:103E10002F933F934F935F936F937F938F939F93D2
:103E2000AF93BF93EF93FF938091490890914A0815
:103E3000892B29F0E0914908F0914A080995FF91F2
:103E4000EF91BF91AF919F918F917F916F915F9112
:103E50004F913F912F910F900BBE0F900FBE0F907F
:103E60001F9018951F920F920FB60F9211240BB648
:103E70000F922F933F934F935F936F937F938F9303
:103E80009F93AF93BF93EF93FF9380914B089091D3
:103E90004C08892B29F0E0914B08F0914C080995CA
:103EA000FF91EF91BF91AF919F918F917F916F9112
:103EB0005F914F913F912F910F900BBE0F900FBECE
:103EC0000F901F9018951F920F920FB60F9211240A
:103ED0000BB60F922F933F934F935F936F937F9304
:103EE0008F939F93AF93BF93EF93FF9380914D0870
:103EF00090914E08892B29F0E0914D08F0914E08E1
:103F00000995FF91EF91BF91AF919F918F917F9113
:103F10006F915F914F913F912F910F900BBE0F903A
:103F20000FBE0F901F9018951F920F920FB60F9211
:103F300011240BB60F922F933F934F935F936F9380
:103F40007F938F939F93AF93BF93EF93FF93809152
:103F50004F0890915008892B29F0E0914F08F0917B
:103F600050080995FF91EF91BF91AF919F918F916B
:103F70007F916F915F914F913F912F910F900BBE69
:103F80000F900FBE0F901F9018951F920F920FB6B3
:103F90000F9211240BB60F922F933F934F935F9381
:103FA0006F937F938F939F93AF93BF93EF93FF9301
:103FB0008091510890915208892B29F0E091510885
:103FC000F09152080995FF91EF91BF91AF919F91A8
:103FD0008F917F916F915F914F913F912F910F90B2
:103FE0000BBE0F900FBE0F901F9018951F920F924F
:103FF0000FB60F9211240BB60F922F933F934F934E
:104000005F936F937F938F939F93AF93BF93EF9340
:10401000FF938091530890915408892B29F0E091E7
:104020005308F09154080995FF91EF91BF91AF911A
:104030009F918F917F916F915F914F913F912F91C0
:104040000F900BBE0F900FBE0F901F9018951F92F0
:104050000F920FB60F9211240BB60F922F933F932E
:104060004F935F936F937F938F939F93AF93BF9380
:10407000EF93FF938091550890915608892B29F072
:10408000E0915508F09156080995FF91EF91BF9185
:10409000AF919F918F917F916F915F914F913F91E0
:1040A0002F910F900BBE0F900FBE0F901F90189581
:1040B0001DBA109268001CBC10BE1FBA10927A0084
:1040C00010926E0010926F001092700010927100AA
:1040D0001092C9001092BC0011B814B817B81AB8E1
:1040E0001DB810BA12B815B818B81BB81EB811BA56
:1040F0000895F894E1E6F0E020E82083108283E060
:1041000084BD85BDEEE6F0E080818160808391E032
:104110009093800082E0809381009093B000809320
:10412000B100909390008093910086E880937A008C
:1041300020937B0010927E00B6D2789408958E3240
:1041400070F4E8E9F0E0880FE80FF11D2591E491A3
:10415000F0E09FB7F8948181822B81839FBF0895FF
:104160008E3218F5AAEDA80FA83000F5E4EFF0E0C4
:10417000AA0FEA0FF11DA591B0E09591E8E9F0E0F2
:10418000880FE80FF11D2591E491F0E04FB7F89406
:104190003181822F8095232F28232183228182231E
:1041A0008283EC919E239C934FBF08959FEFB0E0D4
:1041B000A0E0E4CF8E3210F5AAEDA80FA830F8F4F5
:1041C000E4EFF0E0AA0FEA0FF11DA591B0E09591A0
:1041D000E8E9F0E0880FE80FF11D3591E491F0E097
:1041E0004FB7F8948181232F209528232183828142
:1041F000832B8283EC919E239C934FBF08959FEF66
:10420000B0E0A0E0E5CF613009F499CF623009F465
:10421000D1CFA6CFEE3250F4EE0FE95EFE4D0994F9
:10422000EE3220F4EE0FED58FE4D09940895589AA1
:10423000B6C0599AD0C05A9A08955B9A08955C9A6C
:1042400008955D9A08955E9A08955F9A0895709A08
:104250000895719A0895409A0895419A0895429A4E
:104260000895439A0895449AC8C0459AC0C0469A92
:10427000B8C0479A0895769A0895779A0895289A2B
:104280000895299A08952A9A08952B9A08952C9AA8
:104290009CC02D9A88C02E9A8CC02F9A90C0109ADC
:1042A0000895119A0895129A0895139A0895149AE8
:1042B0000895159A0895169A0895179A0895749A6C
:1042C0000895759A0895889A0895899A08958A9A02
:1042D00008958B9A08958C9A08958D9A08958E9AD0
:1042E00008958F9A089558985AC0599874C05A984A
:1042F00008955B9808955C9808955D9808955E9878
:1043000008955F9808957098089571980895409859
:1043100008954198089542980895439808954498BF
:104320006CC0459864C046985CC0479808957698DC
:1043300008957798089528980895299808952A98B7
:1043400008952B9808952C9840C02D982CC02E9835
:1043500030C02F9834C0109808951198089512987D
:104360000895139808951498089515980895169827
:1043700008951798089574980895759808958898E1
:104380000895899808958A9808958B9808958C982F
:1043900008958D9808958E9808958F980895E4B59E
:1043A000EF7DE4BD0895E0918000EF77E093800019
:1043B0000895E0918000EF7DE09380000895E09102
:1043C0008000E77FE09380000895E091B000EF77F0
:1043D000E093B0000895E091B000EF7DE093B0006D
:1043E0000895E0919000EF77E09390000895E091B8
:1043F0009000EF7DE09390000895E0919000E77FBA
:10440000E09390000895EE3258F4EE0FEE0FFF2780
:10441000EC3718F4EC5EFD4D0994EA5EFD4D09940D
:10442000EE270895E1E00895E9B1E170D9F7089524
:10443000E9B1E270B9F70895E9B1E47099F7089528
:10444000E9B1E87079F70895E9B1E07159F7089595
:10445000E9B1E07239F70895E9B1E07419F7089508
:10446000E9B1E078F9F60895ECB1E170D9F6089574
:10447000ECB1E270B9F60895E6B1E17099F60895ED
:10448000E6B1E27079F60895E6B1E47059F6089560
:10449000E6B1E87039F60895E6B1E07119F60895CD
:1044A000E6B1E072E9F50895E6B1E074C9F5089562
:1044B000E6B1E078A9F50895ECB1E07489F50895C6
:1044C000ECB1E07869F50895E3B1E17049F508953C
:1044D000E3B1E27029F50895E3B1E47009F50895B8
:1044E000E3B1E870E9F40895E3B1E071C9F4089527
:1044F000E3B1E072A9F40895E3B1E07489F408959A
:10450000E3B1E07869F40895E0B1E17049F4089509
:10451000E0B1E27029F40895E0B1E47009F408957F
:10452000E1E00895E0B1E870D9F70895E0B1E071F5
:10453000B9F70895E0B1E07299F70895E0B1E07439
:1045400079F70895E0B1E07859F70895ECB1E0719A
:1045500039F70895ECB1E07219F70895EFB1E17001
:10456000F9F60895EFB1E270D9F60895EFB1E4706D
:10457000B9F60895EFB1E87099F60895EFB1E071DA
:1045800079F60895EFB1E07259F60895EFB1E0744D
:1045900039F60895EFB1E07819F60895F89484B7E4
:1045A000877F84BF8091600080618093600010925B
:1045B000600080E29EE40197F1F781E08093E000E3
:1045C00080E28093D80080E69AEE0197F1F770DDE3
:1045D0000C9400FEFFCFF8946BDD80E69AEE019715
:1045E000F1F70C940000FFCF8F938FB78F938091DA
:1045F00057088D5F8D37D0F4809357088091580805
:104600008F5F80935808D8F0809159088F4F80931E
:104610005908A8F080915A088F4F80935A0878F073
:1046200080915B088F4F80935B0809C08D57809302
:104630005708809158088E5F8093580828F780911A
:104640005C088C5F80935C0858F080915D088F4F08
:1046500080935D0828F080915E088F4F80935E08FC
:104660008F918FBF8F9118950FB6F89466B515B2DC
:1046700070915C0880915D0890915E080FBE10FEFD
:1046800005C06F3F19F07C5F8F4F9F4F11240024AE
:10469000660F001C660F001C702908958091E800C9
:1046A00080FFFCCF08958091D80087FF02C085FF6E
:1046B0001BC081E88093D70080EA8093D80086E110
:1046C00089BD09B400FEFDCF80E98093D800109227
:1046D000E0001092DB081092DA081092D9081092CC
:1046E000E1008CE08093E20008951F920F920FB6D4
:1046F0000F9211248F939F939091E1001092E1000B
:1047000093FF0FC01092E90081E08093EB001092BC
:10471000EC0082E38093ED0088E08093F00010923B
:10472000DB0892FF21C08091DB088823E9F08091AB
:10473000D908882379F081508093D90881110AC063
:1047400081E08093E9008091E80085FD35C08AE32F
:104750008093E80083E08093E9008091F200882351
:1047600019F08AE38093E80090FF0CC080E1809309
:10477000E2001092DB0881E08093DA0880EA8093FF
:10478000D80019BC8091DA08882379F094FF0DC015
:1047900086E189BD09B400FEFDCF80E98093D80091
:1047A0008DE08093E2001092DA089F918F910F9034
:1047B0000FBE0F901F9018951092F100C4CF1F925A
:1047C0000F920FB60F9211240BB60F92EF92FF9239
:1047D0000F931F932F933F934F935F936F937F9309
:1047E0008F939F93AF93BF93CF93DF93EF93FF93F9
:1047F0001092E9008091E80083FF21C0E090F10071
:10480000F090F100C091F100D091F1000091F10021
:104810001091F1002091F1003091F10082EF80932E
:10482000E80086E0F8125CC0E4E0F1E08591959143
:10483000C817D90741F03596FA94F110F7CF81E205
:104840008093EB002BC0859195910817190711F003
:104850003396F2CF4591559184912F3F310519F050
:1048600010F02FEF30E0821708F4282F3EEF8091F0
:10487000E800982F9570D9F382FD10C0822F213463
:1048800008F080E4982F911124C0922F981B892F53
:104890003093E80091111BC02034C8F4FF91EF91D0
:1048A000DF91CF91BF91AF919F918F917F916F9148
:1048B0005F914F913F912F911F910F91FF90EF903A
:1048C0000F900BBE0F900FBE0F901F901895282FC2
:1048D000CECFFA0145914093F100AF019150D3CF73
:1048E00085E0F81208C08EEF8093E800D7DEC0683C
:1048F000C093E300D3CF99E0F91222C0E110D3C0F6
:10490000C093DB081092D9088EEF8093E80081E015
:10491000ECEEF1E08093E90095919093EB00992300
:1049200031F095919093EC0095919093ED008F5F0D
:10493000853081F78EE18093EA001092EA00AECFD5
:1049400098E0F9120CC080E8E81279CFA7DE8091D8
:10495000DB088093F1008EEF8093E8009FCFF11089
:1049600012C09CDE92E8E91209C00093E900F090C1
:10497000EB00F5FAFF24F0F81092E900F092F10054
:104980001092F100E8CF8F2D8D7F813009F080C02B
:1049900082E0E8121BC02097C9F4402F4F778FEFB9
:1049A000840F863098F48EEF8093E8004093E900FE
:1049B00093E0F91609F443CF89E18093EB0081E09D
:1049C00090E001C0880F4A95EAF7B5CF0130110594
:1049D00009F05EC081E0F81222C091EA3EEFE912D0
:1049E0002ECF8091E800982F9570D9F382FD56CF95
:1049F000822F213408F080E4982F91110CC0922F5F
:104A0000981B892F3093E800911103C0203408F4DB
:104A100045CF282FE6CF1092F1009150EECF89E0DC
:104A2000F81236C091E2E9120ACFC115D34009F05D
:104A300006CF2430310509F002CF8091E80082FFD3
:104A4000FCCF3091F1002091F1009091F100809124
:104A5000F1004BEF4093E8004EEF4093E800393A05
:104A600051F4253409F0EBCE923C09F0E8CE8B36B8
:104A700009F0E5CE93DD3B3809F0E1CE253C09F0A5
:104A8000DECE9D3109F0DBCE803709F0D8CEA3DD34
:104A900099ECF912D4CE80E4E812D1CE8EEF809357
:104AA000E800FCDDF4CF0130110509F0C8CEBACF23
:104AB0005091940840919308852F90E0242F30E086
:104AC000541718F0821B930B0895805C9F4FFACF08
:104AD0005091940840919308252F30E0842F90E066
:104AE000821B930B541710F0879608950197089531
:104AF00080919408E09193088E1751F0EF5FE034B5
:104B000008F0E0E0F0E0EB56F74F808190E0089588
:104B10008FEF9FEF089590919408809193089817D4
:104B200079F0909193089F5F903408F090E0E92F1E
:104B3000F0E0EB56F74F80819093930890E0089552
:104B40008FEF9FEF0895809168088111FCCF089541
:104B50002091C90023FD06C021E0FC01228390E0E2
:104B600080E00895809156018F3F41F08091680860
:104B7000811104C0E0915601F0E04CDB90916A088D
:104B800080916908981304C08091C80085FD19C000
:104B900080916A088F5F8832F8F4909169089817BD
:104BA000E1F3E82FF0E0E559F74F608391E090934F
:104BB000680880936A088091C90080628093C90068
:104BC00008C08FB7F8946093CE0091E09093680886
:104BD0008FBF81E090E0089580E0DFCF1F93CF93F7
:104BE000DF93EB01142F409356014F3F29F0842FA0
:104BF000A6DAE12FF0E014DBC0FF24C0C13080E171
:104C0000D80700F582E08093C8002197D093CD00AB
:104C1000C093CC008091C90083FD10C0109294080D
:104C20001092930810926A0810926908109268080E
:104C300086E08093CA0088ED8093C900DF91CF9110
:104C40001F9108951092C800D695C795DECF1F9288
:104C50000F920FB60F9211240BB60F922F938F93D2
:104C60009F93EF93FF939091CE00809194088F5F74
:104C7000803408F080E020919308281739F0E82F5D
:104C8000F0E0EB56F74F908380939408FF91EF91FB
:104C90009F918F912F910F900BBE0F900FBE0F9091
:104CA0001F9018951F920F920FB60F9211240BB6FA
:104CB0000F928F939F93EF93FF9390916A08809147
:104CC0006908981310C08091C9008F7D8093C90036
:104CD000FF91EF919F918F910F900BBE0F900FBEA0
:104CE0000F901F901895809169088F5F883208F0A7
:104CF00080E0E82FF0E0E559F74F90819093CE00E7
:104D000080936908E5CF1F920F920FB60F9211247E
:104D10000BB60F928F93EF93FF93109268088091D8
:104D200056018F3F21F0E0915601F0E079DAFF91D2
:104D3000EF918F910F900BBE0F900FBE0F901F90B1
:104D40001895E0E6F8E0128288EE93E0A0E0B0E08B
:104D500083839483A583B68317828AED94E091833D
:104D600080830895CF92DF92EF92FF920F931F936B
:104D7000CF93DF936C01EB017B01E40EF51E10E095
:104D800000E0CE15DF0561F06991D601ED91FC914F
:104D90000190F081E02DC6010995080F191FF1CF90
:104DA000C801DF91CF911F910F91FF90EF90DF909D
:104DB000CF9008959ED90E94A8040E949C03FDCF25
:104DC000AFC0FC0181E090E02081222311F090E04F
:104DD00080E0089521E0FC0120830895089508955E
:104DE0000F931F93CF93DF938230910510F482E0ED
:104DF00090E0E091D708F091D80830E020E070E032
:104E000060E0D0E0C0E0B0E0A0E0309799F4211578
:104E1000310509F44AC0281B390B24303105D8F577
:104E20008A819B816115710589F1FB0193838283DE
:104E3000FE0111C040815181028113814817590739
:104E4000E0F04817590799F4109761F012960C9307
:104E5000129713961C933296CF01DF91CF911F9139
:104E60000F9108950093D7081093D808F4CF211517
:104E7000310551F04217530738F0A901DB019A01BF
:104E8000BD01DF01F801C1CFEF01F9CF9093D80840
:104E90008093D708CDCFFE01E20FF31F819391934A
:104EA0002250310939832883D7CF2091D5083091FA
:104EB000D608232B41F42091590130915A013093A7
:104EC000D6082093D508209157013091580121151B
:104ED000310541F42DB73EB740915B0150915C0123
:104EE000241B350BE091D508F091D608E217F307A3
:104EF000A0F42E1B3F0B2817390778F0AC014E5F4A
:104F00005F4F2417350748F04E0F5F1F5093D608A8
:104F10004093D508819391939FCFF0E0E0E09CCF40
:104F2000CF93DF930097E9F0FC013297138212824E
:104F3000A091D708B091D808ED0130E020E010979B
:104F4000A1F420813181820F931F2091D5083091E7
:104F5000D6082817390709F061C0F093D608E09306
:104F6000D508DF91CF910895EA01CE17DF07E8F564
:104F70004A815B819E0141155105B1F7E901FB832F
:104F8000EA8349915991C40FD51FEC17FD0761F4CD
:104F9000808191810296840F951FE901998388830E
:104FA000828193819B838A83F0E0E0E012968D9169
:104FB0009C9113970097B9F52D913C911197CD01D4
:104FC0000296820F931F2091D5083091D60828179A
:104FD000390739F6309751F51092D8081092D70852
:104FE000B093D608A093D508BCCFD383C2834081A9
:104FF0005181840F951FC817D90761F44E5F5F4F29
:1050000088819981480F591F518340838A819B81F0
:10501000938382832115310509F0B0CFF093D8082E
:10502000E093D7089ECFFD01DC01C0CF138212822E
:10503000D7CFA1E21A2EAA1BBB1BFD010DC0AA1FD0
:10504000BB1FEE1FFF1FA217B307E407F50720F0F1
:10505000A21BB30BE40BF50B661F771F881F991F6C
:105060001A9469F760957095809590959B01AC01B5
:10507000BD01CF010895EE0FFF1F0024001C0BBEE1
:105080000790F691E02D0994FB01DC0102C001902C
:105090000D9241505040D8F70895DC0101C06D9346
:1050A00041505040E0F708950E942B0111E0CFEFEE
:1050B000D0E003C0FE01DFDF2196C030D107D1F779
:0450C000F894FFCF92
:1050C4005C040000800400000000000006010201EE
:1050D400000000005C0400008004000000000000E8
:1050E4001A011601000000005C04000080040000A6
:1050F400000000002E012A01000000005C040000F2
:10510400800400000000000042013E010000000095
:10511400000019000000FF0000DC088000150014E6
:10512400002900280027001D0020001B0007001C88
:1051340000050004000E000D000C002100220023D5
:10514400001F001E003C3F3E000000000000000065
:1051540000EE26EE26EE26EE265C015D015E01FCE5
:10516400FF0000000000005F016001610100000019
:10517400008902C402000000004502800200000011
:105184000000000000EE26EE26000000003F03575A
:1051940003180368013502A1015C015D015E01157C
:1051A400029F1BFA19621A351A571A6701E41BFC8D
:1051B400FF0000530360035F0160016101F8FF0019
:1051C40000550362033302A01BF2FF000051036485
:1051D400036201E51B0000000066037E03180368F8
:1051E400013502A1015C015D015E0115029F1BFAFC
:1051F40019621A351A571A6701E41BFCFF00007C78
:10520400038B035F0160016101F8FF00007A0389E9
:10521400033302A01BF2FF0000780387036201E559
:105224001B00000000C601DF01180368013502A15C
:10523400015C015D015E016501FD06720752079B79
:10524400083A07AB01B006FCFF0000DB01E8015F90
:105254000160016101F8FF0000DD01EA016601FE61
:1052640006F2FF0000D901EC016201B10600000062
:1052740000EE010602180368013502A1015C015D1C
:10528400015E016501FD06720752079B083A07ABF0
:1052940001B006FCFF0000040213025F016001611B
:1052A40001F8FF0000020211026601FE06F2FF008F
:1052B4000000020F026201B10600000000AC010010
:1052C400000000DC02E2021F05460500000000EBBE
:1052D40002F1021F0546050000000009030F030741
:1052E40005500A3C3D3E3F40414243444546474801
:1052F400494A3738393A3B3C3D3E3F4041424344BA
:105304004532333435363738393A3B3C3D3E3F40FD
:105314002D2E2F303132333435363738393A3B2855
:10532400292A2B2C2D2E2F303132333435363B3C69
:105334003D3E3F404142434445464748493738395A
:105344003A3B3C3D3E3F4041424344453233343591
:10535400363738393A3B3C3D3E3F402D2E2F3031D5
:1053640032333435363738393A3B28292A2B2C2D19
:105374002E2F303132333435360000000000111145
:105384002B111C0F980E850E8F0E5C015D015E01C2
:10539400FCFF0000261134115F016001610100006F
:1053A400000000000000EE26EE26000000000000D1
:1053B4000000180368013502A1015C015D015E0172
:1053C4006501EE26EE26EE26EE26EE26EE26FCFF00
:1053D4000000000000005F0160016101F8FF0000AF
:1053E400000000006601EE26F2FF0000000000004D
:1053F4006201EE260000000000000000EE26EE260A
:10540400EE26EE265C015D015E0100000000161828
:105414001C185F01600161010000000025183918A3
:105424009418CC18EA18FA189815121676159318C9
:10543400BD18E918F91886158C16D116FCFF000062
:1054440044184218CF1615179615000000002603BD
:105454008D03180368013502A1015C015D015E0141
:1054640065019F1BFA19621A351A571A6701E41B62
:10547400FCFF00003D039A035F0160016101F8FF36
:1054840000003B0398036601A01BF2FF00003903F0
:1054940096036201E51B00000000A825B2266825DA
:0854A400A32558258B2578256E
:00000001FF
