:10000000FCC000000C94311A0C94621A0C94931AE0
:100010000C94C41A0C94F51A0C94261B0C94571BC0
:100020000C94881B14C100000C94251E0C948F1E88
:100030000EC100000CC100000AC1000008C1000090
:1000400006C1000004C1000002C1000000C10000A0
:10005000FEC00000FCC00000FAC000000C94841D2B
:10006000F6C00000F4C00000F2C00000F0C00000C4
:10007000EEC00000ECC00000EAC00000E8C00000D4
:10008000E6C00000E4C00000E2C00000E0C00000E4
:10009000DEC00000DCC00000012902290429082973
:1000A0001029202940298029012C022C0126022612
:1000B000042608261026202640268026402C802C48
:1000C0000123022304230823102320234023802319
:1000D0000120022004200820102020204020802021
:1000E000102C202C012F022F042F082F102F202F2F
:1000F000402F802F7EFE7EFD7EFB7EF77EEF7EDF33
:100100007EBF7E7F00010000D4011200020000408B
:10011000017300220100B30121002101009C0109AB
:10012000000300003C0104010309042E010C0C0330
:1001300066006F006F007400730000000403090480
:1001400009027300020100C0320904000002010329
:1001500000000724010001410006240201010006FD
:100160002402020200092403010301020100092400
:10017000030204010101000905040240000000001F
:100180000525010101090583024000000000052545
:10019000010103090401000203000000092111010B
:1001A0000001222100070581034000010705020329
:1001B00020000206C9FF0904A15C7508150026FF8E
:1001C00000954009758102952009769102950409F0
:1001D00076B102C01201000200000040C016850482
:1001E00072020001000101C13601C0260181360101
:1001F0008036F60AE9125C214C0B11241FBECFEFAA
:10020000D0E2DEBFCDBF12E0A0E0B1E0E8E3F6E46B
:1002100000E00BBF02C007900D92A63EB107D9F7D0
:1002200025E0A6EEB2E001C01D92A133B207E1F7CE
:1002300010E0CCEFD0E004C02197FE010E94E32241
:10024000C93FD107C9F70E946F200C940E23D8CE66
:10025000A091E602B091E702109709F40895ED919C
:10026000FC91119712968D919C919093E702809347
:10027000E6020995EDCFCF93DF93EC0184E090E0A7
:100280000E946D21009791F0FC01D183C0832091E1
:10029000E6023091E702338322839093E702809352
:1002A000E60290E080E0DF91CF91089581E090E058
:1002B000FACF0895089508950895089508958BE05C
:1002C00091E00895CF93DF93CDB7DEB72A970FB6AD
:1002D000F894DEBF0FBECDBF2E833F83488759877A
:1002E0006A8725E0FE013696DE01119601900D9297
:1002F0002A95E1F728853985232BA1F0DC01ED91C2
:10030000FC91028CF38DE02D29813A814B815C8137
:100310006D812A960FB6F894DEBF0FBECDBFDF9178
:10032000CF9109942A960FB6F894DEBF0FBECDBFC9
:10033000DF91CF910895683F38F0DC01ED91FC9199
:10034000048CF58DE02D099408950895089508957D
:100350000F931F93CF93DF9300D000D01F92CDB7A0
:10036000DEB70F900F900F900F900F90DF91CF910D
:100370001F910F910895089508950895AF92BF9227
:10038000CF92DF92EF92FF920F931F93893823E170
:10039000920710F088E893E1BC0190E080E01F92A2
:1003A0001F922FE32F932FEF2F93A12CB12C6501D8
:1003B00018E8E12E13E1F12E00E010E020E030E03B
:1003C000A9010E9430200F900F900F900F90CB0149
:1003D0001F910F91FF90EF90DF90CF90BF90AF9063
:1003E00008950C9475202FE531E0FC0131832083C2
:1003F00025E831E03583248323E931E03187208704
:100400002FE931E0378726870C9404130E97EBCF42
:100410000497E9CF0897E7CFCF93DF93EC01E3DFB1
:10042000CE01DF91CF910C9475200497F5CF0897FA
:10043000F3CF0E97F1CF2BEA31E0FC01318320831B
:1004400021ED31E0358324832FED31E031872087A2
:100450002BEE31E037872687C6CF0E97ECCF089773
:10046000EACF0497E8CFCF93DF93EC01E4DFCE012E
:10047000DF91CF910C9475200E97F5CF0897F3CFAD
:100480000497F1CF242F287F203F59F4403F49F0B3
:100490006F77DC01ED91FC91008CF18DE02D5F77A1
:1004A00009940895CF93DF93EC018E819F810E9480
:1004B000D50C9C0174E0220F331F7A95E1F7E6E03A
:1004C00096958795EA95E1F7282B392B8A859B85A8
:1004D000280F391FC901029696958795969587959D
:1004E000281B390B3B872A87E885F985309709F067
:1004F00009954C855D859A013695322F22273795CF
:10050000279520644115510549F0B9016F577109CC
:100510004F3F514018F58617970728F021583F4F55
:1005200028173907F0F4880F892F881F990B9195A8
:100530009D878C875E857F8550FF13C0472F4F7046
:10054000569572957F70406B682F6F77809151043C
:1005500090915204DF91CF910C94A81086179707C1
:1005600010F3DF91CF910895CF93DF93FC0187E3E0
:1005700091E091838083309781F08091EC0290919B
:10058000ED0222813381A481B581E817F90741F09A
:100590002115310529F4109729F4DF91CF910895A1
:1005A000109721F013963C932E9312972091EE0210
:1005B0003091EF02E217F30721F4B093EF02A0931A
:1005C000EE02C281D381209711F0BD83AC83E8177E
:1005D000F90719F7D093ED02C093EC02DECFCF9369
:1005E000DF93EC01C1DFCE01DF91CF910C94752038
:1005F000CF93DF93FC018FE391E091838083309769
:1006000081F08091E8029091E90222813381A481F6
:10061000B581E817F90741F02115310529F4109744
:1006200029F4DF91CF910895109721F013963C9310
:100630002E9312972091EA023091EB02E217F30712
:1006400021F4B093EB02A093EA02C281D3812097F8
:1006500011F0BD83AC83E817F90719F7D093E902CD
:10066000C093E802DECFCF93DF93EC01C1DFCE0170
:10067000DF91CF910C9475200F93062F0F77282FC1
:100680002F774150406969E08AEB94E00E94FC209A
:100690000F9108950F93082F0F774FEF460F406B80
:1006A0002BE06BE08AEB94E00E94FC200F91089510
:1006B0000F93062F0F77282F2F774150406868E05F
:1006C0008AEB94E00E94FC200F91089527E431E02A
:1006D000FC01318320838CCFCF93DF93EC01F6DFD5
:1006E000CE01DF91CF910C94752023E531E0FC0120
:1006F00031832083EBCFCF93DF93EC01F6DFCE0184
:10070000DF91CF910C947520CF93DF93EC018E8114
:100710009F810E94D50C9C0144E0220F331F4A9513
:10072000E1F756E0969587955A95E1F7822B932B42
:100730009C01220F331F220F331F281B390B3B87CD
:100740002A87880F892F881F990B91959D878C8701
:10075000DF91CF91089520E8240F203748F46F7778
:10076000DC01ED91FC910688F789E02D5F77099413
:1007700008950F931F93211119C09B0161157042B9
:1007800014F02FEF3FE1211550EE350714F420E06F
:1007900030EE305E8901000F012F001F110B2F7703
:1007A00041504F70406E6EE00E94FC201F910F91EF
:1007B000089580913305882359F18FB7F89493E019
:1007C0009093E9009091E4009E5F23E03091E8006F
:1007D00035FD0EC08FBF8091E4008917C9F080916C
:1007E00033058823A9F08FB7F8942093E900EECF62
:1007F0004093F1005093F1006093F1007093F10089
:100800009091E80095FD03C09AE39093E8008FBFB4
:100810000895CF93DF93FC01138212821782168210
:1008200083E191E09183808389E291E095838483E1
:10083000CF010896138612861586148627E331E0C9
:10084000318720872091EC023091ED02232B21F497
:100850009093ED028093EC02A091EE02B091EF0232
:10086000B587A487109721F013969C938E931297C7
:100870009093EF028093EE0213861286118A108AFB
:1008800080910302138A148A158A868B178A808DB9
:10089000807F808F818D807F818FDF015A9683E8F2
:1008A000ED0119928A95E9F7A058BF4F11961C9255
:1008B0001E9212961C9211961D921D921D921C92D0
:1008C0001397D49680E1ED0119928A95E9F7509635
:1008D0001C928BEA91E09183808381ED91E0958376
:1008E00084838FED91E0918780878BEE91E09787ED
:1008F0008687DF91CF9108956F7070E070932E031B
:1009000060932D03443309F580913303811110C0A6
:100910008091340381110CC080913503811108C08E
:10092000409346032093450340933A0320933903B1
:1009300084E38093440320934303809338032093FC
:10094000370381E08093360308954B3309F5809196
:10095000340381110CC080913503811108C040938C
:1009600046032093450340933A0320933903809133
:100970003603811109C08BE3809344032093430322
:10098000809338032093370381E08093350344C07C
:100990004234E1F580913603811114C0409346033F
:1009A0002093450340933A03209339038091350304
:1009B000811108C0409344032093430340933803BC
:1009C0002093370381E080933403089540934603D6
:1009D0002093450340933A032093390380913603D3
:1009E000811110C08091350381110CC080913403B6
:1009F000811108C04093440320934303409338037C
:100A00002093370381E08093330308954934F1F252
:100A10004234C1F24934B1F308950F93FC01622FBF
:100A2000932F207F2039B9F120F42038D1F00F9195
:100A30000895203BB9F1203ED1F780E8489FA001FE
:100A40001124432B6F70862F90E090932C0380939A
:100A50002B03611146C0505250932A03409329033F
:100A6000E6CF6F7070E070932E0360932D033433E4
:100A700019F410923603DBCF3B3319F4109235038F
:100A8000D6CF323419F410923403D1CF393479F6F9
:100A900010923303CCCF052F242F432FCF016F703B
:100AA0002BDFC5CF6F70262F30E0309316032093D5
:100AB00015039B3009F0BBCF611103C040931A03AB
:100AC000B6CF613019F440931903B1CF623019F4F5
:100AD00040931803ACCF633009F0A9CF40931703BC
:100AE000A6CF613031F4505250932803409327032E
:100AF0009ECF623031F45052509326034093250329
:100B000096CF633009F093CF505250932403409313
:100B100023038DCF8EEB91E09093F9028093F8023E
:100B20008AE093E0EAD583E093E0E7D581E093E0C3
:100B300090935803809357038091510490915204ED
:100B40000C944A11FF920F931F93CF93DF938C0164
:100B50000D5E1F4FC8010E94F319C82F81110AC0F2
:100B600084E0F82EDBE68FB7F8949091330591116D
:100B700008C08FBF8C2FDF91CF911F910F91FF90F5
:100B80000895F092E9009091E80095FD05C092FF6C
:100B9000F0CFD093E800F7CF4091F1005091F100F1
:100BA0006091F1007091F1009091E80095FFD09371
:100BB000E8008FBF4423F1F2C8010E943419882352
:100BC00091F2C82FD7CFBF92CF92DF92EF92FF92D0
:100BD0000F931F93CF93DF93CDB7DEB72A970FB64E
:100BE000F894DEBF0FBECDBF633009F491C0A8F406
:100BF000613069F1623009F440C02A960FB6F8946A
:100C0000DEBF0FBECDBFDF91CF911F910F91FF903F
:100C1000EF90DF90CF90BF900895643071F1653010
:100C200061F7FC0143895489658976892A960FB654
:100C3000F894DEBF0FBECDBFDF91CF911F910F9112
:100C4000FF90EF90DF90CF90BF900C948413FC0145
:100C500043895489658976892A960FB6F894DEBF50
:100C60000FBECDBFDF91CF911F910F91FF90EF90FD
:100C7000DF90CF90BF900C942B138C017C01F3E19B
:100C8000EF0EF11CFC01818D8F7093E8B92E970156
:100C9000B89E200D311D1124C90107960E949B1892
:100CA0006C01F801818D8F709701B89E200D311D68
:100CB0001124C90107960E949C18F801218D2F70FC
:100CC000DA82C9829C838B838D81807F822B8D8386
:100CD00085E0FE013196DE01169601900D928A950F
:100CE000E1F72E813F81488559856A85C8012A969A
:100CF0000FB6F894DEBF0FBECDBFDF91CF911F912D
:100D00000F91FF90EF90DF90CF90BF900C94511314
:100D1000FC016789708D2A960FB6F894DEBF0FBE6E
:100D2000CDBFDF91CF911F910F91FF90EF90DF909A
:100D3000CF90BF900C94AA13CF92DF92EF92FF92C4
:100D40000F931F93CF93DF93EC016C0124E0C20E4D
:100D5000D11CC6010E94A3157E012EE0E20EF11CFB
:100D6000209711F4F12CE12C8E159F0521F4B70189
:100D7000C6010E949415CE01E5DE182F00E0112374
:100D800071F0612FCE011FDF143039F0123009F4F9
:100D900000E0CE01D7DE182FF2CF01E0FACF00231A
:100DA00061F0B701C601DF91CF911F910F91FF90C4
:100DB000EF90DF90CF900C948515DF91CF911F912C
:100DC0000F91FF90EF90DF90CF900895B5CF0897E7
:100DD000B3CFCF93DF9387E493E0AEDF80915104EC
:100DE000909152040E949F128AE093E08BD483E09A
:100DF00093E088D48AE093E0F0D4EC01019709F005
:100E0000CAC044E060913B0380913C0351DC44E064
:100E100060913703809138032FDC809138038093F1
:100E20003C038091370380933B0342E0609143038E
:100E30008091440321DC809144038093400380919E
:100E4000430380933F03D0933203C093310383E085
:100E500093E0C3D4EC01019709F0C2C043E0609174
:100E60003D0380913E0324DC43E06091390380918F
:100E70003A0302DC80913A0380933E038091390368
:100E800080933D0341E06091450380914603F4DB8C
:100E900080914603809342038091450380934103F0
:100EA000D0933003C0932F0380913103909132038C
:100EB0000197E9F480914403893409F0B6C0609148
:100EC00023037091240380911B0390911C038617C8
:100ED000970769F020E042E08AEB94E04ADC8091D9
:100EE00023039091240390931C0380931B03809110
:100EF0002F03909130030197E9F4809146038934E0
:100F000009F0E8C0609123037091240380911B03D2
:100F100090911C038617970769F020E043E08AEB65
:100F200094E027DC809123039091240390931C0389
:100F300080931B0380912F0390913003019789F4D4
:100F400080914603893409F01AC180911A03909167
:100F50001403981731F063E09DDB80911A038093AE
:100F600014038091310390913203019789F48091A9
:100F70004403843309F034C180911A03909114031F
:100F8000981731F062E086DB80911A038093140396
:100F9000DF91CF9108958AE093E01FD4029709F082
:100FA00056CF44E060913B0380913C0381DB44E0F9
:100FB00060913703809138035FDB80913803809321
:100FC0003C038091370380933B0342E060913F03F1
:100FD000809140036DDB109232031092310337CFC2
:100FE00083E093E0FAD3029709F05ECF43E060918B
:100FF0003D0380913E035CDB43E0609139038091C7
:101000003A033ADB80913A0380933E03809139039F
:1010100080933D0341E0609141038091420348DBAE
:101020001092300310922F033FCF8234D1F460919D
:1010300025037091260380911D0390911E0386174E
:10104000970709F454CF20E042E08AEB94E091DB6B
:10105000809125039091260390931E0380931D0396
:1010600046CF8B33D1F46091270370912803809190
:101070001F03909120038617970709F438CF20E0CB
:1010800042E08AEB94E075DB80912703909128037E
:101090009093200380931F032ACF843309F027CF36
:1010A0006091290370912A0380912103909122037A
:1010B0008617970709F41BCF20E042E08AEB94E003
:1010C00058DB8091290390912A0390932203809307
:1010D00021030DCF8234D1F4609125037091260352
:1010E00080911D0390911E038617970709F422CF64
:1010F00020E043E08AEB94E03CDB80912503909173
:10110000260390931E0380931D0314CF8B33D1F4D9
:10111000609127037091280380911F039091200311
:101120008617970709F406CF20E043E08AEB94E0A6
:1011300020DB8091270390912803909320038093D4
:101140001F03F8CE843309F0F5CE60912903709126
:101150002A0380912103909122038617970709F4AF
:10116000E9CE20E043E08AEB94E003DB80912903A1
:1011700090912A039093220380932103DBCE823443
:1011800071F48091190390911303981709F4E9CE33
:1011900063E080DA8091190380931303E2CE8B33EE
:1011A00071F48091180390911203981709F4D9CE25
:1011B00063E070DA8091180380931203D2CE8433F7
:1011C00009F0CFCE8091170390911103981709F47D
:1011D000C8CE63E05FDA8091170380931103C1CE1C
:1011E0008B3371F48091190390911303981709F4CC
:1011F000CFCE62E04FDA8091190380931303C8CEFB
:10120000823471F48091180390911203981709F4B5
:10121000BFCE62E03FDA8091180380931203B8CE0C
:10122000893409F0B5CE8091170390911103981776
:1012300009F4AECE62E02EDA809117038093110399
:10124000A7CECF92DF92EF92FF921F93CF93DF93BF
:10125000EC010496BE01625F7F4F209711F470E0AD
:1012600060E00E9494150FB6F894C090B204D0903C
:10127000B304E090B404F090B5040FBE0FB6F89438
:101280008091B2049091B304A091B404B091B504DC
:101290000FBE8C199D09AE09BF09843F9140A1057D
:1012A000B10550F4CE014EDC182F682FCE018BDC37
:1012B0001430C9F2123011F7DF91CF911F91FF90D6
:1012C000EF90DF90CF900895BCCF0E97BACFEF92FA
:1012D0000F937E2DDC01ED91FC91962F9295907FDE
:1012E000492B522F602FCF0142960F91EF9061CA88
:1012F000EF920F93CF93DF9300D0CDB7DEB7262FB9
:101300009A838983E12C00E04FE0672FCE0101969C
:10131000DEDF0F900F90DF91CF910F91EF90089546
:10132000EF920F93CF93DF9300D0CDB7DEB7242F8A
:10133000052FE62E672F9A83898343E0223F31F001
:10134000E12C42E0243F10F000E045E0CE010196A0
:10135000BEDF0F900F90DF91CF910F91EF90089526
:10136000EF920F93CF93DF9300D0CDB7DEB7242F4A
:101370009A838983842F90E034E0959587953A95F8
:10138000E1F7E62E052F482F672FCE0101969FDF4C
:101390000F900F90DF91CF910F91EF900895EF9202
:1013A0000F93FC01CA01E2800181208144E08FDFBC
:1013B0000F91EF900895EF920F931F93FB01622F0F
:1013C000C80142305105A1F04330510541F0413090
:1013D000510551F4E12C00E0208145E004C0E28099
:1013E0000181208147E073DF1F910F91EF900895F5
:1013F000E12C0181208146E0F6CF2F923F924F925F
:101400005F926F927F928F929F92AF92BF92CF9294
:10141000DF92EF92FF920F931F93CF93DF9300D051
:1014200000D000D0CDB7DEB76C0129833A834B835F
:101430005C836D83AB80BC80A114B10409F443C00C
:101440006E83962F9F7029803A80492F50E0F101DA
:1014500080812601440E551E803F11F4F20110AA2E
:10146000D10175013201F0E36F0E711C9A01220F58
:10147000331F240F351F2C0D3D1D4D01F3015081ED
:10148000533008F07CC081E0850F80834D91F901D5
:10149000E50FF11D4083F1E0EF1AF10871F7A20C9E
:1014A000B31CF50131972081273F31F5482F50E0DB
:1014B000B60123E0929F600D711D11242E81C6019B
:1014C0007ADFF301108226960FB6F894DEBF0FBEC6
:1014D000CDBFDF91CF911F910F91FF90EF90DF90E3
:1014E000CF90BF90AF909F908F907F906F905F90C4
:1014F0004F903F902F900895833029F7A8016E8177
:101500009601989F200D311D1124C90148DFD9CFC4
:10151000A20CB31CF50131978081873F49F043E06D
:10152000E416F10469F4A8016E81C40138DF05C036
:101530002E81A701B401C6013EDFF20110AAC3CF7C
:10154000F201E0AAA701B401C30126960FB6F894F0
:10155000DEBF0FBECDBFDF91CF911F910F91FF90E6
:10156000EF90DF90CF90BF90AF909F908F907F9043
:101570006F905F904F903F902F900C940523360111
:10158000F3E09F9F600C711C1124A8016E81C301C0
:1015900006DFF4E0EF16F10408F4BACFA8016E817B
:1015A000C401FDDE23E0820E911C33E0E31AF10852
:1015B000F0CF0F931F93CF93DF9300D000D000D0D4
:1015C0001F92CDB7DEB79A8389838E010F5F1F4FBD
:1015D0008F559F4F12DF27960FB6F894DEBF0FBED0
:1015E000CDBFDF91CF911F910F91089587E493E0D4
:1015F00010D961E070E08AE093E073D068E170E0B8
:1016000083E093E06ED087EF91E0909302038093A4
:1016100001038091E8029091E902892B31F480EF77
:1016200092E09093E9028093E802E091EA02F0915F
:10163000EB02F093F502E093F402309721F080EF93
:1016400092E09383828380EF92E09093EB02809309
:10165000EA021092F3021092F2028AE290E0909372
:10166000F7028093F6021092F9021092F80210929B
:10167000FB021092FA021092FD021092FC0287E126
:101680008093FE0284E08093FF0283E591E09093D3
:10169000F1028093F002089580EF92E026D887E46B
:1016A00093E00C941B02569A5E9A62E370E080E02D
:1016B00090E00E94C41D5E9862E370E080E090E0DC
:1016C0000E94C41D5E9A62E370E080E090E00E9498
:1016D000C41D5E9862E573E080E090E00E94C41D46
:1016E000E3CFFC017183608382818F608F7E828370
:1016F0001382148215821682089562E0FC018081B3
:101700009181EDC08F929F92AF92BF92CF92DF9264
:10171000EF92FF92CF93DF93EC018881998116D1EC
:101720009A8194FB332730F921E0381301C020E07F
:101730000FB6F8944091B2045091B3046091B40490
:101740007091B5040FBE92FF1DC08B819C81AD814D
:10175000BE814A015B01881A990AAA0ABB0A91E074
:10176000C0900001D0900101E0900201F0900301CF
:10177000C814D904EA04FB0408F490E08A8190FBC1
:1017800082F98A839A81892F817092FD24C0922FD9
:10179000880F892B382F33709A819C7F932B9A83E3
:1017A00093FB332730F9321741F0946020FB93F913
:1017B0009A834B835C836D837E83082E000C990B88
:1017C000DF91CF91FF90EF90DF90CF90BF90AF90DF
:1017D0009F908F900895982FDBCFFC0182818370BA
:1017E00090E00895CF93DF93C0912904D0912A040B
:1017F000209759F0E881F981008CF18DE02DCE0120
:1018000009950A80DB81C02DF3CFDF91CF91089538
:10181000CF93DF93C0912904D0912A04209759F0E7
:10182000E881F981028CF38DE02DCE0109950A80C3
:10183000DB81C02DF3CFDF91CF910895CF93DF935C
:10184000C0912904D0912A04209759F0E881F981A8
:10185000048CF58DE02DCE0109950A80DB81C02D29
:10186000F3CFDF91CF910895FC0182859385089590
:10187000FC0180859185089589E294E00895EF92B6
:10188000FF920F931F93CF93DF938C01F5DFFC0141
:10189000C081D1812097A1F0CE01EADF0817190796
:1018A00078F0CE01E1DF7C01CE01E2DF08171907F5
:1018B00018F00E151F0530F00A80DB81C02DEACF2D
:1018C000D0E0C0E0CE01DF91CF911F910F91FF904A
:1018D000EF900895D4DF009709F4E5CE0895CF92F4
:1018E000DF92EF92FF921F93CF93DF93811520E851
:1018F000920721F18633910548F4DF91CF911F9132
:10190000FF90EF90DF90CF900C948C1C162FEC0181
:10191000E1DF7C01DC01ED91FC91C480D580A8DF82
:10192000BE01681B790B412FC701F601DF91CF91F2
:101930001F91FF90EF90DF90CF900994DF91CF91AE
:101940001F91FF90EF90DF90CF900895EF92FF925C
:101950000F931F93CF93DF93811520E8920719F11E
:101960008633910558F4FC010E94931C8E2FDF9161
:10197000CF911F910F91FF90EF900895EC01AADF96
:101980008C01DC01ED91FC91E484F58471DFBE01F2
:10199000681B790BC801F701DF91CF911F910F915F
:1019A000FF90EF90099480E0E2CFEF92FF920F93C7
:1019B0001F93CF93DF93811520E8920701F18633BF
:1019C000910540F4DF91CF911F910F91FF90EF901F
:1019D0000C94001CEC017EDF8C01DC01ED91FC918C
:1019E000E488F58845DFBE01681B790BC801F70163
:1019F000DF91CF911F910F91FF90EF90099490E0AC
:101A000080E0DF91CF911F910F91FF90EF900895AB
:101A1000DC015496ED91FC91309719F0CB01BA019D
:101A200009940895DC015696ED91FC91309711F0E0
:101A3000CB01099408950F931F93CF93DF93CDB7F4
:101A4000DEB72A970FB6F894DEBF0FBECDBF2E8348
:101A50003F83488759876A87DC015296ED91FC9154
:101A6000309709F04AC085E0FE013696DE011196F6
:101A700001900D928A95E1F70091310410913204A2
:101A80000115110509F442C0D801ED91FC910284C1
:101A9000F385E02D29813A814B815C816D81C801FC
:101AA0000995882309F447C0D8011496ED91FC915B
:101AB0001597309759F18481958112962D913C911B
:101AC000009779F1DC0113961C930E9312973383E0
:101AD000228315830483D8011396FC93EE93129707
:101AE00015969C938E93149721153105F9F0D90121
:101AF0001596FC93EE93149709C04E815F8168851B
:101B000079858A850995882309F4ADCF2A960FB681
:101B1000F894DEBF0FBECDBFDF91CF911F910F9123
:101B200008951093320400933104D1CFF09334041C
:101B3000E0933304EBCFF80102811381A1CFEF9240
:101B4000FF920F931F93CF93DF938A01F62EE72E18
:101B5000DC015096ED91FC913097C1F4802F807F8D
:101B6000803B09F045C0193779F5C0914104D09107
:101B700042042097C1F0E881F9810680F781E02DC9
:101B8000CE0109950A80DB81C02DF3CFBA018F2DDC
:101B90009E2D0995882311F3DF91CF911F910F910D
:101BA000FF90EF900895C0913904D0913A042097A6
:101BB00099F3E881F9810680F781E02DCE0109953E
:101BC0000A80DB81C02DF3CF1B3709F0D9C0C0914B
:101BD0004904D0914A042097F9F2E881F9810680FE
:101BE000F781E02DCE0109950A80DB81C02DF3CF6E
:101BF000813BE8F5803929F0803A09F484C08038C7
:101C000059F6C0914904D0914A04209729F2E881FD
:101C1000F9810284F385E02DA8016F2D7E2DCE0180
:101C20000995882309F46BC0EC81FD81309709F494
:101C3000B3CF848195812A813B81009709F455C0F7
:101C4000DC011396DC93CE93129733832283D583E2
:101C5000C483FB83EA839D838C832115310509F4BA
:101C600049C0D9011596FC93EE93149795CF803D0A
:101C700009F4CCC0803E09F406C1803C09F08CCF49
:101C8000C0913D04D0913E04209709F485CFE881AE
:101C9000F9810284F385E02DA8016F2D7E2DCE0100
:101CA0000995882309F4AEC0EC81FD81309709F4D1
:101CB00073CF848195812A813B81009709F49DC06F
:101CC000DC011396DC93CE93129733832283D58362
:101CD000C483FB83EA839D838C832115310509F638
:101CE000F0934004E0933F0457CFD0934A04C0934D
:101CF0004904ABCFF0934C04E0934B044DCF0A80E2
:101D0000DB81C02D82CFC0914504D091460420973D
:101D100009F442CFE881F9810284F385E02DA8011E
:101D20006F2D7E2DCE010995882331F1EC81FD8147
:101D3000309709F431CF848195812A813B810097C6
:101D4000B1F0DC011396DC93CE9312973383228398
:101D5000D583C483FB83EA839D838C83211531055E
:101D600009F07FCFF0934804E093470415CFD09358
:101D70004604C0934504EACF0A80DB81C02DC7CF5B
:101D8000C0914104D0914204209709F405CFE88125
:101D9000F9810284F385E02DA8016F2D7E2DCE01FF
:101DA0000995882331F1EC81FD81309709F4F4CE57
:101DB000848195812A813B810097B1F0DC011396E3
:101DC000DC93CE93129733832283D583C483FB8322
:101DD000EA839D838C832115310509F042CFF0936E
:101DE0004404E0934304D8CED0934204C09341040A
:101DF000EACF0A80DB81C02DC7CFD0933E04C093C9
:101E00003D0463CF0A80DB81C02D3ECFC0913904F1
:101E1000D0913A04209709F4BFCEE881F981028479
:101E2000F385E02DA8016F2D7E2DCE010995882325
:101E300031F1EC81FD81309709F4AECE848195813A
:101E40002A813B810097B1F0DC011396DC93CE939D
:101E5000129733832283D583C483FB83EA839D83D4
:101E60008C832115310509F0FCCEF0933C04E093FE
:101E70003B0492CED0933A04C0933904EACF0A804F
:101E8000DB81C02DC7CFC0913504D0913604209797
:101E900009F482CEE881F9810284F385E02DA8015E
:101EA0006F2D7E2DCE010995882331F1EC81FD81C6
:101EB000309709F471CE848195812A813B81009706
:101EC000B1F0DC011396DC93CE9312973383228317
:101ED000D583C483FB83EA839D838C8321153105DD
:101EE00009F0BFCEF0933804E093370455CED09379
:101EF0003604C0933504EACF0A80DB81C02DC7CFFA
:101F0000CF93DF93EC0183E191E09983888389E2A9
:101F100091E09D838C83CE010496DAD6CE01DF91C9
:101F2000CF91BFC60497ECCFCF93DF93EC0188E04D
:101F300092E0998388838EE192E09D838C83CE0129
:101F40008C96D5D6CE014896D2D6CE01DF91CF91D0
:101F5000D7CF0497E9CF8BE594E0E6CFCF93DF931B
:101F6000EC01E2DFCE01DF91CF910C947520049754
:101F7000F5CFCF93DF93EC01C3DFCE01DF91CF919B
:101F80000C9475200497F5CF809153048111A9C05A
:101F900083E594E00E947620892B09F4A2C0109278
:101FA0005E0410925D04109262041092610488E055
:101FB00092E090935C0480935B048EE192E09093B6
:101FC000600480935F048AE191E4A0E0B0E0809334
:101FD000630490936404A0936504B09366040E9424
:101FE000E41D6A51714481099109609367047093FB
:101FF00068048093690490936A0410926C041092B0
:102000006B0410926E0410926D0410927004109282
:102010006F04109272041092710410927604109260
:10202000750410927A041092790426EA32E0309313
:102030007404209373048AEC92E090937804809364
:10204000770410927C0410927B0410927E0410920C
:102050007D0449E754E05093800440937F0445E7B2
:1020600054E05093820440938104109284041092AF
:102070008304109286041092850410928A041092B0
:10208000890410928E0410928D043093880420935A
:10209000870490938C0480938B0410929004109288
:1020A0008F0410929204109291048DE894E0909322
:1020B00094048093930489E894E090939604809329
:1020C0009504109298041092970410929A0410921A
:1020D000990483E594E00E947F208BEA9FE00E94B0
:1020E0003B018BE594E00895EF92FF920F931F93CD
:1020F000CF93DF93EC018E819F81892B39F58A8103
:102100009B81892B19F570D28C01892B09F4CBDACC
:102110007E0188E1E80EF11CB701CE012ED5B70192
:10212000C80104964AD57E018CE2E80EF11CB70185
:10213000CE01049642D5B701C8011FD581E0DF91D9
:10214000CF911F910F91FF90EF90089580E0F7CF0E
:102150000496C2C6CF93DF93C0914904D0914A043C
:10216000209759F0E881F9810084F185E02DCE01B6
:1021700009950A80DB81C02DF3CFC0914504D09131
:102180004604209759F0E881F9810084F185E02D1B
:10219000CE0109950A80DB81C02DF3CFC0914104A7
:1021A000D0914204209759F0E881F9810084F185AB
:1021B000E02DCE0109950A80DB81C02DF3CFC091BF
:1021C0003D04D0913E04209759F0E881F9810084C4
:1021D000F185E02DCE0109950A80DB81C02DF3CF7A
:1021E000C0913904D0913A04209759F0E881F981DF
:1021F0000084F185E02DCE0109950A80DB81C02D98
:10220000F3CFC0913504D0913604209759F0E8817E
:10221000F9810084F185E02DCE0109950A80DB81EA
:10222000C02DF3CFC0913104D0913204209759F0E2
:10223000E881F9810084F185E02DCE0109950A80BD
:10224000DB81C02DF3CFDF91CF910895CF93DF9342
:10225000C0919B04D0919C042097C9F08E819F81EE
:102260000A80DB81C02D209729F02E813F818217C3
:10227000930759F0DC01ED91FC910484F585E02D84
:102280000995209721F02E813F81C901E9CFDF9187
:10229000CF910895CF92DF92EF92FF920F931F9309
:1022A000CF93DF938C0120DF9DDAC091EC02D091B7
:1022B000ED02209759F0E881F9810480F581E02D45
:1022C000CE0109950A80DB81C02DF3CFC0914D046A
:1022D000D0914E04209759F0E881F9810480F5816E
:1022E000E02DCE0109950A80DB81C02DF3CFC80116
:1022F000ADDFC0914904D0914A04209759F0E8819C
:10230000F9810480F581E02DCE0109950A80DB81F9
:10231000C02DF3CFC0914504D0914604209759F0C9
:10232000E881F9810480F581E02DCE0109950A80CC
:10233000DB81C02DF3CFC0914104D091420420979E
:1023400059F0E881F9810480F581E02DCE010995ED
:102350000A80DB81C02DF3CFC0913D04D0913E04B3
:10236000209759F0E881F9810480F581E02DCE01B4
:1023700009950A80DB81C02DF3CFC0913904D0913B
:102380003A04209759F0E881F9810480F581E02D25
:10239000CE0109950A80DB81C02DF3CFC0913504B1
:1023A000D0913604209759F0E881F9810480F581B5
:1023B000E02DCE0109950A80DB81C02DF3CFC091BD
:1023C0003104D0913204209759F0E881F9810480DA
:1023D000F581E02DCE0109950A80DB81C02DF3CF78
:1023E000C091E802D091E902209759F0E881F98183
:1023F0000480F581E02DCE0109950A80DB81C02D96
:10240000F3CFC0912D04D0912E04209759F0E8818C
:10241000F9810480F581E02DCE0109950A80DB81E8
:10242000C02DF3CF0E94E41DF801C084D184E28462
:10243000F3846C197D098E099F09648775878687E7
:102440009787DF91CF911F910F91FF90EF90DF90D1
:10245000CF900895DF92EF92FF920F931F93CF9347
:10246000DF93C0919B04D0919C04209749F10E8189
:102470001F817E01D12CE881F9810680F781E02D52
:10248000CE010995D82A0A80DB81C02D2097B1F0B2
:102490008E819F8108171907D9F48C01ECCFD801E0
:1024A000ED91FC910288F389E02DC80109952097F0
:1024B00039F08E819F817E01D12CEFCFD1100AC0DF
:1024C000DF91CF911F910F91FF90EF90DF900895D2
:1024D000DD2079F3D801ED91FC910684F785E02D9C
:1024E000C8010995D801ED91FC910088F189E02D92
:1024F000C8010995CE15DF0591F2D701ED91FC9148
:102500000480F581E02DC7010995F701E280F38091
:10251000F1CFCF93DF93C091EC02D091ED022097E1
:1025200059F0E881F9810680F781E02DCE01099507
:102530000A80DB81C02DF3CFDF91CF910895CF9238
:10254000DF92EF92FF920F931F93CF93DF93EC01F3
:1025500075D90091E8021091E9020115110561F0A9
:10256000D801ED91FC910680F781E02DC801099515
:10257000F80102811381F1CFCCDFCE01EBDD0E94A7
:10258000E41DCC84DD84EE84FF84088519852A85CA
:102590003B85AB01BC014C195D096E097F094017F1
:1025A00051076207730760F0D701C601800F911FC2
:1025B000A21FB31F8C879D87AE87BF87CE014ADFDE
:1025C000DF91CF911F910F91FF90EF90DF90CF900F
:1025D0001FC9DADC9093520480935104089590E06F
:1025E00080E008950895089580919F049091A0043B
:1025F000009749F42091EE023091EF022115310548
:1026000011F0C90108970895CF93DF93EC0188E397
:1026100092E0998388838CE592E09D838C838AE69F
:1026200092E09987888786E792E09F878E87DCDF34
:10263000C817D90721F41092A00410929F048CE2CD
:1026400092E099878887CE0108960E94B402CE0155
:10265000DF91CF9155CCCF92DF92EF92FF92CF9343
:10266000DF93EC016A017B01049636D4888999894D
:10267000009781F0DC01ED91FC910190F081E02D5B
:10268000A7019601BE01DF91CF91FF90EF90DF90FF
:10269000CF900994DF91CF91FF90EF90DF90CF9092
:1026A0000895EF92FF920F931F93CF93DF9300D083
:1026B00000D01F92CDB7DEB77C0129833A834B83CC
:1026C0005C836D83C701049656D4D70150968D91D3
:1026D0009C91009769F0DC01ED91FC910280F381FF
:1026E000E02D09811A812B813C814D81B70109952B
:1026F0000F900F900F900F900F90DF91CF911F913F
:102700000F91FF90EF900895CF92DF92EF92FF929A
:10271000CF93DF93EC016A017B0104967CD4888916
:102720009989009781F0DC01ED91FC910480F5819D
:10273000E02DA7019601BE01DF91CF91FF90EF90B0
:10274000DF90CF900994DF91CF91FF90EF90DF90D1
:10275000CF9008950F931F93CF93DF93EC018B01DC
:10276000049693D488899989009769F0DC01ED91EA
:10277000FC910680F781E02DA801BE01DF91CF9189
:102780001F910F910994DF91CF911F910F9108959F
:10279000DC0118968D919C91009739F0DC01ED9148
:1027A000FC910088F189E02D099490E080E0089583
:1027B000DC011A968D919C91009739F0DC01ED9126
:1027C000FC910084F185E02D099490E080E008956B
:1027D0000497EECFEF92FF920F931F93CF93DF9367
:1027E000EC018B017A0188899989009729F0681793
:1027F000790711F00E94530B198B088BEC85FD852E
:1028000080819181009781F02A853B852E153F05B7
:1028100059F4DC01ED91FC910484F585E02DAE01C5
:102820004C5F5F4FB801099588859985009759F0ED
:10283000DC01ED91FC910484F585E02DAE014C5F47
:102840005F4FB80109958A859B850097D9F0E816F6
:10285000F906C1F06A897B896115710541F0DC01D7
:10286000ED91FC910680F781E02DAE0109958A85F6
:102870009B85DC01ED91FC910480F581E02DAE019A
:10288000B8010995EE85FF85808191810097A9F0B7
:102890009C012C5F3F4FE216F30679F0DC01ED91CD
:1028A000FC91048CF58DE02DAE01B801DF91CF9144
:1028B0001F910F91FF90EF900994DF91CF911F919D
:1028C0000F91FF90EF900895EF92FF920F931F9357
:1028D000CF93DF93EC018B017A0188899989009766
:1028E00029F06817790711F00E94530B198A188A8A
:1028F000EC85FD8580819181009781F02A853B855B
:102900002E153F0559F4DC01ED91FC910684F78505
:10291000E02DAE014C5F5F4FB80109958885998520
:10292000009759F0DC01ED91FC910684F785E02DCC
:10293000AE014C5F5F4FB80109958A859B85009772
:10294000D9F0E816F906C1F0DC01ED91FC910680A2
:10295000F781E02DAE01B80109956A897B8961157F
:10296000710551F08A859B85DC01ED91FC91048015
:10297000F581E02DAE010995EE85FF85808191817D
:102980000097A9F09C012C5F3F4FE216F30679F007
:10299000DC01ED91FC91068CF78DE02DAE01B801C4
:1029A000DF91CF911F910F91FF90EF900994DF91EC
:1029B000CF911F910F91FF90EF9008950F931F9368
:1029C000CF93DF93EC01888599858417950711F5DE
:1029D0008B01798B688B8A859B85009741F0DC01A0
:1029E000ED91FC910480F581E02DAE010995EE8515
:1029F000FF85808191810097F9F0DC01ED91FC91D8
:102A0000048CF58DE02DAE01B801DF91CF911F91BF
:102A10000F9109948A899B89892B71F47B8B6A8B2E
:102A20008A859B85009741F0DC01ED91FC91048043
:102A3000F581E02DAE01E9CFDF91CF911F910F918C
:102A400008950497BBCF0F931F93CF93DF93EC01AF
:102A50008B01888599858417950709F5198A188A45
:102A60008A859B85009741F0DC01ED91FC91068001
:102A7000F781E02DAE010995EE85FF85808191817A
:102A8000009701F1DC01ED91FC91068CF78DE02DB2
:102A9000AE01B801DF91CF911F910F9109946A891E
:102AA0007B896017710771F41B8A1A8A8A859B8556
:102AB000009741F0DC01ED91FC910680F781E02D5B
:102AC000AE01E8CFDF91CF911F910F910895049748
:102AD000BACFDC011296ED91FC911397309731F04B
:102AE0001186108613961C921E9212970895DC018F
:102AF0001296ED91FC911397309731F01386128660
:102B000013961C921E9212970895FC01A281B38124
:102B1000109749F0ED91FC9111970484F585E02D13
:102B2000AC01CD0109940895FC01A281B3811097F5
:102B300049F0ED91FC9111970684F785E02DAC01E9
:102B4000CD0109940895DC011296ED91FC91309726
:102B500039F080899189009729F4828993890895B1
:102B600090E080E00895FC0120853185232B11F051
:102B70000E94530B7187608708950F931F93CF9323
:102B8000DF93EC018B018A819B81009751F4BE0198
:102B9000C801E9DF1B830A83DF91CF911F910F9159
:102BA0000895EC01F0CFFC0122853385232B11F031
:102BB0000E94530B7387628708950F931F93CF93DF
:102BC000DF93EC018B018A819B81009751F4BE0158
:102BD000C801E9DF1B830A83DF91CF911F910F9119
:102BE0000895EC012496EFCFEF92FF920F931F937D
:102BF000CF93DF93EC01088519850115110571F05C
:102C0000EE85FF85E080F180E114F10439F0C80120
:102C100060DFCE015EDFB701C801AFDF0A851B852B
:102C20000115110579F0EC85FD85E080F180E11456
:102C3000F10441F0C8015BDFCE01049658DFB70113
:102C4000C801BBDF88859985009709F042DF8A8536
:102C50009B85009709F04BDFEE85FF858081918190
:102C6000892B31F4EC85FD8580819181892B11F0D0
:102C70000E94530BDF91CF911F910F91FF90EF9026
:102C80000895CF93DF93EC018A819B81009731F007
:102C9000F8DF8A819B81A8DF1B821A82DF91CF91A6
:102CA000089522E832E0FC0131832083EACFCF93FC
:102CB000DF93EC018A819B81009739F00496F7DF5E
:102CC0008A819B8191DF1B821A82DF91CF910895C7
:102CD00028E932E0FC0131832083E9CFCF93DF93F1
:102CE000EC01F6DFCE01DF91CF910C947520CF93EC
:102CF000DF93EC0186EA92E0998388838AEC92E084
:102D00009D838C83CE0170DFCE010496E1DFCE017E
:102D1000DF91CF91C6CFCF93DF93EC01E8DFCE01F7
:102D2000DF91CF910C9475200497F5CF0497DFCFF6
:102D30001F93CF93DF93EC0188899989009741F421
:102D40008A899B89892B31F4DF91CF911F91089556
:102D5000019621F18A899B89019601F11BE08889FE
:102D60009989009721F42A893B89232B69F3115013
:102D700059F3009739F0DC01ED91FC910680F78161
:102D8000E02D09958A899B89009749F3DC01ED9133
:102D9000FC910680F781E02D0995E1CF0E94530B4D
:102DA000FC0182819381009709F0C2CF0895DC0174
:102DB00018968D919C91009739F0DC01ED91FC9172
:102DC0000480F581E02D09940895F1CFF0CFCF93E1
:102DD000DF9300D000D01F92CDB7DEB729833A83AE
:102DE0004B835C836D83DC0118968D919C910097D9
:102DF00071F0DC01ED91FC910680F781E02D0F90E0
:102E00000F900F900F900F90DF91CF9109940F903A
:102E10000F900F900F900F90DF91CF910895CF9367
:102E2000DF9300D000D01F92CDB7DEB70F900F9088
:102E30000F900F900F90DF91CF91C9CFCF93DF9379
:102E400000D000D01F92CDB7DEB70F900F900F903B
:102E50000F900F90DF91CF91BACFDC0118968D9132
:102E60009C91009739F0DC01ED91FC910084F18593
:102E7000E02D09940895F1CFF0CFDC0118968D91E3
:102E80009C91009739F0DC01ED91FC910284F3856F
:102E9000E02D09940895F1CFF0CFCF92DF92EF9219
:102EA000FF92CF93DF93EC016A017B01EC85FD85F6
:102EB00080819181009709F0F0DFE881F981028833
:102EC000F389E02DB701A601CE01DF91CF91FF90EC
:102ED000EF90DF90CF900994CF92DF92EF92FF9224
:102EE000CF93DF93FC0122813381232B79F06A0198
:102EF0007B01EC0155DFB701A6018A819B81DF913F
:102F0000CF91FF90EF90DF90CF90C7CFDF91CF911F
:102F1000FF90EF90DF90CF9008950F931F93CF9382
:102F2000DF9300D000D01F92CDB7DEB78C0129838C
:102F30003A834B835C836D83DC011C96ED91FC919D
:102F400080819181009709F0E8DFD801ED91FC9133
:102F50000488F589E02D29813A814B815C816D815E
:102F6000C8010F900F900F900F900F90DF91CF91AD
:102F70001F910F9109940F931F93CF93DF9300D06C
:102F800000D01F92CDB7DEB729833A834B835C8391
:102F90006D83FC0122813381232BA1F08C0100DFA2
:102FA00029813A814B815C816D81F8018281938115
:102FB0000F900F900F900F900F90DF91CF911F9176
:102FC0000F91ABCF0F900F900F900F900F90DF915C
:102FD000CF911F910F910895CF92DF92EF92FF92C0
:102FE000CF93DF93EC016A017B01EC85FD85808145
:102FF0009181009709F0F0DFE881F9810688F7896F
:10300000E02DB701A601CE01DF91CF91FF90EF90A7
:10301000DF90CF900994CF92DF92EF92FF92CF93FF
:10302000DF93FC0122813381232B79F06A017B013C
:10303000EC01B6DEB701A6018A819B81DF91CF91B9
:10304000FF90EF90DF90CF90C7CFDF91CF91FF90AF
:10305000EF90DF90CF9008950F931F93CF93DF935E
:10306000EC018B01EC85FD8580819181009709F051
:10307000F3DFE881F981008CF18DE02DB801CE01FC
:10308000DF91CF911F910F910994FC01828193816F
:10309000009709F0E1CF0895FC01E058FF4F11823D
:1030A00010828E579F4F21E0FC01208308958E5798
:1030B0009F4FFC0110820895FC01E058FF4F2081D2
:1030C0003181820F931FDC016C932F5F3F4F31835F
:1030D000208308950F931F93CF93DF93C42FD0E0E5
:1030E0008C0100581F4FF80120813181AE01820F01
:1030F000931F0E940523F80140815181C40FD51F01
:10310000D183C083DF91CF911F910F910895FC016E
:10311000E058FF4F20E830E0261B310981E0408174
:1031200051812417350708F480E008958E579F4F8A
:10313000FC0180810895089580589F4FFC01808193
:1031400091810895DF92EF92FF920F931F93CF9397
:10315000DF9300D000D0CDB7DEB77C0149835A831E
:103160006B837C83D22E822F8F70870193E8899F97
:10317000000D111D1124095F1F4F8A81803F09F541
:10318000C8018ADF63E0C801C2DF811120C08981E4
:103190009A81AB81BC81F701E657FF4F8083918311
:1031A000A283B383F701D68284E00F900F900F9033
:1031B0000F90DF91CF911F910F91FF90EF90DF90D3
:1031C0000895C801B3DF8111DDCF80E0EECF43E089
:1031D000BE016E5F7F4FC8017DDFF7CFBF92CF92F8
:1031E000DF92EF92FF920F931F93CF93DF93EC0147
:1031F000573F69F058832B8385E0DF91CF911F9172
:103200000F91FF90EF90DF90CF90BF900895122F15
:10321000B72ED62E052FC42E822F8F709E0143E825
:10322000849F200D311D1124295F3F4F7901C90171
:103230007DDF8823B9F061E0C70169DF81110AC031
:10324000FE01E657FF4FC0820183D282B3821E8304
:1032500084E0D3CF67EFC7012FDFC70128DF1E83CC
:1032600082E0CBCF80E0C9CFDF92EF92FF920F9345
:103270001F93CF93DF93CDB7DEB728970FB6F8949F
:10328000DEBF0FBECDBF242F30E0E4E0359527959B
:10329000EA95E1F72115310511F080E021C0E42F16
:1032A000EF70E250EE30C8F78C01F0E0E65AF64ECF
:1032B0000C94E322681968197E1981198419BC19C4
:1032C000E319E319E319E319E319E319E319EC1915
:1032D000FC015083618372838381807F838385E0D7
:1032E00028960FB6F894DEBF0FBECDBFDF91CF9109
:1032F0001F910F91FF90EF90DF90089520E022DF63
:10330000EFCF20E06BDFECCF4D835E836F83788758
:10331000D12C83E8829F7001839FF00C1124F7E089
:10332000EF0EF11CE00EF11EC701503FA9F4B4DE10
:1033300062E0C701ECDE811113C08D819E81AF81F7
:10334000B885F801E657FF4F80839183A283B3834A
:10335000F801D68284E0C4CFE9DE8111E9CF9DCFA8
:1033600042E0BE016A5F7F4FC701B4DEC7019FDE46
:10337000F801D68282E0B4CF49835A836B837C8381
:10338000D12C83E8829F7001839FF00C1124F7E019
:10339000EF0EF11CE00EF11EC701503F59F47CDE28
:1033A00063E0C701B4DE811109C089819A81AB81D4
:1033B000BC81C7CFBBDE8111F3CF6FCF43E0BE012D
:1033C0006E5F7F4FD1CFFC01508361837283838115
:1033D000807F838381E084CFFC0154838581807F5B
:1033E000858383E07DCFCF92DF92EF92FF921F9390
:1033F000CF93DF93FC01E657FF4F2081222341F159
:10340000EC01C080D180E280F38010828E818F70C9
:1034100013E89E01189F200D311D1124C901079644
:1034200085DE882351F08E818F709E01189F200DBC
:10343000311D1124C90107962FDEB701A601CE0167
:10344000DF91CF911F91FF90EF90DF90CF900CCF45
:1034500080E0DF91CF911F91FF90EF90DF90CF90B0
:1034600008951F920F920FB60F9211240BB60F9270
:103470002F933F934F935F936F937F938F939F937C
:10348000AF93BF93EF93FF938091A1049091A20417
:10349000892B29F0E091A104F091A2040995FF91F4
:1034A000EF91BF91AF919F918F917F916F915F91BC
:1034B0004F913F912F910F900BBE0F900FBE0F9029
:1034C0001F9018951F920F920FB60F9211240BB6F2
:1034D0000F922F933F934F935F936F937F938F93AD
:1034E0009F93AF93BF93EF93FF938091A304909129
:1034F000A404892B29F0E091A304F091A404099578
:10350000FF91EF91BF91AF919F918F917F916F91BB
:103510005F914F913F912F910F900BBE0F900FBE77
:103520000F901F9018951F920F920FB60F921124B3
:103530000BB60F922F933F934F935F936F937F93AD
:103540008F939F93AF93BF93EF93FF938091A504C5
:103550009091A604892B29F0E091A504F091A6048E
:103560000995FF91EF91BF91AF919F918F917F91BD
:103570006F915F914F913F912F910F900BBE0F90E4
:103580000FBE0F901F9018951F920F920FB60F92BB
:1035900011240BB60F922F933F934F935F936F932A
:1035A0007F938F939F93AF93BF93EF93FF938091FC
:1035B000A7049091A804892B29F0E091A704F09129
:1035C000A8040995FF91EF91BF91AF919F918F91C1
:1035D0007F916F915F914F913F912F910F900BBE13
:1035E0000F900FBE0F901F9018951F920F920FB65D
:1035F0000F9211240BB60F922F933F934F935F932B
:103600006F937F938F939F93AF93BF93EF93FF93AA
:103610008091A9049091AA04892B29F0E091A90432
:10362000F091AA040995FF91EF91BF91AF919F91FD
:103630008F917F916F915F914F913F912F910F905B
:103640000BBE0F900FBE0F901F9018951F920F92F8
:103650000FB60F9211240BB60F922F933F934F93F7
:103660005F936F937F938F939F93AF93BF93EF93EA
:10367000FF938091AB049091AC04892B29F0E091E9
:10368000AB04F091AC040995FF91EF91BF91AF911C
:103690009F918F917F916F915F914F913F912F916A
:1036A0000F900BBE0F900FBE0F901F9018951F929A
:1036B0000F920FB60F9211240BB60F922F933F93D8
:1036C0004F935F936F937F938F939F93AF93BF932A
:1036D000EF93FF938091AD049091AE04892B29F074
:1036E000E091AD04F091AE040995FF91EF91BF9187
:1036F000AF919F918F917F916F915F914F913F918A
:103700002F910F900BBE0F900FBE0F901F9018952A
:103710001F920F920FB60F9211240BB60F922F9398
:103720003F934F935F936F937F938F939F93AF9349
:10373000BF93EF93FF938091AF049091B004892BD6
:1037400029F0E091AF04F091B0040995FF91EF9159
:10375000BF91AF919F918F917F916F915F914F91A9
:103760003F912F910F900BBE0F900FBE0F901F90A7
:1037700018951DBA109268001CBC10BE1FBA10929A
:103780007A0010926E0010926F00109270001092EA
:1037900071001092C9001092BC0011B814B817B88B
:1037A0001AB81DB810BA12B815B818B81BB81EB898
:1037B00011BA0895F894E1E6F0E020E82083108241
:1037C00083E084BD85BDEEE6F0E08081816080838A
:1037D00091E09093800082E0809381009093B0000C
:1037E0008093B100909390008093910086E880933D
:1037F0007A0020937B0010927E0005D27894089581
:103800009AED980F983010F1883060F490917E0016
:1038100021E030E0082E01C0220F0A94EAF7922B33
:1038200090937E008F7190910401892B80937C008E
:1038300080917A00806480937A0080917A0086FD7E
:10384000FCCF80917800909179000895892FDECF88
:103850008E3270F4E8E9F0E0880FE80FF11D259151
:10386000E491F0E09FB7F8948181822B81839FBF20
:1038700008958E3218F5AAEDA80FA83000F5E4EFF0
:10388000F0E0AA0FEA0FF11DA591B0E09591E8E9EB
:10389000F0E0880FE80FF11D2591E491F0E04FB7BB
:1038A000F8943181822F8095232F28232183228130
:1038B00082238283EC919E239C934FBF08959FEFB8
:1038C000B0E0A0E0E4CF8E3210F5AAEDA80FA8304A
:1038D000F8F4E4EFF0E0AA0FEA0FF11DA591B0E0D3
:1038E0009591E8E9F0E0880FE80FF11D3591E4913A
:1038F000F0E04FB7F8948181232F2095282321836E
:103900008281832B8283EC919E239C934FBF0895E9
:103910009FEFB0E0A0E0E5CF613009F499CF6230CD
:1039200009F4D1CFA6CFEE3258F4EE0FEE0FFF27F9
:10393000EC3718F4EC55F34E0994EA55F34E09941C
:10394000EE270895E1E00895E9B1E170D9F708950F
:10395000E9B1E270B9F70895E9B1E47099F7089513
:10396000E9B1E87079F70895E9B1E07159F7089580
:10397000E9B1E07239F70895E9B1E07419F70895F3
:10398000E9B1E078F9F60895ECB1E170D9F608955F
:10399000ECB1E270B9F60895E6B1E17099F60895D8
:1039A000E6B1E27079F60895E6B1E47059F608954B
:1039B000E6B1E87039F60895E6B1E07119F60895B8
:1039C000E6B1E072E9F50895E6B1E074C9F508954D
:1039D000E6B1E078A9F50895ECB1E07489F50895B1
:1039E000ECB1E07869F50895E3B1E17049F5089527
:1039F000E3B1E27029F50895E3B1E47009F50895A3
:103A0000E3B1E870E9F40895E3B1E071C9F4089511
:103A1000E3B1E072A9F40895E3B1E07489F4089584
:103A2000E3B1E07869F40895E0B1E17049F40895F4
:103A3000E0B1E27029F40895E0B1E47009F408956A
:103A4000E1E00895E0B1E870D9F70895E0B1E071E0
:103A5000B9F70895E0B1E07299F70895E0B1E07424
:103A600079F70895E0B1E07859F70895ECB1E07185
:103A700039F70895ECB1E07219F70895EFB1E170EC
:103A8000F9F60895EFB1E270D9F60895EFB1E47058
:103A9000B9F60895EFB1E87099F60895EFB1E071C5
:103AA00079F60895EFB1E07259F60895EFB1E07438
:103AB00039F60895EFB1E07819F60895F89484B7CF
:103AC000877F84BF80916000806180936000109246
:103AD000600080E29EE40197F1F781E08093E000CE
:103AE00080E28093D80080E69AEE0197F1F741DEFC
:103AF0000C9400FEFFCFF8943CDE80E69AEE01972E
:103B0000F1F70C940000FFCF8F938FB78F938091C4
:103B1000B1048D5F8D37D0F48093B1048091B204ED
:103B20008F5F8093B204D8F08091B3048F4F80935D
:103B3000B304A8F08091B4048F4F8093B40478F05C
:103B40008091B5048F4F8093B50409C08D57809341
:103B5000B1048091B2048E5F8093B20428F7809103
:103B6000B6048C5F8093B60458F08091B7048F4FF1
:103B70008093B70428F08091B8048F4F8093B804E5
:103B80008F918FBF8F911895CF92DF92EF92FF9216
:103B90006B017C0119D09B01C114D104E104F10433
:103BA00029F4FF90EF90DF90CF9008950DD0621B25
:103BB000730B683E734080F381E0C81AD108E108B6
:103BC000F10828513C4FE8CF0FB6F89466B515B20E
:103BD0007091B6048091B7049091B8040FBE10FEA6
:103BE00005C06F3F19F07C5F8F4F9F4F1124002459
:103BF000660F001C660F001C702908958091E80074
:103C000080FFFCCF08958091D80087FF02C085FF18
:103C10001BC081E88093D70080EA8093D80086E1BA
:103C200089BD09B400FEFDCF80E98093D8001092D1
:103C3000E000109233051092320510923105109277
:103C4000E1008CE08093E20008951F920F920FB67E
:103C50000F9211248F939F939091E1001092E100B5
:103C600093FF0FC01092E90081E08093EB00109267
:103C7000EC0082E38093ED0088E08093F0001092E6
:103C8000330592FF21C0809133058823E9F08091AC
:103C90003105882379F081508093310581110AC064
:103CA00081E08093E9008091E80085FD35C08AE3DA
:103CB0008093E80083E08093E9008091F2008823FC
:103CC00019F08AE38093E80090FF0CC080E18093B4
:103CD000E2001092330581E08093320580EA809300
:103CE000D80019BC80913205882379F094FF0DC06B
:103CF00086E189BD09B400FEFDCF80E98093D8003C
:103D00008DE08093E200109232059F918F910F9089
:103D10000FBE0F901F9018951092F100C4CF1F9204
:103D20000F920FB60F9211240BB60F92EF92FF92E3
:103D30000F931F932F933F934F935F936F937F93B3
:103D40008F939F93AF93BF93CF93DF93EF93FF93A3
:103D50001092E9008091E80083FF21C0E090F1001B
:103D6000F090F100C091F100D091F1000091F100CC
:103D70001091F1002091F1003091F10082EF8093D9
:103D8000E80086E0F8125CC0E4E0F1E085919591EE
:103D9000C817D90741F03596FA94F110F7CF81E2B0
:103DA0008093EB002BC0859195910817190711F0AE
:103DB0003396F2CF4591559184912F3F310519F0FB
:103DC00010F02FEF30E0821708F4282F3EEF80919B
:103DD000E800982F9570D9F382FD10C0822F21340E
:103DE00008F080E4982F911124C0922F981B892FFE
:103DF0003093E80091111BC02034C8F4FF91EF917B
:103E0000DF91CF91BF91AF919F918F917F916F91F2
:103E10005F914F913F912F911F910F91FF90EF90E4
:103E20000F900BBE0F900FBE0F901F901895282F6C
:103E3000CECFFA0145914093F100AF019150D3CF1D
:103E400085E0F81208C08EEF8093E800D7DEC068E6
:103E5000C093E300D3CF99E0F91222C0E110D3C0A0
:103E6000C0933305109231058EEF8093E80081E016
:103E7000E6EEF1E08093E90095919093EB009923B1
:103E800031F095919093EC0095919093ED008F5FB8
:103E9000853081F78EE18093EA001092EA00AECF80
:103EA00098E0F9120CC080E8E81279CFA7DE809183
:103EB00033058093F1008EEF8093E8009FCFF110DF
:103EC00012C09CDE92E8E91209C00093E900F0906C
:103ED000EB00F5FAFF24F0F81092E900F092F100FF
:103EE0001092F100E8CF8F2D8D7F813009F080C0D6
:103EF00082E0E8121BC02097C9F4402F4F778FEF64
:103F0000840F863098F48EEF8093E8004093E900A8
:103F100093E0F91609F443CF89E18093EB0081E047
:103F200090E001C0880F4A95EAF7B5CF013011053E
:103F300009F05EC081E0F81222C091EA3EEFE9127A
:103F40002ECF8091E800982F9570D9F382FD56CF3F
:103F5000822F213408F080E4982F91110CC0922F09
:103F6000981B892F3093E800911103C0203408F486
:103F700045CF282FE6CF1092F1009150EECF89E087
:103F8000F81236C091E2E9120ACFC115D34009F008
:103F900006CF2430310509F002CF8091E80082FF7E
:103FA000FCCF3091F1002091F1009091F1008091CF
:103FB000F1004BEF4093E8004EEF4093E800393AB0
:103FC00051F4253409F0EBCE923C09F0E8CE8B3663
:103FD00009F0E5CE73DD3B3809F0E1CE253C09F070
:103FE000DECE9D3109F0DBCE803709F0D8CE83DDFF
:103FF00099ECF912D4CE80E4E812D1CE8EEF809302
:10400000E800FCDDF4CF0130110509F0C8CEBACFCD
:10401000CF92DF92EF92FF920F931F93CF93DF9394
:104020006C01EB017B01E40EF51E10E000E0CE1503
:10403000DF0561F06991D601ED91FC910190F0816D
:10404000E02DC6010995080F191FF1CFC801DF91B6
:10405000CF911F910F91FF90EF90DF90CF90089537
:104060004F925F926F927F92AF92BF92CF92DF9208
:10407000EF92FF920F931F93CF93DF93CDB7DEB7ED
:1040800029013A019B01AC01241935094609570958
:1040900089899A89AB89BC89BC01CD016A197B09E0
:1040A0008C099D0943D2A8019701241935094609B5
:1040B00057096DD2CA01B9016A0D7B1D8C1D9D1D6A
:1040C000DF91CF911F910F91FF90EF90DF90CF90F4
:1040D000BF90AF907F906F905F904F9008956ADB94
:1040E0000E948A050E94E906FDCF97C1FC0181E08C
:1040F00090E02081222311F090E080E0089521E0FB
:10410000FC0120830895089580913305882371F080
:104110008FB7F89492E09093E9009BE62091E80035
:1041200025FF03C09093E800F9CF8FBF10922C05B4
:104130000895FC0180913305882369F19FB7F894B5
:1041400081E08093E9002091E400275E3091E8004F
:1041500035FD0EC09FBF9091E4009217E1F0909161
:1041600033059923C1F09FB7F8948093E900EECF0F
:104170006093F1008091E80085FD09C08AE3809397
:10418000E800109231059FBF81E090E0089584E03F
:1041900080933105F8CF81E0828390E080E008953C
:1041A0009FB7F89433E03093E9003091E4003E5F2C
:1041B00053E07091E80075FD0EC09FBF9091E40040
:1041C0003917C9F0909133059923A9F09FB7F89456
:1041D0005093E900EECF8093F1006093F10040939B
:1041E000F1002093F1008091E80085FD03C08AE38F
:1041F0008093E8009FBF08950F93862F642F422F6E
:10420000202F90913305992311F00F91C9CF0F9171
:1042100008959FB7F89480913305811102C09FBF24
:10422000089582E08093E9002BE68091E80085FD07
:1042300003C09FBF80E008958091F100811103C009
:104240002093E800F2CF2091E80025FDE8CF2BE68F
:104250002093E800E4CF20912C05211105C0D9DF7F
:10426000882329F080932C0581E090E0089590E068
:1042700080E008959C0190912C05992329F01092DB
:104280002C05892F90E00895C901C3DF8111FACF71
:104290008FEF9FEF08959C0190912C05892F91112C
:1042A00006C0C901B6DF882321F080932C0590E079
:1042B00008958FEF9FEF0895E4E2F5E0128288EE13
:1042C00093E0A0E0B0E083839483A583B683178254
:1042D00088ED92E09183808308950F931F93CF938D
:1042E000DF938230910510F482E090E0E0912F0599
:1042F000F091300530E020E070E060E0D0E0C0E018
:10430000B0E0A0E0309799F42115310509F44AC0D6
:10431000281B390B24303105D8F58A819B81611522
:10432000710589F1FB0193838283FE0111C04081F5
:1043300051810281138148175907E0F04817590746
:1043400099F4109761F012960C93129713961C93A0
:104350003296CF01DF91CF911F910F910895009375
:104360002F0510933005F4CF2115310551F0421778
:10437000530738F0A901DB019A01BD01DF01F80103
:10438000C1CFEF01F9CF9093300580932F05CDCFAA
:10439000FE01E20FF31F819391932250310939837B
:1043A0002883D7CF20912D0530912E05232B41F462
:1043B000209107013091080130932E0520932D059F
:1043C00020910501309106012115310541F42DB7E9
:1043D0003EB74091090150910A01241B350BE09131
:1043E0002D05F0912E05E217F307A0F42E1B3F0BCD
:1043F0002817390778F0AC014E5F5F4F2417350757
:1044000048F04E0F5F1F50932E0540932D0581936A
:1044100091939FCFF0E0E0E09CCFCF93DF930097A4
:10442000E9F0FC01329713821282A0912F05B0911E
:104430003005ED0130E020E01097A1F420813181BA
:10444000820F931F20912D0530912E0528173907D3
:1044500009F061C0F0932E05E0932D05DF91CF9117
:104460000895EA01CE17DF07E8F54A815B819E01D6
:1044700041155105B1F7E901FB83EA83499159914F
:10448000C40FD51FEC17FD0761F48081918102965E
:10449000840F951FE90199838883828193819B838F
:1044A0008A83F0E0E0E012968D919C91139700973B
:1044B000B9F52D913C911197CD010296820F931F72
:1044C00020912D0530912E052817390739F63097A0
:1044D00051F51092300510922F05B0932E05A09340
:1044E0002D05BCCFD383C28340815181840F951F9A
:1044F000C817D90761F44E5F5F4F88819981480FD3
:10450000591F518340838A819B8193838283211524
:10451000310509F0B0CFF0933005E0932F059ECF21
:10452000FD01DC01C0CF13821282D7CFDB018F9354
:104530009F9352D0BF91AF91A29F800D911DA39FD9
:10454000900DB29F900D11240895A1E21A2EAA1B7E
:10455000BB1BFD010DC0AA1FBB1FEE1FFF1FA21733
:10456000B307E407F50720F0A21BB30BE40BF50B30
:10457000661F771F881F991F1A9469F760957095B9
:10458000809590959B01AC01BD01CF010895052E4A
:1045900097FB16F400940FD057FD05D0D6DF07FC2B
:1045A00002D046F408C050954095309521953F4F74
:1045B0004F4F5F4F089590958095709561957F4F0F
:1045C0008F4F9F4F0895EE0FFF1F0024001C0BBE5E
:1045D0000790F691E02D099409D0A59F900DB49F06
:1045E000900DA49F800D911D11240895A29FB001EC
:1045F000B39FC001A39F700D811D1124911DB29F17
:10460000700D811D1124911D0895FB01DC0102C074
:1046100001900D9241505040D8F708950E94280112
:1046200010E0CCEFD0E003C0FE01CDDF2196CD3FFE
:08463000D107D1F7F894FFCF88
:1046380019000000400000340580003C3F3E0000A7
:10464800000000000000008320832083208320597D
:10465800015A015B01FCFF0000000000005C015DE5
:10466800015E0100000000B402EF0200000000F843
:1046780002330300000000000000008320832000B4
:1046880000000075037B038403520200000000F35E
:10469800010C02AB03620142029B0159015A015B02
:1046A80001A501E606B0099009D90A7809BD016497
:1046B80009FCFF0000080215025C015D015E01F8BB
:1046C800FF00000A021702A601E706F2FF00000633
:1046D8000219025F016509000000001B023302ABEA
:1046E80003620142029B0159015A015B01A501E6DF
:1046F80006B0099009D90A7809BD016409FCFF00D0
:1047080000310240025C015D015E01F8FF00002FEC
:10471800023E02A601E706F2FF00002D023C025FFE
:10472800016509000000000D05A801BB01BC01A737
:1047380001F1010000000000940FAE0F9F0D1B0D4A
:10474800080D120D59015A015B01FCFF0000A90F69
:10475800B70F5C015D015E01000000000000000071
:10476800832083200000000000000000AB036201EA
:1047780042029B0159015A015B01F21283208320F6
:104788008320832083208320FCFF0000000000009A
:104798005C015D015E01F8FF000000000000F312FB
:1047A8008320F2FF0000000000005F01832000006A
:1047B800000000000000832083208320832059010B
:1047C8005A015B010000000068166E165C015D016D
:1047D8005E010000000077168B16E6161E173C17C0
:1047E8004C17EA136414C813E5160F173B174B1739
:1047F800D813DE142315FCFF000096169416211515
:104808006715E8130000000099200820EF128420A3
:064818002B213A214B2187
:00000001FF
