:10000000FCC000000C94BE1A0C94EF1A0C94201B38
:100010000C94511B0C94821B0C94B31B0C94E41B8A
:100020000C94151C14C100000C94B21E0C941C1FDF
:100030000EC100000CC100000AC1000008C1000090
:1000400006C1000004C1000002C1000000C10000A0
:10005000FEC00000FCC00000FAC000000C94111E9D
:10006000F6C00000F4C00000F2C00000F0C00000C4
:10007000EEC00000ECC00000EAC00000E8C00000D4
:10008000E6C00000E4C00000E2C00000E0C00000E4
:10009000DEC00000DCC00000012902290429082973
:1000A0001029202940298029012C022C0126022612
:1000B000042608261026202640268026402C802C48
:1000C0000123022304230823102320234023802319
:1000D0000120022004200820102020204020802021
:1000E000102C202C012F022F042F082F102F202F2F
:1000F000402F802F7EFE7EFD7EFB7EF77EEF7EDF33
:100100007EBF7E7F00010000D4011200020000408B
:10011000017300220100B30121002101009C0109AB
:10012000000300003C0104010309042E010C0C0330
:1001300066006F006F007400730000000403090480
:1001400009027300020100C0320904000002010329
:1001500000000724010001410006240201010006FD
:100160002402020200092403010301020100092400
:10017000030204010101000905040240000000001F
:100180000525010101090583024000000000052545
:10019000010103090401000203000000092111010B
:1001A0000001222100070581034000010705020329
:1001B00020000206C9FF0904A15C7508150026FF8E
:1001C00000954009758102952009769102950409F0
:1001D00076B102C01201000200000040C016850482
:1001E00072020001000101C13601C0260181360101
:1001F0008036820B7613E421D80B11241FBECFEF7B
:10020000D0E2DEBFCDBF12E0A0E0B1E0E8E4F7E469
:1002100000E00BBF02C007900D92A63EB107D9F7D0
:1002200025E0A6EEB2E001C01D92AD32B207E1F7C3
:1002300010E0CCEFD0E004C02197FE010E946B23B8
:10024000C93FD107C9F70E94FC200C949623D8CE51
:10025000A091E602B091E702109709F40895ED919C
:10026000FC91119712968D919C919093E702809347
:10027000E6020995EDCFCF93DF93EC0184E090E0A7
:100280000E94F521009791F0FC01D183C083209159
:10029000E6023091E702338322839093E702809352
:1002A000E60290E080E0DF91CF91089581E090E058
:1002B000FACF0895089508950895089508958BE05C
:1002C00091E00895CF93DF93CDB7DEB72A970FB6AD
:1002D000F894DEBF0FBECDBF2E833F83488759877A
:1002E0006A8725E0FE013696DE01119601900D9297
:1002F0002A95E1F728853985232BA1F0DC01ED91C2
:10030000FC91028CF38DE02D29813A814B815C8137
:100310006D812A960FB6F894DEBF0FBECDBFDF9178
:10032000CF9109942A960FB6F894DEBF0FBECDBFC9
:10033000DF91CF910895683F38F0DC01ED91FC9199
:10034000048CF58DE02D099408950895089508957D
:100350000F931F93CF93DF9300D000D01F92CDB7A0
:10036000DEB70F900F900F900F900F90DF91CF910D
:100370001F910F910895089508950895AF92BF9227
:10038000CF92DF92EF92FF920F931F93893823E170
:10039000920710F088E893E1BC0190E080E01F92A2
:1003A0001F922FE32F932FEF2F93A12CB12C6501D8
:1003B00018E8E12E13E1F12E00E010E020E030E03B
:1003C000A9010E94BD200F900F900F900F90CB01BC
:1003D0001F910F91FF90EF90DF90CF90BF90AF9063
:1003E00008950C9402212FE531E0FC013183208334
:1003F00025E831E03583248323E931E03187208704
:100400002FE931E0378726870C9491130E97EBCFB5
:100410000497E9CF0897E7CFCF93DF93EC01E3DFB1
:10042000CE01DF91CF910C9402210497F5CF08976C
:10043000F3CF0E97F1CF2BEA31E0FC01318320831B
:1004400021ED31E0358324832FED31E031872087A2
:100450002BEE31E037872687C6CF0E97ECCF089773
:10046000EACF0497E8CFCF93DF93EC01E4DFCE012E
:10047000DF91CF910C9402210E97F5CF0897F3CF1F
:100480000497F1CF242F287F203F59F4403F49F0B3
:100490006F77DC01ED91FC91008CF18DE02D5F77A1
:1004A00009940895CF93DF93EC018E819F810E9480
:1004B000620D9C0174E0220F331F7A95E1F7E6E0AC
:1004C00096958795EA95E1F7282B392B8A859B85A8
:1004D000280F391FC901029696958795969587959D
:1004E000281B390B3B872A87E885F985309709F067
:1004F00009954C855D859A013695322F22273795CF
:10050000279520644115510549F0B9016F577109CC
:100510004F3F514018F58617970728F021583F4F55
:1005200028173907F0F4880F892F881F990B9195A8
:100530009D878C875E857F8550FF13C0472F4F7046
:10054000569572957F70406B682F6F7780914D0440
:1005500090914E04DF91CF910C9435118617970737
:1005600010F3DF91CF910895CF93DF93FC0187E3E0
:1005700091E091838083309781F08091EC0290919B
:10058000ED0222813381A481B581E817F90741F09A
:100590002115310529F4109729F4DF91CF910895A1
:1005A000109721F013963C932E9312972091EE0210
:1005B0003091EF02E217F30721F4B093EF02A0931A
:1005C000EE02C281D381209711F0BD83AC83E8177E
:1005D000F90719F7D093ED02C093EC02DECFCF9369
:1005E000DF93EC01C1DFCE01DF91CF910C940221AA
:1005F000CF93DF93FC018FE391E091838083309769
:1006000081F08091E8029091E90222813381A481F6
:10061000B581E817F90741F02115310529F4109744
:1006200029F4DF91CF910895109721F013963C9310
:100630002E9312972091EA023091EB02E217F30712
:1006400021F4B093EB02A093EA02C281D3812097F8
:1006500011F0BD83AC83E817F90719F7D093E902CD
:10066000C093E802DECFCF93DF93EC01C1DFCE0170
:10067000DF91CF910C9402210F93062F0F77282F33
:100680002F774150406969E086EB94E00E94842115
:100690000F9108950F93082F0F774FEF460F406B80
:1006A0002BE06BE086EB94E00E9484210F9108958B
:1006B0000F93062F0F77282F2F774150406868E05F
:1006C00086EB94E00E9484210F91089527E431E0A5
:1006D000FC01318320838CCFCF93DF93EC01F6DFD5
:1006E000CE01DF91CF910C94022123E531E0FC0192
:1006F00031832083EBCFCF93DF93EC01F6DFCE0184
:10070000DF91CF910C940221CF93DF93EC018E8186
:100710009F810E94620D9C0144E0220F331F4A9585
:10072000E1F756E0969587955A95E1F7822B932B42
:100730009C01220F331F220F331F281B390B3B87CD
:100740002A87880F892F881F990B91959D878C8701
:10075000DF91CF91089520E8240F203748F46F7778
:10076000DC01ED91FC910688F789E02D5F77099413
:1007700008950F931F93211119C09B0161157042B9
:1007800014F02FEF3FE1211550EE350714F420E06F
:1007900030EE305E8901000F012F001F110B2F7703
:1007A00041504F70406E6EE00E9484211F910F9166
:1007B000089580912F05882359F18FB7F89493E01D
:1007C0009093E9009091E4009E5F23E03091E8006F
:1007D00035FD0EC08FBF8091E4008917C9F080916C
:1007E0002F058823A9F08FB7F8942093E900EECF66
:1007F0004093F1005093F1006093F1007093F10089
:100800009091E80095FD03C09AE39093E8008FBFB4
:100810000895CF93DF93FC01138212821782168210
:1008200083E191E09183808389E291E095838483E1
:10083000CF010896138612861586148627E331E0C9
:10084000318720872091EC023091ED02232B21F497
:100850009093ED028093EC02A091EE02B091EF0232
:10086000B587A487109721F013969C938E931297C7
:100870009093EF028093EE0213861286118A108AFB
:1008800080910302138A148A158A868B178A808DB9
:10089000807F808F818D807F818FDF015A9683E8F2
:1008A000ED0119928A95E9F7A058BF4F11961C9255
:1008B0001E9212961C9211961D921D921D921C92D0
:1008C0001397D49680E1ED0119928A95E9F7509635
:1008D0001C928BEA91E09183808381ED91E0958376
:1008E00084838FED91E0918780878BEE91E09787ED
:1008F0008687DF91CF9108956F7070E070932E031B
:1009000060932D036115710539F584EF840F809391
:100910004203209341036A5071096430710508F065
:1009200074C0443319F58091330381110CC0809158
:100930003403811108C080913503811104C04093B4
:1009400042032093410384E38093400320933F03B9
:1009500081E080933603089561307105E1F684EFFC
:10096000840F8093400320933F03D5CF4B33C9F4CA
:1009700080913403811108C080913503811104C036
:10098000409342032093410380913603811105C0B7
:100990008BE38093400320933F0381E080933503F2
:1009A0000895423461F58091360381110CC0409363
:1009B00042032093410380913503811104C0409389
:1009C000400320933F0381E08093340308954093D4
:1009D0004203209341038091360381110CC0809122
:1009E0003503811108C080913403811104C0409304
:1009F000400320933F0381E08093330308954934FB
:100A000031F3423401F34934B1F308956F7070E06B
:100A100070932E0360932D03443391F410923603A8
:100A20006A5071096430710508F056C0443349F5C5
:100A300080913503813099F48BE3809340030895CE
:100A40004B3319F410923503EBCF423419F4109262
:100A50003403E6CF493421F710923303E1CF80917C
:100A60003403813031F482E4809340034B33B1F09E
:100A7000089580913303813079F589E480934203AE
:100A800008954B3389F480913403813061F3809170
:100A90003303813019F489E4809340038091360355
:100AA0008130D1F484E3EACF423499F48091330366
:100AB000813019F489E480934003809135038130BB
:100AC00069F78BE3DBCF809134038130B1F782E4A7
:100AD000D5CF4934C1F3089508950F93FC01052F34
:100AE000922F907F903921F120F49038D1F00F911E
:100AF0000895903B21F1903ED1F780E8489FA001F6
:100B00001124432B2F70822F90E090932C0380931D
:100B10002B032A3091F5505250932A034093290316
:100B2000E6CF622F6F70242F432FCF016FDFDFCF0F
:100B3000622F6F70242F432FCF01DEDED8CF2F70AE
:100B4000822F90E090931603809315033B3079F643
:100B50002A3019F440931A03CACF2B3019F440936A
:100B60001903C5CF2C3019F440931803C0CF2D3092
:100B700009F0BDCF40931703BACF2B3031F4505258
:100B80005093280340932703B2CF2C3031F45052B6
:100B90005093260340932503AACF2D3009F0A7CF09
:100BA00050525093240340932303A1CF8EEB91E046
:100BB0009093F9028093F8028AE093E02BD683E0C9
:100BC00093E028D681E093E09093540380935303FD
:100BD00080914D0490914E040C94D711FF920F9385
:100BE0001F93CF93DF938C010D5E1F4FC8010E94AE
:100BF000801AC82F81110AC084E0F82EDBE68FB777
:100C0000F89490912F05911108C08FBF8C2FDF9120
:100C1000CF911F910F91FF900895F092E90090916C
:100C2000E80095FD05C092FFF0CFD093E800F7CF24
:100C30004091F1005091F1006091F1007091F1004C
:100C40009091E80095FFD093E8008FBF4423F1F224
:100C5000C8010E94C119882391F2C82FD7CFBF9233
:100C6000CF92DF92EF92FF920F931F93CF93DF9378
:100C7000CDB7DEB72A970FB6F894DEBF0FBECDBF53
:100C8000633009F491C0A8F4613069F1623009F46D
:100C900040C02A960FB6F894DEBF0FBECDBFDF91DD
:100CA000CF911F910F91FF90EF90DF90CF90BF9069
:100CB0000895643071F1653061F7FC01438954890E
:100CC000658976892A960FB6F894DEBF0FBECDBF30
:100CD000DF91CF911F910F91FF90EF90DF90CF9018
:100CE000BF900C941114FC0143895489658976895D
:100CF0002A960FB6F894DEBF0FBECDBFDF91CF911D
:100D00001F910F91FF90EF90DF90CF90BF900C94C8
:100D1000B8138C017C01F3E1EF0EF11CFC01818D15
:100D20008F7093E8B92E9701B89E200D311D1124C4
:100D3000C90107960E9428196C01F801818D8F70F6
:100D40009701B89E200D311D1124C90107960E94FC
:100D50002919F801218D2F70DA82C9829C838B8337
:100D60008D81807F822B8D8385E0FE013196DE01AF
:100D7000169601900D928A95E1F72E813F81488564
:100D800059856A85C8012A960FB6F894DEBF0FBE52
:100D9000CDBFDF91CF911F910F91FF90EF90DF902A
:100DA000CF90BF900C94DE13FC016789708D2A965A
:100DB0000FB6F894DEBF0FBECDBFDF91CF911F916C
:100DC0000F91FF90EF90DF90CF90BF900C9437146D
:100DD000CF92DF92EF92FF920F931F93CF93DF9307
:100DE000EC016C0124E0C20ED11CC6010E94301639
:100DF0007E012EE0E20EF11C209711F4F12CE12C83
:100E00008E159F0521F4B701C6010E942116CE015F
:100E1000E5DE182F00E0112371F0612FCE011FDFF6
:100E2000143039F0123009F400E0CE01D7DE182F6B
:100E3000F2CF01E0FACF002361F0B701C601DF91E4
:100E4000CF911F910F91FF90EF90DF90CF900C9476
:100E50001216DF91CF911F910F91FF90EF90DF90CD
:100E6000CF900895B5CF0897B3CFCF93DF9383E4A6
:100E700093E0AEDF80914D0490914E040E942C13BC
:100E80008AE093E0CCD483E093E0C9D48AE093E095
:100E900031D5EC01019709F0E6C04EE060913703CF
:100EA0008091380305DC4EE060913F038091400360
:100EB000E3DB44E060913B0380913C03F9DB44E0D9
:100EC00060913F0380914003D7DB80914003809382
:100ED000380360913F03609337034CE0CDDB42E081
:100EE00060913F0380914003C7DB80914003809372
:100EF0003C0380913F0380933B03D0933203C09324
:100F0000310383E093E0F6D4EC01019709F0E2C0ED
:100F10004DE060913D0380913E03CADB4DE060915E
:100F2000410380914203A8DB43E060913D0380913F
:100F30003E03BEDB43E060914103809142039CDBB2
:100F40008091420380933A03609141036093390397
:100F50004BE092DB41E060914103809142038CDBE6
:100F60008091420380933E038091410380933D032F
:100F7000D0933003C0932F038091310390913203BB
:100F80000197E9F480914003893409F0DAC0609157
:100F900023037091240380911B0390911C038617F7
:100FA000970769F020E04CE086EB94E0E2DB80916B
:100FB00023039091240390931C0380931B0380913F
:100FC0002F03909130030197E9F480914203893413
:100FD00009F00CC1609123037091240380911B03DD
:100FE00090911C038617970769F020E04DE086EB8F
:100FF00094E0BFDB809123039091240390931C0322
:1010000080931B0380912F0390913003019789F403
:1010100080914203843309F03EC180911A0390917C
:101020001403981731F06DE035DB80911A0380933B
:1010300014038091310390913203019789F48091D8
:101040004003843309F058C180911A03909114032E
:10105000981731F06CE01EDB80911A038093140323
:10106000DF91CF9108958AE093E044D4029709F08C
:1010700048CF4EE060913B0380913C0319DB4EE08A
:1010800060913F0380914003F7DA44E060913B03B5
:1010900080913C030DDB44E060913F03809140036D
:1010A000EBDA809140038093380380913F03809373
:1010B00037034CE060913B0380913C03F9DA42E056
:1010C00060913B0380913C03F3DA1092320310925B
:1010D000310317CF83E093E00DD4029709F04CCF92
:1010E0004DE060913D0380913E03E2DA4DE0609176
:1010F000410380914203C0DA43E060913D03809157
:101100003E03D6DA43E06091410380914203B4DAB2
:101110008091420380933A03809141038093390385
:101120004BE060913D0380913E03C2DA41E0609163
:101130003D0380913E03BCDA1092300310922F03DE
:101140001BCF8234D1F460912503709126038091E6
:101150001D0390911E038617970709F430CF20E0F6
:101160004CE086EB94E005DB80912503909126030B
:1011700090931E0380931D0322CF8B33D1F4609193
:1011800027037091280380911F03909120038617F5
:10119000970709F414CF20E04CE086EB94E0E9DAFD
:1011A00080912703909128039093200380931F033D
:1011B00006CF843309F003CF6091290370912A038D
:1011C00080912103909122038617970709F4F7CEA7
:1011D00020E04CE086EB94E0CCDA809129039091FA
:1011E0002A039093220380932103E9CE8234D1F421
:1011F000609125037091260380911D0390911E0339
:101200008617970709F4FECE20E04DE086EB94E0C8
:10121000B0DA809125039091260390931E0380936A
:101220001D03F0CE8B33D1F4609127037091280316
:1012300080911F03909120038617970709F4E2CE4F
:1012400020E04DE086EB94E094DA809127039091C2
:1012500028039093200380931F03D4CE843309F096
:10126000D1CE6091290370912A038091210390913E
:1012700022038617970709F4C5CE20E04DE086EBE0
:1012800094E077DA8091290390912A0390932203C6
:1012900080932103B7CE8B3371F480911903909121
:1012A0001303981709F4C5CE6DE0F4D980911903A2
:1012B00080931303BECE823471F480911803909111
:1012C0001203981709F4B5CE6DE0E4D980911803A4
:1012D00080931203AECE893409F0ABCE8091170310
:1012E00090911103981709F4A4CE6DE0D3D98091A1
:1012F0001703809311039DCE8B3371F480911903F2
:1013000090911303981709F4ABCE6CE0C3D9809188
:10131000190380931303A4CE823471F480911803CF
:1013200090911203981709F49BCE6CE0B3D9809189
:1013300018038093120394CE893409F091CE8091E2
:10134000170390911103981709F48ACE6CE0A2D983
:10135000809117038093110383CECF92DF92EF9297
:10136000FF921F93CF93DF93EC010496BE01625F5F
:101370007F4F209711F470E060E00E9421160FB6B5
:10138000F894C090AE04D090AF04E090B004F09018
:10139000B1040FBE0FB6F8948091AE049091AF04E3
:1013A000A091B004B091B1040FBE8C199D09AE0993
:1013B000BF09843F9140A105B10550F4CE010EDC78
:1013C000182F682FCE014BDC1430C9F2123011F700
:1013D000DF91CF911F91FF90EF90DF90CF90089514
:1013E000BCCF0E97BACFEF920F937E2DDC01ED911B
:1013F000FC91962F9295907F492B522F602FCF0111
:1014000042960F91EF90D5C9EF920F93CF93DF9350
:1014100000D0CDB7DEB7262F9A838983E12C00E078
:101420004FE0672FCE010196DEDF0F900F90DF9126
:10143000CF910F91EF900895EF920F93CF93DF9399
:1014400000D0CDB7DEB7242F052FE62E672F9A8365
:10145000898343E0223F31F0E12C42E0243F10F049
:1014600000E045E0CE010196BEDF0F900F90DF91C6
:10147000CF910F91EF900895EF920F93CF93DF9359
:1014800000D0CDB7DEB7242F9A838983842F90E0D4
:1014900034E0959587953A95E1F7E62E052F482F8C
:1014A000672FCE0101969FDF0F900F90DF91CF91B4
:1014B0000F91EF900895EF920F93FC01CA01E28023
:1014C0000181208144E08FDF0F91EF900895EF922A
:1014D0000F931F93FB01622FC80142305105A1F009
:1014E0004330510541F04130510551F4E12C00E009
:1014F000208145E004C0E2800181208147E073DF64
:101500001F910F91EF900895E12C0181208146E019
:10151000F6CF2F923F924F925F926F927F928F926F
:101520009F92AF92BF92CF92DF92EF92FF920F9372
:101530001F93CF93DF9300D000D000D0CDB7DEB79C
:101540006C0129833A834B835C836D83AB80BC80C1
:10155000A114B10409F443C06E83962F9F702980B3
:101560003A80492F50E0F10180812601440E551E3A
:10157000803F11F4F20110AAD10175013201F0E3AC
:101580006F0E711C9A01220F331F240F351F2C0D73
:101590003D1D4D01F3015081533008F07CC081E0C6
:1015A000850F80834D91F901E50FF11D4083F1E036
:1015B000EF1AF10871F7A20CB31CF50131972081E5
:1015C000273F31F5482F50E0B60123E0929F600D90
:1015D000711D11242E81C6017ADFF3011082269637
:1015E0000FB6F894DEBF0FBECDBFDF91CF911F9134
:1015F0000F91FF90EF90DF90CF90BF90AF909F90B2
:101600008F907F906F905F904F903F902F900895B4
:10161000833029F7A8016E819601989F200D311D16
:101620001124C90148DFD9CFA20CB31CF5013197B1
:101630008081873F49F043E0E416F10469F4A80192
:101640006E81C40138DF05C02E81A701B401C60137
:101650003EDFF20110AAC3CFF201E0AAA701B40154
:10166000C30126960FB6F894DEBF0FBECDBFDF9143
:10167000CF911F910F91FF90EF90DF90CF90BF908F
:10168000AF909F908F907F906F905F904F903F9022
:101690002F900C948D233601F3E09F9F600C711CFA
:1016A0001124A8016E81C30106DFF4E0EF16F104F6
:1016B00008F4BACFA8016E81C401FDDE23E0820EDA
:1016C000911C33E0E31AF108F0CF0F931F93CF93EF
:1016D000DF9300D000D000D01F92CDB7DEB79A8341
:1016E00089838E010F5F1F4F8F559F4F12DF279603
:1016F0000FB6F894DEBF0FBECDBFDF91CF911F9123
:101700000F91089583E493E084D861E070E08AE06B
:1017100093E074D068E170E083E093E06FD087EFEE
:1017200091E090930203809301038091E8029091ED
:10173000E902892B31F480EF92E09093E9028093E3
:10174000E802E091EA02F091EB02F093F502E093F7
:10175000F402309721F080EF92E09383828380EF50
:1017600092E09093EB028093EA021092F3021092BF
:10177000F2028AE290E09093F7028093F6021092D0
:10178000F9021092F8021092FB021092FA021092E3
:10179000FD021092FC0287E18093FE0284E08093B8
:1017A000FF0283E591E09093F1028093F0020895A7
:1017B00080EF92E00E94750383E493E00C941B0297
:1017C000569A5E9A62E370E080E090E00E94511EBB
:1017D0005E9862E370E080E090E00E94511E5E9AA5
:1017E00062E370E080E090E00E94511E5E9862E546
:1017F00073E080E090E00E94511EE3CFFC01718312
:10180000608382818F608F7E82831382148215822F
:101810001682089562E0FC0180819181EDC08F9273
:101820009F92AF92BF92CF92DF92EF92FF92CF93AF
:10183000DF93EC018881998116D19A8194FB33273B
:1018400030F921E0381301C020E00FB6F894409140
:10185000AE045091AF046091B0047091B1040FBE1A
:1018600092FF1DC08B819C81AD81BE814A015B01CD
:10187000881A990AAA0ABB0A91E0C0900001D09088
:101880000101E0900201F0900301C814D904EA04B8
:10189000FB0408F490E08A8190FB82F98A839A81A4
:1018A000892F817092FD24C0922F880F892B382FA9
:1018B00033709A819C7F932B9A8393FB332730F963
:1018C000321741F0946020FB93F99A834B835C8339
:1018D0006D837E83082E000C990BDF91CF91FF90D2
:1018E000EF90DF90CF90BF90AF909F908F90089532
:1018F000982FDBCFFC018281837090E00895CF9315
:10190000DF93C0912504D0912604209759F0E881F7
:10191000F981008CF18DE02DCE0109950A80DB81E3
:10192000C02DF3CFDF91CF910895CF93DF93C09176
:101930002504D0912604209759F0E881F981028C82
:10194000F38DE02DCE0109950A80DB81C02DF3CF08
:10195000DF91CF910895CF93DF93C0912504D0916B
:101960002604209759F0E881F981048CF58DE02D4B
:10197000CE0109950A80DB81C02DF3CFDF91CF9195
:101980000895FC01828593850895FC0180859185E9
:10199000089585E294E00895EF92FF920F931F93CC
:1019A000CF93DF938C01F5DFFC01C081D1812097BB
:1019B000A1F0CE01EADF0817190778F0CE01E1DFC8
:1019C0007C01CE01E2DF0817190718F00E151F057C
:1019D00030F00A80DB81C02DEACFD0E0C0E0CE013C
:1019E000DF91CF911F910F91FF90EF900895D4DF79
:1019F000009709F4E5CE0895CF92DF92EF92FF921F
:101A00001F93CF93DF93811520E8920721F186334E
:101A1000910548F4DF91CF911F91FF90EF90DF90F7
:101A2000CF900C94191D162FEC01E1DF7C01DC0135
:101A3000ED91FC91C480D580A8DFBE01681B790BB5
:101A4000412FC701F601DF91CF911F91FF90EF90D9
:101A5000DF90CF900994DF91CF911F91FF90EF908D
:101A6000DF90CF900895EF92FF920F931F93CF9343
:101A7000DF93811520E8920719F18633910558F418
:101A8000FC010E94201D8E2FDF91CF911F910F919D
:101A9000FF90EF900895EC01AADF8C01DC01ED913D
:101AA000FC91E484F58471DFBE01681B790BC801E9
:101AB000F701DF91CF911F910F91FF90EF90099463
:101AC00080E0E2CFEF92FF920F931F93CF93DF93CB
:101AD000811520E8920701F18633910540F4DF91EA
:101AE000CF911F910F91FF90EF900C948D1CEC0102
:101AF0007EDF8C01DC01ED91FC91E488F58845DF07
:101B0000BE01681B790BC801F701DF91CF911F91CE
:101B10000F91FF90EF90099490E080E0DF91CF91DA
:101B20001F910F91FF90EF900895DC015496ED9175
:101B3000FC91309719F0CB01BA0109940895DC01AA
:101B40005696ED91FC91309711F0CB0109940895D0
:101B50000F931F93CF93DF93CDB7DEB72A970FB6BE
:101B6000F894DEBF0FBECDBF2E833F8348875987D1
:101B70006A87DC015296ED91FC91309709F04AC0DA
:101B800085E0FE013696DE01119601900D928A9550
:101B9000E1F700912D0410912E040115110509F4AF
:101BA00042C0D801ED91FC910284F385E02D29819A
:101BB0003A814B815C816D81C8010995882309F4C4
:101BC00047C0D8011496ED91FC911597309759F1C3
:101BD0008481958112962D913C91009779F1DC01D9
:101BE00013961C930E9312973383228315830483D9
:101BF000D8011396FC93EE93129715969C938E93AF
:101C0000149721153105F9F0D9011596FC93EE933F
:101C1000149709C04E815F81688579858A85099509
:101C2000882309F4ADCF2A960FB6F894DEBF0FBE15
:101C3000CDBFDF91CF911F910F91089510932E0486
:101C400000932D04D1CFF0933004E0932F04EBCF19
:101C5000F80102811381A1CFEF92FF920F931F939E
:101C6000CF93DF938A01F62EE72EDC015096ED919B
:101C7000FC913097C1F4802F807F803B09F045C0F4
:101C8000193779F5C0913D04D0913E042097C1F0F9
:101C9000E881F9810680F781E02DCE0109950A805F
:101CA000DB81C02DF3CFBA018F2D9E2D099588239E
:101CB00011F3DF91CF911F910F91FF90EF90089555
:101CC000C0913504D0913604209799F3E881F981C9
:101CD0000680F781E02DCE0109950A80DB81C02DB9
:101CE000F3CF1B3709F0D9C0C0914504D091460409
:101CF0002097F9F2E881F9810680F781E02DCE0185
:101D000009950A80DB81C02DF3CF813BE8F580394E
:101D100029F0803A09F484C0803859F6C09145040E
:101D2000D0914604209729F2E881F9810284F38555
:101D3000E02DA8016F2D7E2DCE010995882309F491
:101D40006BC0EC81FD81309709F4B3CF848195811C
:101D50002A813B81009709F455C0DC011396DC937E
:101D6000CE93129733832283D583C483FB83EA8384
:101D70009D838C832115310509F449C0D90115963D
:101D8000FC93EE93149795CF803D09F4CCC0803E30
:101D900009F406C1803C09F08CCFC0913904D09180
:101DA0003A04209709F485CFE881F9810284F3850C
:101DB000E02DA8016F2D7E2DCE010995882309F411
:101DC000AEC0EC81FD81309709F473CF8481958199
:101DD0002A813B81009709F49DC0DC011396DC93B6
:101DE000CE93129733832283D583C483FB83EA8304
:101DF0009D838C832115310509F6F0933C04E09313
:101E00003B0457CFD0934604C0934504ABCFF09327
:101E10004804E09347044DCF0A80DB81C02D82CF78
:101E2000C0914104D0914204209709F442CFE88147
:101E3000F9810284F385E02DA8016F2D7E2DCE015E
:101E40000995882331F1EC81FD81309709F431CF78
:101E5000848195812A813B810097B1F0DC01139642
:101E6000DC93CE93129733832283D583C483FB8381
:101E7000EA839D838C832115310509F07FCFF09390
:101E80004404E093430415CFD0934204C09341042B
:101E9000EACF0A80DB81C02DC7CFC0913D04D0912D
:101EA0003E04209709F405CFE881F9810284F38587
:101EB000E02DA8016F2D7E2DCE010995882331F1EB
:101EC000EC81FD81309709F4F4CE848195812A81DB
:101ED0003B810097B1F0DC011396DC93CE9312970F
:101EE00033832283D583C483FB83EA839D838C83DE
:101EF0002115310509F042CFF0934004E0933F04EF
:101F0000D8CED0933E04C0933D04EACF0A80DB8153
:101F1000C02DC7CFD0933A04C093390463CF0A8051
:101F2000DB81C02D3ECFC0913504D091360420977F
:101F300009F4BFCEE881F9810284F385E02DA80180
:101F40006F2D7E2DCE010995882331F1EC81FD8125
:101F5000309709F4AECE848195812A813B81009728
:101F6000B1F0DC011396DC93CE9312973383228376
:101F7000D583C483FB83EA839D838C83211531053C
:101F800009F0FCCEF0933804E093370492CED0935E
:101F90003604C0933504EACF0A80DB81C02DC7CF59
:101FA000C0913104D0913204209709F482CEE881A7
:101FB000F9810284F385E02DA8016F2D7E2DCE01DD
:101FC0000995882331F1EC81FD81309709F471CEB8
:101FD000848195812A813B810097B1F0DC011396C1
:101FE000DC93CE93129733832283D583C483FB8300
:101FF000EA839D838C832115310509F0BFCEF093D0
:102000003404E093330455CED0933204C0933104AA
:10201000EACF0A80DB81C02DC7CFCF93DF93EC01DD
:1020200083E191E09983888389E291E09D838C83A9
:10203000CE010496DAD6CE01DF91CF91BFC60497C8
:10204000ECCFCF93DF93EC0188E092E09983888313
:102050008EE192E09D838C83CE018C96D5D6CE0105
:102060004896D2D6CE01DF91CF91D7CF0497E9CF52
:1020700087E594E0E6CFCF93DF93EC01E2DFCE017A
:10208000DF91CF910C9402210497F5CFCF93DF938A
:10209000EC01C3DFCE01DF91CF910C9402210497B4
:1020A000F5CF80914F048111A9C08FE494E00E9484
:1020B0000321892B09F4A2C010925A0410925904EA
:1020C00010925E0410925D0488E092E090935804B0
:1020D000809357048EE192E090935C0480935B04BC
:1020E0008AE191E4A0E0B0E080935F049093600403
:1020F000A0936104B09362040E94711E6A517144FE
:10210000810991096093630470936404809365046A
:1021100090936604109268041092670410926A0407
:102120001092690410926C0410926B0410926E0469
:1021300010926D0410927204109271041092760441
:102140001092750426EA32E03093700420936F04F5
:102150008AEC92E090937404809373041092780454
:102160001092770410927A041092790445E754E0B3
:1021700050937C0440937B0441E754E050937E04E9
:1021800040937D041092800410927F041092820488
:1021900010928104109286041092850410928A0491
:1021A00010928904309384042093830490938804CC
:1021B0008093870410928C0410928B0410928E04EA
:1021C00010928D0489E894E09093900480938F049A
:1021D00085E894E090939204809391041092940483
:1021E0001092930410929604109295048FE494E058
:1021F0000E940C2188E390E10E943B0187E594E076
:102200000895EF92FF920F931F93CF93DF93EC010A
:102210008E819F81892B39F58A819B81892B19F5C4
:1022200070D28C01892B09F4CBDA7E0188E1E80EAB
:10223000F11CB701CE012ED5B701C80104964AD5CD
:102240007E018CE2E80EF11CB701CE01049642D566
:10225000B701C8011FD581E0DF91CF911F910F9188
:10226000FF90EF90089580E0F7CF0496C2C6CF9319
:10227000DF93C0914504D0914604209759F0E8813E
:10228000F9810084F185E02DCE0109950A80DB817A
:10229000C02DF3CFC0914104D0914204209759F052
:1022A000E881F9810084F185E02DCE0109950A804D
:1022B000DB81C02DF3CFC0913D04D0913E04209727
:1022C00059F0E881F9810084F185E02DCE0109956E
:1022D0000A80DB81C02DF3CFC0913904D0913A043C
:1022E000209759F0E881F9810084F185E02DCE0135
:1022F00009950A80DB81C02DF3CFC0913504D091C0
:102300003604209759F0E881F9810084F185E02DA9
:10231000CE0109950A80DB81C02DF3CFC091310435
:10232000D0913204209759F0E881F9810084F18539
:10233000E02DCE0109950A80DB81C02DF3CFC0913D
:102340002D04D0912E04209759F0E881F981008462
:10235000F185E02DCE0109950A80DB81C02DF3CFF8
:10236000DF91CF910895CF93DF93C0919704D091DF
:1023700098042097C9F08E819F810A80DB81C02D4F
:10238000209729F02E813F818217930759F0DC01B5
:10239000ED91FC910484F585E02D0995209721F0BD
:1023A0002E813F81C901E9CFDF91CF910895CF926E
:1023B000DF92EF92FF920F931F93CF93DF938C01E5
:1023C00020DF9DDAC091EC02D091ED02209759F008
:1023D000E881F9810480F581E02DCE0109950A801C
:1023E000DB81C02DF3CFC0914904D0914A042097DE
:1023F00059F0E881F9810480F581E02DCE0109953D
:102400000A80DB81C02DF3CFC801ADDFC091450448
:10241000D0914604209759F0E881F9810480F58134
:10242000E02DCE0109950A80DB81C02DF3CFC0914C
:102430004104D0914204209759F0E881F981048049
:10244000F581E02DCE0109950A80DB81C02DF3CF07
:10245000C0913D04D0913E04209759F0E881F98164
:102460000480F581E02DCE0109950A80DB81C02D25
:10247000F3CFC0913904D0913A04209759F0E88104
:10248000F9810480F581E02DCE0109950A80DB8178
:10249000C02DF3CFC0913504D0913604209759F068
:1024A000E881F9810480F581E02DCE0109950A804B
:1024B000DB81C02DF3CFC0913104D091320420973D
:1024C00059F0E881F9810480F581E02DCE0109956C
:1024D0000A80DB81C02DF3CFC0912D04D0912E0452
:1024E000209759F0E881F9810480F581E02DCE0133
:1024F00009950A80DB81C02DF3CFC091E802D0910D
:10250000E902209759F0E881F9810480F581E02DF6
:10251000CE0109950A80DB81C02DF3CFC09129043B
:10252000D0912A04209759F0E881F9810480F5813F
:10253000E02DCE0109950A80DB81C02DF3CF0E94EA
:10254000711EF801C084D184E284F3846C197D0982
:102550008E099F096487758786879787DF91CF915A
:102560001F910F91FF90EF90DF90CF900895DF9231
:10257000EF92FF920F931F93CF93DF93C091970435
:10258000D0919804209749F10E811F817E01D12CB2
:10259000E881F9810680F781E02DCE010995D82ADE
:1025A0000A80DB81C02D2097B1F08E819F810817B2
:1025B0001907D9F48C01ECCFD801ED91FC91028878
:1025C000F389E02DC8010995209739F08E819F810C
:1025D0007E01D12CEFCFD1100AC0DF91CF911F9196
:1025E0000F91FF90EF90DF900895DD2079F3D801EF
:1025F000ED91FC910684F785E02DC8010995D8017D
:10260000ED91FC910088F189E02DC8010995CE1566
:10261000DF0591F2D701ED91FC910480F581E02D69
:10262000C7010995F701E280F380F1CFCF93DF93E3
:10263000C091EC02D091ED02209759F0E881F98128
:102640000680F781E02DCE0109950A80DB81C02D3F
:10265000F3CFDF91CF910895CF92DF92EF92FF9267
:102660000F931F93CF93DF93EC0175D90091E8028C
:102670001091E9020115110561F0D801ED91FC916D
:102680000680F781E02DC8010995F80102811381C8
:10269000F1CFCCDFCE01EBDD0E94711ECC84DD8456
:1026A000EE84FF84088519852A853B85AB01BC0132
:1026B0004C195D096E097F094017510762077307BE
:1026C00060F0D701C601800F911FA21FB31F8C8736
:1026D0009D87AE87BF87CE014ADFDF91CF911F91E3
:1026E0000F91FF90EF90DF90CF901FC9DADC9093AD
:1026F0004E0480934D04089590E080E0089508957D
:10270000089580919B0490919C04009749F4209136
:10271000EE023091EF022115310511F0C901089741
:102720000895CF93DF93EC0188E392E09983888347
:102730008CE592E09D838C838AE692E09987888776
:1027400086E792E09F878E87DCDFC817D90721F4E0
:1027500010929C0410929B048CE292E099878887E7
:10276000CE0108960E94B402CE01DF91CF9155CCE4
:10277000CF92DF92EF92FF92CF93DF93EC016A0149
:102780007B01049636D488899989009781F0DC0111
:10279000ED91FC910190F081E02DA7019601BE0121
:1027A000DF91CF91FF90EF90DF90CF900994DF9170
:1027B000CF91FF90EF90DF90CF900895EF92FF922E
:1027C0000F931F93CF93DF9300D000D01F92CDB70C
:1027D000DEB77C0129833A834B835C836D83C70119
:1027E000049656D4D70150968D919C91009769F02C
:1027F000DC01ED91FC910280F381E02D09811A81C9
:102800002B813C814D81B70109950F900F900F905E
:102810000F900F90DF91CF911F910F91FF90EF904C
:102820000895CF92DF92EF92FF92CF93DF93EC0166
:102830006A017B0104967CD488899989009781F08C
:10284000DC01ED91FC910480F581E02DA70196015A
:10285000BE01DF91CF91FF90EF90DF90CF90099470
:10286000DF91CF91FF90EF90DF90CF9008950F937D
:102870001F93CF93DF93EC018B01049693D4888947
:102880009989009769F0DC01ED91FC910680F78150
:10289000E02DA801BE01DF91CF911F910F91099406
:1028A000DF91CF911F910F910895DC0118968D91C2
:1028B0009C91009739F0DC01ED91FC910088F18941
:1028C000E02D099490E080E00895DC011A968D9146
:1028D0009C91009739F0DC01ED91FC910084F18529
:1028E000E02D099490E080E008950497EECFEF92F8
:1028F000FF920F931F93CF93DF93EC018B017A012B
:1029000088899989009729F06817790711F00E9442
:10291000E00B198B088BEC85FD85808191810097F8
:1029200081F02A853B852E153F0559F4DC01ED9198
:10293000FC910484F585E02DAE014C5F5F4FB8013A
:10294000099588859985009759F0DC01ED91FC91F6
:102950000484F585E02DAE014C5F5F4FB801099509
:102960008A859B850097D9F0E816F906C1F06A8937
:102970007B896115710541F0DC01ED91FC910680C8
:10298000F781E02DAE0109958A859B85DC01ED91EB
:10299000FC910480F581E02DAE01B8010995EE852A
:1029A000FF85808191810097A9F09C012C5F3F4FAA
:1029B000E216F30679F0DC01ED91FC91048CF58DC3
:1029C000E02DAE01B801DF91CF911F910F91FF90E3
:1029D000EF900994DF91CF911F910F91FF90EF90AD
:1029E0000895EF92FF920F931F93CF93DF93EC0123
:1029F0008B017A0188899989009729F068177907EE
:102A000011F00E94E00B198A188AEC85FD858081FF
:102A10009181009781F02A853B852E153F0559F459
:102A2000DC01ED91FC910684F785E02DAE014C5F51
:102A30005F4FB801099588859985009759F0DC01A9
:102A4000ED91FC910684F785E02DAE014C5F5F4F60
:102A5000B80109958A859B850097D9F0E816F90693
:102A6000C1F0DC01ED91FC910680F781E02DAE0113
:102A7000B80109956A897B896115710551F08A85CC
:102A80009B85DC01ED91FC910480F581E02DAE0188
:102A90000995EE85FF85808191810097A9F09C01C1
:102AA0002C5F3F4FE216F30679F0DC01ED91FC91CB
:102AB000068CF78DE02DAE01B801DF91CF911F910B
:102AC0000F91FF90EF900994DF91CF911F910F919B
:102AD000FF90EF9008950F931F93CF93DF93EC0136
:102AE000888599858417950711F58B01798B688BFB
:102AF0008A859B85009741F0DC01ED91FC91048073
:102B0000F581E02DAE010995EE85FF8580819181EB
:102B10000097F9F0DC01ED91FC91048CF58DE02D2E
:102B2000AE01B801DF91CF911F910F9109948A896D
:102B30009B89892B71F47B8B6A8B8A859B85009797
:102B400041F0DC01ED91FC910480F581E02DAE01B6
:102B5000E9CFDF91CF911F910F9108950497BBCFDB
:102B60000F931F93CF93DF93EC018B018885998599
:102B70008417950709F5198A188A8A859B85009715
:102B800041F0DC01ED91FC910680F781E02DAE0172
:102B90000995EE85FF8580819181009701F1DC0127
:102BA000ED91FC91068CF78DE02DAE01B801DF911F
:102BB000CF911F910F9109946A897B8960177107E2
:102BC00071F41B8A1A8A8A859B85009741F0DC0183
:102BD000ED91FC910680F781E02DAE01E8CFDF9109
:102BE000CF911F910F9108950497BACFDC011296EF
:102BF000ED91FC911397309731F011861086139662
:102C00001C921E9212970895DC011296ED91FC9190
:102C10001397309731F01386128613961C921E92EA
:102C200012970895FC01A281B381109749F0ED91AC
:102C3000FC9111970484F585E02DAC01CD01099438
:102C40000895FC01A281B381109749F0ED91FC91A8
:102C500011970684F785E02DAC01CD010994089504
:102C6000DC011296ED91FC91309739F080899189C1
:102C7000009729F482899389089590E080E008956F
:102C8000FC0120853185232B11F00E94E00B718718
:102C9000608708950F931F93CF93DF93EC018B010F
:102CA0008A819B81009751F4BE01C801E9DF1B8333
:102CB0000A83DF91CF911F910F910895EC01F0CF1E
:102CC000FC0122853385232B11F00E94E00B7387D2
:102CD000628708950F931F93CF93DF93EC018B01CD
:102CE0008A819B81009751F4BE01C801E9DF1B83F3
:102CF0000A83DF91CF911F910F910895EC012496E3
:102D0000EFCFEF92FF920F931F93CF93DF93EC01DE
:102D1000088519850115110571F0EE85FF85E080A4
:102D2000F180E114F10439F0C80160DFCE015EDF0B
:102D3000B701C801AFDF0A851B850115110579F0C0
:102D4000EC85FD85E080F180E114F10441F0C801DB
:102D50005BDFCE01049658DFB701C801BBDF888571
:102D60009985009709F042DF8A859B85009709F0D5
:102D70004BDFEE85FF8580819181892B31F4EC85D5
:102D8000FD8580819181892B11F00E94E00BDF91FC
:102D9000CF911F910F91FF90EF900895CF93DF9304
:102DA000EC018A819B81009731F0F8DF8A819B8159
:102DB000A8DF1B821A82DF91CF91089522E832E0CA
:102DC000FC0131832083EACFCF93DF93EC018A812A
:102DD0009B81009739F00496F7DF8A819B8191DF10
:102DE0001B821A82DF91CF91089528E932E0FC011D
:102DF00031832083E9CFCF93DF93EC01F6DFCE015F
:102E0000DF91CF910C940221CF93DF93EC0186EAFE
:102E100092E0998388838AEC92E09D838C83CE0133
:102E200070DFCE010496E1DFCE01DF91CF91C6CFF6
:102E3000CF93DF93EC01E8DFCE01DF91CF910C94CB
:102E400002210497F5CF0497DFCF1F93CF93DF9331
:102E5000EC0188899989009741F48A899B89892B9B
:102E600031F4DF91CF911F910895019621F18A8964
:102E70009B89019601F11BE088899989009721F4CB
:102E80002A893B89232B69F3115059F3009739F0B4
:102E9000DC01ED91FC910680F781E02D09958A898E
:102EA0009B89009749F3DC01ED91FC910680F78145
:102EB000E02D0995E1CF0E94E00BFC018281938116
:102EC000009709F0C2CF0895DC0118968D919C916E
:102ED000009739F0DC01ED91FC910480F581E02D43
:102EE00009940895F1CFF0CFCF93DF9300D000D0B5
:102EF0001F92CDB7DEB729833A834B835C836D8302
:102F0000DC0118968D919C91009771F0DC01ED9198
:102F1000FC910680F781E02D0F900F900F900F909D
:102F20000F90DF91CF9109940F900F900F900F9019
:102F30000F90DF91CF910895CF93DF9300D000D011
:102F40001F92CDB7DEB70F900F900F900F900F909C
:102F5000DF91CF91C9CFCF93DF9300D000D01F92E4
:102F6000CDB7DEB70F900F900F900F900F90DF91BD
:102F7000CF91BACFDC0118968D919C91009739F0D2
:102F8000DC01ED91FC910084F185E02D0994089518
:102F9000F1CFF0CFDC0118968D919C91009739F01C
:102FA000DC01ED91FC910284F385E02D09940895F4
:102FB000F1CFF0CFCF92DF92EF92FF92CF93DF93DA
:102FC000EC016A017B01EC85FD8580819181009790
:102FD00009F0F0DFE881F9810288F389E02DB7017B
:102FE000A601CE01DF91CF91FF90EF90DF90CF90BF
:102FF0000994CF92DF92EF92FF92CF93DF93FC017F
:1030000022813381232B79F06A017B01EC0155DFAA
:10301000B701A6018A819B81DF91CF91FF90EF904C
:10302000DF90CF90C7CFDF91CF91FF90EF90DF90EF
:10303000CF9008950F931F93CF93DF9300D000D0CC
:103040001F92CDB7DEB78C0129833A834B835C8313
:103050006D83DC011C96ED91FC918081918100973C
:1030600009F0E8DFD801ED91FC910488F589E02DA5
:1030700029813A814B815C816D81C8010F900F904D
:103080000F900F900F90DF91CF911F910F910994A6
:103090000F931F93CF93DF9300D000D01F92CDB733
:1030A000DEB729833A834B835C836D83FC012281E5
:1030B0003381232BA1F08C0100DF29813A814B81E0
:1030C0005C816D81F801828193810F900F900F9048
:1030D0000F900F90DF91CF911F910F91ABCF0F9079
:1030E0000F900F900F900F90DF91CF911F910F9144
:1030F0000895CF92DF92EF92FF92CF93DF93EC018E
:103100006A017B01EC85FD8580819181009709F042
:10311000F0DFE881F9810688F789E02DB701A60183
:10312000CE01DF91CF91FF90EF90DF90CF90099487
:10313000CF92DF92EF92FF92CF93DF93FC01228137
:103140003381232B79F06A017B01EC01B6DEB701F4
:10315000A6018A819B81DF91CF91FF90EF90DF9054
:10316000CF90C7CFDF91CF91FF90EF90DF90CF90BE
:1031700008950F931F93CF93DF93EC018B01EC85A0
:10318000FD8580819181009709F0F3DFE881F98165
:10319000008CF18DE02DB801CE01DF91CF911F9110
:1031A0000F910994FC0182819381009709F0E1CF8E
:1031B0000895FC01E058FF4F118210828E579F4FF7
:1031C00021E0FC01208308958E579F4FFC0110825F
:1031D0000895FC01E058FF4F20813181820F931F39
:1031E000DC016C932F5F3F4F3183208308950F9351
:1031F0001F93CF93DF93C42FD0E08C0100581F4F53
:10320000F80120813181AE01820F931F0E948D232E
:10321000F80140815181C40FD51FD183C083DF9154
:10322000CF911F910F910895FC01E058FF4F20E8C6
:1032300030E0261B310981E0408151812417350798
:1032400008F480E008958E579F4FFC018081089517
:10325000089580589F4FFC01808191810895DF92ED
:10326000EF92FF920F931F93CF93DF9300D000D084
:10327000CDB7DEB77C0149835A836B837C83D22E22
:10328000822F8F70870193E8899F000D111D1124F3
:10329000095F1F4F8A81803F09F5C8018ADF63E01B
:1032A000C801C2DF811120C089819A81AB81BC81B4
:1032B000F701E657FF4F80839183A283B383F70121
:1032C000D68284E00F900F900F900F90DF91CF91F6
:1032D0001F910F91FF90EF90DF900895C801B3DF29
:1032E0008111DDCF80E0EECF43E0BE016E5F7F4F06
:1032F000C8017DDFF7CFBF92CF92DF92EF92FF92AE
:103300000F931F93CF93DF93EC01573F69F05883DE
:103310002B8385E0DF91CF911F910F91FF90EF906C
:10332000DF90CF90BF900895122FB72ED62E052F85
:10333000C42E822F8F709E0143E8849F200D311D83
:103340001124295F3F4F7901C9017DDF8823B9F03E
:1033500061E0C70169DF81110AC0FE01E657FF4F36
:10336000C0820183D282B3821E8384E0D3CF67EF11
:10337000C7012FDFC70128DF1E8382E0CBCF80E0AB
:10338000C9CFDF92EF92FF920F931F93CF93DF93FA
:10339000CDB7DEB728970FB6F894DEBF0FBECDBF0E
:1033A000242F30E0E4E035952795EA95E1F72115E3
:1033B000310511F080E021C0E42FEF70E250EE30D3
:1033C000C8F78C01F0E0E951F64E0C946B23F51927
:1033D000F5190B1A0E1A111A491A701A701A701A66
:1033E000701A701A701A701A791AFC01508361836E
:1033F00072838381807F838385E028960FB6F8945B
:10340000DEBF0FBECDBFDF91CF911F910F91FF9017
:10341000EF90DF90089520E022DFEFCF20E06BDF18
:10342000ECCF4D835E836F837887D12C83E8829FB6
:103430007001839FF00C1124F7E0EF0EF11CE00EF9
:10344000F11EC701503FA9F4B4DE62E0C701ECDE13
:10345000811113C08D819E81AF81B885F801E65737
:10346000FF4F80839183A283B383F801D68284E0E7
:10347000C4CFE9DE8111E9CF9DCF42E0BE016A5F92
:103480007F4FC701B4DEC7019FDEF801D68282E01C
:10349000B4CF49835A836B837C83D12C83E8829F8A
:1034A0007001839FF00C1124F7E0EF0EF11CE00E89
:1034B000F11EC701503F59F47CDE63E0C701B4DE62
:1034C000811109C089819A81AB81BC81C7CFBBDEE4
:1034D0008111F3CF6FCF43E0BE016E5F7F4FD1CF3D
:1034E000FC015083618372838381807F838381E0C9
:1034F00084CFFC0154838581807F858383E07DCFE9
:10350000CF92DF92EF92FF921F93CF93DF93FC0154
:10351000E657FF4F2081222341F1EC01C080D1808A
:10352000E280F38010828E818F7013E89E01189FD5
:10353000200D311D1124C901079685DE882351F025
:103540008E818F709E01189F200D311D1124C9019D
:1035500007962FDEB701A601CE01DF91CF911F9113
:10356000FF90EF90DF90CF900CCF80E0DF91CF9174
:103570001F91FF90EF90DF90CF9008951F920F92D0
:103580000FB60F9211240BB60F922F933F934F93C8
:103590005F936F937F938F939F93AF93BF93EF93BB
:1035A000FF9380919D0490919E04892B29F0E091D6
:1035B0009D04F0919E040995FF91EF91BF91AF9109
:1035C0009F918F917F916F915F914F913F912F913B
:1035D0000F900BBE0F900FBE0F901F9018951F926B
:1035E0000F920FB60F9211240BB60F922F933F93A9
:1035F0004F935F936F937F938F939F93AF93BF93FB
:10360000EF93FF9380919F049091A004892B29F060
:10361000E0919F04F091A0040995FF91EF91BF9173
:10362000AF919F918F917F916F915F914F913F915A
:103630002F910F900BBE0F900FBE0F901F901895FB
:103640001F920F920FB60F9211240BB60F922F9369
:103650003F934F935F936F937F938F939F93AF931A
:10366000BF93EF93FF938091A1049091A204892BC3
:1036700029F0E091A104F091A2040995FF91EF9146
:10368000BF91AF919F918F917F916F915F914F917A
:103690003F912F910F900BBE0F900FBE0F901F9078
:1036A00018951F920F920FB60F9211240BB60F921E
:1036B0002F933F934F935F936F937F938F939F933A
:1036C000AF93BF93EF93FF938091A3049091A404D1
:1036D000892B29F0E091A304F091A4040995FF91AE
:1036E000EF91BF91AF919F918F917F916F915F917A
:1036F0004F913F912F910F900BBE0F900FBE0F90E7
:103700001F9018951F920F920FB60F9211240BB6AF
:103710000F922F933F934F935F936F937F938F936A
:103720009F93AF93BF93EF93FF938091A5049091E4
:10373000A604892B29F0E091A504F091A60409952F
:10374000FF91EF91BF91AF919F918F917F916F9179
:103750005F914F913F912F910F900BBE0F900FBE35
:103760000F901F9018951F920F920FB60F92112471
:103770000BB60F922F933F934F935F936F937F936B
:103780008F939F93AF93BF93EF93FF938091A70481
:103790009091A804892B29F0E091A704F091A80446
:1037A0000995FF91EF91BF91AF919F918F917F917B
:1037B0006F915F914F913F912F910F900BBE0F90A2
:1037C0000FBE0F901F9018951F920F920FB60F9279
:1037D00011240BB60F922F933F934F935F936F93E8
:1037E0007F938F939F93AF93BF93EF93FF938091BA
:1037F000A9049091AA04892B29F0E091A904F091E1
:10380000AA040995FF91EF91BF91AF919F918F917C
:103810007F916F915F914F913F912F910F900BBED0
:103820000F900FBE0F901F9018951F920F920FB61A
:103830000F9211240BB60F922F933F934F935F93E8
:103840006F937F938F939F93AF93BF93EF93FF9368
:103850008091AB049091AC04892B29F0E091AB04EA
:10386000F091AC040995FF91EF91BF91AF919F91B9
:103870008F917F916F915F914F913F912F910F9019
:103880000BBE0F900FBE0F901F9018951DBA10928F
:1038900068001CBC10BE1FBA10927A0010926E0015
:1038A00010926F0010927000109271001092C90077
:1038B0001092BC0011B814B817B81AB81DB810BAD5
:1038C00012B815B818B81BB81EB811BA0895F894F4
:1038D000E1E6F0E020E82083108283E084BD85BD2E
:1038E000EEE6F0E080818160808391E0909380003B
:1038F00082E0809381009093B0008093B100909318
:1039000090008093910086E880937A0020937B005A
:1039100010927E0005D2789408959AED980F983011
:1039200010F1883060F490917E0021E030E0082EA4
:1039300001C0220F0A94EAF7922B90937E008F71B8
:1039400090910401892B80937C0080917A0080649F
:1039500080937A0080917A0086FDFCCF8091780078
:10396000909179000895892FDECF8E3270F4E8E9C6
:10397000F0E0880FE80FF11D2591E491F0E09FB78A
:10398000F8948181822B81839FBF08958E3218F530
:10399000AAEDA80FA83000F5E4EFF0E0AA0FEA0FB7
:1039A000F11DA591B0E09591E8E9F0E0880FE80FEE
:1039B000F11D2591E491F0E04FB7F8943181822F09
:1039C0008095232F28232183228182238283EC91D7
:1039D0009E239C934FBF08959FEFB0E0A0E0E4CFFB
:1039E0008E3210F5AAEDA80FA830F8F4E4EFF0E05D
:1039F000AA0FEA0FF11DA591B0E09591E8E9F0E07A
:103A0000880FE80FF11D3591E491F0E04FB7F8947D
:103A10008181232F2095282321838281832B8283F8
:103A2000EC919E239C934FBF08959FEFB0E0A0E0E0
:103A3000E5CF613009F499CF623009F4D1CFA6CF38
:103A4000EE3258F4EE0FEE0FFF27EC3718F4EF5C70
:103A5000F24E0994ED5CF24E0994EE270895E1E0F0
:103A60000895E9B1E170D9F70895E9B1E270B9F7C5
:103A70000895E9B1E47099F70895E9B1E87079F72C
:103A80000895E9B1E07159F70895E9B1E07239F7A5
:103A90000895E9B1E07419F70895E9B1E078F9F60D
:103AA0000895ECB1E170D9F60895ECB1E270B9F681
:103AB0000895E6B1E17099F60895E6B1E27079F6FD
:103AC0000895E6B1E47059F60895E6B1E87039F664
:103AD0000895E6B1E07119F60895E6B1E072E9F5EE
:103AE0000895E6B1E074C9F50895E6B1E078A9F566
:103AF0000895ECB1E07489F50895ECB1E07869F5CA
:103B00000895E3B1E17049F50895E3B1E27029F554
:103B10000895E3B1E47009F50895E3B1E870E9F4BC
:103B20000895E3B1E071C9F40895E3B1E072A9F436
:103B30000895E3B1E07489F40895E3B1E07869F49D
:103B40000895E0B1E17049F40895E0B1E27029F41C
:103B50000895E0B1E47009F40895E1E00895E0B15A
:103B6000E870D9F70895E0B1E071B9F70895E0B1D0
:103B7000E07299F70895E0B1E07479F70895E0B143
:103B8000E07859F70895ECB1E07139F70895ECB198
:103B9000E07219F70895EFB1E170F9F60895EFB109
:103BA000E270D9F60895EFB1E470B9F60895EFB177
:103BB000E87099F60895EFB1E07179F60895EFB1E4
:103BC000E07259F60895EFB1E07439F60895EFB157
:103BD000E07819F60895F89484B7877F84BF8091C0
:103BE00060008061809360001092600080E29EE43B
:103BF0000197F1F781E08093E00080E28093D800A4
:103C000080E69AEE0197F1F741DE0C9400FEFFCFBB
:103C1000F8943CDE80E69AEE0197F1F70C940000F0
:103C2000FFCF8F938FB78F938091AD048D5F8D37CA
:103C3000D0F48093AD048091AE048F5F8093AE0486
:103C4000D8F08091AF048F4F8093AF04A8F080919B
:103C5000B0048F4F8093B00478F08091B1048F4FFF
:103C60008093B10409C08D578093AD048091AE0458
:103C70008E5F8093AE0428F78091B2048C5F8093AE
:103C8000B20458F08091B3048F4F8093B30428F0AE
:103C90008091B4048F4F8093B4048F918FBF8F9124
:103CA0001895CF92DF92EF92FF926B017C0119D0B1
:103CB0009B01C114D104E104F10429F4FF90EF90B9
:103CC000DF90CF9008950DD0621B730B683E734058
:103CD00080F381E0C81AD108E108F10828513C4F6F
:103CE000E8CF0FB6F89466B515B27091B204809122
:103CF000B3049091B4040FBE10FE05C06F3F19F0DD
:103D00007C5F8F4F9F4F11240024660F001C660FAD
:103D1000001C702908958091E80080FFFCCF089571
:103D20008091D80087FF02C085FF1BC081E8809387
:103D3000D70080EA8093D80086E189BD09B400FEEF
:103D4000FDCF80E98093D8001092E00010922F05FB
:103D500010922E0510922D051092E1008CE08093B8
:103D6000E20008951F920F920FB60F9211248F93C5
:103D70009F939091E1001092E10093FF0FC0109289
:103D8000E90081E08093EB001092EC0082E38093E5
:103D9000ED0088E08093F00010922F0592FF21C083
:103DA00080912F058823E9F080912D05882379F0F3
:103DB000815080932D0581110AC081E08093E90034
:103DC0008091E80085FD35C08AE38093E80083E0B8
:103DD0008093E9008091F200882319F08AE38093B0
:103DE000E80090FF0CC080E18093E20010922F0564
:103DF00081E080932E0580EA8093D80019BC8091E1
:103E00002E05882379F094FF0DC086E189BD09B4A1
:103E100000FEFDCF80E98093D8008DE08093E20022
:103E200010922E059F918F910F900FBE0F901F90B3
:103E300018951092F100C4CF1F920F920FB60F92F7
:103E400011240BB60F92EF92FF920F931F932F93B3
:103E50003F934F935F936F937F938F939F93AF9312
:103E6000BF93CF93DF93EF93FF931092E90080917C
:103E7000E80083FF21C0E090F100F090F100C091D4
:103E8000F100D091F1000091F1001091F10020912A
:103E9000F1003091F10082EF8093E80086E0F812A3
:103EA0005CC0E4E0F1E085919591C817D90741F035
:103EB0003596FA94F110F7CF81E28093EB002BC096
:103EC000859195910817190711F03396F2CF459116
:103ED000559184912F3F310519F010F02FEF30E00C
:103EE000821708F4282F3EEF8091E800982F9570F4
:103EF000D9F382FD10C0822F213408F080E4982F7E
:103F0000911124C0922F981B892F3093E8009111B2
:103F10001BC02034C8F4FF91EF91DF91CF91BF9186
:103F2000AF919F918F917F916F915F914F913F9151
:103F30002F911F910F91FF90EF900F900BBE0F905C
:103F40000FBE0F901F901895282FCECFFA014591E4
:103F50004093F100AF019150D3CF85E0F81208C033
:103F60008EEF8093E800D7DEC068C093E300D3CF24
:103F700099E0F91222C0E110D3C0C0932F0510922E
:103F80002D058EEF8093E80081E0E6EEF1E080936E
:103F9000E90095919093EB00992331F095919093DE
:103FA000EC0095919093ED008F5F853081F78EE165
:103FB0008093EA001092EA00AECF98E0F9120CC0AC
:103FC00080E8E81279CFA7DE80912F058093F10079
:103FD0008EEF8093E8009FCFF11012C09CDE92E834
:103FE000E91209C00093E900F090EB00F5FAFF2414
:103FF000F0F81092E900F092F1001092F100E8CF91
:104000008F2D8D7F813009F080C082E0E8121BC0C7
:104010002097C9F4402F4F778FEF840F863098F4A4
:104020008EEF8093E8004093E90093E0F91609F4DD
:1040300043CF89E18093EB0081E090E001C0880FDD
:104040004A95EAF7B5CF0130110509F05EC081E06D
:10405000F81222C091EA3EEFE9122ECF8091E800DB
:10406000982F9570D9F382FD56CF822F213408F016
:1040700080E4982F91110CC0922F981B892F3093B8
:10408000E800911103C0203408F445CF282FE6CF73
:104090001092F1009150EECF89E0F81236C091E213
:1040A000E9120ACFC115D34009F006CF24303105FB
:1040B00009F002CF8091E80082FFFCCF3091F1003F
:1040C0002091F1009091F1008091F1004BEF40932D
:1040D000E8004EEF4093E800393A51F4253409F0F6
:1040E000EBCE923C09F0E8CE8B3609F0E5CE73DDDD
:1040F0003B3809F0E1CE253C09F0DECE9D3109F0D8
:10410000DBCE803709F0D8CE83DD99ECF912D4CE1E
:1041100080E4E812D1CE8EEF8093E800FCDDF4CF8E
:104120000130110509F0C8CEBACFCF92DF92EF92DD
:10413000FF920F931F93CF93DF936C01EB017B01F1
:10414000E40EF51E10E000E0CE15DF0561F0699188
:10415000D601ED91FC910190F081E02DC601099509
:10416000080F191FF1CFC801DF91CF911F910F9157
:10417000FF90EF90DF90CF9008954F925F926F92F3
:104180007F92AF92BF92CF92DF92EF92FF920F9306
:104190001F93CF93DF93CDB7DEB729013A019B017F
:1041A000AC01241935094609570989899A89AB89CF
:1041B000BC89BC01CD016A197B098C099D093ED2DD
:1041C000A8019701241935094609570968D2CA017F
:1041D000B9016A0D7B1D8C1D9D1DDF91CF911F9133
:1041E0000F91FF90EF90DF90CF90BF90AF907F90B6
:1041F0006F905F904F9008956ADB0E94D6050E94F1
:104200003507FDCF92C1FC0181E090E0208122239F
:1042100011F090E080E0089521E0FC0120830895F2
:10422000089580912F05882371F08FB7F89492E05C
:104230009093E9009BE62091E80025FF03C090934E
:10424000E800F9CF8FBF109228050895FC018091F6
:104250002F05882341F19FB7F89481E08093E9000E
:104260002091E4003091E80035FD0EC09FBF909191
:10427000E4009217C1F090912F059923A1F09FB708
:10428000F8948093E900EECF6093F1008091E8000C
:1042900085FD03C08AE38093E80010922D059FBF3F
:1042A00081E090E0089581E0828390E080E00895CD
:1042B0009FB7F89433E03093E9003091E4003E5F1B
:1042C00053E07091E80075FD0EC09FBF9091E4002F
:1042D0003917C9F090912F059923A9F09FB7F89449
:1042E0005093E900EECF8093F1006093F10040938A
:1042F000F1002093F1008091E80085FD03C08AE37E
:104300008093E8009FBF08950F93862F642F422F5C
:10431000202F90912F05992311F00F91C9CF0F9164
:1043200008959FB7F89480912F05811102C09FBF17
:10433000089582E08093E9002BE68091E80085FDF6
:1043400003C09FBF80E008958091F100811103C0F8
:104350002093E800F2CF2091E80025FDE8CF2BE67E
:104360002093E800E4CF20912805211105C0D9DF72
:10437000882329F08093280581E090E0089590E05B
:1043800080E008959C0190912805992329F01092CE
:104390002805892F90E00895C901C3DF8111FACF64
:1043A0008FEF9FEF08959C0190912805892F91111F
:1043B00006C0C901B6DF882321F08093280590E06C
:1043C00008958FEF9FEF0895E0E2F5E0128288EE06
:1043D00093E0A0E0B0E083839483A583B683178243
:1043E00088ED92E09183808308950F931F93CF937C
:1043F000DF938230910510F482E090E0E0912B058C
:10440000F0912C0530E020E070E060E0D0E0C0E00A
:10441000B0E0A0E0309799F42115310509F44AC0C5
:10442000281B390B24303105D8F58A819B81611511
:10443000710589F1FB0193838283FE0111C04081E4
:1044400051810281138148175907E0F04817590735
:1044500099F4109761F012960C93129713961C938F
:104460003296CF01DF91CF911F910F910895009364
:104470002B0510932C05F4CF2115310551F042176F
:10448000530738F0A901DB019A01BD01DF01F801F2
:10449000C1CFEF01F9CF90932C0580932B05CDCFA1
:1044A000FE01E20FF31F819391932250310939836A
:1044B0002883D7CF2091290530912A05232B41F459
:1044C000209107013091080130932A052093290596
:1044D00020910501309106012115310541F42DB7D8
:1044E0003EB74091090150910A01241B350BE09120
:1044F0002905F0912A05E217F307A0F42E1B3F0BC4
:104500002817390778F0AC014E5F5F4F2417350745
:1045100048F04E0F5F1F50932A0540932905819361
:1045200091939FCFF0E0E0E09CCFCF93DF93009793
:10453000E9F0FC01329713821282A0912B05B09111
:104540002C05ED0130E020E01097A1F420813181AD
:10455000820F931F2091290530912A0528173907CA
:1045600009F061C0F0932A05E0932905DF91CF910E
:104570000895EA01CE17DF07E8F54A815B819E01C5
:1045800041155105B1F7E901FB83EA83499159913E
:10459000C40FD51FEC17FD0761F48081918102964D
:1045A000840F951FE90199838883828193819B837E
:1045B0008A83F0E0E0E012968D919C91139700972A
:1045C000B9F52D913C911197CD010296820F931F61
:1045D0002091290530912A052817390739F6309797
:1045E00051F510922C0510922B05B0932A05A0933B
:1045F0002905BCCFD383C28340815181840F951F8D
:10460000C817D90761F44E5F5F4F88819981480FC1
:10461000591F518340838A819B8193838283211513
:10462000310509F0B0CFF0932C05E0932B059ECF18
:10463000FD01DC01C0CF13821282D7CFDB018F9343
:104640009F9352D0BF91AF91A29F800D911DA39FC8
:10465000900DB29F900D11240895A1E21A2EAA1B6D
:10466000BB1BFD010DC0AA1FBB1FEE1FFF1FA21722
:10467000B307E407F50720F0A21BB30BE40BF50B1F
:10468000661F771F881F991F1A9469F760957095A8
:10469000809590959B01AC01BD01CF010895052E39
:1046A00097FB16F400940FD057FD05D0D6DF07FC1A
:1046B00002D046F408C050954095309521953F4F63
:1046C0004F4F5F4F089590958095709561957F4FFE
:1046D0008F4F9F4F0895EE0FFF1F0024001C0BBE4D
:1046E0000790F691E02D099409D0A59F900DB49FF5
:1046F000900DA49F800D911D11240895A29FB001DB
:10470000B39FC001A39F700D811D1124911DB29F05
:10471000700D811D1124911D0895FB01DC0102C063
:1047200001900D9241505040D8F708950E94280101
:1047300010E0CCEFD0E003C0FE01CDDF2196CD3FED
:08474000D107D1F7F894FFCF77
:1047480019000000400000300580003C3F3E00009A
:104758000000000000000010211021102110215934
:10476800015A015B01FCFF0000000000005C015DD4
:10477800015E0100000000B402EF0200000000F832
:104788000233030000000000000000102110210087
:1047980000000075037B038403520200000000F34D
:1047A800010C02AB03620142029B0159015A015BF1
:1047B80001A50132073C0A1C0A650B040ABD01F079
:1047C80009FCFF0000080215025C015D015E01F8AA
:1047D800FF00000A021702A6013307F2FF000006D5
:1047E8000219025F01F109000000001B023302AB4D
:1047F80003620142029B0159015A015B01A5013282
:10480800073C0A1C0A650B040ABD01F009FCFF00FD
:1048180000310240025C015D015E01F8FF00002FDB
:10482800023E02A6013307F2FF00002D023C025FA0
:1048380001F109000000006D05A801BB01BC01A73A
:1048480001F101000000000021103B102C0EA80D02
:10485800950D9F0D59015A015B01FCFF00003610B0
:1048680044105C015D015E010000000000000000D2
:10487800102110210000000000000000AB036201BD
:1048880042029B0159015A015B017F13102110213B
:104898001021102110211021FCFF00000000000051
:1048A8005C015D015E01F8FF00000000000080135C
:1048B8001021F2FF0000000000005F01102100003D
:1048C80000000000000010211021102110215901C2
:1048D8005A015B0100000000F516FB165C015D0142
:1048E8005E0100000000041718177317AB17C917EB
:1048F800D9177714F114551472179C17C817D817BD
:1049080065146B15B015FCFF000023172117AE15B1
:10491800F415751400000000262195207C13112140
:06492800B321C221D321DE
:00000001FF
