:1000000002C100000C9417160C9448160C94791633
:100010000C94AA160C94DB160C940C170C943D1738
:100020000C946E171AC100000C94E3190C944D1A2D
:1000300014C1000012C1000010C100000EC1000078
:100040000CC100000AC1000008C1000006C1000088
:1000500004C1000002C1000000C100000C9442195C
:10006000FCC00000FAC00000F8C00000F6C00000AC
:10007000F4C00000F2C00000F0C00000EEC00000BC
:10008000ECC00000EAC00000E8C00000E6C00000CC
:10009000E4C00000E2C00000012902290429082967
:1000A0001029202940298029012C022C0126022612
:1000B000042608261026202640268026402C802C48
:1000C0000123022304230823102320234023802319
:1000D0000120022004200820102020204020802021
:1000E000102C202C012F022F042F082F102F202F2F
:1000F000402F802F7EFE7EFD7EFB7EF77EEF7EDF33
:100100007EBF7E7F00010000E00112000200004C73
:10011000017300220100BF012100210100A8010993
:1001200000030000480104010309042E011818030C
:100130005400650065006E007300790020004D00DA
:100140004900440049000000040309040902730047
:10015000020100C03209040000020103000007246C
:1001600001000141000624020101000624020202EE
:100170000009240301030102010009240302040110
:1001800001010009050402400000000005250101ED
:100190000109058302400000000005250101030953
:1001A00004010002030000000921110100012221C5
:1001B0000007058103400001070502032000020635
:1001C000C9FF0904A15C7508150026FF00954009C8
:1001D00075810295200976910295040976B102C0D5
:1001E0001201000200000040C016850472020001E6
:1001F000000101C13601C026018136018036570752
:10020000CF0EDB1C6B0711241FBECFEFD0E2DEBF89
:10021000CDBF12E0A0E0B1E0EAE6FCE300E00BBFF6
:1002200002C007900D92A63CB107D9F724E0A6ECD6
:10023000B2E001C01D92AC3DB207E1F710E0C2E0B0
:10024000D1E004C02197FE010E94151ECF3FD107C7
:10025000C9F70E94EE1B0C94271ED2CEA091C602B5
:10026000B091C702109709F40895ED91FC91119790
:1002700012968D919C919093C7028093C602099526
:10028000EDCFCF93DF93EC0184E090E00E94EC1C73
:10029000009791F0FC01D183C0832091C602309178
:1002A000C702338322839093C7028093C60290E0F3
:1002B00080E0DF91CF91089581E090E0FACF08953A
:1002C000089508950895089508958AE091E00895A5
:1002D000CF93DF93CDB7DEB72A970FB6F894DEBF82
:1002E0000FBECDBF2E833F83488759876A8725E09D
:1002F000FE013696DE01119601900D922A95E1F7E6
:1003000028853985232BA1F0DC01ED91FC91028C2D
:10031000F38DE02D29813A814B815C816D812A9694
:100320000FB6F894DEBF0FBECDBFDF91CF91099419
:100330002A960FB6F894DEBF0FBECDBFDF91CF91E6
:100340000895683F38F0DC01ED91FC91048CF58D47
:10035000E02D099408950895089508950F931F932B
:10036000CF93DF9300D000D01F92CDB7DEB70F90B0
:100370000F900F900F900F90DF91CF911F910F91E1
:1003800008950895089508950C94F41B2EE331E028
:10039000FC013183208324E631E03583248322E786
:1003A00031E0318720872EE731E0378726870C94AC
:1003B000EA0E0E97EBCF0497E9CF0897E7CFCF93DC
:1003C000DF93EC01E3DFCE01DF91CF910C94F41BBE
:1003D0000497F5CF0897F3CF0E97F1CF2AE831E0D5
:1003E000FC013183208320EB31E0358324832EEB25
:1003F00031E0318720872AEC31E037872687C6CF66
:100400000E97ECCF0897EACF0497E8CFCF93DF930E
:10041000EC01E4DFCE01DF91CF910C94F41B0E9739
:10042000F5CF0897F3CF0497F1CF242F287F203FF3
:1004300059F4403F49F06F77DC01ED91FC91008C5D
:10044000F18DE02D5F7709940895832F922F907F8F
:10045000903919F0903E81F008952F7030E030937C
:10046000DF022093DE028093ED024093EC02809342
:10047000EB024093EA02089590E8499FA0011124FD
:10048000432B2F70822F90E09093E1028093E00243
:10049000211107C0569547955093E9024093E80211
:1004A0000895213039F4569547955093E7024093CB
:1004B000E6020895223039F4569547955093E502A7
:1004C0004093E4020895233031F4569547955093B4
:1004D000E3024093E2020895CF93DF93FC0186E3A9
:1004E00091E091838083309781F08091C802909150
:1004F000C90222813381A481B581E817F90741F04F
:100500002115310529F4109729F4DF91CF91089531
:10051000109721F013963C932E9312972091CA02C4
:100520003091CB02E217F30721F4B093CB02A093F2
:10053000CA02C281D381209711F0BD83AC83E81732
:10054000F90719F7D093C902C093C802DECFCF9341
:10055000DF93EC01C1DFCE01DF91CF910C94F41B4E
:1005600020E8240F203748F46F77DC01ED91FC91EF
:100570000688F789E02D5F77099408950F931F93FC
:10058000211119C09B016115704214F02FEF3FE15A
:10059000211550EE350714F420E030EE305E89016D
:1005A000000F012F001F110B2F7741504F70406E2D
:1005B0006EE00E947B1C1F910F9108958091DE04D4
:1005C000882359F18FB7F89493E09093E9009091C4
:1005D000E4009E5F23E03091E80035FD0EC08FBF40
:1005E0008091E4008917C9F08091DE048823A9F086
:1005F0008FB7F8942093E900EECF4093F100509329
:10060000F1006093F1007093F1009091E80095FD86
:1006100003C09AE39093E8008FBF0895CF93DF93D0
:10062000FC01138212821782168282E191E091838B
:10063000808388E291E095838483CF0108961386B6
:1006400012861586148626E331E0318720872091B3
:10065000C8023091C902232B21F49093C9028093E0
:10066000C802A091CA02B091CB02B587A4871097A7
:1006700021F013969C938E9312979093CB028093C4
:10068000CA0213861286118A108A8091E201138AA7
:10069000148A158A868B178A808D807F808F818D42
:1006A000807F818FDF015A9683E8ED0119928A9548
:1006B000E9F7A058BF4F11961C921E9212961C92F9
:1006C00011961D921D921D921C921397D49680E153
:1006D000ED0119928A95E9F750961C928AE891E00B
:1006E0009183808380EB91E0958384838EEB91E00E
:1006F000918780878AEC91E097878687DF91CF91F9
:10070000089587ED92E014D480ED92E011D48CEC42
:1007100092E09093FF028093FE028091FC039091FF
:10072000FD030C94300DFF920F931F93CF93DF9333
:100730008C010D5E1F4FC8010E94D915C82F811171
:100740000AC084E0F82EDBE68FB7F8949091DE04BF
:10075000911108C08FBF8C2FDF91CF911F910F9106
:10076000FF900895F092E9009091E80095FD05C092
:1007700092FFF0CFD093E800F7CF4091F100509175
:10078000F1006091F1007091F1009091E80095FF07
:10079000D093E8008FBF4423F1F2C8010E941A15DC
:1007A000882391F2C82FD7CFBF92CF92DF92EF92DA
:1007B000FF920F931F93CF93DF93CDB7DEB72A97A6
:1007C0000FB6F894DEBF0FBECDBF633009F491C001
:1007D000A8F4613069F1623009F440C02A960FB67E
:1007E000F894DEBF0FBECDBFDF91CF911F910F9167
:1007F000FF90EF90DF90CF90BF900895643071F13B
:10080000653061F7FC0143895489658976892A96A8
:100810000FB6F894DEBF0FBECDBFDF91CF911F9111
:100820000F91FF90EF90DF90CF90BF900C946A0FE4
:10083000FC0143895489658976892A960FB6F89414
:10084000DEBF0FBECDBFDF91CF911F910F91FF9003
:10085000EF90DF90CF90BF900C94110F8C017C0132
:10086000F3E1EF0EF11CFC01818D8F7093E8B92E3E
:100870009701B89E200D311D1124C90107960E94D1
:1008800081146C01F801818D8F709701B89E200D45
:10089000311D1124C90107960E948214F801218D8F
:1008A0002F70DA82C9829C838B838D81807F822B1B
:1008B0008D8385E0FE013196DE01169601900D9242
:1008C0008A95E1F72E813F81488559856A85C8015F
:1008D0002A960FB6F894DEBF0FBECDBFDF91CF9141
:1008E0001F910F91FF90EF90DF90CF90BF900C94ED
:1008F000370FFC016789708D2A960FB6F894DEBF1A
:100900000FBECDBFDF91CF911F910F91FF90EF9060
:10091000DF90CF90BF900C94900FCF92DF92EF9228
:10092000FF920F931F93CF93DF93EC016C0124E0B0
:10093000C20ED11CC6010E9489117E012EE0E20E7A
:10094000F11C209711F4F12CE12C8E159F0521F458
:10095000B701C6010E947A11CE01E5DE182F00E032
:10096000112371F0612FCE011FDF143039F01230E6
:1009700009F400E0CE01D7DE182FF2CF01E0FACF64
:10098000002361F0B701C601DF91CF911F910F9154
:10099000FF90EF90DF90CF900C946B11DF91CF918F
:1009A0001F910F91FF90EF90DF90CF900895B5CFFA
:1009B0000897B3CF0F9387ED92E0BFD280ED92E01E
:1009C000BCD28EEE92E0A9DF8091FC039091FD03F2
:1009D0000E94850E87ED92E01BD3019709F066C057
:1009E0000091EC020F772091ED022F7740E969E04A
:1009F00085E694E00E947B1C81E08093CF0280ED2D
:100A000092E006D3019709F066C00091EA020F77E1
:100A10002091EB022F7741E969E085E694E00E949E
:100A20007B1C81E08093CE028091CF02882309F461
:100A300067C08091DE029091DF02892B49F46091BA
:100A4000E8027091E90220E041E085E694E096DD5D
:100A50008091DE029091DF02019749F46091E602F5
:100A60007091E70220E041E085E694E087DD809127
:100A7000DE029091DF02029749F46091E4027091E6
:100A8000E50220E041E085E694E078DD8091DE0239
:100A90009091DF020397A1F56091E2027091E30269
:100AA00020E041E085E694E00F9168CD87ED92E08B
:100AB000AFD2029709F0A3CF1092CF020091EC02BF
:100AC0000F772091ED022F7740E868E085E694E00B
:100AD0000E947B1C94CF80ED92E09AD2029709F09D
:100AE000A3CF0091EA020F772091EB022F7741E824
:100AF00068E085E694E00E947B1C1092CE0294CFC1
:100B00000F910895CF92DF92EF92FF921F93CF93B0
:100B1000DF93EC010496BE01625F7F4F209711F4D2
:100B200070E060E00E947A110FB6F894C0905D0406
:100B3000D0905E04E0905F04F09060040FBE0FB6AA
:100B4000F89480915D0490915E04A0915F04B0914F
:100B500060040FBE8C199D09AE09BF09843F914006
:100B6000A105B10550F4CE01DEDD182F682FCE01AE
:100B70001BDE1430C9F2123011F7DF91CF911F91B3
:100B8000FF90EF90DF90CF900895BCCF0E97BACF33
:100B9000EF920F937E2DDC01ED91FC91962F9295B3
:100BA000907F492B522F602FCF0142960F91EF90EB
:100BB00005CDEF920F93CF93DF9300D0CDB7DEB783
:100BC000262F9A838983E12C00E04FE0672FCE0126
:100BD0000196DEDF0F900F90DF91CF910F91EF9094
:100BE0000895EF920F93CF93DF9300D0CDB7DEB788
:100BF000242F052FE62E672F9A83898343E0223F17
:100C000031F0E12C42E0243F10F000E045E0CE015D
:100C10000196BEDF0F900F90DF91CF910F91EF9073
:100C20000895EF920F93CF93DF9300D0CDB7DEB747
:100C3000242F9A838983842F90E034E095958795BB
:100C40003A95E1F7E62E052F482F672FCE01019642
:100C50009FDF0F900F90DF91CF910F91EF9008954C
:100C6000EF920F93FC01CA01E2800181208144E0F0
:100C70008FDF0F91EF900895EF920F931F93FB0179
:100C8000622FC80142305105A1F04330510541F0B7
:100C90004130510551F4E12C00E0208145E004C0D1
:100CA000E2800181208147E073DF1F910F91EF9077
:100CB0000895E12C0181208146E0F6CF2F923F92EA
:100CC0004F925F926F927F928F929F92AF92BF925C
:100CD000CF92DF92EF92FF920F931F93CF93DF9308
:100CE00000D000D000D0CDB7DEB76C0129833A83A5
:100CF0004B835C836D83AB80BC80A114B10409F489
:100D000043C06E83962F9F7029803A80492F50E010
:100D1000F10180812601440E551E803F11F4F2013D
:100D200010AAD10175013201F0E36F0E711C9A0116
:100D3000220F331F240F351F2C0D3D1D4D01F301D4
:100D40005081533008F07CC081E0850F80834D9145
:100D5000F901E50FF11D4083F1E0EF1AF10871F799
:100D6000A20CB31CF50131972081273F31F5482FA4
:100D700050E0B60123E0929F600D711D11242E8179
:100D8000C6017ADFF301108226960FB6F894DEBF13
:100D90000FBECDBFDF91CF911F910F91FF90EF90CC
:100DA000DF90CF90BF90AF909F908F907F906F908B
:100DB0005F904F903F902F900895833029F7A801BE
:100DC0006E819601989F200D311D1124C90148DFC5
:100DD000D9CFA20CB31CF50131978081873F49F030
:100DE00043E0E416F10469F4A8016E81C40138DF20
:100DF00005C02E81A701B401C6013EDFF20110AA91
:100E0000C3CFF201E0AAA701B401C30126960FB631
:100E1000F894DEBF0FBECDBFDF91CF911F910F9130
:100E2000FF90EF90DF90CF90BF90AF909F908F900A
:100E30007F906F905F904F903F902F900C941E1E6C
:100E40003601F3E09F9F600C711C1124A8016E8194
:100E5000C30106DFF4E0EF16F10408F4BACFA801ED
:100E60006E81C401FDDE23E0820E911C33E0E31AA3
:100E7000F108F0CF0F931F93CF93DF9300D000D0F2
:100E800000D01F92CDB7DEB79A8389838E010F5FA2
:100E90001F4F8F559F4F12DF27960FB6F894DEBF76
:100EA0000FBECDBFDF91CF911F910F9108958EEEB0
:100EB00092E0B4DB61E070E087ED92E02DD068E174
:100EC00070E080ED92E028D086ED91E09093CD0225
:100ED0008093CC0208958EEE92E080CA569A5E9A74
:100EE00062E370E080E090E00E9482195E9862E325
:100EF00070E080E090E00E9482195E9A62E370E008
:100F000080E090E00E9482195E9862E573E080E0E4
:100F100090E00E948219E3CFFC017183608382819B
:100F20008F608F7E828313821482158216820895C9
:100F300062E0FC0180819181EDC08F929F92AF921F
:100F4000BF92CF92DF92EF92FF92CF93DF93EC01AB
:100F50008881998116D19A8194FB332730F921E059
:100F6000381301C020E00FB6F89440915D04509111
:100F70005E0460915F04709160040FBE92FF1DC01B
:100F80008B819C81AD81BE814A015B01881A990ADF
:100F9000AA0ABB0A91E0C0900001D0900101E09044
:100FA0000201F0900301C814D904EA04FB0408F418
:100FB00090E08A8190FB82F98A839A81892F8170DF
:100FC00092FD24C0922F880F892B382F33709A817D
:100FD0009C7F932B9A8393FB332730F9321741F090
:100FE000946020FB93F99A834B835C836D837E83AB
:100FF000082E000C990BDF91CF91FF90EF90DF90BE
:10100000CF90BF90AF909F908F900895982FDBCF97
:10101000FC018281837090E00895CF93DF93C091AB
:10102000D003D091D103209759F0E881F981008C49
:10103000F18DE02DCE0109950A80DB81C02DF3CF23
:10104000DF91CF910895CF93DF93C091D003D091DA
:10105000D103209759F0E881F981028CF38DE02DBE
:10106000CE0109950A80DB81C02DF3CFDF91CF91AE
:101070000895CF93DF93C091D003D091D1032097EF
:1010800059F0E881F981048CF58DE02DCE010995A8
:101090000A80DB81C02DF3CFDF91CF910895FC0151
:1010A000828593850895FC0180859185089580ED62
:1010B00093E00895EF92FF920F931F93CF93DF93E6
:1010C0008C01F5DFFC01C081D1812097A1F0CE0118
:1010D000EADF0817190778F0CE01E1DF7C01CE01C5
:1010E000E2DF0817190718F00E151F0530F00A8007
:1010F000DB81C02DEACFD0E0C0E0CE01DF91CF91FF
:101100001F910F91FF90EF900895D4DF009709F49D
:10111000E5CE0895CF92DF92EF92FF921F93CF9387
:10112000DF93811520E8920721F18633910548F479
:10113000DF91CF911F91FF90EF90DF90CF900C94B3
:101140004A18162FEC01E1DF7C01DC01ED91FC91E6
:10115000C480D580A8DFBE01681B790B412FC70171
:10116000F601DF91CF911F91FF90EF90DF90CF902C
:101170000994DF91CF911F91FF90EF90DF90CF9076
:101180000895EF92FF920F931F93CF93DF938115F2
:1011900020E8920719F18633910558F4FC010E946A
:1011A00051188E2FDF91CF911F910F91FF90EF90EB
:1011B0000895EC01AADF8C01DC01ED91FC91E4843F
:1011C000F58471DFBE01681B790BC801F701DF915F
:1011D000CF911F910F91FF90EF90099480E0E2CFA3
:1011E000DC015496ED91FC91309719F0CB01BA01D6
:1011F00009940895DC015696ED91FC91309711F019
:10120000CB01099408950F931F93CF93DF93CDB72C
:10121000DEB72A970FB6F894DEBF0FBECDBF2E8380
:101220003F83488759876A87DC015296ED91FC918C
:10123000309709F04AC085E0FE013696DE0111962E
:1012400001900D928A95E1F70091D8031091D9038E
:101250000115110509F442C0D801ED91FC910284F9
:10126000F385E02D29813A814B815C816D81C80134
:101270000995882309F447C0D8011496ED91FC9193
:101280001597309759F18481958112962D913C9153
:10129000009779F1DC0113961C930E931297338318
:1012A000228315830483D8011396FC93EE9312973F
:1012B00015969C938E93149721153105F9F0D90159
:1012C0001596FC93EE93149709C04E815F81688553
:1012D00079858A850995882309F4ADCF2A960FB6BA
:1012E000F894DEBF0FBECDBFDF91CF911F910F915C
:1012F00008951093D9030093D803D1CFF093DB0363
:10130000E093DA03EBCFF80102811381A1CFEF92D2
:10131000FF920F931F93CF93DF938A01F62EE72E50
:10132000DC015096ED91FC913097C1F4802F807FC5
:10133000803B09F045C0193779F5C091E803D09199
:10134000E9032097C1F0E881F9810680F781E02D5B
:10135000CE0109950A80DB81C02DF3CFBA018F2D14
:101360009E2D0995882311F3DF91CF911F910F9145
:10137000FF90EF900895C091E003D091E103209792
:1013800099F3E881F9810680F781E02DCE01099576
:101390000A80DB81C02DF3CF1B3709F0D9C0C09183
:1013A000F003D091F1032097F9F2E881F9810680EA
:1013B000F781E02DCE0109950A80DB81C02DF3CFA6
:1013C000813BE8F5803929F0803A09F484C08038FF
:1013D00059F6C091F003D091F103209729F2E881EA
:1013E000F9810284F385E02DA8016F2D7E2DCE01B9
:1013F0000995882309F46BC0EC81FD81309709F4CD
:10140000B3CF848195812A813B81009709F455C02F
:10141000DC011396DC93CE93129733832283D5831A
:10142000C483FB83EA839D838C832115310509F4F2
:1014300049C0D9011596FC93EE93149795CF803D42
:1014400009F4CCC0803E09F406C1803C09F08CCF81
:10145000C091E403D091E503209709F485CFE8819A
:10146000F9810284F385E02DA8016F2D7E2DCE0138
:101470000995882309F4AEC0EC81FD81309709F409
:1014800073CF848195812A813B81009709F49DC0A7
:10149000DC011396DC93CE93129733832283D5839A
:1014A000C483FB83EA839D838C832115310509F670
:1014B000F093E703E093E60357CFD093F103C09393
:1014C000F003ABCFF093F303E093F2034DCF0A8028
:1014D000DB81C02D82CFC091EC03D091ED0320972A
:1014E00009F442CFE881F9810284F385E02DA80157
:1014F0006F2D7E2DCE010995882331F1EC81FD8180
:10150000309709F431CF848195812A813B810097FE
:10151000B1F0DC011396DC93CE93129733832283D0
:10152000D583C483FB83EA839D838C832115310596
:1015300009F07FCFF093EF03E093EE0315CFD09344
:10154000ED03C093EC03EACF0A80DB81C02DC7CF47
:10155000C091E803D091E903209709F405CFE88111
:10156000F9810284F385E02DA8016F2D7E2DCE0137
:101570000995882331F1EC81FD81309709F4F4CE8F
:10158000848195812A813B810097B1F0DC0113961B
:10159000DC93CE93129733832283D583C483FB835A
:1015A000EA839D838C832115310509F042CFF093A6
:1015B000EB03E093EA03D8CED093E903C093E803AA
:1015C000EACF0A80DB81C02DC7CFD093E503C0935B
:1015D000E40363CF0A80DB81C02D3ECFC091E003DE
:1015E000D091E103209709F4BFCEE881F98102840C
:1015F000F385E02DA8016F2D7E2DCE01099588235E
:1016000031F1EC81FD81309709F4AECE8481958172
:101610002A813B810097B1F0DC011396DC93CE93D5
:10162000129733832283D583C483FB83EA839D830C
:101630008C832115310509F0FCCEF093E303E09390
:10164000E20392CED093E103C093E003EACF0A8095
:10165000DB81C02DC7CFC091DC03D091DD03209783
:1016600009F482CEE881F9810284F385E02DA80196
:101670006F2D7E2DCE010995882331F1EC81FD81FE
:10168000309709F471CE848195812A813B8100973E
:10169000B1F0DC011396DC93CE931297338322834F
:1016A000D583C483FB83EA839D838C832115310515
:1016B00009F0BFCEF093DF03E093DE0355CED09365
:1016C000DD03C093DC03EACF0A80DB81C02DC7CFE6
:1016D000CF93DF93EC0182E191E09983888388E2E4
:1016E00091E09D838C83CE010496D8D6CE01DF9104
:1016F000CF91BDC60497ECCFCF93DF93EC0187EE7B
:1017000091E0998388838DEF91E09D838C83CE0156
:101710008C96D3D6CE014896D0D6CE01DF91CF910C
:10172000D7CF0497E9CF86E094E0E6CFCF93DF935D
:10173000EC01E2DFCE01DF91CF910C94F41B049712
:10174000F5CFCF93DF93EC01C3DFCE01DF91CF91D3
:101750000C94F41B0497F5CF8091FE038111A9C06E
:101760008EEF93E00E94F51B892B09F4A2C0109222
:1017700009041092080410920D0410920C0487EED4
:1017800091E090930704809306048DEF91E090938D
:101790000B0480930A048AE191E4A0E0B0E0809316
:1017A0000E0490930F04A0931004B09311040E94B0
:1017B000A2196A51714481099109609312047093CE
:1017C000130480931404909315041092170410923C
:1017D0001604109219041092180410921B0410920F
:1017E0001A0410921D0410921C04109221041092ED
:1017F0002004109225041092240425E832E030934E
:101800001F0420931E0489EA92E09093230480939E
:101810002204109227041092260410922904109298
:10182000280444E254E050932B0440932A0440E2FD
:1018300054E050932D0440932C0410922F041092E6
:101840002E0410923104109230041092350410923C
:1018500034041092390410923804309333042093E6
:101860003204909337048093360410923B04109214
:101870003A0410923D0410923C0488E394E0909363
:101880003F0480933E0484E394E09093410480936A
:1018900040041092430410924204109245041092A6
:1018A00044048EEF93E00E94FE1B83E99BE00E94BC
:1018B000410186E094E00895EF92FF920F931F9309
:1018C000CF93DF93EC018E819F81892B39F58A813B
:1018D0009B81892B19F56ED28C01892B09F4FEDAD4
:1018E0007E0188E1E80EF11CB701CE012CD5B701CD
:1018F000C801049648D57E018CE2E80EF11CB701C0
:10190000CE01049640D5B701C8011DD581E0DF9115
:10191000CF911F910F91FF90EF90089580E0F7CF46
:10192000CF93DF93C091F003D091F103209759F04A
:10193000E881F9810084F185E02DCE0109950A80C6
:10194000DB81C02DF3CFC091EC03D091ED03209744
:1019500059F0E881F9810084F185E02DCE010995E7
:101960000A80DB81C02DF3CFC091E803D091E90359
:10197000209759F0E881F9810084F185E02DCE01AE
:1019800009950A80DB81C02DF3CFC091E403D0918B
:10199000E503209759F0E881F9810084F185E02D75
:1019A000CE0109950A80DB81C02DF3CFC091E00301
:1019B000D091E103209759F0E881F9810084F18505
:1019C000E02DCE0109950A80DB81C02DF3CFC091B7
:1019D000DC03D091DD03209759F0E881F981008480
:1019E000F185E02DCE0109950A80DB81C02DF3CF72
:1019F000C091D803D091D903209759F0E881F9819B
:101A00000084F185E02DCE0109950A80DB81C02D8F
:101A1000F3CFDF91CF910895CF93DF93C091460428
:101A2000D09147042097C9F08E819F810A80DB8185
:101A3000C02D209729F02E813F818217930759F0FE
:101A4000DC01ED91FC910484F585E02D099520974A
:101A500021F02E813F81C901E9CFDF91CF91089517
:101A6000CF92DF92EF92FF920F931F93CF93DF936A
:101A70008C0122DFD2DAC091C802D091C90220972E
:101A800059F0E881F9810480F581E02DCE010995B6
:101A90000A80DB81C02DF3CFC091F803D091F90308
:101AA000209759F0E881F9810480F581E02DCE017D
:101AB00009950A80DB81C02DF3CFC801ADDFC0914D
:101AC000F003D091F103209759F0E881F981048067
:101AD000F581E02DCE0109950A80DB81C02DF3CF81
:101AE000C091EC03D091ED03209759F0E881F98182
:101AF0000480F581E02DCE0109950A80DB81C02D9F
:101B0000F3CFC091E803D091E903209759F0E88121
:101B1000F9810480F581E02DCE0109950A80DB81F1
:101B2000C02DF3CFC091E403D091E503209759F085
:101B3000E881F9810480F581E02DCE0109950A80C4
:101B4000DB81C02DF3CFC091E003D091E10320975A
:101B500059F0E881F9810480F581E02DCE010995E5
:101B60000A80DB81C02DF3CFC091DC03D091DD036F
:101B7000209759F0E881F9810480F581E02DCE01AC
:101B800009950A80DB81C02DF3CFC091D803D09195
:101B9000D903209759F0E881F9810480F581E02D7F
:101BA000CE0109950A80DB81C02DF3CFC091F403EB
:101BB000D091F503209759F0E881F9810480F581EF
:101BC000E02DCE0109950A80DB81C02DF3CFC091B5
:101BD000D403D091D503209759F0E881F98104808E
:101BE000F581E02DCE0109950A80DB81C02DF3CF70
:101BF0000E94A219F801C084D184E284F3846C1994
:101C00007D098E099F096487758786879787DF918D
:101C1000CF911F910F91FF90EF90DF90CF9008959B
:101C2000DF92EF92FF920F931F93CF93DF93C091B8
:101C30004604D0914704209749F10E811F817E010F
:101C4000D12CE881F9810680F781E02DCE0109953C
:101C5000D82A0A80DB81C02D2097B1F08E819F8128
:101C600008171907D9F48C01ECCFD801ED91FC913C
:101C70000288F389E02DC8010995209739F08E81FB
:101C80009F817E01D12CEFCFD1100AC0DF91CF917F
:101C90001F910F91FF90EF90DF900895DD2079F371
:101CA000D801ED91FC910684F785E02DC8010995D6
:101CB000D801ED91FC910088F189E02DC8010995CA
:101CC000CE15DF0591F2D701ED91FC910480F581ED
:101CD000E02DC7010995F701E280F380F1CFCF93A2
:101CE000DF93C091C802D091C902209759F0E881D2
:101CF000F9810680F781E02DCE0109950A80DB810C
:101D0000C02DF3CFDF91CF910895CF92DF92EF9264
:101D1000FF920F931F93CF93DF93EC01AAD9009109
:101D2000F4031091F5030115110561F0D801ED914F
:101D3000FC910680F781E02DC8010995F801028128
:101D40001381F1CFCCDFCE01EBDD0E94A219CC8450
:101D5000DD84EE84FF84088519852A853B85AB01E7
:101D6000BC014C195D096E097F09401751076207D4
:101D7000730760F0D701C601800F911FA21FB31F28
:101D80008C879D87AE87BF87CE014ADFDF91CF91D9
:101D90001F910F91FF90EF90DF90CF9054C9DCDC42
:101DA0009093FD038093FC03089590E080E00895F4
:101DB0000895089580914A0490914B04009749F446
:101DC0002091CA023091CB022115310511F0C901D1
:101DD00008970895CF93DF93EC0187E192E0998310
:101DE00088838BE392E09D838C8389E492E09987DA
:101DF000888785E592E09F878E87DCDFC817D90743
:101E000021F410924B0410924A048BE092E09987DF
:101E10008887CE0108960E946C02CE01DF91CF9197
:101E200057CCCF92DF92EF92FF92CF93DF93EC01EA
:101E30006A017B01049636D488899989009781F0DC
:101E4000DC01ED91FC910190F081E02DA70196015C
:101E5000BE01DF91CF91FF90EF90DF90CF9009947A
:101E6000DF91CF91FF90EF90DF90CF900895EF92A8
:101E7000FF920F931F93CF93DF9300D000D01F9258
:101E8000CDB7DEB77C0129833A834B835C836D83B6
:101E9000C701049656D4D70150968D919C91009716
:101EA00069F0DC01ED91FC910280F381E02D098164
:101EB0001A812B813C814D81B70109950F900F90BC
:101EC0000F900F900F90DF91CF911F910F91FF9086
:101ED000EF900895CF92DF92EF92FF92CF93DF932E
:101EE000EC016A017B0104967CD48889998900976A
:101EF00081F0DC01ED91FC910480F581E02DA701DA
:101F00009601BE01DF91CF91FF90EF90DF90CF90CF
:101F10000994DF91CF91FF90EF90DF90CF900895DB
:101F20000F931F93CF93DF93EC018B01049693D40F
:101F300088899989009769F0DC01ED91FC91068010
:101F4000F781E02DA801BE01DF91CF911F910F9184
:101F50000994DF91CF911F910F910895DC0118969C
:101F60008D919C91009739F0DC01ED91FC910088F6
:101F7000F189E02D099490E080E00895DC011A9643
:101F80008D919C91009739F0DC01ED91FC910084DA
:101F9000F185E02D099490E080E008950497EECF5C
:101FA000EF92FF920F931F93CF93DF93EC018B017E
:101FB0007A0188899989009729F06817790711F0C3
:101FC0000E946E07198B088BEC85FD8580819181BD
:101FD000009781F02A853B852E153F0559F4DC01D9
:101FE000ED91FC910484F585E02DAE014C5F5F4FCF
:101FF000B801099588859985009759F0DC01ED9124
:10200000FC910484F585E02DAE014C5F5F4FB80173
:1020100009958A859B850097D9F0E816F906C1F0E5
:102020006A897B896115710541F0DC01ED91FC91B4
:102030000680F781E02DAE0109958A859B85DC013C
:10204000ED91FC910480F581E02DAE01B801099578
:10205000EE85FF85808191810097A9F09C012C5F1E
:102060003F4FE216F30679F0DC01ED91FC91048C10
:10207000F58DE02DAE01B801DF91CF911F910F9149
:10208000FF90EF900994DF91CF911F910F91FF90F6
:10209000EF900895EF92FF920F931F93CF93DF93EA
:1020A000EC018B017A0188899989009729F06817DA
:1020B000790711F00E946E07198A188AEC85FD8550
:1020C00080819181009781F02A853B852E153F05FF
:1020D00059F4DC01ED91FC910684F785E02DAE0109
:1020E0004C5F5F4FB801099588859985009759F035
:1020F000DC01ED91FC910684F785E02DAE014C5F8B
:102100005F4FB80109958A859B850097D9F0E8163D
:10211000F906C1F0DC01ED91FC910680F781E02D1C
:10212000AE01B80109956A897B896115710551F085
:102130008A859B85DC01ED91FC910480F581E02D81
:10214000AE010995EE85FF85808191810097A9F008
:102150009C012C5F3F4FE216F30679F0DC01ED9114
:10216000FC91068CF78DE02DAE01B801DF91CF9187
:102170001F910F91FF90EF900994DF91CF911F91E4
:102180000F91FF90EF9008950F931F93CF93DF93DC
:10219000EC01888599858417950711F58B01798B5A
:1021A000688B8A859B85009741F0DC01ED91FC915D
:1021B0000480F581E02DAE010995EE85FF858081D3
:1021C00091810097F9F0DC01ED91FC91048CF58D83
:1021D000E02DAE01B801DF91CF911F910F910994CD
:1021E0008A899B89892B71F47B8B6A8B8A859B8575
:1021F000009741F0DC01ED91FC910480F581E02D28
:10220000AE01E9CFDF91CF911F910F91089504970F
:10221000BBCF0F931F93CF93DF93EC018B01888586
:1022200099858417950709F5198A188A8A859B85E7
:10223000009741F0DC01ED91FC910680F781E02DE3
:10224000AE010995EE85FF8580819181009701F1AE
:10225000DC01ED91FC91068CF78DE02DAE01B8010B
:10226000DF91CF911F910F9109946A897B89601743
:10227000710771F41B8A1A8A8A859B85009741F041
:10228000DC01ED91FC910680F781E02DAE01E8CFF5
:10229000DF91CF911F910F9108950497BACFDC0180
:1022A0001296ED91FC911397309731F011861086BC
:1022B00013961C921E9212970895DC011296ED91CE
:1022C000FC911397309731F01386128613961C9267
:1022D0001E9212970895FC01A281B381109749F0D4
:1022E000ED91FC9111970484F585E02DAC01CD01B1
:1022F00009940895FC01A281B381109749F0ED91F2
:10230000FC9111970684F785E02DAC01CD0109946D
:102310000895DC011296ED91FC91309739F0808997
:102320009189009729F482899389089590E080E04B
:102330000895FC0120853185232B11F00E946E0742
:102340007187608708950F931F93CF93DF93EC01FC
:102350008B018A819B81009751F4BE01C801E9DF9E
:102360001B830A83DF91CF911F910F910895EC0198
:10237000F0CFFC0122853385232B11F00E946E07DC
:102380007387628708950F931F93CF93DF93EC01B8
:102390008B018A819B81009751F4BE01C801E9DF5E
:1023A0001B830A83DF91CF911F910F910895EC0158
:1023B0002496EFCFEF92FF920F931F93CF93DF936B
:1023C000EC01088519850115110571F0EE85FF8571
:1023D000E080F180E114F10439F0C80160DFCE0142
:1023E0005EDFB701C801AFDF0A851B850115110546
:1023F00079F0EC85FD85E080F180E114F10441F095
:10240000C8015BDFCE01049658DFB701C801BBDF0E
:1024100088859985009709F042DF8A859B8500971A
:1024200009F04BDFEE85FF8580819181892B31F4A6
:10243000EC85FD8580819181892B11F00E946E07CA
:10244000DF91CF911F910F91FF90EF900895CF935F
:10245000DF93EC018A819B81009731F0F8DF8A815C
:102460009B81A8DF1B821A82DF91CF91089521E61C
:1024700032E0FC0131832083EACFCF93DF93EC017C
:102480008A819B81009739F00496F7DF8A819B81CE
:1024900091DF1B821A82DF91CF91089527E732E006
:1024A000FC0131832083E9CFCF93DF93EC01F6DF8A
:1024B000CE01DF91CF910C94F41BCF93DF93EC010D
:1024C00085E892E09983888389EA92E09D838C83F2
:1024D000CE0170DFCE010496E1DFCE01DF91CF9116
:1024E000C6CFCF93DF93EC01E8DFCE01DF91CF9130
:1024F0000C94F41B0497F5CF0497DFCF1F93CF9371
:10250000DF93EC0188899989009741F48A899B8936
:10251000892B31F4DF91CF911F910895019621F11C
:102520008A899B89019601F11BE088899989009726
:1025300021F42A893B89232B69F3115059F3009721
:1025400039F0DC01ED91FC910680F781E02D0995D1
:102550008A899B89009749F3DC01ED91FC91068003
:10256000F781E02D0995E1CF0E946E07FC01828181
:102570009381009709F0C2CF0895DC0118968D91E0
:102580009C91009739F0DC01ED91FC910480F5817C
:10259000E02D09940895F1CFF0CFCF93DF9300D0D1
:1025A00000D01F92CDB7DEB729833A834B835C837B
:1025B0006D83DC0118968D919C91009771F0DC0180
:1025C000ED91FC910680F781E02D0F900F900F9018
:1025D0000F900F90DF91CF9109940F900F900F9073
:1025E0000F900F90DF91CF910895CF93DF9300D09C
:1025F00000D01F92CDB7DEB70F900F900F900F90C5
:102600000F90DF91CF91C9CFCF93DF9300D000D04F
:102610001F92CDB7DEB70F900F900F900F900F90D5
:10262000DF91CF91BACFDC0118968D919C910097E4
:1026300039F0DC01ED91FC910084F185E02D0994E5
:102640000895F1CFF0CFDC0118968D919C91009701
:1026500039F0DC01ED91FC910284F385E02D0994C1
:102660000895F1CFF0CFCF92DF92EF92FF92CF9308
:10267000DF93EC016A017B01EC85FD85808191810E
:10268000009709F0F0DFE881F9810288F389E02DF5
:10269000B701A601CE01DF91CF91FF90EF90DF90BF
:1026A000CF900994CF92DF92EF92FF92CF93DF9376
:1026B000FC0122813381232B79F06A017B01EC013B
:1026C00055DFB701A6018A819B81DF91CF91FF90F1
:1026D000EF90DF90CF90C7CFDF91CF91FF90EF9039
:1026E000DF90CF9008950F931F93CF93DF9300D087
:1026F00000D01F92CDB7DEB78C0129833A834B837C
:102700005C836D83DC011C96ED91FC91808191814D
:10271000009709F0E8DFD801ED91FC910488F58974
:10272000E02D29813A814B815C816D81C8010F9038
:102730000F900F900F900F90DF91CF911F910F91FD
:1027400009940F931F93CF93DF9300D000D01F9273
:10275000CDB7DEB729833A834B835C836D83FC015D
:1027600022813381232BA1F08C0100DF29813A8162
:102770004B815C816D81F801828193810F900F9074
:102780000F900F900F90DF91CF911F910F91ABCFD2
:102790000F900F900F900F900F90DF91CF911F919E
:1027A0000F910895CF92DF92EF92FF92CF93DF9334
:1027B000EC016A017B01EC85FD85808191810097A8
:1027C00009F0F0DFE881F9810688F789E02DB7018B
:1027D000A601CE01DF91CF91FF90EF90DF90CF90D7
:1027E0000994CF92DF92EF92FF92CF93DF93FC0197
:1027F00022813381232B79F06A017B01EC01B6DE63
:10280000B701A6018A819B81DF91CF91FF90EF9064
:10281000DF90CF90C7CFDF91CF91FF90EF90DF9007
:10282000CF9008950F931F93CF93DF93EC018B010B
:10283000EC85FD8580819181009709F0F3DFE881C7
:10284000F981008CF18DE02DB801CE01DF91CF919F
:102850001F910F910994FC0182819381009709F0E7
:10286000E1CF0895FC01E058FF4F118210828E578E
:102870009F4F21E0FC01208308958E579F4FFC015C
:1028800010820895FC01E058FF4F20813181820FB2
:10289000931FDC016C932F5F3F4F3183208308959A
:1028A0000F931F93CF93DF93C42FD0E08C01005878
:1028B0001F4FF80120813181AE01820F931F0E94CA
:1028C0001E1EF80140815181C40FD51FD183C083E2
:1028D000DF91CF911F910F910895FC01E058FF4FB8
:1028E00020E830E0261B310981E040815181241726
:1028F000350708F480E008958E579F4FFC018081D2
:102900000895089580589F4FFC018081918108951A
:10291000DF92EF92FF920F931F93CF93DF9300D03C
:1029200000D0CDB7DEB77C0149835A836B837C83AB
:10293000D22E822F8F70870193E8899F000D111D81
:102940001124095F1F4F8A81803F09F5C8018ADF82
:1029500063E0C801C2DF811120C089819A81AB8107
:10296000BC81F701E657FF4F80839183A283B38335
:10297000F701D68284E00F900F900F900F90DF91B7
:10298000CF911F910F91FF90EF90DF900895C801B4
:10299000B3DF8111DDCF80E0EECF43E0BE016E5F9B
:1029A0007F4FC8017DDFF7CFBF92CF92DF92EF92CA
:1029B000FF920F931F93CF93DF93EC01573F69F082
:1029C00058832B8385E0DF91CF911F910F91FF906A
:1029D000EF90DF90CF90BF900895122FB72ED62E94
:1029E000052FC42E822F8F709E0143E8849F200DF7
:1029F000311D1124295F3F4F7901C9017DDF8823F3
:102A0000B9F061E0C70169DF81110AC0FE01E65734
:102A1000FF4FC0820183D282B3821E8384E0D3CF72
:102A200067EFC7012FDFC70128DF1E8382E0CBCF0E
:102A300080E0C9CFDF92EF92FF920F931F93CF9365
:102A4000DF93CDB7DEB728970FB6F894DEBF0FBE81
:102A5000CDBF242F30E0E4E035952795EA95E1F7E6
:102A60002115310511F080E021C0E42FEF70E25014
:102A7000EE30C8F78C01F0E0E05CFA4E0C94151EC5
:102A80004E154E15641567156A15A215C915C91599
:102A9000C915C915C915C915C915D215FC01508329
:102AA000618372838381807F838385E028960FB65C
:102AB000F894DEBF0FBECDBFDF91CF911F910F9174
:102AC000FF90EF90DF90089520E022DFEFCF20E02D
:102AD0006BDFECCF4D835E836F837887D12C83E8E7
:102AE000829F7001839FF00C1124F7E0EF0EF11C20
:102AF000E00EF11EC701503FA9F4B4DE62E0C70149
:102B0000ECDE811113C08D819E81AF81B885F80103
:102B1000E657FF4F80839183A283B383F801D68267
:102B200084E0C4CFE9DE8111E9CF9DCF42E0BE0150
:102B30006A5F7F4FC701B4DEC7019FDEF801D6820E
:102B400082E0B4CF49835A836B837C83D12C83E8A2
:102B5000829F7001839FF00C1124F7E0EF0EF11CAF
:102B6000E00EF11EC701503F59F47CDE63E0C7015F
:102B7000B4DE811109C089819A81AB81BC81C7CF44
:102B8000BBDE8111F3CF6FCF43E0BE016E5F7F4F9D
:102B9000D1CFFC015083618372838381807F8383E3
:102BA00081E084CFFC0154838581807F858383E02D
:102BB0007DCFCF92DF92EF92FF921F93CF93DF935F
:102BC000FC01E657FF4F2081222341F1EC01C08038
:102BD000D180E280F38010828E818F7013E89E0195
:102BE000189F200D311D1124C901079685DE882309
:102BF00051F08E818F709E01189F200D311D112480
:102C0000C90107962FDEB701A601CE01DF91CF9152
:102C10001F91FF90EF90DF90CF900CCF80E0DF917D
:102C2000CF911F91FF90EF90DF90CF9008951F926A
:102C30000F920FB60F9211240BB60F922F933F9362
:102C40004F935F936F937F938F939F93AF93BF93B4
:102C5000EF93FF9380914C0490914D04892B29F0C0
:102C6000E0914C04F0914D040995FF91EF91BF91D3
:102C7000AF919F918F917F916F915F914F913F9114
:102C80002F910F900BBE0F900FBE0F901F901895B5
:102C90001F920F920FB60F9211240BB60F922F9323
:102CA0003F934F935F936F937F938F939F93AF93D4
:102CB000BF93EF93FF9380914E0490914F04892B23
:102CC00029F0E0914E04F0914F040995FF91EF91A6
:102CD000BF91AF919F918F917F916F915F914F9134
:102CE0003F912F910F900BBE0F900FBE0F901F9032
:102CF00018951F920F920FB60F9211240BB60F92D8
:102D00002F933F934F935F936F937F938F939F93F3
:102D1000AF93BF93EF93FF93809150049091510430
:102D2000892B29F0E0915004F09151040995FF910D
:102D3000EF91BF91AF919F918F917F916F915F9133
:102D40004F913F912F910F900BBE0F900FBE0F90A0
:102D50001F9018951F920F920FB60F9211240BB669
:102D60000F922F933F934F935F936F937F938F9324
:102D70009F93AF93BF93EF93FF93809152049091F1
:102D80005304892B29F0E0915204F09153040995E2
:102D9000FF91EF91BF91AF919F918F917F916F9133
:102DA0005F914F913F912F910F900BBE0F900FBEEF
:102DB0000F901F9018951F920F920FB60F9211242B
:102DC0000BB60F922F933F934F935F936F937F9325
:102DD0008F939F93AF93BF93EF93FF93809154048E
:102DE00090915504892B29F0E0915404F0915504F9
:102DF0000995FF91EF91BF91AF919F918F917F9135
:102E00006F915F914F913F912F910F900BBE0F905B
:102E10000FBE0F901F9018951F920F920FB60F9232
:102E200011240BB60F922F933F934F935F936F93A1
:102E30007F938F939F93AF93BF93EF93FF93809173
:102E4000560490915704892B29F0E0915604F09193
:102E500057040995FF91EF91BF91AF919F918F9189
:102E60007F916F915F914F913F912F910F900BBE8A
:102E70000F900FBE0F901F9018951F920F920FB6D4
:102E80000F9211240BB60F922F933F934F935F93A2
:102E90006F937F938F939F93AF93BF93EF93FF9322
:102EA0008091580490915904892B29F0E09158049D
:102EB000F09159040995FF91EF91BF91AF919F91C6
:102EC0008F917F916F915F914F913F912F910F90D3
:102ED0000BBE0F900FBE0F901F9018951F920F9270
:102EE0000FB60F9211240BB60F922F933F934F936F
:102EF0005F936F937F938F939F93AF93BF93EF9362
:102F0000FF9380915A0490915B04892B29F0E09102
:102F10005A04F0915B040995FF91EF91BF91AF9135
:102F20009F918F917F916F915F914F913F912F91E1
:102F30000F900BBE0F900FBE0F901F9018951DBAEB
:102F4000109268001CBC10BE1FBA10927A0010923A
:102F50006E0010926F00109270001092710010922B
:102F6000C9001092BC0011B814B817B81AB81DB82F
:102F700010BA12B815B818B81BB81EB811BA08950F
:102F8000F894E1E6F0E020E82083108283E084BD3D
:102F900085BDEEE6F0E080818160808391E09093D2
:102FA000800082E0809381009093B0008093B10014
:102FB000909390008093910086E880937A0020930C
:102FC0007B0010927E00DDD1789408958E3270F4EB
:102FD000E8E9F0E0880FE80FF11D2591E491F0E0B9
:102FE0009FB7F8948181822B81839FBF08958E3291
:102FF00018F5AAEDA80FA83000F5E4EFF0E0AA0F4D
:10300000EA0FF11DA591B0E09591E8E9F0E0880F95
:10301000E80FF11D2591E491F0E04FB7F89431816C
:10302000822F8095232F282321832281822382834C
:10303000EC919E239C934FBF08959FEFB0E0A0E0DA
:10304000E4CF8E3210F5AAEDA80FA830F8F4E4EF23
:10305000F0E0AA0FEA0FF11DA591B0E09591E8E923
:10306000F0E0880FE80FF11D3591E491F0E04FB7E3
:10307000F8948181232F2095282321838281832B1B
:103080008283EC919E239C934FBF08959FEFB0E005
:10309000A0E0E5CF613009F499CF623009F4D1CFD7
:1030A000A6CFEE3258F4EE0FEE0FFF27EC3718F4F0
:1030B000EE59F74E0994EC59F74E0994EE2708950E
:1030C000E1E00895E9B1E170D9F70895E9B1E2705E
:1030D000B9F70895E9B1E47099F70895E9B1E87096
:1030E00079F70895E9B1E07159F70895E9B1E0720F
:1030F00039F70895E9B1E07419F70895E9B1E07876
:10310000F9F60895ECB1E170D9F60895ECB1E270EA
:10311000B9F60895E6B1E17099F60895E6B1E27066
:1031200079F60895E6B1E47059F60895E6B1E870CD
:1031300039F60895E6B1E07119F60895E6B1E07246
:10314000E9F50895E6B1E074C9F50895E6B1E078CF
:10315000A9F50895ECB1E07489F50895ECB1E07833
:1031600069F50895E3B1E17049F50895E3B1E270BE
:1031700029F50895E3B1E47009F50895E3B1E87025
:10318000E9F40895E3B1E071C9F40895E3B1E072A0
:10319000A9F40895E3B1E07489F40895E3B1E07807
:1031A00069F40895E0B1E17049F40895E0B1E27086
:1031B00029F40895E0B1E47009F40895E1E0089578
:1031C000E0B1E870D9F70895E0B1E071B9F708957A
:1031D000E0B1E07299F70895E0B1E07479F70895ED
:1031E000E0B1E07859F70895ECB1E07139F708954E
:1031F000ECB1E07219F70895EFB1E170F9F60895B6
:10320000EFB1E270D9F60895EFB1E470B9F6089520
:10321000EFB1E87099F60895EFB1E07179F608958D
:10322000EFB1E07259F60895EFB1E07439F6089500
:10323000EFB1E07819F60895F89484B7877F84BFDA
:10324000809160008061809360001092600080E255
:103250009EE40197F1F781E08093E00080E28093A3
:10326000D80080E69AEE0197F1F769DE0C9400FE33
:10327000FFCFF89464DE80E69AEE0197F1F70C94A4
:103280000000FFCF8F938FB78F9380915C048D5F89
:103290008D37D0F480935C0480915D048F5F8093C0
:1032A0005D04D8F080915E048F4F80935E04A8F097
:1032B00080915F048F4F80935F0478F08091600469
:1032C0008F4F8093600409C08D5780935C04809178
:1032D0005D048E5F80935D0428F7809161048C5FAC
:1032E0008093610458F0809162048F4F8093620450
:1032F00028F0809163048F4F809363048F918FBF78
:103300008F911895CF92DF92EF92FF926B017C0123
:1033100019D09B01C114D104E104F10429F4FF90F8
:10332000EF90DF90CF9008950DD0621B730B683E35
:10333000734080F381E0C81AD108E108F1082851F0
:103340003C4FE8CF0FB6F89466B515B270916104A2
:1033500080916204909163040FBE10FE05C06F3F20
:1033600019F07C5F8F4F9F4F11240024660F001CC3
:10337000660F001C702908958091E80080FFFCCF43
:1033800008958091D80087FF02C085FF1BC081E8A7
:103390008093D70080EA8093D80086E189BD09B484
:1033A00000FEFDCF80E98093D8001092E0001092DB
:1033B000DE041092DD041092DC041092E1008CE037
:1033C0008093E20008951F920F920FB60F9211247E
:1033D0008F939F939091E1001092E10093FF0FC0B3
:1033E0001092E90081E08093EB001092EC0082E300
:1033F0008093ED0088E08093F0001092DE0492FF4D
:1034000021C08091DE048823E9F08091DC048823C8
:1034100079F081508093DC0481110AC081E08093AF
:10342000E9008091E80085FD35C08AE38093E800DB
:1034300083E08093E9008091F200882319F08AE309
:103440008093E80090FF0CC080E18093E20010922E
:10345000DE0481E08093DD0480EA8093D80019BC0B
:103460008091DD04882379F094FF0DC086E189BD49
:1034700009B400FEFDCF80E98093D8008DE08093F1
:10348000E2001092DD049F918F910F900FBE0F907C
:103490001F9018951092F100C4CF1F920F920FB693
:1034A0000F9211240BB60F92EF92FF920F931F937E
:1034B0002F933F934F935F936F937F938F939F933C
:1034C000AF93BF93CF93DF93EF93FF931092E900F5
:1034D0008091E80083FF21C0E090F100F090F100BE
:1034E000C091F100D091F1000091F1001091F10034
:1034F0002091F1003091F10082EF8093E80086E0A6
:10350000F8125CC0E4E0F1E085919591C817D90705
:1035100041F03596FA94F110F7CF81E28093EB00F9
:103520002BC0859195910817190711F03396F2CFAA
:103530004591559184912F3F310519F010F02FEFEF
:1035400030E0821708F4282F3EEF8091E800982F92
:103550009570D9F382FD10C0822F213408F080E4E9
:10356000982F911124C0922F981B892F3093E80037
:1035700091111BC02034C8F4FF91EF91DF91CF91DE
:10358000BF91AF919F918F917F916F915F914F917B
:103590003F912F911F910F91FF90EF900F900BBED5
:1035A0000F900FBE0F901F901895282FCECFFA01C5
:1035B00045914093F100AF019150D3CF85E0F812CF
:1035C00008C08EEF8093E800D7DEC068C093E300A8
:1035D000D3CF99E0F91222C0E110D3C0C093DE042A
:1035E0001092DC048EEF8093E80081E0E2EFF1E0DE
:1035F0008093E90095919093EB00992331F0959198
:103600009093EC0095919093ED008F5F853081F75A
:103610008EE18093EA001092EA00AECF98E0F912B2
:103620000CC080E8E81279CFA7DE8091DE04809399
:10363000F1008EEF8093E8009FCFF11012C09CDE66
:1036400092E8E91209C00093E900F090EB00F5FA66
:10365000FF24F0F81092E900F092F1001092F100CE
:10366000E8CF8F2D8D7F813009F080C082E0E81295
:103670001BC02097C9F4402F4F778FEF840F8630FF
:1036800098F48EEF8093E8004093E90093E0F916F8
:1036900009F443CF89E18093EB0081E090E001C021
:1036A000880F4A95EAF7B5CF0130110509F05EC0E1
:1036B00081E0F81222C091EA3EEFE9122ECF80910C
:1036C000E800982F9570D9F382FD56CF822F2134D0
:1036D00008F080E4982F91110CC0922F981B892F2D
:1036E0003093E800911103C0203408F445CF282F0F
:1036F000E6CF1092F1009150EECF89E0F81236C07B
:1037000091E2E9120ACFC115D34009F006CF243067
:10371000310509F002CF8091E80082FFFCCF3091A3
:10372000F1002091F1009091F1008091F1004BEFB8
:103730004093E8004EEF4093E800393A51F42534C5
:1037400009F0EBCE923C09F0E8CE8B3609F0E5CEDD
:1037500073DD3B3809F0E1CE253C09F0DECE9D312A
:1037600009F0DBCE803709F0D8CE83DD99ECF91271
:10377000D4CE80E4E812D1CE8EEF8093E800FCDD59
:10378000F4CF0130110509F0C8CEBACFCF92DF9245
:10379000EF92FF920F931F93CF93DF936C01EB0196
:1037A0007B01E40EF51E10E000E0CE15DF0561F0B0
:1037B0006991D601ED91FC910190F081E02DC60157
:1037C0000995080F191FF1CFC801DF91CF911F9103
:1037D0000F91FF90EF90DF90CF900895D1DB0E9482
:1037E00081030E94DA04FDCF97C1FC0181E090E0E3
:1037F0002081222311F090E080E0089521E0FC0177
:103800002083089508958091DE04882371F08FB796
:10381000F89492E09093E9009BE62091E80025FF60
:1038200003C09093E800F9CF8FBF1092D70408959A
:10383000FC018091DE04882369F19FB7F89481E050
:103840008093E9002091E400275E3091E80035FD87
:103850000EC09FBF9091E4009217E1F09091DE04BA
:103860009923C1F09FB7F8948093E900EECF60935D
:10387000F1008091E80085FD09C08AE38093E800AB
:103880001092DC049FBF81E090E0089584E0809373
:10389000DC04F8CF81E0828390E080E008959FB758
:1038A000F89433E03093E9003091E4003E5F53E058
:1038B0007091E80075FD0EC09FBF9091E40039172C
:1038C000C9F09091DE049923A9F09FB7F894509322
:1038D000E900EECF8093F1006093F1004093F10096
:1038E0002093F1008091E80085FD03C08AE3809376
:1038F000E8009FBF08950F93862F642F422F202F3B
:103900009091DE04992311F00F91C9CF0F91089582
:103910009FB7F8948091DE04811102C09FBF089583
:1039200082E08093E9002BE68091E80085FD03C0EA
:103930009FBF80E008958091F100811103C0209322
:10394000E800F2CF2091E80025FDE8CF2BE6209398
:10395000E800E4CF2091D704211105C0D9DF8823E6
:1039600029F08093D70481E090E0089590E080E012
:1039700008959C019091D704992329F01092D704BF
:10398000892F90E00895C901C3DF8111FACF8FEF2D
:103990009FEF08959C019091D704892F911106C043
:1039A000C901B6DF882321F08093D70490E0089501
:1039B0008FEF9FEF0895EFECF4E0128288EE93E032
:1039C000A0E0B0E083839483A583B683178287EB5E
:1039D00092E09183808308950F931F93CF93DF9399
:1039E0008230910510F482E090E0E091DA04F091E9
:1039F000DB0430E020E070E060E0D0E0C0E0B0E068
:103A0000A0E0309799F42115310509F44AC0281B2C
:103A1000390B24303105D8F58A819B8161157105F8
:103A200089F1FB0193838283FE0111C040815181A2
:103A30000281138148175907E0F04817590799F494
:103A4000109761F012960C93129713961C9332966E
:103A5000CF01DF91CF911F910F9108950093DA0468
:103A60001093DB04F4CF2115310551F042175307B1
:103A700038F0A901DB019A01BD01DF01F801C1CFD6
:103A8000EF01F9CF9093DB048093DA04CDCFFE01F0
:103A9000E20FF31F819391932250310939832883D8
:103AA000D7CF2091D8043091D904232B41F4209111
:103AB0000601309107013093D9042093D804209156
:103AC0000401309105012115310541F42DB73EB7B0
:103AD0004091080150910901241B350BE091D80455
:103AE000F091D904E217F307A0F42E1B3F0B28171F
:103AF000390778F0AC014E5F5F4F2417350748F067
:103B00004E0F5F1F5093D9044093D8048193919333
:103B10009FCFF0E0E0E09CCFCF93DF930097E9F0F8
:103B2000FC01329713821282A091DA04B091DB0477
:103B3000ED0130E020E01097A1F420813181820F67
:103B4000931F2091D8043091D9042817390709F020
:103B500061C0F093D904E093D804DF91CF91089528
:103B6000EA01CE17DF07E8F54A815B819E01411526
:103B70005105B1F7E901FB83EA8349915991C40FDB
:103B8000D51FEC17FD0761F4808191810296840FA7
:103B9000951FE90199838883828193819B838A831E
:103BA000F0E0E0E012968D919C9113970097B9F5A3
:103BB0002D913C911197CD010296820F931F209178
:103BC000D8043091D9042817390739F6309751F5C0
:103BD0001092DB041092DA04B093D904A093D804B5
:103BE000BCCFD383C28340815181840F951FC817F6
:103BF000D90761F44E5F5F4F88819981480F591F43
:103C0000518340838A819B8193838283211531056F
:103C100009F0B0CFF093DB04E093DA049ECFFD010E
:103C2000DC01C0CF13821282D7CFEE0FFF1F00241A
:103C3000001C0BBE0790F691E02D0994FB01DC01FE
:103C400002C001900D9241505040D8F708950E9453
:103C50002E0111E0C2E0D1E003C0FE01E6DF2196B3
:0A3C6000C330D107D1F7F894FFCF6D
:103C6A00190000000000DF0480003C3F3E00000015
:103C7A00000000000000021C021C021C021C5F0162
:103C8A0060016101FCFF00000000000062016301A5
:103C9A006401000000006C02A70200000000C601D7
:103CAA00DF01B00268011502A1015F016001610133
:103CBA00AB01D7041106F1053A07D905C301C505B9
:103CCA00FCFF0000DB01E801620163016401F8FF07
:103CDA000000DD01EA01AC01D804F2FF0000D901BD
:103CEA00EC016501C60500000000EE010602B00203
:103CFA0068011502A1015F0160016101AB01D704EE
:103D0A001106F1053A07D905C301C505FCFF0000F4
:103D1A0004021302620163016401F8FF0000020257
:103D2A001102AC01D804F2FF000000020F02650183
:103D3A00C605000000002502AE01C101C201AD01A5
:103D4A00C40100000000007C0B960B87090309F0F0
:103D5A0008FA085F0160016101FCFF0000910B9FF6
:103D6A000B62016301640100000000000000000210
:103D7A001C021C0000000000000000B002680115CF
:103D8A0002A1015F0160016101D80E021C021C023E
:103D9A001C021C021C021CFCFF0000000000006246
:103DAA000163016401F8FF000000000000D90E025F
:103DBA001CF2FF0000000000006501021C00000068
:103DCA000000000000021C021C021C021C5F0160B1
:103DDA00016101000000004E125412620163016485
:103DEA0001000000005D127112CC1204132213327A
:103DFA0013D00F4A10AE0FCB12F51221133113BE96
:103E0A000FC4100911FCFF00007C127A1207114D31
:103E1A0011CE0F00000000181CC61BD50E031CAAE9
:063E2A001CB91CCA1C00BB
:00000001FF
