:10000000CBC000000C9421160C9452160C9483164D
:100010000C94B4160C94E5160C9416170C94471710
:100020000C947817E3C000000C94DF180C94491965
:10003000DDC00000DBC00000D9C00000D7C0000058
:10004000D5C00000D3C00000D1C00000CFC0000068
:10005000CDC00000CBC00000C9C000000C943E1809
:10006000C5C00000C3C00000C1C00000BFC0000088
:10007000BDC00000BBC00000B9C00000B7C0000098
:10008000B5C00000B3C00000B1C00000AFC00000A8
:10009000ADC00000ABC00000000100007401120000
:1000A000020000E000730022010053012100210141
:1000B000003C010900030000DC000401030904C244
:1000C000001818035400650065006E007300790085
:1000D00020004D00490044004900000004030904C9
:1000E00009027300020100C032090400000201038A
:1000F000000007240100014100062402010100065E
:100100002402020200092403010301020100092460
:10011000030204010101000905040240000000007F
:1001200005250101010905830240000000000525A5
:10013000010103090401000203000000092111016B
:100140000001222100070581034000010705020389
:1001500020000206C9FF0904A15C7508150026FFEE
:100160000095400975810295200976910295040950
:1001700076B102C01201000200000040C0168504E2
:1001800072020001000101C13601C0260181360161
:100190008036DA07DF0E150811241FBECFEFD0E23C
:1001A000DEBFCDBF12E0A0E0B1E0E0E4F8E300E0A4
:1001B0000BBF02C007900D92AC3CB107D9F724E009
:1001C000ACECB2E001C01D92A53DB207E1F710E032
:1001D000CBECD0E004C02197FE010E94001CC93C7A
:1001E000D107C9F70E94C21A0C94121C09CFA09122
:1001F000CC02B091CD02109709F40895ED91FC91D5
:10020000119712968D919C919093CD028093CC0280
:100210000995EDCFCF93DF93EC0184E090E00E944D
:10022000D71A009791F0FC01D183C0832091CC02B2
:100230003091CD02338322839093CD028093CC0200
:1002400090E080E0DF91CF91089581E090E0FACFD7
:1002500008950895089508950895089587E091E018
:100260000895CF93DF93CDB7DEB72A970FB6F894F2
:10027000DEBF0FBECDBF2E833F83488759876A8775
:1002800025E0FE013696DE01119601900D922A9529
:10029000E1F728853985232BA1F0DC01ED91FC9154
:1002A000028CF38DE02D29813A814B815C816D8137
:1002B0002A960FB6F894DEBF0FBECDBFDF91CF9167
:1002C00009942A960FB6F894DEBF0FBECDBFDF911A
:1002D000CF910895683F38F0DC01ED91FC91048CDA
:1002E000F58DE02D0994089508950895089527E661
:1002F00031E0FC01318320832DE831E03583248314
:100300002BE931E03187208727EA31E037872687DC
:100310000C94F70E0E97EBCF0497E9CF0897E7CF31
:10032000CF93DF93EC01E3DFCE01DF91CF910C940B
:10033000C81A0497F5CF0897F3CF0E97F1CF23EBA8
:1003400031E0FC013183208329ED31E035832483C2
:1003500027EE31E03187208723EF31E0378726878A
:10036000C6CF0E97ECCF0897EACF0497E8CFCF938C
:10037000DF93EC01E4DFCE01DF91CF910C94C81A3A
:100380000E97F5CF0897F3CF0497F1CF242F287F4E
:10039000203F59F4403F49F06F77DC01ED91FC912B
:1003A000008CF18DE02D5F7709940895F4D69C01BF
:1003B00044E0220F331F4A95E1F756E09695879562
:1003C0005A95E1F7822B932B0895CF93DF93EC019D
:1003D0008E819F81EBDF9C01220F331F220F331F81
:1003E000281B390B3B872A8754E0969587955A95A9
:1003F000E1F79D878C87DF91CF910895CF93DF93AD
:10040000EC018E819F81D2DF9C01220F331F220FCE
:10041000331F281B390B3B872A87880F892F881F9A
:10042000990B91959D878C87DF91CF910895CF93FC
:10043000DF93FC0183E391E091838083309781F027
:100440008091D2029091D30222813381A481B5811F
:10045000E817F90741F02115310529F4109729F41F
:10046000DF91CF910895109721F013963C932E932E
:1004700012972091D4023091D502E217F30721F4AC
:10048000B093D502A093D402C281D381209711F0FA
:10049000BD83AC83E817F90719F7D093D302C09353
:1004A000D202DECFCF93DF93EC01C1DFCE01DF912B
:1004B000CF910C94C81ACF93DF93FC018BE391E0AA
:1004C00091838083309781F08091CE029091CF020A
:1004D00022813381A481B581E817F90741F0211504
:1004E000310529F4109729F4DF91CF9108951097E1
:1004F00021F013963C932E9312972091D0023091C5
:10050000D102E217F30721F4B093D102A093D002F5
:10051000C281D381209711F0BD83AC83E817F9071E
:1005200019F7D093CF02C093CE02DECFCF93DF93E3
:10053000EC01C1DFCE01DF91CF910C94C81A23E406
:1005400031E0FC0131832083B6CFCF93DF93EC0100
:10055000F6DFCE01DF91CF910C94C81A2FE431E081
:10056000FC0131832083EBCFCF93DF93EC01F6DFE7
:10057000CE01DF91CF910C94C81A23E431E0FC0145
:100580003183208398CFCF93DF93EC01F6DFCE0148
:10059000DF91CF910C94C81A2BE531E0FC01318337
:1005A0002083EBCFCF93DF93EC01F6DFCE01DF9119
:1005B000CF910C94C81ACF93DF93EC018E819F8169
:1005C000F5DE2A853B85280F391FC90102969695CD
:1005D000879596958795281B390B3B872A87E88551
:1005E000F985309709F009954C855D859A01F4E00D
:1005F000220F331FFA95E1F728604115510549F0A4
:10060000B9016F5071094F3F5F40B0F586179707EA
:1006100028F0215F3F4F2817390788F5BC01E4E037
:1006200076956795EA95E1F77D876C873E852F85FE
:1006300030FF25C034E0660F771F3A95E1F7892F28
:10064000992786958695862B972B422F4F70722F70
:1006500072957F70406E582F5F77880F892F881FA3
:10066000990B9195682F6F77809168049091690438
:10067000DF91CF910C949E0C8617970778F2DF914B
:10068000CF910895CF93DF93EC018E819F818EDE11
:100690002A853B85280F391FC901029696958795B3
:1006A00096958795281B390B3B872A87E885F9851E
:1006B000309709F009954C855D859A013695322F62
:1006C00022273795279520644115510549F0B90136
:1006D0006F5771094F3F514018F58617970728F05B
:1006E00021583F4F28173907F0F4880F892F881FAA
:1006F000990B91959D878C875E857F8550FF13C0F0
:10070000472F4F70569572957F70406B682F6F77AB
:100710008091680490916904DF91CF910C949E0CB4
:100720008617970710F3DF91CF91089520E8240FE3
:10073000203748F46F77DC01ED91FC910688F7894A
:10074000E02D5F7709940895FC01138212821582CF
:1007500014828BE391E0918380838091CE0290910B
:10076000CF02892B21F4F093CF02E093CE02A09127
:10077000D002B091D102B583A483109721F01396D3
:10078000FC93EE931297F093D102E093D002138280
:1007900012827783668311861086138612861586E9
:1007A0001486578746878FE491E09183808308956C
:1007B000FC0113821282158214828BE391E09183F3
:1007C00080838091CE029091CF02892B21F4F09307
:1007D000CF02E093CE02A091D002B091D102B583B6
:1007E000A483109721F01396FC93EE931297F09345
:1007F000D102E093D002138212827783668311863E
:1008000010861386128615861486578746878BE5D1
:1008100091E09183808308958091D704882359F1D2
:100820008FB7F89493E09093E9009091E4009E5F75
:1008300023E03091E80035FD0EC08FBF8091E400C9
:100840008917C9F08091D7048823A9F08FB7F8944D
:100850002093E900EECF4093F1005093F1006093B4
:10086000F1007093F1009091E80095FD03C09AE3C8
:100870009093E8008FBF0895CF93DF93FC0113821C
:100880001282178216828FE091E09183808385E245
:1008900091E095838483CF0108961386128615868E
:1008A000148623E331E0318720872091D2023091F2
:1008B000D302232B21F49093D3028093D202A091F0
:1008C000D402B091D502B587A487109721F0139672
:1008D0009C938E9312979093D5028093D4021386A3
:1008E0001286118A108A8091FB01138A148A158A54
:1008F000868B178A808D807F808F818D807F818F0E
:10090000DF015A9683E8ED0119928A95E9F7A0581C
:10091000BF4F11961C921E9212961C9211961D9218
:100920001D921D921C921397D49680E1ED011992AD
:100930008A95E9F750961C9283EB91E0918380832E
:1009400089ED91E09583848387EE91E0918780879C
:1009500083EF91E097878687DF91CF91089580910B
:100960006804909169040C94400DFF920F931F93BB
:10097000CF93DF938C010D5E1F4FC8010E94E315DA
:10098000C82F81110AC084E0F82EDBE68FB7F894F7
:100990009091D704911108C08FBF8C2FDF91CF9118
:1009A0001F910F91FF900895F092E9009091E80057
:1009B00095FD05C092FFF0CFD093E800F7CF4091AE
:1009C000F1005091F1006091F1007091F10090916F
:1009D000E80095FFD093E8008FBF4423F1F2C801EF
:1009E0000E942515882391F2C82FD7CFBF92CF92AE
:1009F000DF92EF92FF920F931F93CF93DF93CDB7C8
:100A0000DEB72A970FB6F894DEBF0FBECDBF6330B6
:100A100009F491C0A8F4613069F1623009F440C072
:100A20002A960FB6F894DEBF0FBECDBFDF91CF91EF
:100A30001F910F91FF90EF90DF90CF90BF9008959E
:100A4000643071F1653061F7FC014389548965892F
:100A500076892A960FB6F894DEBF0FBECDBFDF9120
:100A6000CF911F910F91FF90EF90DF90CF90BF90AB
:100A70000C94770FFC0143895489658976892A96FD
:100A80000FB6F894DEBF0FBECDBFDF91CF911F919F
:100A90000F91FF90EF90DF90CF90BF900C941E0FBE
:100AA0008C017C01F3E1EF0EF11CFC01818D8F7054
:100AB00093E8B92E9701B89E200D311D1124C9016C
:100AC00007960E948C146C01F801818D8F7097013C
:100AD000B89E200D311D1124C90107960E948D1466
:100AE000F801218D2F70DA82C9829C838B838D81DE
:100AF000807F822B8D8385E0FE013196DE01169684
:100B000001900D928A95E1F72E813F8148855985A4
:100B10006A85C8012A960FB6F894DEBF0FBECDBF16
:100B2000DF91CF911F910F91FF90EF90DF90CF90C9
:100B3000BF900C94440FFC016789708D2A960FB604
:100B4000F894DEBF0FBECDBFDF91CF911F910F9103
:100B5000FF90EF90DF90CF90BF900C949D0FCF92BD
:100B6000DF92EF92FF920F931F93CF93DF93EC01ED
:100B70006C0124E0C20ED11CC6010E9495117E01B9
:100B80002EE0E20EF11C209711F4F12CE12C8E15D1
:100B90009F0521F4B701C6010E948611CE01E5DE52
:100BA000182F00E0112371F0612FCE011FDF1430E8
:100BB00039F0123009F400E0CE01D7DE182FF2CF61
:100BC00001E0FACF002361F0B701C601DF91CF91B8
:100BD0001F910F91FF90EF90DF90CF900C947711C1
:100BE000DF91CF911F910F91FF90EF90DF90CF9009
:100BF0000895B5CF0897B3CF8EE593E0B0DF80912D
:100C00006804909169040C94950ECF92DF92EF9254
:100C1000FF921F93CF93DF93EC010496BE01625FB6
:100C20007F4F209711F470E060E00E9486110FB6AC
:100C3000F894C090C904D090CA04E090CB04F0901E
:100C4000CC040FBE0FB6F8948091C9049091CA04E9
:100C5000A091CB04B091CC040FBE8C199D09AE09B4
:100C6000BF09843F9140A105B10550F4CE017DDE5E
:100C7000182F682FCE01BADE1430C9F2123011F7E6
:100C8000DF91CF911F91FF90EF90DF90CF9008956B
:100C9000BCCF0E97BACFEF920F937E2DDC01ED9172
:100CA000FC91962F9295907F492B522F602FCF0168
:100CB00042960F91EF90B0CDEF920F93CF93DF93C9
:100CC00000D0CDB7DEB7262F9A838983E12C00E0D0
:100CD0004FE0672FCE010196DEDF0F900F90DF917E
:100CE000CF910F91EF900895EF920F93CF93DF93F1
:100CF00000D0CDB7DEB7242F052FE62E672F9A83BD
:100D0000898343E0223F31F0E12C42E0243F10F0A0
:100D100000E045E0CE010196BEDF0F900F90DF911D
:100D2000CF910F91EF900895EF920F93CF93DF93B0
:100D300000D0CDB7DEB7242F9A838983842F90E02B
:100D400034E0959587953A95E1F7E62E052F482FE3
:100D5000672FCE0101969FDF0F900F90DF91CF910B
:100D60000F91EF900895EF920F93FC01CA01E2807A
:100D70000181208144E08FDF0F91EF900895EF9281
:100D80000F931F93FB01622FC80142305105A1F060
:100D90004330510541F04130510551F4E12C00E060
:100DA000208145E004C0E2800181208147E073DFBB
:100DB0001F910F91EF900895E12C0181208146E071
:100DC000F6CF2F923F924F925F926F927F928F92C7
:100DD0009F92AF92BF92CF92DF92EF92FF920F93CA
:100DE0001F93CF93DF9300D000D000D0CDB7DEB7F4
:100DF0006C0129833A834B835C836D83AB80BC8019
:100E0000A114B10409F443C06E83962F9F7029800A
:100E10003A80492F50E0F10180812601440E551E91
:100E2000803F11F4F20110AAD10175013201F0E303
:100E30006F0E711C9A01220F331F240F351F2C0DCA
:100E40003D1D4D01F3015081533008F07CC081E01D
:100E5000850F80834D91F901E50FF11D4083F1E08D
:100E6000EF1AF10871F7A20CB31CF501319720813C
:100E7000273F31F5482F50E0B60123E0929F600DE7
:100E8000711D11242E81C6017ADFF301108226968E
:100E90000FB6F894DEBF0FBECDBFDF91CF911F918B
:100EA0000F91FF90EF90DF90CF90BF90AF909F9009
:100EB0008F907F906F905F904F903F902F9008950C
:100EC000833029F7A8016E819601989F200D311D6E
:100ED0001124C90148DFD9CFA20CB31CF501319709
:100EE0008081873F49F043E0E416F10469F4A801EA
:100EF0006E81C40138DF05C02E81A701B401C6018F
:100F00003EDFF20110AAC3CFF201E0AAA701B401AB
:100F1000C30126960FB6F894DEBF0FBECDBFDF919A
:100F2000CF911F910F91FF90EF90DF90CF90BF90E6
:100F3000AF909F908F907F906F905F904F903F9079
:100F40002F900C94091C3601F3E09F9F600C711CDC
:100F50001124A8016E81C30106DFF4E0EF16F1044D
:100F600008F4BACFA8016E81C401FDDE23E0820E31
:100F7000911C33E0E31AF108F0CF0F931F93CF9346
:100F8000DF9300D000D000D01F92CDB7DEB79A8398
:100F900089838E010F5F1F4F8F559F4F12DF27965A
:100FA0000FB6F894DEBF0FBECDBFDF91CF911F917A
:100FB0000F9108958EE593E05FDC41E050E067E239
:100FC00070E08DE493E0F4DB47E150E066E270E02E
:100FD0008CE393E0B9DB41E051E069E270E08BE241
:100FE00093E0E6DB47E151E068E270E08AE193E0FC
:100FF000ABDB41E052E06BE270E089E093E0D8DBEC
:1010000047E152E06AE270E088EF92E09DDB41E068
:1010100053E06DE270E087EE92E0CADB47E153E017
:101020006CE270E086ED92E08FCB86ED92E096DA8E
:1010300087EE92E0B1DA88EF92E090DA89E093E00F
:10104000ABDA8AE193E08ADA8BE293E0A5DA8CE30B
:1010500093E084DA8DE493E09FDA8EE593E06FC944
:10106000569A5E9A62E370E080E090E00E947E18FB
:101070005E9862E370E080E090E00E947E185E9AE5
:1010800062E370E080E090E00E947E185E9862E586
:1010900073E080E090E00E947E18E3CFCF93DF936F
:1010A000C0914004D0914104209759F0E881F98122
:1010B000008CF18DE02DCE0109950A80DB81C02DD9
:1010C000F3CFDF91CF910895CF93DF93C091400488
:1010D000D0914104209759F0E881F981028CF38D79
:1010E000E02DCE0109950A80DB81C02DF3CFDF9181
:1010F000CF910895CF93DF93C0914004D0914104E4
:10110000209759F0E881F981048CF58DE02DCE010E
:1011100009950A80DB81C02DF3CFDF91CF9108952F
:10112000FC01828593850895FC0180859185089551
:1011300080E494E00895EF92FF920F931F93CF9372
:10114000DF938C01F5DFFC01C081D1812097A1F0F4
:10115000CE01EADF0817190778F0CE01E1DF7C0144
:10116000CE01E2DF0817190718F00E151F0530F041
:101170000A80DB81C02DEACFD0E0C0E0CE01DF9154
:10118000CF911F910F91FF90EF900895D4DF0097BA
:1011900009F466CF0895EF92FF920F931F93CF93B8
:1011A000DF93811520E8920701F18633910540F421
:1011B000DF91CF911F910F91FF90EF900C94F0175A
:1011C000EC01E4DF8C01DC01ED91FC91E488F58811
:1011D000ABDFBE01681B790BC801F701DF91CF912E
:1011E0001F910F91FF90EF90099490E080E0DF91C4
:1011F000CF911F910F91FF90EF900895DC015496CD
:10120000ED91FC91309719F0CB01BA010994089542
:10121000DC015696ED91FC91309711F0CB010994C9
:1012200008950F931F93CF93DF93CDB7DEB72A971F
:101230000FB6F894DEBF0FBECDBF2E833F83488725
:1012400059876A87DC015296ED91FC91309709F03D
:101250004AC085E0FE013696DE01119601900D929E
:101260008A95E1F700914804109149040115110590
:1012700009F442C0D801ED91FC910284F385E02D80
:1012800029813A814B815C816D81C8010995882350
:1012900009F447C0D8011496ED91FC911597309749
:1012A00059F18481958112962D913C91009779F1A5
:1012B000DC0113961C930E931297338322831583BC
:1012C0000483D8011396FC93EE93129715969C9382
:1012D0008E93149721153105F9F0D9011596FC93D9
:1012E000EE93149709C04E815F81688579858A8560
:1012F0000995882309F4ADCF2A960FB6F894DEBF7E
:101300000FBECDBFDF91CF911F910F910895109324
:10131000490400934804D1CFF0934B04E0934A046E
:10132000EBCFF80102811381A1CFEF92FF920F93CF
:101330001F93CF93DF938A01F62EE72EDC015096A0
:10134000ED91FC913097C1F4802F807F803B09F0B4
:1013500045C0193779F5C0915804D09159042097A8
:10136000C1F0E881F9810680F781E02DCE01099571
:101370000A80DB81C02DF3CFBA018F2D9E2D0995F8
:10138000882311F3DF91CF911F910F91FF90EF9080
:101390000895C0915004D0915104209799F3E881A9
:1013A000F9810680F781E02DCE0109950A80DB8165
:1013B000C02DF3CF1B3709F0D9C0C0916004D09184
:1013C00061042097F9F2E881F9810680F781E02D28
:1013D000CE0109950A80DB81C02DF3CF813BE8F572
:1013E000803929F0803A09F484C0803859F6C091D8
:1013F0006004D0916104209729F2E881F981028488
:10140000F385E02DA8016F2D7E2DCE01099588234F
:1014100009F46BC0EC81FD81309709F4B3CF84816E
:1014200095812A813B81009709F455C0DC01139610
:10143000DC93CE93129733832283D583C483FB83BB
:10144000EA839D838C832115310509F449C0D901B4
:101450001596FC93EE93149795CF803D09F4CCC07C
:10146000803E09F406C1803C09F08CCFC091540441
:10147000D0915504209709F485CFE881F981028441
:10148000F385E02DA8016F2D7E2DCE0109958823CF
:1014900009F4AEC0EC81FD81309709F473CF8481EB
:1014A00095812A813B81009709F49DC0DC01139648
:1014B000DC93CE93129733832283D583C483FB833B
:1014C000EA839D838C832115310509F6F093570437
:1014D000E093560457CFD0936104C0936004ABCF20
:1014E000F0936304E09362044DCF0A80DB81C02D4A
:1014F00082CFC0915C04D0915D04209709F442CF63
:10150000E881F9810284F385E02DA8016F2D7E2DFD
:10151000CE010995882331F1EC81FD81309709F4E2
:1015200031CF848195812A813B810097B1F0DC0124
:101530001396DC93CE93129733832283D583C4838F
:10154000FB83EA839D838C832115310509F07FCFCE
:10155000F0935F04E0935E0415CFD0935D04C093D5
:101560005C04EACF0A80DB81C02DC7CFC09158044C
:10157000D0915904209709F405CFE881F9810284BC
:10158000F385E02DA8016F2D7E2DCE0109958823CE
:1015900031F1EC81FD81309709F4F4CE848195819D
:1015A0002A813B810097B1F0DC011396DC93CE9346
:1015B000129733832283D583C483FB83EA839D837D
:1015C0008C832115310509F042CFF0935B04E09341
:1015D0005A04D8CED0935904C0935804EACF0A8055
:1015E000DB81C02DC7CFD0935504C093540463CF83
:1015F0000A80DB81C02D3ECFC0915004D0915104B0
:10160000209709F4BFCEE881F9810284F385E02DAB
:10161000A8016F2D7E2DCE010995882331F1EC8133
:10162000FD81309709F4AECE848195812A813B817A
:101630000097B1F0DC011396DC93CE9312973383BD
:101640002283D583C483FB83EA839D838C83211506
:10165000310509F0FCCEF0935304E093520492CE8E
:10166000D0935104C0935004EACF0A80DB81C02D8F
:10167000C7CFC0914C04D0914D04209709F482CE7D
:10168000E881F9810284F385E02DA8016F2D7E2D7C
:10169000CE010995882331F1EC81FD81309709F461
:1016A00071CE848195812A813B810097B1F0DC0164
:1016B0001396DC93CE93129733832283D583C4830E
:1016C000FB83EA839D838C832115310509F0BFCE0E
:1016D000F0934F04E0934E0455CED0934D04C09345
:1016E0004C04EACF0A80DB81C02DC7CFCF93DF93B4
:1016F000EC018FE091E09983888385E291E09D83FE
:101700008C83CE010496D6D6CE01DF91CF91BBC695
:101710000497ECCFCF93DF93EC0180E092E09983C4
:10172000888386E192E09D838C83CE018C96D1D60E
:10173000CE014896CED6CE01DF91CF91D7CF049778
:10174000E9CF82E794E0E6CFCF93DF93EC01E2DFCD
:10175000CE01DF91CF910C94C81A0497F5CFCF93A7
:10176000DF93EC01C3DFCE01DF91CF910C94C81A57
:101770000497F5CF80916A048111A9C08AE694E0AC
:101780000E94C91A892B09F4A2C010927504109204
:101790007404109279041092780480E092E090939F
:1017A00073048093720486E192E0909377048093AF
:1017B00076048AE191E4A0E0B0E080937A0490930B
:1017C0007B04A0937C04B0937D040E949E186A5110
:1017D00071448109910960937E0470937F04809322
:1017E00080049093810410928304109282041092DA
:1017F000850410928404109287041092860410923B
:1018000089041092880410928D0410928C04109216
:101810009104109290042EE932E030938B042093CF
:101820008A0482EC92E090938F0480938E0410924D
:10183000930410929204109295041092940440E93B
:1018400054E050939704409396044CE854E050932E
:1018500099044093980410929B0410929A04109259
:101860009D0410929C041092A1041092A004109266
:10187000A5041092A40430939F0420939E04909397
:10188000A3048093A2041092A7041092A6041092BD
:10189000A9041092A80484EA94E09093AB04809386
:1018A000AA0480EA94E09093AD048093AC04109273
:1018B000AF041092AE041092B1041092B0048AE604
:1018C00094E00E94D21A81EA9BE00E940A0182E71A
:1018D00094E00895EF92FF920F931F93CF93DF93BD
:1018E000EC018E819F81892B39F58A819B81892B1F
:1018F00019F56DD28C01892B09F4B2DB7E0188E1E8
:10190000E80EF11CB701CE012AD5B701C801049633
:1019100046D57E018CE2E80EF11CB701CE0104969B
:101920003ED5B701C8011BD581E0DF91CF911F9152
:101930000F91FF90EF90089580E0F7CF0496BEC618
:10194000CF93DF93C0916004D0916104209759F048
:10195000E881F9810084F185E02DCE0109950A80A6
:10196000DB81C02DF3CFC0915C04D0915D04209742
:1019700059F0E881F9810084F185E02DCE010995C7
:101980000A80DB81C02DF3CFC0915804D091590457
:10199000209759F0E881F9810084F185E02DCE018E
:1019A00009950A80DB81C02DF3CFC0915404D091FA
:1019B0005504209759F0E881F9810084F185E02DE4
:1019C000CE0109950A80DB81C02DF3CFC091500470
:1019D000D0915104209759F0E881F9810084F18574
:1019E000E02DCE0109950A80DB81C02DF3CFC09197
:1019F0004C04D0914D04209759F0E881F98100847E
:101A0000F185E02DCE0109950A80DB81C02DF3CF51
:101A1000C0914804D0914904209759F0E881F98198
:101A20000084F185E02DCE0109950A80DB81C02D6F
:101A3000F3CFDF91CF910895CF93DF93C091B2049C
:101A4000D091B3042097C9F08E819F810A80DB81F9
:101A5000C02D209729F02E813F818217930759F0DE
:101A6000DC01ED91FC910484F585E02D099520972A
:101A700021F02E813F81C901E9CFDF91CF910895F7
:101A8000CF92DF92EF92FF920F931F93CF93DF934A
:101A90008C0120DF03DBC091D202D091D3022097CA
:101AA00059F0E881F9810480F581E02DCE01099596
:101AB0000A80DB81C02DF3CFC0916404D09165040E
:101AC000209759F0E881F9810480F581E02DCE015D
:101AD00009950A80DB81C02DF3CFC801ADDFC0912D
:101AE0006004D0916104209759F0E881F981048065
:101AF000F581E02DCE0109950A80DB81C02DF3CF61
:101B0000C0915C04D0915D04209759F0E881F9817F
:101B10000480F581E02DCE0109950A80DB81C02D7E
:101B2000F3CFC0915804D0915904209759F0E8811F
:101B3000F9810480F581E02DCE0109950A80DB81D1
:101B4000C02DF3CFC0915404D0915504209759F083
:101B5000E881F9810480F581E02DCE0109950A80A4
:101B6000DB81C02DF3CFC0915004D0915104209758
:101B700059F0E881F9810480F581E02DCE010995C5
:101B80000A80DB81C02DF3CFC0914C04D0914D046D
:101B9000209759F0E881F9810480F581E02DCE018C
:101BA00009950A80DB81C02DF3CFC0914804D09104
:101BB0004904209759F0E881F9810480F581E02DEE
:101BC000CE0109950A80DB81C02DF3CFC091CE02F2
:101BD000D091CF02209759F0E881F9810480F581F6
:101BE000E02DCE0109950A80DB81C02DF3CFC09195
:101BF0004404D0914504209759F0E881F98104808C
:101C0000F581E02DCE0109950A80DB81C02DF3CF4F
:101C10000E949E18F801C084D184E284F3846C1978
:101C20007D098E099F096487758786879787DF916D
:101C3000CF911F910F91FF90EF90DF90CF9008957B
:101C4000DF92EF92FF920F931F93CF93DF93C09198
:101C5000B204D091B304209749F10E811F817E0117
:101C6000D12CE881F9810680F781E02DCE0109951C
:101C7000D82A0A80DB81C02D2097B1F08E819F8108
:101C800008171907D9F48C01ECCFD801ED91FC911C
:101C90000288F389E02DC8010995209739F08E81DB
:101CA0009F817E01D12CEFCFD1100AC0DF91CF915F
:101CB0001F910F91FF90EF90DF900895DD2079F351
:101CC000D801ED91FC910684F785E02DC8010995B6
:101CD000D801ED91FC910088F189E02DC8010995AA
:101CE000CE15DF0591F2D701ED91FC910480F581CD
:101CF000E02DC7010995F701E280F380F1CFCF9382
:101D0000DF93C091D202D091D302209759F0E8819D
:101D1000F9810680F781E02DCE0109950A80DB81EB
:101D2000C02DF3CFDF91CF910895CF92DF92EF9244
:101D3000FF920F931F93CF93DF93EC01DBD90091B8
:101D4000CE021091CF020115110561F0D801ED917D
:101D5000FC910680F781E02DC8010995F801028108
:101D60001381F1CFCCDFCE01EBDD0E949E18CC8435
:101D7000DD84EE84FF84088519852A853B85AB01C7
:101D8000BC014C195D096E097F09401751076207B4
:101D9000730760F0D701C601800F911FA21FB31F08
:101DA0008C879D87AE87BF87CE014ADFDF91CF91B9
:101DB0001F910F91FF90EF90DF90CF9085C9DADCF3
:101DC000909369048093680408950895089580911C
:101DD000B6049091B704009749F42091D402309151
:101DE000D5022115310511F0C90108970895CF9347
:101DF000DF93EC0180E392E09983888384E592E0AD
:101E00009D838C8382E692E0998788878EE692E0B4
:101E10009F878E87DCDFC817D90721F41092B7049B
:101E20001092B60484E292E099878887CE010896E2
:101E30000E941702CE01DF91CF9158CCCF92DF9252
:101E4000EF92FF92CF93DF93EC016A017B0104963E
:101E500035D488899989009781F0DC01ED91FC9156
:101E60000190F081E02DA7019601BE01DF91CF9195
:101E7000FF90EF90DF90CF900994DF91CF91FF908A
:101E8000EF90DF90CF900895EF92FF920F931F9302
:101E9000CF93DF9300D000D01F92CDB7DEB77C0187
:101EA00029833A834B835C836D83C701049655D4A1
:101EB000D70150968D919C91009769F0DC01ED91CE
:101EC000FC910280F381E02D09811A812B813C81F4
:101ED0004D81B70109950F900F900F900F900F90C3
:101EE000DF91CF911F910F91FF90EF900895CF92C6
:101EF000DF92EF92FF92CF93DF93EC016A017B01B7
:101F000004967BD488899989009781F0DC01ED9152
:101F1000FC910480F581E02DA7019601BE01DF91BF
:101F2000CF91FF90EF90DF90CF900994DF91CF9108
:101F3000FF90EF90DF90CF9008950F931F93CF9372
:101F4000DF93EC018B01049692D4888999890097DC
:101F500069F0DC01ED91FC910680F781E02DA8018C
:101F6000BE01DF91CF911F910F910994DF91CF9125
:101F70001F910F910895DC0118968D919C91009707
:101F800039F0DC01ED91FC910088F189E02D099494
:101F900090E080E00895DC011A968D919C91009765
:101FA00039F0DC01ED91FC910084F185E02D09947C
:101FB00090E080E008950497EECFEF92FF920F93A8
:101FC0001F93CF93DF93EC018B017A018889998964
:101FD000009721F06817790709F042D8198B088B10
:101FE000EC85FD8580819181009781F02A853B8574
:101FF0002E153F0559F4DC01ED91FC910484F58523
:10200000E02DAE014C5F5F4FB80109958885998539
:10201000009759F0DC01ED91FC910484F585E02DE9
:10202000AE014C5F5F4FB80109958A859B8500978B
:10203000D9F0E816F906C1F06A897B896115710546
:1020400041F0DC01ED91FC910680F781E02DAE01BD
:1020500009958A859B85DC01ED91FC910480F581D1
:10206000E02DAE01B8010995EE85FF858081918153
:102070000097A9F09C012C5F3F4FE216F30679F020
:10208000DC01ED91FC91048CF58DE02DAE01B801E1
:10209000DF91CF911F910F91FF90EF900994DF9105
:1020A000CF911F910F91FF90EF900895EF92FF92C3
:1020B0000F931F93CF93DF93EC018B017A018889F3
:1020C0009989009729F06817790711F00E94300864
:1020D000198A188AEC85FD8580819181009781F0AD
:1020E0002A853B852E153F0559F4DC01ED91FC91C5
:1020F0000684F785E02DAE014C5F5F4FB80109956E
:1021000088859985009759F0DC01ED91FC91068452
:10211000F785E02DAE014C5F5F4FB80109958A85C8
:102120009B850097D9F0E816F906C1F0DC01ED9126
:10213000FC910680F781E02DAE01B80109956A890E
:102140007B896115710551F08A859B85DC01ED91D4
:10215000FC910480F581E02DAE010995EE85FF85A7
:10216000808191810097A9F09C012C5F3F4FE2167E
:10217000F30679F0DC01ED91FC91068CF78DE02DF2
:10218000AE01B801DF91CF911F910F91FF90EF90B9
:102190000994DF91CF911F910F91FF90EF900895D7
:1021A0000F931F93CF93DF93EC0188859985841754
:1021B000950711F58B01798B688B8A859B85009734
:1021C00041F0DC01ED91FC910480F581E02DAE0140
:1021D0000995EE85FF85808191810097F9F0DC01FA
:1021E000ED91FC91048CF58DE02DAE01B801DF91ED
:1021F000CF911F910F9109948A899B89892B71F442
:102200007B8B6A8B8A859B85009741F0DC01ED9181
:10221000FC910480F581E02DAE01E9CFDF91CF91F3
:102220001F910F9108950497BBCF0F931F93CF93E6
:10223000DF93EC018B01888599858417950709F553
:10224000198A188A8A859B85009741F0DC01ED91F7
:10225000FC910680F781E02DAE010995EE85FF85A2
:1022600080819181009701F1DC01ED91FC91068C58
:10227000F78DE02DAE01B801DF91CF911F910F9145
:1022800009946A897B896017710771F41B8A1A8A1D
:102290008A859B85009741F0DC01ED91FC910680D9
:1022A000F781E02DAE01E8CFDF91CF911F910F9123
:1022B00008950497BACFDC011296ED91FC91139723
:1022C000309731F01186108613961C921E92129749
:1022D0000895DC011296ED91FC911397309731F03F
:1022E0001386128613961C921E9212970895FC0173
:1022F000A281B381109749F0ED91FC91119704846C
:10230000F585E02DAC01CD0109940895FC01A28171
:10231000B381109749F0ED91FC9111970684F785F0
:10232000E02DAC01CD0109940895DC011296ED91E8
:10233000FC91309739F080899189009729F482893E
:102340009389089590E080E00895FC01208531850F
:10235000232B11F00E9430087187608708950F9336
:102360001F93CF93DF93EC018B018A819B810097B0
:1023700051F4BE01C801E9DF1B830A83DF91CF91CD
:102380001F910F910895EC01F0CFFC012285338558
:10239000232B11F00E9430087387628708950F93F2
:1023A0001F93CF93DF93EC018B018A819B81009770
:1023B00051F4BE01C801E9DF1B830A83DF91CF918D
:1023C0001F910F910895EC012496EFCFEF92FF92A9
:1023D0000F931F93CF93DF93EC01088519850115A7
:1023E000110571F0EE85FF85E080F180E114F104C4
:1023F00039F0C80160DFCE015EDFB701C801AFDF91
:102400000A851B850115110579F0EC85FD85E080B5
:10241000F180E114F10441F0C8015BDFCE010496C4
:1024200058DFB701C801BBDF88859985009709F09F
:1024300042DF8A859B85009709F04BDFEE85FF859B
:1024400080819181892B31F4EC85FD85808191819A
:10245000892B11F00E943008DF91CF911F910F91CD
:10246000FF90EF900895CF93DF93EC018A819B81D9
:10247000009731F0F8DF8A819B81A8DF1B821A82E6
:10248000DF91CF9108952AE732E0FC013183208368
:10249000EACFCF93DF93EC018A819B81009739F0DB
:1024A0000496F7DF8A819B8191DF1B821A82DF917C
:1024B000CF91089520E932E0FC0131832083E9CFF8
:1024C000CF93DF93EC01F6DFCE01DF91CF910C9437
:1024D000C81ACF93DF93EC018EE992E09983888349
:1024E00082EC92E09D838C83CE0170DFCE01049656
:1024F000E1DFCE01DF91CF91C6CFCF93DF93EC0127
:10250000E8DFCE01DF91CF910C94C81A0497F5CF84
:102510000497DFCF1F93CF93DF93EC0188899989CC
:10252000009741F48A899B89892B31F4DF91CF91FF
:102530001F910895019621F18A899B89019601F1E5
:102540001BE088899989009721F42A893B89232BEC
:1025500069F3115059F3009739F0DC01ED91FC91CA
:102560000680F781E02D09958A899B89009749F3B8
:10257000DC01ED91FC910680F781E02D0995E1CF1A
:102580000E943008FC0182819381009709F0C2CF3C
:102590000895DC0118968D919C91009739F0DC012B
:1025A000ED91FC910480F581E02D09940895F1CF1F
:1025B000F0CFCF93DF9300D000D01F92CDB7DEB71E
:1025C00029833A834B835C836D83DC0118968D915C
:1025D0009C91009771F0DC01ED91FC910680F781F0
:1025E000E02D0F900F900F900F900F90DF91CF91F3
:1025F00009940F900F900F900F900F90DF91CF9153
:102600000895CF93DF9300D000D01F92CDB7DEB7EF
:102610000F900F900F900F900F90DF91CF91C9CF37
:10262000CF93DF9300D000D01F92CDB7DEB70F90CD
:102630000F900F900F900F90DF91CF91BACFDC01E8
:1026400018968D919C91009739F0DC01ED91FC91E9
:102650000084F185E02D09940895F1CFF0CFDC01DD
:1026600018968D919C91009739F0DC01ED91FC91C9
:102670000284F385E02D09940895F1CFF0CFCF9235
:10268000DF92EF92FF92CF93DF93EC016A017B011F
:10269000EC85FD8580819181009709F0F0DFE8816C
:1026A000F9810288F389E02DB701A601CE01DF91FF
:1026B000CF91FF90EF90DF90CF900994CF92DF926F
:1026C000EF92FF92CF93DF93FC0122813381232B82
:1026D00079F06A017B01EC0155DFB701A6018A811F
:1026E0009B81DF91CF91FF90EF90DF90CF90C7CF8C
:1026F000DF91CF91FF90EF90DF90CF9008950F93EF
:102700001F93CF93DF9300D000D01F92CDB7DEB7D9
:102710008C0129833A834B835C836D83DC011C9697
:10272000ED91FC9180819181009709F0E8DFD8015B
:10273000ED91FC910488F589E02D29813A814B8146
:102740005C816D81C8010F900F900F900F900F90DA
:10275000DF91CF911F910F9109940F931F93CF9306
:10276000DF9300D000D01F92CDB7DEB729833A8324
:102770004B835C836D83FC0122813381232BA1F089
:102780008C0100DF29813A814B815C816D81F801E8
:10279000828193810F900F900F900F900F90DF9197
:1027A000CF911F910F91ABCF0F900F900F900F9083
:1027B0000F90DF91CF911F910F910895CF92DF92EB
:1027C000EF92FF92CF93DF93EC016A017B01EC85DE
:1027D000FD8580819181009709F0F0DFE881F98122
:1027E0000688F789E02DB701A601CE01DF91CF91D0
:1027F000FF90EF90DF90CF900994CF92DF92EF920D
:10280000FF92CF93DF93FC0122813381232B79F058
:102810006A017B01EC01B6DEB701A6018A819B81CA
:10282000DF91CF91FF90EF90DF90CF90C7CFDF91F6
:10283000CF91FF90EF90DF90CF9008950F931F936B
:10284000CF93DF93EC018B01EC85FD858081918135
:10285000009709F0F3DFE881F981008CF18DE02D1C
:10286000B801CE01DF91CF911F910F910994FC0126
:1028700082819381009709F0E1CF0895FC01E0582F
:10288000FF4F118210828E579F4F21E0FC01208361
:1028900008958E579F4FFC0110820895FC01E05867
:1028A000FF4F20813181820F931FDC016C932F5FDA
:1028B0003F4F3183208308950F931F93CF93DF936E
:1028C000C42FD0E08C0100581F4FF80120813181C6
:1028D000AE01820F931F9DD7F80140815181C40F33
:1028E000D51FD183C083DF91CF911F910F910895A0
:1028F000FC01E058FF4F20E830E0261B310981E061
:10290000408151812417350708F480E008958E57DF
:102910009F4FFC0180810895089580589F4FFC01CE
:10292000808191810895DF92EF92FF920F931F9320
:10293000CF93DF9300D000D0CDB7DEB77C014983C1
:102940005A836B837C83D22E822F8F70870193E80A
:10295000899F000D111D1124095F1F4F8A81803F3F
:1029600009F5C8018BDF63E0C801C2DF811120C017
:1029700089819A81AB81BC81F701E657FF4F808343
:102980009183A283B383F701D68284E00F900F90E6
:102990000F900F90DF91CF911F910F91FF90EF90CB
:1029A000DF900895C801B3DF8111DDCF80E0EECF65
:1029B00043E0BE016E5F7F4FC8017EDFF7CFBF925D
:1029C000CF92DF92EF92FF920F931F93CF93DF93FB
:1029D000EC01573F69F058832B8385E0DF91CF915D
:1029E0001F910F91FF90EF90DF90CF90BF900895CF
:1029F000122FB72ED62E052FC42E822F8F709E0138
:102A000043E8849F200D311D1124295F3F4F790138
:102A1000C9017DDF8823B9F061E0C70169DF811159
:102A20000AC0FE01E657FF4FC0820183D282B38203
:102A30001E8384E0D3CF67EFC70130DFC70129DFF2
:102A40001E8382E0CBCF80E0C9CFDF92EF92FF926E
:102A50000F931F93CF93DF93CDB7DEB728970FB6B1
:102A6000F894DEBF0FBECDBF242F30E0E4E03595F3
:102A70002795EA95E1F72115310511F080E020C096
:102A8000E42FEF70E250EE30C8F78C01F0E0E65B27
:102A9000FA4EB6C6581558156E1571157415AC1545
:102AA000D315D315D315D315D315D315D315DC15DD
:102AB000FC015083618372838381807F838385E0FF
:102AC00028960FB6F894DEBF0FBECDBFDF91CF9131
:102AD0001F910F91FF90EF90DF90089520E023DF8A
:102AE000EFCF20E06CDFECCF4D835E836F83788780
:102AF000D12C83E8829F7001839FF00C1124F7E0B2
:102B0000EF0EF11CE00EF11EC701503FA9F4B6DE36
:102B100062E0C701EDDE811113C08D819E81AF811E
:102B2000B885F801E657FF4F80839183A283B38372
:102B3000F801D68284E0C4CFEADE8111E9CF9ECFCE
:102B400042E0BE016A5F7F4FC701B6DEC701A1DE6A
:102B5000F801D68282E0B4CF49835A836B837C83A9
:102B6000D12C83E8829F7001839FF00C1124F7E041
:102B7000EF0EF11CE00EF11EC701503F59F47EDE4E
:102B800063E0C701B5DE811109C089819A81AB81FB
:102B9000BC81C7CFBCDE8111F3CF70CF43E0BE0153
:102BA0006E5F7F4FD1CFFC0150836183728383813D
:102BB000807F838381E084CFFC0154838581807F83
:102BC000858383E07DCFCF92DF92EF92FF921F93B8
:102BD000CF93DF93FC01E657FF4F2081222341F181
:102BE000EC01C080D180E280F38010828E818F70F2
:102BF00013E89E01189F200D311D1124C90107966D
:102C000086DE882351F08E818F709E01189F200DE3
:102C1000311D1124C901079631DEB701A601CE018D
:102C2000DF91CF911F91FF90EF90DF90CF900DCF6C
:102C300080E0DF91CF911F91FF90EF90DF90CF90D8
:102C400008951F920F920FB60F9211240BB60F9298
:102C50002F933F934F935F936F937F938F939F93A4
:102C6000AF93BF93EF93FF938091B8049091B90411
:102C7000892B29F0E091B804F091B9040995FF91EE
:102C8000EF91BF91AF919F918F917F916F915F91E4
:102C90004F913F912F910F900BBE0F900FBE0F9051
:102CA0001F9018951F920F920FB60F9211240BB61A
:102CB0000F922F933F934F935F936F937F938F93D5
:102CC0009F93AF93BF93EF93FF938091BA0490913A
:102CD000BB04892B29F0E091BA04F091BB0409955B
:102CE000FF91EF91BF91AF919F918F917F916F91E4
:102CF0005F914F913F912F910F900BBE0F900FBEA0
:102D00000F901F9018951F920F920FB60F921124DB
:102D10000BB60F922F933F934F935F936F937F93D5
:102D20008F939F93AF93BF93EF93FF938091BC04D6
:102D30009091BD04892B29F0E091BC04F091BD0471
:102D40000995FF91EF91BF91AF919F918F917F91E5
:102D50006F915F914F913F912F910F900BBE0F900C
:102D60000FBE0F901F9018951F920F920FB60F92E3
:102D700011240BB60F922F933F934F935F936F9352
:102D80007F938F939F93AF93BF93EF93FF93809124
:102D9000BE049091BF04892B29F0E091BE04F0910C
:102DA000BF040995FF91EF91BF91AF919F918F91D2
:102DB0007F916F915F914F913F912F910F900BBE3B
:102DC0000F900FBE0F901F9018951F920F920FB685
:102DD0000F9211240BB60F922F933F934F935F9353
:102DE0006F937F938F939F93AF93BF93EF93FF93D3
:102DF0008091C0049091C104892B29F0E091C00416
:102E0000F091C1040995FF91EF91BF91AF919F910E
:102E10008F917F916F915F914F913F912F910F9083
:102E20000BBE0F900FBE0F901F9018951F920F9220
:102E30000FB60F9211240BB60F922F933F934F931F
:102E40005F936F937F938F939F93AF93BF93EF9312
:102E5000FF938091C2049091C304892B29F0E091E3
:102E6000C204F091C3040995FF91EF91BF91AF9116
:102E70009F918F917F916F915F914F913F912F9192
:102E80000F900BBE0F900FBE0F901F9018951F92C2
:102E90000F920FB60F9211240BB60F922F933F9300
:102EA0004F935F936F937F938F939F93AF93BF9352
:102EB000EF93FF938091C4049091C504892B29F06E
:102EC000E091C404F091C5040995FF91EF91BF9181
:102ED000AF919F918F917F916F915F914F913F91B2
:102EE0002F910F900BBE0F900FBE0F901F90189553
:102EF0001F920F920FB60F9211240BB60F922F93C1
:102F00003F934F935F936F937F938F939F93AF9371
:102F1000BF93EF93FF938091C6049091C704892BD0
:102F200029F0E091C604F091C7040995FF91EF9153
:102F3000BF91AF919F918F917F916F915F914F91D1
:102F40003F912F910F900BBE0F900FBE0F901F90CF
:102F500018951DBA109268001CBC10BE1FBA1092C2
:102F60007A0010926E0010926F0010927000109212
:102F700071001092C9001092BC0011B814B817B8B3
:102F80001AB81DB810BA12B815B818B81BB81EB8C0
:102F900011BA0895F894E1E6F0E020E82083108269
:102FA00083E084BD85BDEEE6F0E0808181608083B2
:102FB00091E09093800082E0809381009093B00034
:102FC0008093B100909390008093910086E8809365
:102FD0007A0020937B0010927E00CFD078940895E1
:102FE0009AED980F983010F1883060F490917E003F
:102FF00021E030E0082E01C0220F0A94EAF7922B5C
:1030000090937E008F7190910001892B80937C00BA
:1030100080917A00806480937A0080917A0086FDA6
:10302000FCCF80917800909179000895892FDECFB0
:10303000F89484B7877F84BF80916000806180931B
:1030400060001092600080E29EE40197F1F781E059
:103050008093E00080E28093D80080E69AEE0197AA
:10306000F1F777DF0C9400FEFFCFF89472DF80E673
:103070009AEE0197F1F70C940000FFCF8F938FB772
:103080008F938091C8048D5F8D37D0F48093C804EE
:103090008091C9048F5F8093C904D8F08091CA04DD
:1030A0008F4F8093CA04A8F08091CB048F4F8093F8
:1030B000CB0478F08091CC048F4F8093CC0409C06E
:1030C0008D578093C8048091C9048E5F8093C90492
:1030D00028F78091CD048C5F8093CD0458F08091C7
:1030E000CE048F4F8093CE0428F08091CF048F4F71
:1030F0008093CF048F918FBF8F911895CF92DF92DD
:10310000EF92FF926B017C0119D09B01C114D10495
:10311000E104F10429F4FF90EF90DF90CF9008953F
:103120000DD0621B730B683E734080F381E0C81AB8
:10313000D108E108F10828513C4FE8CF0FB6F894C8
:1031400066B515B27091CD048091CE049091CF04F4
:103150000FBE10FE05C06F3F19F07C5F8F4F9F4F71
:1031600011240024660F001C660F001C70290895AE
:103170008091E80080FFFCCF08958091D80087FF00
:1031800002C085FF1BC081E88093D70080EA80934E
:10319000D80086E189BD09B400FEFDCF80E98093A7
:1031A000D8001092E0001092D7041092D60410922A
:1031B000D5041092E1008CE08093E20008951F9204
:1031C0000F920FB60F9211248F939F939091E1006D
:1031D0001092E10093FF0FC01092E90081E080930C
:1031E000EB001092EC0082E38093ED0088E0809386
:1031F000F0001092D70492FF21C08091D704882359
:10320000E9F08091D504882379F081508093D5042A
:1032100081110AC081E08093E9008091E80085FD7A
:1032200035C08AE38093E80083E08093E9008091D1
:10323000F200882319F08AE38093E80090FF0CC025
:1032400080E18093E2001092D70481E08093D6045D
:1032500080EA8093D80019BC8091D604882379F045
:1032600094FF0DC086E189BD09B400FEFDCF80E961
:103270008093D8008DE08093E2001092D6049F9155
:103280008F910F900FBE0F901F9018951092F10024
:10329000C4CF1F920F920FB60F9211240BB60F924C
:1032A000EF92FF920F931F932F933F934F935F9350
:1032B0006F937F938F939F93AF93BF93CF93DF933E
:1032C000EF93FF931092E9008091E80083FF21C003
:1032D000E090F100F090F100C091F100D091F10088
:1032E0000091F1001091F1002091F1003091F10076
:1032F00082EF8093E80086E0F8125CC0E8E9F0E035
:1033000085919591C817D90741F03596FA94F11037
:10331000F7CF81E28093EB002BC085919591081740
:10332000190711F03396F2CF4591559184912F3FB3
:10333000310519F010F02FEF30E0821708F4282F34
:103340003EEF8091E800982F9570D9F382FD10C070
:10335000822F213408F080E4982F911124C0922FFD
:10336000981B892F3093E80091111BC02034C8F4BA
:10337000FF91EF91DF91CF91BF91AF919F918F918D
:103380007F916F915F914F913F912F911F910F917D
:10339000FF90EF900F900BBE0F900FBE0F901F90FD
:1033A0001895282FCECFFA0145914093F100AF0137
:1033B0009150D3CF85E0F81208C08EEF8093E800DB
:1033C000D7DEC068C093E300D3CF99E0F91222C0E2
:1033D000E110D3C0C093D7041092D5048EEF809330
:1033E000E80081E0E6E8F1E08093E90095919093B0
:1033F000EB00992331F095919093EC009591909387
:10340000ED008F5F853081F78EE18093EA001092A6
:10341000EA00AECF98E0F9120CC080E8E81279CF4C
:10342000A7DE8091D7048093F1008EEF8093E800AF
:103430009FCFF11012C09CDE92E8E91209C0009300
:10344000E900F090EB00F5FAFF24F0F81092E900A3
:10345000F092F1001092F100E8CF8F2D8D7F813036
:1034600009F080C082E0E8121BC02097C9F4402F09
:103470004F778FEF840F863098F48EEF8093E800BB
:103480004093E90093E0F91609F443CF89E1809372
:10349000EB0081E090E001C0880F4A95EAF7B5CFD4
:1034A0000130110509F05EC081E0F81222C091EAF6
:1034B0003EEFE9122ECF8091E800982F9570D9F356
:1034C00082FD56CF822F213408F080E4982F91118D
:1034D0000CC0922F981B892F3093E800911103C0E4
:1034E000203408F445CF282FE6CF1092F1009150F8
:1034F000EECF89E0F81236C091E2E9120ACFC11589
:10350000D34009F006CF2430310509F002CF809175
:10351000E80082FFFCCF3091F1002091F100909102
:10352000F1008091F1004BEF4093E8004EEF4093A3
:10353000E800393A51F4253409F0EBCE923C09F019
:10354000E8CE8B3609F0E5CE73DD3B3809F0E1CEED
:10355000253C09F0DECE9D3109F0DBCE803709F045
:10356000D8CE83DD99ECF912D4CE80E4E812D1CE26
:103570008EEF8093E800FCDDF4CF0130110509F0F7
:10358000C8CEBACF07DD0E94AF040E94FC05FDCF74
:10359000AEC0FC0181E090E02081222311F090E098
:1035A00080E0089521E0FC012083089508950F93A1
:1035B0001F93CF93DF938230910510F482E090E067
:1035C000E091D304F091D40430E020E070E060E0BA
:1035D000D0E0C0E0B0E0A0E0309799F421153105CB
:1035E00009F44AC0281B390B24303105D8F58A81EB
:1035F0009B816115710589F1FB0193838283FE0133
:1036000011C0408151810281138148175907E0F0B0
:103610004817590799F4109761F012960C93129776
:1036200013961C933296CF01DF91CF911F910F918A
:1036300008950093D3041093D404F4CF21153105D9
:1036400051F04217530738F0A901DB019A01BD017F
:10365000DF01F801C1CFEF01F9CF9093D40480933B
:10366000D304CDCFFE01E20FF31F8193919322503B
:10367000310939832883D7CF2091D1043091D204E6
:10368000232B41F420910301309104013093D204A3
:103690002093D104209101013091020121153105BF
:1036A00041F42DB73EB74091050150910601241B0E
:1036B000350BE091D104F091D204E217F307A0F4A6
:1036C0002E1B3F0B2817390778F0AC014E5F5F4F78
:1036D0002417350748F04E0F5F1F5093D2044093D4
:1036E000D104819391939FCFF0E0E0E09CCFCF9302
:1036F000DF930097E9F0FC01329713821282A091C8
:10370000D304B091D404ED0130E020E01097A1F48F
:1037100020813181820F931F2091D1043091D204F6
:103720002817390709F061C0F093D204E093D1045F
:10373000DF91CF910895EA01CE17DF07E8F54A81BE
:103740005B819E0141155105B1F7E901FB83EA83D5
:1037500049915991C40FD51FEC17FD0761F4808181
:1037600091810296840F951FE90199838883828154
:1037700093819B838A83F0E0E0E012968D919C9187
:1037800013970097B9F52D913C911197CD010296B1
:10379000820F931F2091D1043091D204281739074A
:1037A00039F6309751F51092D4041092D304B093A7
:1037B000D204A093D104BCCFD383C2834081518172
:1037C000840F951FC817D90761F44E5F5F4F88813A
:1037D0009981480F591F518340838A819B8193832C
:1037E00082832115310509F0B0CFF093D404E09322
:1037F000D3049ECFFD01DC01C0CF13821282D7CF4C
:10380000EE0FFF1F0024001C0BBE0790F691E02D69
:103810000994FB01DC0102C001900D92415050401F
:10382000D8F708950E94F70010E0CBECD0E003C079
:10383000FE01E6DF2196CC3CD107D1F7F894FFCF0B
:10384000400000D80480003C3F3E00000000000023
:10385000000000D61AD61AD61AD61A280129012A2B
:1038600001FCFF0000000000002B012C012D0100D5
:1038700000000017025202000000005B02960200E6
:1038800000000000000000D61AD61A00000000AEAA
:1038900002B402FE01420300000000CC02D202E5A5
:1038A00001DB02000000007701900196033101C6A0
:1038B000016A01280129012A017401F9059406749D
:1038C00006BD075C0676014806FCFF00008C0199E6
:1038D000012B012C012D01F8FF00008E019B0175C9
:1038E00001FA05F2FF00008A019D012E0149060040
:1038F0000000009F01B70196033101C6016A01284B
:103900000129012A017401F90594067406BD075CBA
:103910000676014806FCFF0000B501C4012B012C0E
:10392000012D01F8FF0000B301C2017501FA05F293
:10393000FF0000B101C0012E014906000000000097
:103940008A0BA40B95091109FE0808092801290111
:103950002A01FCFF00009F0BAD0B2B012C012D0158
:103960000000000000000000D61AD61A0000000077
:103970000000000096033101C6016A0128012901F7
:103980002A01E50ED61AD61AD61AD61AD61AD61A79
:10399000FCFF0000000000002B012C012D01F8FFAE
:1039A000000000000000E60ED61AF2FF0000000042
:1039B00000002E01D61A0000000000000000D61AF8
:1039C000D61AD61AD61A280129012A0100000000A9
:1039D0005A1260122B012C012D0100000000691207
:1039E0007D12D81210132E133E13DD0F5610BB0F8D
:1039F000D71201132D133D13CB0FD0101511FCFF5F
:0C3A000000008812861213115911DB0F10
:00000001FF
