:10000000CCC000000C9469160C949A160C94CB1674
:100010000C94FC160C942D170C945E170C948F17EF
:100020000C94C017E4C000000C9427190C9491198B
:10003000DEC00000DCC00000DAC00000D8C0000054
:10004000D6C00000D4C00000D2C00000D0C0000064
:10005000CEC00000CCC00000CAC000000C948618BE
:10006000C6C00000C4C00000C2C00000C0C0000084
:10007000BEC00000BCC00000BAC00000B8C0000094
:10008000B6C00000B4C00000B2C00000B0C00000A4
:10009000AEC00000ACC000000001000074011200FE
:1000A000020000E000730022010053012100210141
:1000B000003C010900030000DC000401030904C244
:1000C000001818035400650065006E007300790085
:1000D00020004D00490044004900000004030904C9
:1000E00009027300020100C032090400000201038A
:1000F000000007240100014100062402010100065E
:100100002402020200092403010301020100092460
:10011000030204010101000905040240000000007F
:1001200005250101010905830240000000000525A5
:10013000010103090401000203000000092111016B
:100140000001222100070581034000010705020389
:1001500020000206C9FF0904A15C7508150026FFEE
:100160000095400975810295200976910295040950
:1001700076B102C01201000200000040C0168504E2
:1001800072020001000101C13601C0260181360161
:1001900080361E08230F1F1C590811241FBECFEFE5
:1001A000D0E2DEBFCDBF12E0A0E0B1E0E2EFFAE3C3
:1001B00000E00BBF02C007900D92A23DB107D9F736
:1001C00025E0A2EDB2E001C01D92A636B207E1F72C
:1001D00010E0CCECD0E004C02197FE010E94591D34
:1001E000C93CD107C9F70E94321B0C946B1D08CF84
:1001F000A091D202B091D302109709F40895ED9125
:10020000FC91119712968D919C919093D3028093BB
:10021000D2020995EDCFCF93DF93EC0184E090E01B
:100220000E94301C009791F0FC01D183C083209183
:10023000D2023091D302338322839093D3028093EE
:10024000D20290E080E0DF91CF91089581E090E0CC
:10025000FACF08950895089508950895089587E0C0
:1002600091E00895CF93DF93CDB7DEB72A970FB60D
:10027000F894DEBF0FBECDBF2E833F8348875987DA
:100280006A8725E0FE013696DE01119601900D92F7
:100290002A95E1F728853985232BA1F0DC01ED9122
:1002A000FC91028CF38DE02D29813A814B815C8198
:1002B0006D812A960FB6F894DEBF0FBECDBFDF91D9
:1002C000CF9109942A960FB6F894DEBF0FBECDBF2A
:1002D000DF91CF910895683F38F0DC01ED91FC91FA
:1002E000048CF58DE02D09940895089508950895DE
:1002F0002BE531E0FC013183208321E831E03583B7
:1003000024832FE831E0318720872BE931E03787DC
:1003100026870C943E0F0E97EBCF0497E9CF0897F2
:10032000E7CFCF93DF93EC01E3DFCE01DF91CF91F5
:100330000C94381B0497F5CF0897F3CF0E97F1CFA5
:1003400027EA31E0FC01318320832DEC31E0358355
:1003500024832BED31E03187208727EE31E037878A
:100360002687C6CF0E97ECCF0897EACF0497E8CF41
:10037000CF93DF93EC01E4DFCE01DF91CF910C94BA
:10038000381B0E97F5CF0897F3CF0497F1CF242FA2
:10039000287F203F59F4403F49F06F77DC01ED9111
:1003A000FC91008CF18DE02D5F7709940895CF9337
:1003B000DF93EC018E819F8132D79C0174E0220F84
:1003C000331F7A95E1F7E6E096958795EA95E1F790
:1003D000282B392B8A859B85280F391FC901029646
:1003E0009695879596958795281B390B3B872A8785
:1003F000E885F985309709F009954C855D859A0166
:100400003695322F222737952795206441155105BF
:1004100049F0B9016F5771094F3F514018F58617E0
:10042000970728F021583F4F28173907F0F4880F15
:10043000892F881F990B91959D878C875E857F8575
:1004400050FF13C0472F4F70569572957F70406BC9
:10045000682F6F778091860490918704DF91CF9108
:100460000C94E20C8617970710F3DF91CF91089553
:10047000CF93DF93FC0183E391E0918380833097F6
:1004800081F08091D8029091D90222813381A48198
:10049000B581E817F90741F02115310529F41097C6
:1004A00029F4DF91CF910895109721F013963C9392
:1004B0002E9312972091DA023091DB02E217F307B4
:1004C00021F4B093DB02A093DA02C281D38120979A
:1004D00011F0BD83AC83E817F90719F7D093D9025F
:1004E000C093D802DECFCF93DF93EC01C1DFCE0102
:1004F000DF91CF910C94381BCF93DF93FC018BE3FA
:1005000091E091838083309781F08091D402909123
:10051000D50222813381A481B581E817F90741F022
:100520002115310529F4109729F4DF91CF91089511
:10053000109721F013963C932E9312972091D60298
:100540003091D702E217F30721F4B093D702A093BA
:10055000D602C281D381209711F0BD83AC83E81706
:10056000F90719F7D093D502C093D402DECFCF9309
:10057000DF93EC01C1DFCE01DF91CF910C94381BEA
:1005800023E431E0FC0131832083B6CFCF93DF93A6
:10059000EC01F6DFCE01DF91CF910C94381B2FE4F4
:1005A00031E0FC0131832083EBCFCF93DF93EC016B
:1005B000F6DFCE01DF91CF910C94381BCF93DF9300
:1005C000EC018E819F812BD69C0144E0220F331FCA
:1005D0004A95E1F756E0969587955A95E1F7822B73
:1005E000932B9C01220F331F220F331F281B390B23
:1005F0003B872A87880F892F881F990B91959D87A4
:100600008C87DF91CF91089520E8240F203748F49C
:100610006F77DC01ED91FC910688F789E02D5F771B
:1006200009940895FC0113821282158214828BE3CF
:1006300091E0918380838091D4029091D502892B9F
:1006400021F4F093D502E093D402A091D602B091A8
:10065000D702B583A483109721F01396FC93EE93F1
:100660001297F093D702E093D60213821282778317
:100670006683118610861386128615861486578720
:1006800046878FE491E09183808308958091680587
:10069000882359F18FB7F89493E09093E9009091F3
:1006A000E4009E5F23E03091E80035FD0EC08FBF6F
:1006B0008091E4008917C9F0809168058823A9F02A
:1006C0008FB7F8942093E900EECF4093F100509358
:1006D000F1006093F1007093F1009091E80095FDB6
:1006E00003C09AE39093E8008FBF0895CF93DF9300
:1006F000FC0113821282178216828FE091E09183AF
:10070000808385E291E095838483CF0108961386E8
:1007100012861586148623E331E0318720872091E5
:10072000D8023091D902232B21F49093D9028093DF
:10073000D802A091DA02B091DB02B587A4871097A6
:1007400021F013969C938E9312979093DB028093E3
:10075000DA0213861286118A108A8091EF01138AB9
:10076000148A158A868B178A808D807F808F818D71
:10077000807F818FDF015A9683E8ED0119928A9577
:10078000E9F7A058BF4F11961C921E9212961C9228
:1007900011961D921D921D921C921397D49680E182
:1007A000ED0119928A95E9F750961C9287EA91E03B
:1007B000918380838DEC91E0958384838BED91E030
:1007C0009187808787EE91E097878687DF91CF9129
:1007D000089580918604909187040C94840DFF9273
:1007E0000F931F93CF93DF938C010D5E1F4FC801B2
:1007F0000E942B16C82F81110AC084E0F82EDBE678
:100800008FB7F89490916805911108C08FBF8C2F15
:10081000DF91CF911F910F91FF900895F092E90021
:100820009091E80095FD05C092FFF0CFD093E800CD
:10083000F7CF4091F1005091F1006091F10070917B
:10084000F1009091E80095FFD093E8008FBF44231A
:10085000F1F2C8010E946D15882391F2C82FD7CFFD
:10086000BF92CF92DF92EF92FF920F931F93CF939D
:10087000DF93CDB7DEB72A970FB6F894DEBF0FBE71
:10088000CDBF633009F491C0A8F4613069F16230E2
:1008900009F440C02A960FB6F894DEBF0FBECDBF54
:1008A000DF91CF911F910F91FF90EF90DF90CF904C
:1008B000BF900895643071F1653061F7FC014389A0
:1008C0005489658976892A960FB6F894DEBF0FBEE3
:1008D000CDBFDF91CF911F910F91FF90EF90DF90EF
:1008E000CF90BF900C94BE0FFC0143895489658959
:1008F00076892A960FB6F894DEBF0FBECDBFDF9182
:10090000CF911F910F91FF90EF90DF90CF90BF900C
:100910000C94650F8C017C01F3E1EF0EF11CFC01DE
:10092000818D8F7093E8B92E9701B89E200D311DEF
:100930001124C90107960E94D4146C01F801818D1D
:100940008F709701B89E200D311D1124C9010796A3
:100950000E94D514F801218D2F70DA82C9829C8300
:100960008B838D81807F822B8D8385E0FE01319684
:10097000DE01169601900D928A95E1F72E813F8156
:10098000488559856A85C8012A960FB6F894DEBF56
:100990000FBECDBFDF91CF911F910F91FF90EF90D0
:1009A000DF90CF90BF900C948B0FFC016789708D06
:1009B0002A960FB6F894DEBF0FBECDBFDF91CF9160
:1009C0001F910F91FF90EF90DF90CF90BF900C940C
:1009D000E40FCF92DF92EF92FF920F931F93CF938A
:1009E000DF93EC016C0124E0C20ED11CC6010E9411
:1009F000DC117E012EE0E20EF11C209711F4F12CA7
:100A0000E12C8E159F0521F4B701C6010E94CD117E
:100A1000CE01E5DE182F00E0112371F0612FCE0129
:100A20001FDF143039F0123009F400E0CE01D7DEB8
:100A3000182FF2CF01E0FACF002361F0B701C60111
:100A4000DF91CF911F910F91FF90EF90DF90CF90AA
:100A50000C94BE11DF91CF911F910F91FF90EF90F9
:100A6000DF90CF900895B5CF0897B3CF0F938CE761
:100A700093E0AFDF80E00E94381890937B0380936F
:100A80007A0381E00E943818909379038093780369
:100A900082E00E943818909377038093760383E076
:100AA0000E943818909375038093740384E00E9429
:100AB0003818909373038093720385E00E9438186E
:100AC000909371038093700386E00E94381890938E
:100AD0006F0380936E0387E00E94381890936D0334
:100AE00080936C0380916A0390916B03892BA9F426
:100AF00080917A0390917B038B39924074F002E4E9
:100B000024E340E969E08FEE94E00E94BF1B81E09E
:100B100090E090936B0380936A0380916A039091B5
:100B20006B03019799F480917A0390917B0384364B
:100B3000910564F402E424E340E868E08FEE94E079
:100B40000E94BF1B10926B0310926A03809168038E
:100B500090916903892BA9F4809176039091770392
:100B60008B39924074F002E42BE341E969E08FEEA7
:100B700094E00E94BF1B81E090E090936903809312
:100B800068038091680390916903019799F48091BB
:100B90007603909177038436910564F402E42BE3A5
:100BA00041E868E08FEE94E00E94BF1B1092690359
:100BB000109268038091660390916703892BA9F4D2
:100BC00080917203909173038B39924074F002E428
:100BD00022E442E969E08FEE94E00E94BF1B81E0CD
:100BE00090E09093670380936603809166039091F1
:100BF0006703019799F4809172039091730384368F
:100C0000910564F402E422E442E868E08FEE94E0A7
:100C10000E94BF1B109267031092660380916403C9
:100C200090916503892BA9F480916E0390916F03D5
:100C30008B39924074F002E429E443E969E08FEED5
:100C400094E00E94BF1B81E090E090936503809345
:100C500064038091640390916503019799F48091F6
:100C60006E0390916F038436910564F402E429E4E5
:100C700043E868E08FEE94E00E94BF1B109265038A
:100C80001092640380918604909187040F910C94D4
:100C9000D90ECF92DF92EF92FF921F93CF93DF9303
:100CA000EC010496BE01625F7F4F209711F470E063
:100CB00060E00E94CD110FB6F894C090E704D09088
:100CC000E804E090E904F090EA040FBE0FB6F8944F
:100CD0008091E7049091E804A091E904B091EA04BE
:100CE0000FBE8C199D09AE09BF09843F9140A10533
:100CF000B10550F4CE0173DD182F682FCE01B0DDA1
:100D00001430C9F2123011F7DF91CF911F91FF908B
:100D1000EF90DF90CF900895BCCF0E97BACFEF92AF
:100D20000F937E2DDC01ED91FC91962F9295907F93
:100D3000492B522F602FCF0142960F91EF90A6CCF6
:100D4000EF920F93CF93DF9300D0CDB7DEB7262F6E
:100D50009A838983E12C00E04FE0672FCE01019652
:100D6000DEDF0F900F90DF91CF910F91EF900895FC
:100D7000EF920F93CF93DF9300D0CDB7DEB7242F40
:100D8000052FE62E672F9A83898343E0223F31F0B7
:100D9000E12C42E0243F10F000E045E0CE01019656
:100DA000BEDF0F900F90DF91CF910F91EF900895DC
:100DB000EF920F93CF93DF9300D0CDB7DEB7242F00
:100DC0009A838983842F90E034E0959587953A95AE
:100DD000E1F7E62E052F482F672FCE0101969FDF02
:100DE0000F900F90DF91CF910F91EF900895EF92B8
:100DF0000F93FC01CA01E2800181208144E08FDF72
:100E00000F91EF900895EF920F931F93FB01622FC4
:100E1000C80142305105A1F04330510541F0413045
:100E2000510551F4E12C00E0208145E004C0E2804E
:100E30000181208147E073DF1F910F91EF900895AA
:100E4000E12C0181208146E0F6CF2F923F924F9214
:100E50005F926F927F928F929F92AF92BF92CF924A
:100E6000DF92EF92FF920F931F93CF93DF9300D007
:100E700000D000D0CDB7DEB76C0129833A834B8315
:100E80005C836D83AB80BC80A114B10409F443C0C2
:100E90006E83962F9F7029803A80492F50E0F10190
:100EA00080812601440E551E803F11F4F20110AAE4
:100EB000D10175013201F0E36F0E711C9A01220F0E
:100EC000331F240F351F2C0D3D1D4D01F3015081A3
:100ED000533008F07CC081E0850F80834D91F9018B
:100EE000E50FF11D4083F1E0EF1AF10871F7A20C54
:100EF000B31CF50131972081273F31F5482F50E091
:100F0000B60123E0929F600D711D11242E81C60150
:100F10007ADFF301108226960FB6F894DEBF0FBE7B
:100F2000CDBFDF91CF911F910F91FF90EF90DF9098
:100F3000CF90BF90AF909F908F907F906F905F9079
:100F40004F903F902F900895833029F7A8016E812C
:100F50009601989F200D311D1124C90148DFD9CF7A
:100F6000A20CB31CF50131978081873F49F043E023
:100F7000E416F10469F4A8016E81C40138DF05C0EC
:100F80002E81A701B401C6013EDFF20110AAC3CF32
:100F9000F201E0AAA701B401C30126960FB6F894A6
:100FA000DEBF0FBECDBFDF91CF911F910F91FF909C
:100FB000EF90DF90CF90BF90AF909F908F907F90F9
:100FC0006F905F904F903F902F900C94621D360170
:100FD000F3E09F9F600C711C1124A8016E81C30176
:100FE00006DFF4E0EF16F10408F4BACFA8016E8131
:100FF000C401FDDE23E0820E911C33E0E31AF10808
:10100000F0CF0F931F93CF93DF9300D000D000D089
:101010001F92CDB7DEB79A8389838E010F5F1F4F72
:101020008F559F4F12DF27960FB6F894DEBF0FBE85
:10103000CDBFDF91CF911F910F9108958CE793E081
:1010400055DB43E050E067E270E083E593E0EADAE5
:1010500047E150E066E270E082E493E0E3DA43E0E7
:1010600051E069E270E081E393E0DCDA47E151E0CE
:1010700068E270E080E293E0D5DA43E052E06BE2B0
:1010800070E08FE093E0CEDA47E152E06AE270E090
:101090008EEF92E0C7DA43E053E06DE270E08DEE50
:1010A00092E0C0DA47E153E06CE270E08CED92E050
:1010B000B9CA8CED92E073DA8DEE92E070DA8EEFC1
:1010C00092E06DDA8FE093E06ADA80E293E067DA2B
:1010D00081E393E064DA82E493E061DA83E593E00C
:1010E0005EDA8CE793E02CC9569A5E9A62E370E070
:1010F00080E090E00E94C6185E9862E370E080E0B5
:1011000090E00E94C6185E9A62E370E080E090E092
:101110000E94C6185E9862E573E080E090E00E944D
:10112000C618E3CFCF93DF93C0915E04D0915F04E4
:10113000209759F0E881F981008CF18DE02DCE01E6
:1011400009950A80DB81C02DF3CFDF91CF910895FF
:10115000CF93DF93C0915E04D0915F04209759F044
:10116000E881F981028CF38DE02DCE0109950A808A
:10117000DB81C02DF3CFDF91CF910895CF93DF9323
:10118000C0915E04D0915F04209759F0E881F98105
:10119000048CF58DE02DCE0109950A80DB81C02DF0
:1011A000F3CFDF91CF910895FC0182859385089557
:1011B000FC018085918508958EE594E00895EF9275
:1011C000FF920F931F93CF93DF938C01F5DFFC0108
:1011D000C081D1812097A1F0CE01EADF081719075D
:1011E00078F0CE01E1DF7C01CE01E2DF08171907BC
:1011F00018F00E151F0530F00A80DB81C02DEACFF4
:10120000D0E0C0E0CE01DF91CF911F910F91FF9010
:10121000EF900895D4DF009709F466CF0895EF9218
:10122000FF920F931F93CF93DF93811520E89207CE
:1012300001F18633910540F4DF91CF911F910F9119
:10124000FF90EF900C943818EC01E4DF8C01DC0186
:10125000ED91FC91E488F588ABDFBE01681B790B4A
:10126000C801F701DF91CF911F910F91FF90EF908F
:10127000099490E080E0DF91CF911F910F91FF9052
:10128000EF900895DC015496ED91FC91309719F0A0
:10129000CB01BA0109940895DC015696ED91FC91B9
:1012A000309711F0CB01099408950F931F93CF93BA
:1012B000DF93CDB7DEB72A970FB6F894DEBF0FBE27
:1012C000CDBF2E833F83488759876A87DC015296BA
:1012D000ED91FC91309709F04AC085E0FE01369609
:1012E000DE01119601900D928A95E1F70091660456
:1012F000109167040115110509F442C0D801ED9160
:10130000FC910284F385E02D29813A814B815C8137
:101310006D81C8010995882309F447C0D801149646
:10132000ED91FC911597309759F184819581129632
:101330002D913C91009779F1DC0113961C930E934B
:1013400012973383228315830483D8011396FC9369
:10135000EE93129715969C938E9314972115310551
:10136000F9F0D9011596FC93EE93149709C04E81BC
:101370005F81688579858A850995882309F4ADCFD1
:101380002A960FB6F894DEBF0FBECDBFDF91CF9186
:101390001F910F9108951093670400936604D1CFB5
:1013A000F0936904E0936804EBCFF80102811381A4
:1013B000A1CFEF92FF920F931F93CF93DF938A01F8
:1013C000F62EE72EDC015096ED91FC913097C1F49A
:1013D000802F807F803B09F045C0193779F5C09197
:1013E0007604D09177042097C1F0E881F9810680D6
:1013F000F781E02DCE0109950A80DB81C02DF3CF66
:10140000BA018F2D9E2D0995882311F3DF91CF917D
:101410001F910F91FF90EF900895C0916E04D091AD
:101420006F04209799F3E881F9810680F781E02D18
:10143000CE0109950A80DB81C02DF3CF1B3709F05F
:10144000D9C0C0917E04D0917F042097F9F2E88141
:10145000F9810680F781E02DCE0109950A80DB81B4
:10146000C02DF3CF813BE8F5803929F0803A09F4AB
:1014700084C0803859F6C0917E04D0917F042097B3
:1014800029F2E881F9810284F385E02DA8016F2D0E
:101490007E2DCE010995882309F46BC0EC81FD8176
:1014A000309709F4B3CF848195812A813B810097DD
:1014B00009F455C0DC011396DC93CE931297338365
:1014C0002283D583C483FB83EA839D838C83211588
:1014D000310509F449C0D9011596FC93EE93149790
:1014E00095CF803D09F4CCC0803E09F406C1803C14
:1014F00009F08CCFC0917204D0917304209709F445
:1015000085CFE881F9810284F385E02DA8016F2D54
:101510007E2DCE010995882309F4AEC0EC81FD81B2
:10152000309709F473CF848195812A813B8100979C
:1015300009F49DC0DC011396DC93CE93129733839C
:101540002283D583C483FB83EA839D838C83211507
:10155000310509F6F0937504E093740457CFD093E6
:101560007F04C0937E04ABCFF0938104E0938004AA
:101570004DCF0A80DB81C02D82CFC0917A04D091FB
:101580007B04209709F442CFE881F9810284F38536
:10159000E02DA8016F2D7E2DCE010995882331F114
:1015A000EC81FD81309709F431CF848195812A81C6
:1015B0003B810097B1F0DC011396DC93CE93129738
:1015C00033832283D583C483FB83EA839D838C8307
:1015D0002115310509F07FCFF0937D04E0937C0461
:1015E00015CFD0937B04C0937A04EACF0A80DB81C5
:1015F000C02DC7CFC0917604D0917704209709F40D
:1016000005CFE881F9810284F385E02DA8016F2DD3
:101610007E2DCE010995882331F1EC81FD81309733
:1016200009F4F4CE848195812A813B810097B1F041
:10163000DC011396DC93CE93129733832283D583F8
:10164000C483FB83EA839D838C832115310509F0D4
:1016500042CFF0937904E0937804D8CED093770406
:10166000C0937604EACF0A80DB81C02DC7CFD09328
:101670007304C093720463CF0A80DB81C02D3ECF18
:10168000C0916E04D0916F04209709F4BFCEE88119
:10169000F9810284F385E02DA8016F2D7E2DCE0106
:1016A0000995882331F1EC81FD81309709F4AECEA4
:1016B000848195812A813B810097B1F0DC011396EA
:1016C000DC93CE93129733832283D583C483FB8329
:1016D000EA839D838C832115310509F0FCCEF093BC
:1016E0007104E093700492CED0936F04C0936E04A3
:1016F000EACF0A80DB81C02DC7CFC0916A04D091A8
:101700006B04209709F482CEE881F9810284F38585
:10171000E02DA8016F2D7E2DCE010995882331F192
:10172000EC81FD81309709F471CE848195812A8105
:101730003B810097B1F0DC011396DC93CE931297B6
:1017400033832283D583C483FB83EA839D838C8385
:101750002115310509F0BFCEF0936D04E0936C04C0
:1017600055CED0936B04C0936A04EACF0A80DB8124
:10177000C02DC7CFCF93DF93EC018FE091E0998329
:10178000888385E291E09D838C83CE010496D9D62F
:10179000CE01DF91CF91BEC60497ECCFCF93DF93FC
:1017A000EC0184EF91E0998388838AE092E09D8345
:1017B0008C83CE018C96D4D6CE014896D1D6CE015C
:1017C000DF91CF91D7CF0497E9CF80E994E0E6CFBE
:1017D000CF93DF93EC01E2DFCE01DF91CF910C9448
:1017E000381B0497F5CFCF93DF93EC01C3DFCE0115
:1017F000DF91CF910C94381B0497F5CF809188042A
:101800008111A9C088E894E00E94391B892B09F452
:10181000A2C0109293041092920410929704109216
:10182000960484EF91E090939104809390048AE071
:1018300092E090939504809394048AE191E4A0E06F
:10184000B0E08093980490939904A0939A04B09385
:101850009B040E94E6186A517144810991096093C2
:101860009C0470939D0480939E0490939F04109217
:10187000A1041092A0041092A3041092A20410924A
:10188000A5041092A4041092A7041092A60410922A
:10189000AB041092AA041092AF041092AE0422E995
:1018A00032E03093A9042093A80486EB92E0909351
:1018B000AD048093AC041092B1041092B004109265
:1018C000B3041092B2044EEA54E05093B50440932E
:1018D000B4044AEA54E05093B7044093B60410921B
:1018E000B9041092B8041092BB041092BA0410927A
:1018F000BF041092BE041092C3041092C20430932D
:10190000BD042093BC049093C1048093C004109242
:10191000C5041092C4041092C7041092C60482EC4D
:1019200094E09093C9048093C8048EEB94E0909364
:10193000CB048093CA041092CD041092CC04109270
:10194000CF041092CE0488E894E00E94421B85EEFA
:101950009BE00E940B0180E994E00895EF92FF92D2
:101960000F931F93CF93DF93EC018E819F81892B7F
:1019700039F58A819B81892B19F570D28C01892BCD
:1019800009F4B2DB7E0188E1E80EF11CB701CE015B
:101990002DD5B701C801049649D57E018CE2E80E29
:1019A000F11CB701CE01049641D5B701C8011ED57F
:1019B00081E0DF91CF911F910F91FF90EF900895FB
:1019C00080E0F7CF0496C1C6CF93DF93C0917E0429
:1019D000D0917F04209759F0E881F9810084F18546
:1019E000E02DCE0109950A80DB81C02DF3CFC09197
:1019F0007A04D0917B04209759F0E881F981008422
:101A0000F185E02DCE0109950A80DB81C02DF3CF51
:101A1000C0917604D0917704209759F0E881F9813C
:101A20000084F185E02DCE0109950A80DB81C02D6F
:101A3000F3CFC0917204D0917304209759F0E881DC
:101A4000F9810084F185E02DCE0109950A80DB81C2
:101A5000C02DF3CFC0916E04D0916F04209759F040
:101A6000E881F9810084F185E02DCE0109950A8095
:101A7000DB81C02DF3CFC0916A04D0916B04209715
:101A800059F0E881F9810084F185E02DCE010995B6
:101A90000A80DB81C02DF3CFC0916604D09167042A
:101AA000209759F0E881F9810084F185E02DCE017D
:101AB00009950A80DB81C02DF3CFDF91CF91089586
:101AC000CF93DF93C091D004D091D1042097C9F077
:101AD0008E819F810A80DB81C02D209729F02E8185
:101AE0003F818217930759F0DC01ED91FC9104844A
:101AF000F585E02D0995209721F02E813F81C901C0
:101B0000E9CFDF91CF910895CF92DF92EF92FF92CC
:101B10000F931F93CF93DF938C0120DF03DBC091E2
:101B2000D802D091D902209759F0E881F981048038
:101B3000F581E02DCE0109950A80DB81C02DF3CF20
:101B4000C0918204D0918304209759F0E881F981F3
:101B50000480F581E02DCE0109950A80DB81C02D3E
:101B6000F3CFC801ADDFC0917E04D0917F042097F0
:101B700059F0E881F9810480F581E02DCE010995C5
:101B80000A80DB81C02DF3CFC0917A04D0917B0411
:101B9000209759F0E881F9810480F581E02DCE018C
:101BA00009950A80DB81C02DF3CFC0917604D091D6
:101BB0007704209759F0E881F9810480F581E02DC0
:101BC000CE0109950A80DB81C02DF3CFC09172044C
:101BD000D0917304209759F0E881F9810480F58150
:101BE000E02DCE0109950A80DB81C02DF3CFC09195
:101BF0006E04D0916F04209759F0E881F981048038
:101C0000F581E02DCE0109950A80DB81C02DF3CF4F
:101C1000C0916A04D0916B04209759F0E881F98152
:101C20000480F581E02DCE0109950A80DB81C02D6D
:101C3000F3CFC0916604D0916704209759F0E881F2
:101C4000F9810480F581E02DCE0109950A80DB81C0
:101C5000C02DF3CFC091D402D091D502209759F076
:101C6000E881F9810480F581E02DCE0109950A8093
:101C7000DB81C02DF3CFC0916204D0916304209723
:101C800059F0E881F9810480F581E02DCE010995B4
:101C90000A80DB81C02DF3CF0E94E618F801C084D2
:101CA000D184E284F3846C197D098E099F096487CD
:101CB000758786879787DF91CF911F910F91FF904E
:101CC000EF90DF90CF900895DF92EF92FF920F9305
:101CD0001F93CF93DF93C091D004D091D10420976C
:101CE00049F10E811F817E01D12CE881F9810680A6
:101CF000F781E02DCE010995D82A0A80DB81C02D1D
:101D00002097B1F08E819F8108171907D9F48C01B3
:101D1000ECCFD801ED91FC910288F389E02DC80148
:101D20000995209739F08E819F817E01D12CEFCFCC
:101D3000D1100AC0DF91CF911F910F91FF90EF90CA
:101D4000DF900895DD2079F3D801ED91FC910684B0
:101D5000F785E02DC8010995D801ED91FC91008827
:101D6000F189E02DC8010995CE15DF0591F2D70163
:101D7000ED91FC910480F581E02DC7010995F701F3
:101D8000E280F380F1CFCF93DF93C091D802D0915E
:101D9000D902209759F0E881F9810680F781E02D7A
:101DA000CE0109950A80DB81C02DF3CFDF91CF9161
:101DB0000895CF92DF92EF92FF920F931F93CF93EC
:101DC000DF93EC01DBD90091D4021091D50201150B
:101DD000110561F0D801ED91FC910680F781E02DAD
:101DE000C8010995F80102811381F1CFCCDFCE0142
:101DF000EBDD0E94E618CC84DD84EE84FF84088548
:101E000019852A853B85AB01BC014C195D096E091A
:101E10007F09401751076207730760F0D701C601B9
:101E2000800F911FA21FB31F8C879D87AE87BF872E
:101E3000CE014ADFDF91CF911F910F91FF90EF907C
:101E4000DF90CF9085C9DADC909387048093860475
:101E5000089590E080E00895089508958091D40455
:101E60009091D504009749F42091DA023091DB0279
:101E70002115310511F0C90108970895CF93DF931B
:101E8000EC0184E292E09983888388E492E09D8368
:101E90008C8386E592E09987888782E692E09F8727
:101EA0008E87DCDFC817D90721F41092D504109271
:101EB000D40488E192E099878887CE0108960E9431
:101EC0003802CE01DF91CF9155CCCF92DF92EF92C5
:101ED000FF92CF93DF93EC016A017B01049635D426
:101EE00088899989009781F0DC01ED91FC9101903E
:101EF000F081E02DA7019601BE01DF91CF91FF9007
:101F0000EF90DF90CF900994DF91CF91FF90EF9009
:101F1000DF90CF900895EF92FF920F931F93CF938E
:101F2000DF9300D000D01F92CDB7DEB77C012983AC
:101F30003A834B835C836D83C701049655D4D701E4
:101F400050968D919C91009769F0DC01ED91FC9188
:101F50000280F381E02D09811A812B813C814D8122
:101F6000B70109950F900F900F900F900F90DF9190
:101F7000CF911F910F91FF90EF900895CF92DF9234
:101F8000EF92FF92CF93DF93EC016A017B010496FD
:101F90007BD488899989009781F0DC01ED91FC91CF
:101FA0000480F581E02DA7019601BE01DF91CF915C
:101FB000FF90EF90DF90CF900994DF91CF91FF9049
:101FC000EF90DF90CF9008950F931F93CF93DF93FF
:101FD000EC018B01049692D488899989009769F065
:101FE000DC01ED91FC910680F781E02DA801BE0196
:101FF000DF91CF911F910F910994DF91CF911F91A4
:102000000F910895DC0118968D919C91009739F0FD
:10201000DC01ED91FC910088F189E02D099490E0BC
:1020200080E00895DC011A968D919C91009739F01B
:10203000DC01ED91FC910084F185E02D099490E0A4
:1020400080E008950497EECFEF92FF920F931F93D5
:10205000CF93DF93EC018B017A01888999890097EE
:1020600021F06817790709F03FD8198B088BEC85A8
:10207000FD8580819181009781F02A853B852E1511
:102080003F0559F4DC01ED91FC910484F585E02DC8
:10209000AE014C5F5F4FB80109958885998500971F
:1020A00059F0DC01ED91FC910484F585E02DAE0141
:1020B0004C5F5F4FB80109958A859B850097D9F0E1
:1020C000E816F906C1F06A897B896115710541F04E
:1020D000DC01ED91FC910680F781E02DAE010995C0
:1020E0008A859B85DC01ED91FC910480F581E02DD2
:1020F000AE01B8010995EE85FF8580819181009739
:10210000A9F09C012C5F3F4FE216F30679F0DC0149
:10211000ED91FC91048CF58DE02DAE01B801DF91BD
:10212000CF911F910F91FF90EF900994DF91CF9184
:102130001F910F91FF90EF900895EF92FF920F93F0
:102140001F93CF93DF93EC018B017A0188899989E2
:10215000009729F06817790711F00E947408198A0E
:10216000188AEC85FD8580819181009781F02A8510
:102170003B852E153F0559F4DC01ED91FC91068459
:10218000F785E02DAE014C5F5F4FB801099588855A
:102190009985009759F0DC01ED91FC910684F78553
:1021A000E02DAE014C5F5F4FB80109958A859B8594
:1021B0000097D9F0E816F906C1F0DC01ED91FC9129
:1021C0000680F781E02DAE01B80109956A897B8907
:1021D0006115710551F08A859B85DC01ED91FC91BB
:1021E0000480F581E02DAE010995EE85FF858081A3
:1021F00091810097A9F09C012C5F3F4FE216F306F6
:1022000079F0DC01ED91FC91068CF78DE02DAE01AB
:10221000B801DF91CF911F910F91FF90EF9009943A
:10222000DF91CF911F910F91FF90EF9008950F9341
:102230001F93CF93DF93EC018885998584179507C9
:1022400011F58B01798B688B8A859B85009741F00E
:10225000DC01ED91FC910480F581E02DAE01099542
:10226000EE85FF85808191810097F9F0DC01ED9189
:10227000FC91048CF58DE02DAE01B801DF91CF917A
:102280001F910F9109948A899B89892B71F47B8B0B
:102290006A8B8A859B85009741F0DC01ED91FC916A
:1022A0000480F581E02DAE01E9CFDF91CF911F9140
:1022B0000F9108950497BBCF0F931F93CF93DF9394
:1022C000EC018B01888599858417950709F5198A92
:1022D000188A8A859B85009741F0DC01ED91FC917D
:1022E0000680F781E02DAE010995EE85FF8580819E
:1022F0009181009701F1DC01ED91FC91068CF78D45
:10230000E02DAE01B801DF91CF911F910F9109949B
:102310006A897B896017710771F41B8A1A8A8A851A
:102320009B85009741F0DC01ED91FC910680F781DF
:10233000E02DAE01E8CFDF91CF911F910F9108956D
:102340000497BACFDC011296ED91FC911397309768
:1023500031F01186108613961C921E9212970895E2
:10236000DC011296ED91FC911397309731F01386B2
:10237000128613961C921E9212970895FC01A28158
:10238000B381109749F0ED91FC9111970484F58584
:10239000E02DAC01CD0109940895FC01A281B38127
:1023A000109749F0ED91FC9111970684F785E02D87
:1023B000AC01CD0109940895DC011296ED91FC91D8
:1023C000309739F080899189009729F4828993891F
:1023D000089590E080E00895FC0120853185232B4D
:1023E00011F00E9474087187608708950F931F93FE
:1023F000CF93DF93EC018B018A819B81009751F48D
:10240000BE01C801E9DF1B830A83DF91CF911F91D1
:102410000F910895EC01F0CFFC0122853385232B29
:1024200011F00E9474087387628708950F931F93B9
:10243000CF93DF93EC018B018A819B81009751F44C
:10244000BE01C801E9DF1B830A83DF91CF911F9191
:102450000F910895EC012496EFCFEF92FF920F9326
:102460001F93CF93DF93EC010885198501151105A2
:1024700071F0EE85FF85E080F180E114F10439F020
:10248000C80160DFCE015EDFB701C801AFDF0A859A
:102490001B850115110579F0EC85FD85E080F18043
:1024A000E114F10441F0C8015BDFCE01049658DF6E
:1024B000B701C801BBDF88859985009709F042DF25
:1024C0008A859B85009709F04BDFEE85FF8580812B
:1024D0009181892B31F4EC85FD8580819181892B57
:1024E00011F00E947408DF91CF911F910F91FF901E
:1024F000EF900895CF93DF93EC018A819B81009741
:1025000031F0F8DF8A819B81A8DF1B821A82DF917C
:10251000CF9108952EE632E0FC0131832083EACF8B
:10252000CF93DF93EC018A819B81009739F0049669
:10253000F7DF8A819B8191DF1B821A82DF91CF9125
:10254000089524E832E0FC0131832083E9CFCF9362
:10255000DF93EC01F6DFCE01DF91CF910C94381BB5
:10256000CF93DF93EC0182E992E09983888386EB35
:1025700092E09D838C83CE0170DFCE010496E1DF73
:10258000CE01DF91CF91C6CFCF93DF93EC01E8DF8F
:10259000CE01DF91CF910C94381B0497F5CF0497AF
:1025A000DFCF1F93CF93DF93EC0188899989009740
:1025B00041F48A899B89892B31F4DF91CF911F9156
:1025C0000895019621F18A899B89019601F11BE00A
:1025D00088899989009721F42A893B89232B69F3FB
:1025E000115059F3009739F0DC01ED91FC91068010
:1025F000F781E02D09958A899B89009749F3DC01D1
:10260000ED91FC910680F781E02D0995E1CF0E94C4
:102610007408FC0182819381009709F0C2CF08956C
:10262000DC0118968D919C91009739F0DC01ED91B9
:10263000FC910480F581E02D09940895F1CFF0CF4D
:10264000CF93DF9300D000D01F92CDB7DEB72983A0
:102650003A834B835C836D83DC0118968D919C914A
:10266000009771F0DC01ED91FC910680F781E02D7F
:102670000F900F900F900F900F90DF91CF910994D2
:102680000F900F900F900F900F90DF91CF910895C2
:10269000CF93DF9300D000D01F92CDB7DEB70F905D
:1026A0000F900F900F900F90DF91CF91C9CFCF93E4
:1026B000DF9300D000D01F92CDB7DEB70F900F9000
:1026C0000F900F900F90DF91CF91BACFDC01189649
:1026D0008D919C91009739F0DC01ED91FC91008483
:1026E000F185E02D09940895F1CFF0CFDC01189623
:1026F0008D919C91009739F0DC01ED91FC91028461
:10270000F385E02D09940895F1CFF0CFCF92DF92B9
:10271000EF92FF92CF93DF93EC016A017B01EC858E
:10272000FD8580819181009709F0F0DFE881F981D2
:102730000288F389E02DB701A601CE01DF91CF9188
:10274000FF90EF90DF90CF900994CF92DF92EF92BD
:10275000FF92CF93DF93FC0122813381232B79F009
:102760006A017B01EC0155DFB701A6018A819B81DB
:10277000DF91CF91FF90EF90DF90CF90C7CFDF91A7
:10278000CF91FF90EF90DF90CF9008950F931F931C
:10279000CF93DF9300D000D01F92CDB7DEB78C016E
:1027A00029833A834B835C836D83DC011C96ED9116
:1027B000FC9180819181009709F0E8DFD801ED91CB
:1027C000FC910488F589E02D29813A814B815C8157
:1027D0006D81C8010F900F900F900F900F90DF91B7
:1027E000CF911F910F9109940F931F93CF93DF9374
:1027F00000D000D01F92CDB7DEB729833A834B8338
:102800005C836D83FC0122813381232BA1F08C0139
:1028100000DF29813A814B815C816D81F8018281E1
:1028200093810F900F900F900F900F90DF91CF91A9
:102830001F910F91ABCF0F900F900F900F900F90B3
:10284000DF91CF911F910F910895CF92DF92EF9278
:10285000FF92CF93DF93EC016A017B01EC85FD854C
:1028600080819181009709F0F0DFE881F981068885
:10287000F789E02DB701A601CE01DF91CF91FF903E
:10288000EF90DF90CF900994CF92DF92EF92FF927A
:10289000CF93DF93FC0122813381232B79F06A01EE
:1028A0007B01EC01B6DEB701A6018A819B81DF9135
:1028B000CF91FF90EF90DF90CF90C7CFDF91CF9176
:1028C000FF90EF90DF90CF9008950F931F93CF93D9
:1028D000DF93EC018B01EC85FD8580819181009770
:1028E00009F0F3DFE881F981008CF18DE02DB8016A
:1028F000CE01DF91CF911F910F910994FC0182814C
:102900009381009709F0E1CF0895FC01E058FF4F53
:10291000118210828E579F4F21E0FC012083089581
:102920008E579F4FFC0110820895FC01E058FF4F25
:1029300020813181820F931FDC016C932F5F3F4F09
:102940003183208308950F931F93CF93DF93C42F78
:10295000D0E08C0100581F4FF80120813181AE0179
:10296000820F931F0E94621DF80140815181C40FA4
:10297000D51FD183C083DF91CF911F910F9108950F
:10298000FC01E058FF4F20E830E0261B310981E0D0
:10299000408151812417350708F480E008958E574F
:1029A0009F4FFC0180810895089580589F4FFC013E
:1029B000808191810895DF92EF92FF920F931F9390
:1029C000CF93DF9300D000D0CDB7DEB77C01498331
:1029D0005A836B837C83D22E822F8F70870193E87A
:1029E000899F000D111D1124095F1F4F8A81803FAF
:1029F00009F5C8018ADF63E0C801C2DF811120C088
:102A000089819A81AB81BC81F701E657FF4F8083B2
:102A10009183A283B383F701D68284E00F900F9055
:102A20000F900F90DF91CF911F910F91FF90EF903A
:102A3000DF900895C801B3DF8111DDCF80E0EECFD4
:102A400043E0BE016E5F7F4FC8017DDFF7CFBF92CD
:102A5000CF92DF92EF92FF920F931F93CF93DF936A
:102A6000EC01573F69F058832B8385E0DF91CF91CC
:102A70001F910F91FF90EF90DF90CF90BF9008953E
:102A8000122FB72ED62E052FC42E822F8F709E01A7
:102A900043E8849F200D311D1124295F3F4F7901A8
:102AA000C9017DDF8823B9F061E0C70169DF8111C9
:102AB0000AC0FE01E657FF4FC0820183D282B38273
:102AC0001E8384E0D3CF67EFC7012FDFC70128DF64
:102AD0001E8382E0CBCF80E0C9CFDF92EF92FF92DE
:102AE0000F931F93CF93DF93CDB7DEB728970FB621
:102AF000F894DEBF0FBECDBF242F30E0E4E0359563
:102B00002795EA95E1F72115310511F080E020C005
:102B1000E42FEF70E250EE30C8F78C01F0E0EE5693
:102B2000FA4EC7C7A015A015B615B915BC15F415F2
:102B30001B161B161B161B161B161B161B16241604
:102B4000FC015083618372838381807F838385E06E
:102B500028960FB6F894DEBF0FBECDBFDF91CF91A0
:102B60001F910F91FF90EF90DF90089520E023DFF9
:102B7000EFCF20E06CDFECCF4D835E836F837887EF
:102B8000D12C83E8829F7001839FF00C1124F7E021
:102B9000EF0EF11CE00EF11EC701503FA9F4B5DEA7
:102BA00062E0C701EDDE811113C08D819E81AF818E
:102BB000B885F801E657FF4F80839183A283B383E2
:102BC000F801D68284E0C4CFEADE8111E9CF9ECF3E
:102BD00042E0BE016A5F7F4FC701B5DEC701A0DEDC
:102BE000F801D68282E0B4CF49835A836B837C8319
:102BF000D12C83E8829F7001839FF00C1124F7E0B1
:102C0000EF0EF11CE00EF11EC701503F59F47DDEBE
:102C100063E0C701B5DE811109C089819A81AB816A
:102C2000BC81C7CFBCDE8111F3CF70CF43E0BE01C2
:102C30006E5F7F4FD1CFFC015083618372838381AC
:102C4000807F838381E084CFFC0154838581807FF2
:102C5000858383E07DCFCF92DF92EF92FF921F9327
:102C6000CF93DF93FC01E657FF4F2081222341F1F0
:102C7000EC01C080D180E280F38010828E818F7061
:102C800013E89E01189F200D311D1124C9010796DC
:102C900086DE882351F08E818F709E01189F200D53
:102CA000311D1124C901079630DEB701A601CE01FE
:102CB000DF91CF911F91FF90EF90DF90CF900DCFDC
:102CC00080E0DF91CF911F91FF90EF90DF90CF9048
:102CD00008951F920F920FB60F9211240BB60F9208
:102CE0002F933F934F935F936F937F938F939F9314
:102CF000AF93BF93EF93FF938091D6049091D70445
:102D0000892B29F0E091D604F091D7040995FF9121
:102D1000EF91BF91AF919F918F917F916F915F9153
:102D20004F913F912F910F900BBE0F900FBE0F90C0
:102D30001F9018951F920F920FB60F9211240BB689
:102D40000F922F933F934F935F936F937F938F9344
:102D50009F93AF93BF93EF93FF938091D80490918B
:102D6000D904892B29F0E091D804F091D904099570
:102D7000FF91EF91BF91AF919F918F917F916F9153
:102D80005F914F913F912F910F900BBE0F900FBE0F
:102D90000F901F9018951F920F920FB60F9211244B
:102DA0000BB60F922F933F934F935F936F937F9345
:102DB0008F939F93AF93BF93EF93FF938091DA0428
:102DC0009091DB04892B29F0E091DA04F091DB0487
:102DD0000995FF91EF91BF91AF919F918F917F9155
:102DE0006F915F914F913F912F910F900BBE0F907C
:102DF0000FBE0F901F9018951F920F920FB60F9253
:102E000011240BB60F922F933F934F935F936F93C1
:102E10007F938F939F93AF93BF93EF93FF93809193
:102E2000DC049091DD04892B29F0E091DC04F09121
:102E3000DD040995FF91EF91BF91AF919F918F9123
:102E40007F916F915F914F913F912F910F900BBEAA
:102E50000F900FBE0F901F9018951F920F920FB6F4
:102E60000F9211240BB60F922F933F934F935F93C2
:102E70006F937F938F939F93AF93BF93EF93FF9342
:102E80008091DE049091DF04892B29F0E091DE042B
:102E9000F091DF040995FF91EF91BF91AF919F9160
:102EA0008F917F916F915F914F913F912F910F90F3
:102EB0000BBE0F900FBE0F901F9018951F920F9290
:102EC0000FB60F9211240BB60F922F933F934F938F
:102ED0005F936F937F938F939F93AF93BF93EF9382
:102EE000FF938091E0049091E104892B29F0E09117
:102EF000E004F091E1040995FF91EF91BF91AF914A
:102F00009F918F917F916F915F914F913F912F9101
:102F10000F900BBE0F900FBE0F901F9018951F9231
:102F20000F920FB60F9211240BB60F922F933F936F
:102F30004F935F936F937F938F939F93AF93BF93C1
:102F4000EF93FF938091E2049091E304892B29F0A1
:102F5000E091E204F091E3040995FF91EF91BF91B4
:102F6000AF919F918F917F916F915F914F913F9121
:102F70002F910F900BBE0F900FBE0F901F901895C2
:102F80001F920F920FB60F9211240BB60F922F9330
:102F90003F934F935F936F937F938F939F93AF93E1
:102FA000BF93EF93FF938091E4049091E504892B04
:102FB00029F0E091E404F091E5040995FF91EF9187
:102FC000BF91AF919F918F917F916F915F914F9141
:102FD0003F912F910F900BBE0F900FBE0F901F903F
:102FE00018951DBA109268001CBC10BE1FBA109232
:102FF0007A0010926E0010926F0010927000109282
:1030000071001092C9001092BC0011B814B817B822
:103010001AB81DB810BA12B815B818B81BB81EB82F
:1030200011BA0895F894E1E6F0E020E820831082D8
:1030300083E084BD85BDEEE6F0E080818160808321
:1030400091E09093800082E0809381009093B000A3
:103050008093B100909390008093910086E88093D4
:103060007A0020937B0010927E00CFD07894089550
:103070009AED980F983010F1883060F490917E00AE
:1030800021E030E0082E01C0220F0A94EAF7922BCB
:1030900090937E008F7190910001892B80937C002A
:1030A00080917A00806480937A0080917A0086FD16
:1030B000FCCF80917800909179000895892FDECF20
:1030C000F89484B7877F84BF80916000806180938B
:1030D00060001092600080E29EE40197F1F781E0C9
:1030E0008093E00080E28093D80080E69AEE01971A
:1030F000F1F777DF0C9400FEFFCFF89472DF80E6E3
:103100009AEE0197F1F70C940000FFCF8F938FB7E1
:103110008F938091E6048D5F8D37D0F48093E60421
:103120008091E7048F5F8093E704D8F08091E804F2
:103130008F4F8093E804A8F08091E9048F4F80932B
:10314000E90478F08091EA048F4F8093EA0409C083
:103150008D578093E6048091E7048E5F8093E704A7
:1031600028F78091EB048C5F8093EB0458F08091FA
:10317000EC048F4F8093EC0428F08091ED048F4F86
:103180008093ED048F918FBF8F911895CF92DF922E
:10319000EF92FF926B017C0119D09B01C114D10405
:1031A000E104F10429F4FF90EF90DF90CF900895AF
:1031B0000DD0621B730B683E734080F381E0C81A28
:1031C000D108E108F10828513C4FE8CF0FB6F89438
:1031D00066B515B27091EB048091EC049091ED040A
:1031E0000FBE10FE05C06F3F19F07C5F8F4F9F4FE1
:1031F00011240024660F001C660F001C702908951E
:103200008091E80080FFFCCF08958091D80087FF6F
:1032100002C085FF1BC081E88093D70080EA8093BD
:10322000D80086E189BD09B400FEFDCF80E9809316
:10323000D8001092E0001092680510926705109275
:1032400066051092E1008CE08093E20008951F92E1
:103250000F920FB60F9211248F939F939091E100DC
:103260001092E10093FF0FC01092E90081E080937B
:10327000EB001092EC0082E38093ED0088E08093F5
:10328000F0001092680592FF21C0809168058823A4
:10329000E9F080916605882379F081508093660576
:1032A00081110AC081E08093E9008091E80085FDEA
:1032B00035C08AE38093E80083E08093E900809141
:1032C000F200882319F08AE38093E80090FF0CC095
:1032D00080E18093E2001092680581E080936705A9
:1032E00080EA8093D80019BC80916705882379F023
:1032F00094FF0DC086E189BD09B400FEFDCF80E9D1
:103300008093D8008DE08093E200109267059F9132
:103310008F910F900FBE0F901F9018951092F10093
:10332000C4CF1F920F920FB60F9211240BB60F92BB
:10333000EF92FF920F931F932F933F934F935F93BF
:103340006F937F938F939F93AF93BF93CF93DF93AD
:10335000EF93FF931092E9008091E80083FF21C072
:10336000E090F100F090F100C091F100D091F100F7
:103370000091F1001091F1002091F1003091F100E5
:1033800082EF8093E80086E0F8125CC0E8E9F0E0A4
:1033900085919591C817D90741F03596FA94F110A7
:1033A000F7CF81E28093EB002BC0859195910817B0
:1033B000190711F03396F2CF4591559184912F3F23
:1033C000310519F010F02FEF30E0821708F4282FA4
:1033D0003EEF8091E800982F9570D9F382FD10C0E0
:1033E000822F213408F080E4982F911124C0922F6D
:1033F000981B892F3093E80091111BC02034C8F42A
:10340000FF91EF91DF91CF91BF91AF919F918F91FC
:103410007F916F915F914F913F912F911F910F91EC
:10342000FF90EF900F900BBE0F900FBE0F901F906C
:103430001895282FCECFFA0145914093F100AF01A6
:103440009150D3CF85E0F81208C08EEF8093E8004A
:10345000D7DEC068C093E300D3CF99E0F91222C051
:10346000E110D3C0C0936805109266058EEF80937B
:10347000E80081E0E6E8F1E08093E900959190931F
:10348000EB00992331F095919093EC0095919093F6
:10349000ED008F5F853081F78EE18093EA00109216
:1034A000EA00AECF98E0F9120CC080E8E81279CFBC
:1034B000A7DE809168058093F1008EEF8093E8008D
:1034C0009FCFF11012C09CDE92E8E91209C0009370
:1034D000E900F090EB00F5FAFF24F0F81092E90013
:1034E000F092F1001092F100E8CF8F2D8D7F8130A6
:1034F00009F080C082E0E8121BC02097C9F4402F79
:103500004F778FEF840F863098F48EEF8093E8002A
:103510004093E90093E0F91609F443CF89E18093E1
:10352000EB0081E090E001C0880F4A95EAF7B5CF43
:103530000130110509F05EC081E0F81222C091EA65
:103540003EEFE9122ECF8091E800982F9570D9F3C5
:1035500082FD56CF822F213408F080E4982F9111FC
:103560000CC0922F981B892F3093E800911103C053
:10357000203408F445CF282FE6CF1092F100915067
:10358000EECF89E0F81236C091E2E9120ACFC115F8
:10359000D34009F006CF2430310509F002CF8091E5
:1035A000E80082FFFCCF3091F1002091F100909172
:1035B000F1008091F1004BEF4093E8004EEF409313
:1035C000E800393A51F4253409F0EBCE923C09F089
:1035D000E8CE8B3609F0E5CE73DD3B3809F0E1CE5D
:1035E000253C09F0DECE9D3109F0DBCE803709F0B5
:1035F000D8CE83DD99ECF912D4CE80E4E812D1CE96
:103600008EEF8093E800FCDDF4CF0130110509F066
:10361000C8CEBACFCF92DF92EF92FF920F931F9353
:10362000CF93DF936C01EB017B01E40EF51E10E0FC
:1036300000E0CE15DF0561F06991D601ED91FC91B6
:103640000190F081E02DC6010995080F191FF1CFF7
:10365000C801DF91CF911F910F91FF90EF90DF9004
:10366000CF900895DFDC0E94E9030E943605FDCF6C
:1036700097C1FC0181E090E02081222311F090E0CD
:1036800080E0089521E0FC01208308950895809151
:103690006805882371F08FB7F89492E09093E90061
:1036A0009BE62091E80025FF03C09093E800F9CF46
:1036B0008FBF109261050895FC01809168058823F1
:1036C00069F19FB7F89481E08093E9002091E400CC
:1036D000275E3091E80035FD0EC09FBF9091E40059
:1036E0009217E1F0909168059923C1F09FB7F89483
:1036F0008093E900EECF6093F1008091E80085FDB2
:1037000009C08AE38093E800109266059FBF81E0BC
:1037100090E0089584E080936605F8CF81E082838D
:1037200090E080E008959FB7F89433E03093E9008B
:103730003091E4003E5F53E07091E80075FD0EC0EB
:103740009FBF9091E4003917C9F0909168059923C3
:10375000A9F09FB7F8945093E900EECF8093F10061
:103760006093F1004093F1002093F1008091E80014
:1037700085FD03C08AE38093E8009FBF08950F93FF
:10378000862F642F422F202F90916805992311F0E6
:103790000F91C9CF0F9108959FB7F8948091680554
:1037A000811102C09FBF089582E08093E9002BE65B
:1037B0008091E80085FD03C09FBF80E0089580915F
:1037C000F100811103C02093E800F2CF2091E800BE
:1037D00025FDE8CF2BE62093E800E4CF209161059A
:1037E000211105C0D9DF882329F08093610581E08C
:1037F00090E0089590E080E008959C01909161052B
:10380000992329F010926105892F90E00895C9014C
:10381000C3DF8111FACF8FEF9FEF08959C01909144
:103820006105892F911106C0C901B6DF882321F0F7
:103830008093610590E008958FEF9FEF0895E9E58B
:10384000F5E0128288EE93E0A0E0B0E083839483F9
:10385000A583B683178284EC92E0918380830895D8
:103860000F931F93CF93DF938230910510F482E082
:1038700090E0E0916405F091650530E020E070E0B3
:1038800060E0D0E0C0E0B0E0A0E0309799F421150E
:10389000310509F44AC0281B390B24303105D8F50D
:1038A0008A819B816115710589F1FB019383828374
:1038B000FE0111C0408151810281138148175907CF
:1038C000E0F04817590799F4109761F012960C939D
:1038D000129713961C933296CF01DF91CF911F91CF
:1038E0000F9108950093640510936505F4CF211599
:1038F000310551F04217530738F0A901DB019A0155
:10390000BD01DF01F801C1CFEF01F9CF909365054B
:1039100080936405CDCFFE01E20FF31F8193919355
:103920002250310939832883D7CF20916205309105
:103930006305232B41F4209103013091040130935E
:103940006305209362052091010130910201211548
:10395000310541F42DB73EB7409105015091060164
:10396000241B350BE0916205F0916305E217F30724
:10397000A0F42E1B3F0B2817390778F0AC014E5FDF
:103980005F4F2417350748F04E0F5F1F50936305B4
:1039900040936205819391939FCFF0E0E0E09CCF4C
:1039A000CF93DF930097E9F0FC01329713821282E4
:1039B000A0916405B0916505ED0130E020E010971D
:1039C000A1F420813181820F931F209162053091F3
:1039D00063052817390709F061C0F0936305E09388
:1039E0006205DF91CF910895EA01CE17DF07E8F570
:1039F0004A815B819E0141155105B1F7E901FB83C5
:103A0000EA8349915991C40FD51FEC17FD0761F462
:103A1000808191810296840F951FE90199838883A3
:103A2000828193819B838A83F0E0E0E012968D91FE
:103A30009C9113970097B9F52D913C911197CD0169
:103A40000296820F931F209162053091630528171B
:103A5000390739F6309751F51092650510926405D3
:103A6000B0936305A0936205BCCFD383C28340812A
:103A70005181840F951FC817D90761F44E5F5F4FBE
:103A800088819981480F591F518340838A819B8186
:103A9000938382832115310509F0B0CFF09365053A
:103AA000E09364059ECFFD01DC01C0CF138212823A
:103AB000D7CFEE0FFF1F0024001C0BBE0790F6911E
:103AC000E02D0994FB01DC0102C001900D924150F0
:103AD0005040D8F708950E94F80010E0CCECD0E0F8
:103AE00003C0FE01E6DF2196CD3CD107D1F7F89463
:023AF000FFCF06
:103AF200400000690580003C3F3E000000000000DD
:103B0200000000461B461B461B461B29012A012BAF
:103B120001FCFF0000000000002C012D012E01001D
:103B220000000038027302000000007C02B70200AD
:103B320000000000000000461B461B00000000CFF2
:103B420002D502DE02D701000000007801910104D3
:103B5200033201C7016B0129012A012B01750133CF
:103B620005D806B8060108A00677018C06FCFF00FE
:103B7200008D019A012C012D012E01F8FF00008F0A
:103B8200019C0176013405F2FF00008B019E012F9A
:103B9200018D0600000000A001B80104033201C734
:103BA200016B0129012A012B0175013305D806B8E1
:103BB200060108A00677018C06FCFF0000B601C5CD
:103BC200012C012D012E01F8FF0000B401C3017682
:103BD200013405F2FF0000B201C1012F018D060080
:103BE20000000000CE0BE80BD909550942094C0927
:103BF20029012A012B01FCFF0000E30BF10B2C0130
:103C02002D012E010000000000000000461B461B93
:103C1200000000000000000004033201C7016B0134
:103C220029012A012B012C0F461B461B461B461B52
:103C3200461B461BFCFF0000000000002C012D016A
:103C42002E01F8FF0000000000002D0F461BF2FFBE
:103C52000000000000002F01461B000000000000D1
:103C62000000461B461B461B461B29012A012B014D
:103C720000000000A112A7122C012D012E0100004C
:103C82000000B012C4121F135713751385132410AA
:103C92009D1002101E13481374138413121017116F
:103CA2005C11FCFF0000CF12CD125A11A01122109C
:103CB200000000005C1B0A1B290F471BEE1BFD1BAB
:023CC2000E1CD6
:00000001FF
