:020000040000FA
:100000000C945E000C94F10E0C94CA0E0C948600B5
:100010000C9486000C9486000C9486000C94860048
:100020000C9486000C9486000C9486000C94860038
:100030000C9486000C9486000C9486000C94860028
:100040000C94800E0C9486000C944E0E0C94280E8A
:100050000C9486000C9486000C9486000C94860008
:100060000C9486000C9486000000000024002700F9
:100070002A0000000000250028002B0004040404CE
:100080000404040402020202020203030303030342
:10009000010204081020408001020408102001021F
:1000A00004081020000000080002010000030407FB
:1000B00000000000000000007B10601411241FBE2F
:1000C000CFEFD8E0DEBFCDBF13E0A0E0B1E0E6E9BE
:1000D000FBE202C005900D92A631B107D9F724E0EA
:1000E000A6E1B3E001C01D92AC3FB207E1F710E01A
:1000F000CDE5D0E004C02197FE010E948E14CC35DE
:10010000D107C9F70E9405120C94BE150C9400008B
:10011000AF92BF92CF92DF92EF92FF920F931F9315
:10012000CF93DF936C017B018B01040F151FEB0153
:100130005E01AE18BF08C017D10759F06991D6010A
:10014000ED91FC910190F081E02DC6010995892B7C
:1001500079F7C501DF91CF911F910F91FF90EF903B
:10016000DF90CF90BF90AF900895FC01538D448DE8
:10017000252F30E0842F90E0821B930B541710F052
:10018000CF96089501970895FC01918D828D98175F
:1001900061F0A28DAE0FBF2FB11D5D968C91928D37
:1001A0009F5F9F73928F90E008958FEF9FEF089568
:1001B000FC01918D828D981731F0828DE80FF11D31
:1001C000858D90E008958FEF9FEF0895FC01918D4C
:1001D000228D892F90E0805C9F4F821B91098F7345
:1001E0009927089583E993E00E94E60021E0892B96
:1001F00009F420E0822F089580E090E0892B29F017
:100200000E94F20081110C9400000895FC01A48D5D
:10021000A80FB92FB11DA35ABF4F2C91848D90E028
:1002200001968F739927848FA689B7892C93A0890B
:10023000B1898C91837080648C93938D848D981395
:1002400006C00288F389E02D80818F7D8083089528
:10025000EF92FF920F931F93CF93DF93EC0181E016
:10026000888F9B8D8C8D98131AC0E889F9898081BD
:1002700085FF15C09FB7F894EE89FF896083E889F0
:10028000F98980818370806480839FBF81E090E0E2
:10029000DF91CF911F910F91FF90EF900895F62E6F
:1002A0000B8D10E00F5F1F4F0F731127E02E8C8D09
:1002B0008E110CC00FB607FCFACFE889F98980814E
:1002C00085FFF5CFCE010E940601F1CFEB8DEC0F3B
:1002D000FD2FF11DE35AFF4FF0829FB7F8940B8F6B
:1002E000EA89FB8980818062CFCFCF93DF93EC01D5
:1002F000888D8823B9F0AA89BB89E889F9898C910E
:1003000085FD03C0808186FD0DC00FB607FCF7CFC9
:100310008C9185FFF2CF808185FFEDCFCE010E94C9
:100320000601E9CFDF91CF9108953FB7F89480910E
:100330001B0390911C03A0911D03B0911E0326B5D1
:10034000A89B05C02F3F19F00196A11DB11D3FBF0D
:10035000BA2FA92F982F8827BC01CD01620F711DDC
:10036000811D911D42E0660F771F881F991F4A95D6
:10037000D1F708950895CF93DF93FC01DC01A557D1
:10038000BF4F8C91811108C0EF01C457DF4F8881A6
:10039000882309F45BC08C939C91908380E8890F3B
:1003A000EF01C657DF4F2881222301F1803740F447
:1003B00062831882E457FF4F90831C9281E013C040
:1003C000892F887F803F99F5903F89F16283188259
:1003D000EF01C757DF4F8881882319F0E457FF4F9B
:1003E00010821C9285E0DF91CF910895803748F408
:1003F000892F807F6183813B38F1803E29F1128211
:10040000D9CF892F887F803F81F4903FA9F4DF0105
:10041000AA57BF4F2D913C91119720383105C0F05C
:10042000E357FF4F608384E0DECF903F81F3E457D2
:10043000FF4F10821C920AC0923F29F0943FB8F7F8
:1004400061831282C5CF618381E0888380E0CBCF56
:10045000E20FF31F66832F5F3F4F2D933C93F6CF40
:100460000F931F93CF93DF93FC01EC01C557DF4F30
:100470008881803F69F5673F21F0DF01A357BF4FB7
:100480006C938F010A571F4FD8018D919C91803832
:10049000910548F0E357FF4F608384E0DF91CF91EF
:1004A0001F910F9108959F01280F391F47EFD90120
:1004B00016964C930196D8018D939C93DF01A85713
:1004C000BF4F1C921882E457FF4F108282E0E6CFA4
:1004D000663F79F4608311821282DF01A757BF4F14
:1004E0008C91882319F0E457FF4F1082188285E021
:1004F000D5CF603F89F4DF01A857BF4F81E08C93CF
:100500006683129781E090E08D939C93E457FF4FB0
:100510001082688380E0C2CF673FE1F36883E657CB
:10052000FF4F1082F7CFDC0152968D919C91DC0138
:10053000ED91FC910190F081E02D0994CF93DF9330
:1005400000D000D01F92CDB7DEB729833A834B830A
:100550005C836D83DC0152968D919C914B815C8113
:1005600069817A81DC01ED91FC910280F381E02DBB
:100570000F900F900F900F900F90DF91CF910994F3
:10058000FF920F931F93CF93DF93EC01142FF52E5F
:10059000062F8A899B89DC01ED91FC910190F08105
:1005A000E02D642F0995143FD8F48A899B89DC01DA
:1005B000ED91FC910190F081E02D6F2D0995123F96
:1005C00079F48A899B89DC01ED91FC910190F0819D
:1005D000E02D602FDF91CF911F910F91FF90099433
:1005E000DF91CF911F910F91FF900895FF920F938C
:1005F0001F93CF93DF938C01C42FF52ED62FDC01F0
:1006000052968D919C91DC01ED91FC910190F081CD
:10061000E02D642F0995F80182899389DC01ED9121
:10062000FC910190F081E02D6F2D0995C07FC13BB9
:1006300010F0C03E81F4F80182899389DC01ED91CC
:10064000FC910190F081E02D6D2FDF91CF911F91F2
:100650000F91FF900994DF91CF911F910F91FF901F
:100660000895EF92FF920F931F93CF93DF93EC01C6
:100670008C010C5E1F4FEA88FB88FC01EF55FF4F91
:1006800060816F3FF1F08FEF808332978081803FF0
:1006900031F435971182108281E03296808367FFB2
:1006A0000BC0683FF8F0688F83E0DF91CF911F9116
:1006B0000F91FF90EF900895C8010E94BB01811136
:1006C000F4CFD701ED91FC910284F385E02DC701B1
:1006D000099597FD0BC0682F87FFEECF883F10F07C
:1006E000888FE2CFC8010E943002E9CF80E0DDCFE1
:1006F0000F931F93CF93DF93EC018B01EC85FD8566
:1007000080819181009711F00E947803E881F9813E
:10071000008CF18DE02DB801CE01DF91CF911F91BA
:100720000F910994CF92DF92EF92FF92CF93DF93D4
:10073000EC016A017B01EC85FD8580819181009748
:1007400011F00E949203E881F9810688F789E02D73
:10075000B701A601CE01DF91CF91FF90EF90DF901E
:10076000CF9009940F931F93CF93DF9300D000D0C5
:100770001F92CDB7DEB78C0129833A834B835C830C
:100780006D83DC011C96ED91FC9180819181009735
:1007900011F00E94B203D801ED91FC910488F58913
:1007A000E02D29813A814B815C816D81C8010F90D8
:1007B0000F900F900F900F90DF91CF911F910F919D
:1007C0000994CF92DF92EF92FF92CF93DF93EC01E7
:1007D0006A017B01EC85FD8580819181009711F094
:1007E0000E94E103E881F9810288F389E02DB701D5
:1007F000A601CE01DF91CF91FF90EF90DF90CF90D7
:100800000994FC01A281B381109749F0ED91FC910C
:1008100011970684F785E02DAC01CD010994089568
:10082000CF93DF93DB011496ED91FC9115973097F0
:1008300001F12481358112964D915C911397211518
:100840003105D1F0E9017B836A8353834283B58309
:10085000A4831396FC93EE93129715963C932E93D4
:1008600014974115510561F0DA011596FC93EE934A
:100870001497DF91CF910895EC0179836883E5CFD8
:10088000EC01FB83EA83F5CFDC015696ED91FC91F8
:10089000309711F0CB0109940895DC015496ED9145
:1008A000FC91309719F0CB01BA01099408950F9388
:1008B0001F93CF93DF93CDB7DEB72A970FB6F89487
:1008C000DEBF0FBECDBF2E833F83488759876A871F
:1008D000DC015296ED91FC91309771F585E0FE01B7
:1008E0003696DE01119601900D928A95E1F70091FE
:1008F0002503109126030115110531F1D801ED9161
:10090000FC910284F385E02D29813A814B815C8141
:100910006D81C8010995882311F1B80185E293E042
:100920002A960FB6F894DEBF0FBECDBFDF91CF91F0
:100930001F910F910C9410044E815F816885798519
:100940008A850995882351F22A960FB6F894DEBF5E
:100950000FBECDBFDF91CF911F910F910895F80188
:1009600002811381C8CFEF92FF920F931F93CF9311
:10097000DF93D42FC52F162F072FDC015096ED9152
:10098000FC913097C1F48D2F807F803B09F04AC0E5
:10099000C93781F5C0913503D09136032097C9F04E
:1009A000E881F9810680F781E02DCE0109950A8062
:1009B000DB81C02DF3CF642F752F812F902F0995E8
:1009C000882309F3DF91CF911F910F91FF90EF9052
:1009D0000895C0912D03D0912E03209799F3E881BB
:1009E000F9810680F781E02DCE0109950A80DB812F
:1009F000C02DF3CFE0903503F0903603CB3709F0EC
:100A000091C0C0913D03D0913E032097D9F2E88177
:100A1000F9810680F781E02DCE0109950A80DB81FE
:100A2000C02DF3CF813B60F5803949F0E090390368
:100A3000F0903A03803A09F455C0803819F6E090F6
:100A40003D03F0903E03E114F10409F4BBCFD7015C
:100A5000ED91FC910284F385E02D4D2F5C2F612FE9
:100A6000702FC70109958823B1F1B7018DE393E099
:100A7000DF91CF911F910F91FF90EF900C94100494
:100A8000803D09F470C0803E09F492C0803C09F0BA
:100A900099CFE0903103F0903203E114F10409F4AE
:100AA00091CFD701ED91FC910284F385E02D4D2F7C
:100AB0005C2F612F702FC7010995882309F44FC05F
:100AC000B70181E393E0DF91CF911F910F91FF90E8
:100AD000EF900C941004F701E280F380B4CFF7019B
:100AE000E280F380E114F10409F46CCFD701ED91B9
:100AF000FC910284F385E02D4D2F5C2F612F702F28
:100B0000C7010995882359F3B70189E393E0DF9181
:100B1000CF911F910F91FF90EF900C941004F7016B
:100B2000E280F380E114F10409F44CCFD701ED9198
:100B3000FC910284F385E02D4D2F5C2F612F702FE7
:100B4000C7010995882359F3B70185E393E0DF9145
:100B5000CF911F910F91FF90EF900C941004F7012B
:100B6000E280F3809ACFE0902D03F0902E03E11401
:100B7000F10409F427CFD701ED91FC910284F385AC
:100B8000E02D4D2F5C2F612F702FC7010995882311
:100B900059F0B7018DE293E0DF91CF911F910F9152
:100BA000FF90EF900C941004F701E280F380DFCF08
:100BB000E0902903F0902A03E114F10409F402CF34
:100BC000D701ED91FC910284F385E02D4D2F5C2F30
:100BD000612F702FC7010995882359F0B70189E269
:100BE00093E0DF91CF911F910F91FF90EF900C94C4
:100BF0001004F701E280F380DFCFDC0118968D91BD
:100C00009C91009739F0DC01ED91FC910284F38511
:100C1000E02D09940895DC0118968D919C91009720
:100C200039F0DC01ED91FC910084F185E02D09940F
:100C30000895CF93DF93CDB7DEB72A970FB6F89418
:100C4000DEBF0FBECDBF2E833F83488759876A879B
:100C500025E0FE013696DE01119601900D922A954F
:100C6000E1F7DC0118968D919C910097A1F0DC01D1
:100C7000ED91FC910680F781E02D29813A814B812D
:100C80005C816D812A960FB6F894DEBF0FBECDBF92
:100C9000DF91CF9109942A960FB6F894DEBF0FBE6C
:100CA000CDBFDF91CF910895DC0118968D919C9175
:100CB000009739F0DC01ED91FC910480F581E02D85
:100CC00009940895DC011A968D919C91009739F052
:100CD000DC01ED91FC910084F185E02D099490E018
:100CE00080E0089504970C946206DC0118968D91BB
:100CF0009C91009739F0DC01ED91FC910088F1891D
:100D0000E02D099490E080E00895EDE9F0E0249171
:100D1000E9E8F0E08491882399F090E0880F991F2A
:100D2000FC01E859FF4FA591B491FC01EE58FF4F2B
:100D3000859194918FB7F894EC91E22BEC938FBF4F
:100D400081E00E94180F62E370E080E090E00E9472
:100D5000600F80E00E94180F62E370E080E090E096
:100D60000E94600F81E00E94180F62E370E080E053
:100D700090E00E94600F80E00E94180F62E573E02F
:100D800080E090E00E94600FDBCFEF92FF920F9324
:100D90001F93CF93DF93EC018B017A0188899989A6
:100DA000009729F06817790711F00E948506198AC3
:100DB000188AEC85FD8580819181009781F02A85D4
:100DC0003B852E153F0559F4DC01ED91FC9106841D
:100DD000F785E02DAE014C5F5F4FB801099588851E
:100DE0009985009759F0DC01ED91FC910684F78517
:100DF000E02DAE014C5F5F4FB80109958A859B8558
:100E00000097D9F0E816F906C1F0DC01ED91FC91EC
:100E10000680F781E02DAE01B80109956A897B89CA
:100E20006115710551F08A859B85DC01ED91FC917E
:100E30000480F581E02DAE010995EE85FF85808166
:100E400091810097A9F09C012C5F3F4FE216F306B9
:100E500079F0DC01ED91FC91068CF78DE02DAE016F
:100E6000B801DF91CF911F910F91FF90EF900994FE
:100E7000DF91CF911F910F91FF90EF900895EF9226
:100E8000FF920F931F93CF93DF93EC018B017A01B5
:100E900088899989009729F06817790711F00E94CD
:100EA0008506198B088BEC85FD85808191810097E3
:100EB00081F02A853B852E153F0559F4DC01ED9123
:100EC000FC910484F585E02DAE014C5F5F4FB801C5
:100ED000099588859985009759F0DC01ED91FC9181
:100EE0000484F585E02DAE014C5F5F4FB801099594
:100EF0008A859B850097D9F0E816F906C1F06A89C2
:100F00007B896115710541F0DC01ED91FC91068052
:100F1000F781E02DAE0109958A859B85DC01ED9175
:100F2000FC910480F581E02DAE01B8010995EE85B4
:100F3000FF85808191810097A9F09C012C5F3F4F34
:100F4000E216F30679F0DC01ED91FC91048CF58D4D
:100F5000E02DAE01B801DF91CF911F910F91FF906D
:100F6000EF900994DF91CF911F910F91FF90EF9037
:100F700008951F93CF93DF93DC011296CD91DC91FE
:100F8000209749F0288939898A899B89211531055B
:100F900031F4009739F4DF91CF911F9108952F3FDD
:100FA0003F4F11F1019601F11BE088899989009763
:100FB00021F42A893B89232B71F3115061F30097A7
:100FC00039F0DC01ED91FC910680F781E02D099567
:100FD0008A899B89009749F3DC01ED91FC91068099
:100FE000F781E02D0995E1CF0E9485068F929F92AF
:100FF000AF92BF92EF92FF920F931F93CF93DF9325
:10100000CDB7DEB764970FB6F894DEBF0FBECDBF85
:101010007C01633009F4C7C0B0F46130D1F16230B3
:1010200009F46FC064960FB6F894DEBF0FBECDBF53
:10103000DF91CF911F910F91FF90EF90BF90AF90F4
:101040009F908F900895643009F45BC0653051F72C
:10105000FC0184889588A688B78886819781892B2A
:1010600061F0C70104960E94B907B501A401D70138
:1010700016968D919C910E949203F7018089918927
:10108000009781F2DC01ED91FC910480F581E02D67
:1010900024C0DC0154968D909D90AD90BC905797E4
:1010A00016968D919C91892B59F0C70104960E9448
:1010B000B907B501A401F701868197810E94E10378
:1010C000D70150968D919C91009709F4ABCFDC012C
:1010D000ED91FC910190F081E02DA5019401B70103
:1010E00064960FB6F894DEBF0FBECDBFDF91CF91EF
:1010F0001F910F91FF90EF90BF90AF909F908F90B6
:101100000994F701E656FF4F808191819701265E91
:101110003F4F3C872B879E878D878F85807F8F876A
:1011200085E0FE013B96DE01509601900D928A9576
:10113000E1F785E0FE017096DE01169601900D92B2
:101140008A95E1F785E0FE013696DE011196019061
:101150000D928A95E1F7F70186819781892B79F0C5
:10116000C70104960E94B90729813A814B815C81AD
:101170006D81D70116968D919C910E94B203F70163
:1011800080899189009709F44DCFDC01ED91FC91A4
:101190000280F381E02D0E811F81288539854A85E3
:1011A000B70109953FCFFC01008D118D8681978194
:1011B000009719F0B8010E947803D70150968D91DD
:1011C0009C91009709F42ECFDC01ED91FC910680F3
:1011D000F781E02DA801B70164960FB6F894DEBF41
:1011E0000FBECDBFDF91CF911F910F91FF90EF9078
:1011F000BF90AF909F908F900994CF92DF92EF9223
:10120000FF921F93CF93DF93EC010496BE01625FC0
:101210007F4F209711F470E060E00E9401048FB7C7
:10122000F894C0901703D0901803E0901903F09041
:101230001A038FBF2FB7F89480911703909118036A
:10124000A0911903B0911A032FBF8C199D09AE0903
:10125000BF09843F9140A105B10560F4CE010E9411
:101260003103182F682FCE010E94F6071430B9F20F
:10127000123001F7DF91CF911F91FF90EF90DF9037
:10128000CF900895CF92DF92EF92FF920F931F932A
:10129000CF93DF93EC016C0184E0C80ED11CEE818A
:1012A000FF81309739F1008911890115110509F085
:1012B00046C002891389209709F5F12CE12C22C040
:1012C00001E038C0002309F43FC08E819F81009760
:1012D000D9F1DC01ED91FC910484F585E02DA601A6
:1012E000B701DF91CF911F910F91FF90EF90DF90A9
:1012F000CF90099410E000E0209739F07E01AEE035
:10130000EA0EF11CE016F10629F4B801C6010E94AC
:1013100001047801CE010E943103182F00E011234F
:1013200089F2612FCE010E94F607143049F2123083
:1013300009F400E0CE010E943103182FF0CFF12C08
:10134000E12C2097D9F6E6CFDF91CF911F910F9135
:10135000FF90EF90DF90CF900895FC0122813381C0
:101360002115310569F4FB0122853385232B11F00A
:101370000E94850693878287FC01738362830895A8
:10138000C9010496EACFFC01228133812115310580
:1013900069F4FB0120853185232B11F00E9485061D
:1013A00091878087FC01738362830895C901EBCF25
:1013B000CF93DF93EC01888599850097F1F0EE8556
:1013C000FF856081718161157105B9F0DC011296AC
:1013D000ED91FC911397309731F01186108613969A
:1013E0001C921E921297EA81FB81309721F01186A0
:1013F00010861B821A820E94C3098A859B850097EA
:10140000F1F0EC85FD856081718161157105B9F0A0
:10141000DC011296ED91FC911397309731F0138611
:10142000128613961C921E921297EE81FF813097BE
:1014300021F0138612861F821E820E94AD09E88564
:10144000F985309751F0A281B381109731F0199648
:101450001C921E92189713821282EA85FB853097A0
:1014600051F0A281B381109731F01B961C921E920D
:101470001A9713821282EE85FF8580819181892BD4
:1014800031F4EC85FD8580819181892B11F00E94DA
:101490008506DF91CF910895CF93DF93EC018A8188
:1014A0009B81009749F004960E944C0A8A819B8197
:1014B0000E94D8091B821A82DF91CF91089522E2FF
:1014C00031E0FC01318320830C944C0ACF93DF93ED
:1014D000EC018A819B81009741F00E94660A8A8113
:1014E0009B810E94D8091B821A82DF91CF910895B7
:1014F000CF93DF93EC018AE891E09983888380EAB7
:1015000091E09D838C83CE018C960E942910CE01A0
:1015100048960E9429108DE092E09983888383E2A7
:1015200092E09D838C83CE0104960E945F0A80E343
:1015300091E099838883CE01DF91CF910C94660A64
:1015400004970C94780ABC01611580E87807B1F122
:10155000A0914103B09142036A317105D0F4862F06
:101560006E3010F082EF860F8770806480937C006D
:1015700080917A00806480937A0080917A0086FD61
:10158000FCCF90917800809179008927982789274E
:1015900008951097B1F018968D919C91199768173E
:1015A000790778F01A962D913C911B976217730773
:1015B00050F012960D90BC91A02DEBCF90E080E002
:1015C00008950E948506681B790BED91FC91119797
:1015D0000488F589E02DCD010994EF92FF920F93D5
:1015E0001F93CF93DF93EC018E819F810E94A30A0A
:1015F0009C0174E0220F331F7A95E1F7E6E096959F
:101600008795EA95E1F7282B392B8A859B85280F4A
:10161000391FC90102969695879596958795281B3F
:10162000390B3B872A87E885F985309709F00995BA
:101630004C855D859A013695322F2227379527955F
:1016400020644115510549F0B9016F5771094F3FA9
:101650005140B0F58617970728F021583F4F2817BB
:10166000390788F5880F892F881F990B91959D87D9
:101670008C875E85DF8550FF26C0E0908D03F0905B
:101680008E030D2F0F70152F1695006BC82FCF7777
:10169000D295DF70F70186819781892BA1F0C70170
:1016A00004960E94B907A801BE01F70186819781BF
:1016B000DF91CF911F910F91FF90EF900C94E10378
:1016C0008617970778F2DF91CF911F910F91FF90C6
:1016D000EF900895CF93DF93EC018E819F810E945C
:1016E000A30A9C0144E0220F331F4A95E1F756E01C
:1016F000969587955A95E1F7822B932B9C01220FA3
:10170000331F220F331F281B390B3B872A87880F73
:10171000892F881F990B91959D878C87DF91CF9199
:1017200008950496089502960895059608950296E0
:1017300008950396089502960895089508950895CA
:10174000CF93DF93AC01FB01C481D581209721F0B9
:10175000828193819B838A83DA0112968D919C9179
:1017600013978E179F0721F41396DC93CE9312974D
:1017700082819381009729F0DC011596DC93CE934A
:101780001497DA012D913C9111972E173F0711F410
:101790008D939C931582148213821282DF91CF91D4
:1017A0000895CF92DF92EF92FF92CF93DF93FC01E7
:1017B000C289D3898E559F4FFC01C080D180E280C1
:1017C000F380E889F98982E08083C114F1EEDF06B5
:1017D000E104F104A1F060E079E08DE390E0A7017D
:1017E00096010E946C142150310941095109569506
:1017F000479537952795211580E1380798F0E889B6
:10180000F989108260E874E88EE190E0A701960102
:101810000E946C1421503109410951095695479590
:1018200037952795EC85FD853083EE85FF852083F0
:10183000188EEC89FD8986E08083EA89FB898081A6
:1018400080618083EA89FB89808188608083EA895E
:10185000FB89808180688083EA89FB8980818F7D14
:101860008083DF91CF91FF90EF90DF90CF9008952C
:1018700008970C94D10BFC018FEA91E0918380834F
:101880003097A1F080918F0390919003E817F907AA
:1018900041F082819381892B21F484819581892B68
:1018A00029F0BF018FE893E00C94A00B0895FC0190
:1018B0008EE091E0918380833097A1F080912103A5
:1018C00090912203E817F90741F082819381892BD7
:1018D00021F484819581892B29F0BF0181E293E075
:1018E0000C94A00B0895811520E4920710F08FEF5F
:1018F0009FE308950C94730CCF93DF93EC0183EC7A
:1019000091E09983888387EE91E09D838C8385EFB6
:1019100091E09987888781E092E09F878E87809108
:101920001F0390912003009749F420919103309177
:1019300092032115310511F0C9010897C817D9077D
:1019400021F41092200310921F0387EB91E09987F6
:101950008887CE0108960E943B0C8DE092E0998327
:10196000888383E292E09D838C83CE0104960E945B
:101970005F0A80E391E099838883CE01DF91CF9164
:101980000C94660A21E332E0FC013183208327E5D1
:1019900032E03583248325E632E03187208721E752
:1019A00032E0378726870C947C0C08970C94C20C85
:1019B00004970C94C20C0E970C94C20C2DE732E0E5
:1019C000FC013183208323EA32E03583248321EB39
:1019D00032E0318720872DEB32E0378726870C9461
:1019E000C20C08970C94DE0C04970C94DE0C0E9736
:1019F0000C94DE0C29EC32E0FC01318320832FEEC5
:101A000032E0358324832DEF32E03187208729E0CF
:101A100033E0378726870C94DE0C04970C94FA0C7D
:101A200008970C94FA0C0E970C94FA0C04970C94EB
:101A30007C0C08970C947C0C0E970C947C0C0895ED
:101A400027EB31E0FC01318320830C94570C26E115
:101A500031E0FC01318320830C94200D683F38F085
:101A6000DC01ED91FC91048CF58DE02D0994089535
:101A7000242F287F203F59F4403F49F06F77DC0145
:101A8000ED91FC91008CF18DE02D5F770994089524
:101A9000CF93DF93CDB7DEB72A970FB6F894DEBFAA
:101AA0000FBECDBF2E833F83488759876A8725E0C5
:101AB000FE013696DE01119601900D922A95E1F70E
:101AC00028853985232BA1F0DC01ED91FC91028C56
:101AD000F38DE02D29813A814B815C816D812A96BD
:101AE0000FB6F894DEBF0FBECDBFDF91CF91099442
:101AF0002A960FB6F894DEBF0FBECDBFDF91CF910F
:101B0000089520E8240F203748F46F77DC01ED9129
:101B1000FC910688F789E02D5F7709940895089570
:101B200081E193E00895089508950E94B915CF9337
:101B3000DF93EC010E943B0CCE01DF91CF910C941E
:101B40003015CF93DF93EC010E945F0ACE01DF9145
:101B5000CF910C943015CF93DF93EC010E94780A5B
:101B6000CE01DF91CF910C94301504970C94AB0DFE
:101B7000CF93DF93EC010E94270DCE01DF91CF912F
:101B80000C9430150C9430150C9430150C943015C1
:101B9000CF93DF93EC010E94FA0CCE01DF91CF913D
:101BA0000C94301504970C94C80D08970C94C80D2C
:101BB0000E970C94C80DCF93DF93EC010E94570C45
:101BC000CE01DF91CF910C943015CF93DF93EC01D0
:101BD0000E94DE0CCE01DF91CF910C9430150E9750
:101BE0000C94E50D08970C94E50D04970C94E50D05
:101BF000CF93DF93EC010E94C20CCE01DF91CF9115
:101C00000C9430150E970C94F80D08970C94F80D61
:101C100004970C94F80DCF93DF93EC010E947C0C99
:101C2000CE01DF91CF910C9430150E970C940B0ED2
:101C300008970C940B0E04970C940B0ECF93DF9324
:101C4000EC010E94200DCE01DF91CF910C94301554
:101C50001F920F920FB60F9211242F933F934F9321
:101C60005F936F937F938F939F93AF93BF93EF9304
:101C7000FF9383E993E00E940601FF91EF91BF91EA
:101C8000AF919F918F917F916F915F914F913F9114
:101C90002F910F900FBE0F901F9018951F920F92CB
:101CA0000FB60F9211242F938F939F93EF93FF936F
:101CB000E091A303F091A4038081E091A903F09146
:101CC000AA0382FD1BC090818091AC038F5F8F734C
:101CD0002091AD03821741F0E091AC03F0E0ED56A6
:101CE000FC4F958F8093AC03FF91EF919F918F9163
:101CF0002F910F900FBE0F901F9018958081F4CFF9
:101D00001F920F920FB60F9211242F933F938F9330
:101D10009F93AF93BF938091170390911803A09165
:101D20001903B0911A033091160323E0230F2D37C6
:101D300058F50196A11DB11D20931603809317033A
:101D400090931803A0931903B0931A0380911B0377
:101D500090911C03A0911D03B0911E030196A11D3B
:101D6000B11D80931B0390931C03A0931D03B0939C
:101D70001E03BF91AF919F918F913F912F910F9033
:101D80000FBE0F901F90189526E8230F0296A11DF5
:101D9000B11DD2CF1F920F920FB60F9211242F9325
:101DA0003F934F935F936F937F938F939F93AF93E3
:101DB000BF93EF93FF93E0910201F0910301099526
:101DC000FF91EF91BF91AF919F918F917F916F9113
:101DD0005F914F913F912F910F900FBE0F901F90E9
:101DE00018951F920F920FB60F9211242F933F93C5
:101DF0004F935F936F937F938F939F93AF93BF9313
:101E0000EF93FF93E0910001F09101010995FF919B
:101E1000EF91BF91AF919F918F917F916F915F9162
:101E20004F913F912F910F900FBE0F901F901895DB
:101E3000E1EBF0E02491EDE9F0E09491E9E8F0E0E5
:101E4000E491EE23C9F0222339F0233001F1A8F404
:101E5000213019F1223029F1F0E0EE0FFF1FEE588A
:101E6000FF4FA591B4912FB7F894EC91811126C042
:101E700090959E239C932FBF08952730A9F028307A
:101E8000C9F0243049F7209180002F7D03C02091B4
:101E900080002F7720938000DFCF24B52F7724BDDB
:101EA000DBCF24B52F7DFBCF2091B0002F7720937F
:101EB000B000D2CF2091B0002F7DF9CF9E2BDACF8A
:101EC0008F929F92AF92BF92CF92DF92EF92FF924A
:101ED0004B015C010E9495016B017C010E94950100
:101EE0006C197D098E099F09683E73408105910533
:101EF000A8F321E0821A9108A108B10888EEC80E63
:101F000083E0D81EE11CF11C81149104A104B104EA
:101F100029F7FF90EF90DF90CF90BF90AF909F9008
:101F20008F9008950F931F93CF93DF93EC018B0154
:101F3000888599858417950709F5198A188A8A85ED
:101F40009B85009741F0DC01ED91FC910680F781C3
:101F5000E02DAE010995EE85FF8580819181009786
:101F600001F1DC01ED91FC91068CF78DE02DAE01C5
:101F7000B801DF91CF911F910F9109946A897B89F4
:101F80006017710771F41B8A1A8A8A859B850097EE
:101F900041F0DC01ED91FC910680F781E02DAE016E
:101FA000E8CFDF91CF911F910F91089504970C9482
:101FB000920F0F931F93CF93DF93EC018885998540
:101FC0008417950711F58B01798B688B8A859B8522
:101FD000009741F0DC01ED91FC910480F581E02D4A
:101FE000AE010995EE85FF85808191810097F9F01A
:101FF000DC01ED91FC91048CF58DE02DAE01B80172
:10200000DF91CF911F910F9109948A899B89892B28
:1020100071F47B8B6A8B8A859B85009741F0DC018C
:10202000ED91FC910480F581E02DAE01E9CFDF91C7
:10203000CF911F910F91089504970C94D90F0E978B
:102040000C94FD080C94FD080C94420908970C941C
:102050004209CF93DF93EC0188E591E0998388836F
:102060008CE791E09D838C83CE010E94D809CE013C
:1020700004960E945F0A80E391E099838883CE01F1
:10208000DF91CF910C94660A04970C942910FC01FF
:1020900013821282158214828EE091E091838083F4
:1020A0008091210390912203892B21F4F093220344
:1020B000E0932103A0912303B0912403B583A4836B
:1020C000109721F01396FC93EE931297F09324034C
:1020D000E09323031382128277836683118610862E
:1020E00013861286158614865787468786E191E007
:1020F0009183808308950F931F93109296031092FB
:10210000950388EE93E0A0E0B0E08093970390936E
:102110009803A0939903B0939A0386E491E0909377
:1021200094038093930385EC90E09093A0038093B5
:102130009F0384EC90E09093A2038093A10380EC32
:1021400090E09093A4038093A30381EC90E090939C
:10215000A6038093A50382EC90E09093A80380935C
:10216000A70386EC90E09093AA038093A9031092B2
:10217000AC031092AD031092AE031092AF038091A6
:1021800085038111ADC0109248031092470310924D
:102190004C0310924B038AE891E09093460380939E
:1021A000450380EA91E090934A03809349038AE1D2
:1021B00091E4A0E0B0E080934D0390934E03A09390
:1021C0004F03B09350031092510310925203109298
:1021D0005303109254030E94950100914D031091F6
:1021E0004E0320914F0330915003601B710B820B03
:1021F000930B609351037093520380935303909316
:1022000054031092560310925503109258031092E3
:10221000570310925A031092590310925C031092C4
:102220005B031092600310925F031092640310929C
:10223000630328E531E030935E0320935D038CE770
:1022400091E0909362038093610310926603109271
:102250006503109268031092670343E653E05093BE
:102260006A03409369034FE553E050936C03409336
:102270006B0310926E0310926D0310927003109214
:102280006F031092740310927303109278031092EC
:1022900077033093720320937103909376038093B6
:1022A000750310927A031092790310927C031092B6
:1022B0007B0387E793E090937E0380937D0383E71E
:1022C00093E09093800380937F0310928203109297
:1022D0008103109284031092830381E0809385032D
:1022E00085E493E090938E0380938D0310925504C0
:1022F00010925404109259041092580480918F0344
:1023000090919003892B31F48AE594E090939003A7
:1023100080938F03E0919103F0919203F0935F0417
:10232000E0935E04309721F08AE594E09383828302
:102330008AE594E0909392038093910310925D0458
:1023400010925C04109263041092620483E993E09B
:1023500090936504809364048091AA0110926604AE
:1023600010926704109268048093690410926A04C2
:1023700080916B04807F80936B041092ED04109227
:10238000EC041092EE0481E08093EF041092F004CC
:102390001092F1041092F2048FEF8093F30482E123
:1023A0009AE7A0E0B0E08093F4049093F504A09342
:1023B000F604B093F70489EC92E090935304809371
:1023C00052048FEE92E090935704809356048DEF61
:1023D00092E090935B0480935A0489E093E0909399
:1023E00061048093600443E054E06EE070E081E4B7
:1023F00094E00E94471047E154E06FE070E080E312
:1024000094E01F910F910C944710789484B58260EA
:1024100084BD84B5816084BD85B5826085BD85B588
:10242000816085BD80916E00816080936E00109206
:102430008100809181008260809381008091810081
:102440008160809381008091800081608093800012
:102450008091B10084608093B1008091B000816070
:102460008093B00080917A00846080937A0080919C
:102470007A00826080937A0080917A0081608093F4
:102480007A0080917A00806880937A001092C1006F
:1024900083E79CE090934A04809349048AE79CE098
:1024A000909339048093380482E594E00E94D10B24
:1024B000C0918D03D0918E038E819F81892B89F5E8
:1024C0008A819B81892B69F500911F03109120035C
:1024D0000115110561F4009191031091920301150A
:1024E000110519F00850110911F40E9485067E01AA
:1024F00088E1E80EF11CB701CE010E94C309B701C3
:10250000C80104960E94AD097E01ACE2EA0EF11CFE
:10251000B701CE0104960E94AD09B701C8010E941F
:10252000C30900914103109142030115110561F0A7
:10253000D801ED91FC91008CF18DE02DC801099539
:10254000F80102811381F1CF00918F031091900364
:102550000115110561F0D801ED91FC910480F58120
:10256000E02DC8010995F80102811381F1CF009196
:102570003D0310913E030115110561F0D801ED9165
:10258000FC910480F581E02DC8010995F8010281D4
:102590001381F1CF0091390310913A030115110510
:1025A00061F0D801ED91FC910480F581E02DC80126
:1025B0000995F80102811381F1CF00913503109143
:1025C00036030115110561F0D801ED91FC910480ED
:1025D000F581E02DC8010995F80102811381F1CF41
:1025E00000913103109132030115110561F0D801FA
:1025F000ED91FC910480F581E02DC8010995F80169
:1026000002811381F1CF00912D0310912E0301154A
:10261000110561F0D801ED91FC910480F581E02D68
:10262000C8010995F80102811381F1CF00912903B6
:1026300010912A030115110561F0D801ED91FC916B
:102640000480F581E02DC8010995F801028113810C
:10265000F1CF00912503109126030115110561F0BA
:10266000D801ED91FC910480F581E02DC801099518
:10267000F80102811381F1CF00912103109122030F
:102680000115110561F0D801ED91FC910480F581EF
:10269000E02DC8010995F80102811381F1CF0E9454
:1026A0009501088519852A853B85601B710B820B76
:1026B000930B6C877D878E879F8700E010E082E513
:1026C00094E00E944209E0908D03F0908E03C09147
:1026D0004103D0914203209759F0E881F981048C9D
:1026E000F58DE02DCE0109950A80DB81C02DF3CF59
:1026F000C0912103D0912203209759F0E881F981FC
:102700000680F781E02DCE0109950A80DB81C02D7E
:10271000F3CFC0918F03D0919003209759F0E881B7
:10272000F9810680F781E02DCE0109950A80DB81D1
:10273000C02DF3CFC0913D03D0913E03209759F0B7
:10274000E881F9810084F185E02DCE0109950A80A8
:10275000DB81C02DF3CFC0913903D0913A0320978C
:1027600059F0E881F9810084F185E02DCE010995C9
:102770000A80DB81C02DF3CFC0913503D0913603A1
:10278000209759F0E881F9810084F185E02DCE0190
:1027900009950A80DB81C02DF3CFC0913103D09120
:1027A0003203209759F0E881F9810084F185E02D0A
:1027B000CE0109950A80DB81C02DF3CFC0912D0396
:1027C000D0912E03209759F0E881F9810084F1859A
:1027D000E02DCE0109950A80DB81C02DF3CFC09199
:1027E0002903D0912A03209759F0E881F9810084C8
:1027F000F185E02DCE0109950A80DB81C02DF3CF54
:10280000C0912503D0912603209759F0E881F981E2
:102810000084F185E02DCE0109950A80DB81C02D71
:10282000F3CF0E949501D7011C964D905D906D905D
:102830007C901F9718968D909D90AD90BC901B97A3
:10284000AB01BC01441955096609770948155905BA
:102850006A057B0558F0D301C201880D991DAA1D98
:10286000BB1DF70184879587A687B787C091410371
:10287000D0914203209759F0E881F981028CF38DC1
:10288000E02DCE0109950A80DB81C02DF3CF011523
:10289000110509F414CF0E94F200882309F40FCF28
:1028A0000E9400000CCFCF93DF93EC010E9429100F
:1028B000CE01DF91CF910C94301504970C945314F2
:1028C00080E394E00E94270D81E494E00E94270DAC
:1028D00082E594E00C94FA0CA1E21A2EAA1BBB1B11
:1028E000FD010DC0AA1FBB1FEE1FFF1FA217B307DC
:1028F000E407F50720F0A21BB30BE40BF50B661FF2
:10290000771F881F991F1A9469F7609570958095B5
:1029100090959B01AC01BD01CF010895EE0FFF1F03
:102920000590F491E02D09940F931F93CF93DF93BB
:102930008230910510F482E090E0E091FA04F09189
:10294000FB0430E020E0B0E0A0E0309799F42115DE
:10295000310509F44AC0281B390B24303105D8F55C
:102960008A819B816115710589F1FB0193838283C3
:10297000FE0111C04081518102811381481759071E
:10298000E0F04817590799F4109761F012960C93EC
:10299000129713961C933296CF01DF91CF911F911E
:1029A0000F9108950093FA041093FB04F4CF2115BE
:1029B000310551F04217530738F0A901DB019A01A4
:1029C000BD01DF01F801C1CFEF01F9CF9093FB0406
:1029D0008093FA04CDCFFE01E20FF31F8193919310
:1029E0002250310939832883D7CF2091F8043091C0
:1029F000F904232B41F42091060130910701309313
:102A0000F9042093F8042091040130910501211567
:102A1000310541F42DB73EB74091080150910901AD
:102A2000241B350BE091F804F091F904E217F30749
:102A3000A0F42E1B3F0B2817390778F0AC014E5F2E
:102A40005F4F2417350748F04E0F5F1F5093F9046E
:102A50004093F804819391939FCFF0E0E0E09CCF06
:102A6000CF93DF930097E9F0FC0132971382128233
:102A7000A091FA04B091FB04ED0130E020E0109742
:102A8000A1F420813181820F931F2091F8043091AD
:102A9000F9042817390709F061C0F093F904E093AD
:102AA000F804DF91CF910895EA01CE17DF07E8F52A
:102AB0004A815B819E0141155105B1F7E901FB8314
:102AC000EA8349915991C40FD51FEC17FD0761F4B2
:102AD000808191810296840F951FE90199838883F3
:102AE000828193819B838A83F0E0E0E012968D914E
:102AF0009C9113970097B9F52D913C911197CD01B9
:102B00000296820F931F2091F8043091F904281740
:102B1000390739F6309751F51092FB041092FA04F8
:102B2000B093F904A093F804BCCFD383C28340814F
:102B30005181840F951FC817D90761F44E5F5F4F0D
:102B400088819981480F591F518340838A819B81D5
:102B5000938382832115310509F0B0CFF093FB04F4
:102B6000E093FA049ECFFD01DC01C0CF13821282F4
:102B7000D7CF81E090E0F8940C94BE1510E0CDE53D
:102B8000D0E004C0FE010E948E142196CE35D107FC
:102B9000C9F7F894FFCFBA01BA010000FC04800025
:102BA00000000000570CDB0D00000000270DB80DE1
:102BB0006A0BED0A000000005F0AA10D940D940D50
:102BC000930D0000000000000000950D950D950D7F
:102BD000950D940D940D930D0000000028018800C0
:102BE000B5007501E600C400D800000000002910FF
:102BF0005314540619060B06FD053F07C506750656
:102C0000540619060B06FD056206D90F920FFCFF4C
:102C1000000044105D141C10D60F72060000000066
:102C2000780AAB0DB30457044D044404940D940D7D
:102C3000930DFCFF0000A00AB50D940D940D930DAB
:102C400000000000003B0C970D0000000000000099
:102C500000950D950D0000000000000000810D485A
:102C60000D380D2E0D940D940D930D1F0D950D9592
:102C70000D950D950D950D950DFCFF0000000000C4
:102C800000940D940D930DF8FF0000000000008FDC
:102C90000D950DF2FF000000000000900D950D0055
:102CA00000000000000000950D950D950D950D9408
:102CB0000D940D930DFCFF000000000000940D9496
:102CC0000D930D00000000C20CF80D810D480D3869
:102CD0000D2E0D940D940D930DD10B2410F602C002
:102CE000029E0293021F0D2210FCFF0000D80C0868
:102CF0000E940D940D930DF8FF0000D50C050E38C1
:102D00000C2610F2FF0000DB0C020E900D1F1000CD
:102D1000000000DE0CE50D810D480D380D2E0D94E0
:102D20000D940D930DD10B2410F602C0029E029358
:102D3000021F0D2210FCFF0000F40CF50D940D9401
:102D40000D930DF8FF0000F10CF20D380C2610F277
:102D5000FF0000F70CEF0D900D1F1000000000FAAF
:102D60000CC80D810D480D380D2E0D940D940D934A
:102D70000DD10B2410F602C0029E0293021F0D22F9
:102D800010FCFF00000D0DD20D940D940D930DF865
:102D9000FF0000100DD50D380C2610F2FF000013B7
:0C2DA0000DD80D900D1F103C3F3E0000B0
:107E0000112484B714BE81FFF0D085E080938100F7
:107E100082E08093C00088E18093C10086E0809377
:107E2000C20080E18093C4008EE0C9D0259A86E02C
:107E300020E33CEF91E0309385002093840096BBD3
:107E4000B09BFECF1D9AA8958150A9F7CC24DD24C4
:107E500088248394B5E0AB2EA1E19A2EF3E0BF2EE7
:107E6000A2D0813461F49FD0082FAFD0023811F036
:107E7000013811F484E001C083E08DD089C08234E0
:107E800011F484E103C0853419F485E0A6D080C0E4
:107E9000853579F488D0E82EFF2485D0082F10E0AE
:107EA000102F00270E291F29000F111F8ED06801E7
:107EB0006FC0863521F484E090D080E0DECF843638
:107EC00009F040C070D06FD0082F6DD080E0C81688
:107ED00080E7D80618F4F601B7BEE895C0E0D1E017
:107EE00062D089930C17E1F7F0E0CF16F0E7DF06D8
:107EF00018F0F601B7BEE89568D007B600FCFDCFD4
:107F0000A601A0E0B1E02C9130E011968C91119780
:107F100090E0982F8827822B932B1296FA010C0160
:107F200087BEE89511244E5F5F4FF1E0A038BF0790
:107F300051F7F601A7BEE89507B600FCFDCF97BE46
:107F4000E89526C08437B1F42ED02DD0F82E2BD052
:107F50003CD0F601EF2C8F010F5F1F4F84911BD097
:107F6000EA94F801C1F70894C11CD11CFA94CF0C13
:107F7000D11C0EC0853739F428D08EE10CD085E9AC
:107F80000AD08FE07ACF813511F488E018D01DD067
:107F900080E101D065CF982F8091C00085FFFCCF94
:107FA0009093C60008958091C00087FFFCCF809118
:107FB000C00084FD01C0A8958091C6000895E0E648
:107FC000F0E098E1908380830895EDDF803219F02E
:107FD00088E0F5DFFFCF84E1DECF1F93182FE3DFCA
:107FE0001150E9F7F2DF1F91089580E0E8DFEE27F6
:047FF000FF270994CA
:027FFE00040479
:00000001FF
